:020000040000FA
:04000000B5EF7FF0E9
:040008001CEF04F0F5
:08001800B6EF04F0096EF80BCD
:10002000E830E830E830E926D8B0EA2A32EC00F0CF
:10003000096EEF14F6EF00F00950D8A0E86AEF1847
:100040000914EF1AF6EF00F004009EA8FDD7AD6E7C
:10005000D880F6EF00F00400A4A8FDD7796ED88010
:10006000F6EF00F0010E09B0E84409B2E84409B225
:10007000E84409B4E838120002500110D8B4012A4B
:10008000800E01B8021A01B4021A01B2021A023437
:1000900001360236F6EF00F07F6A7F807350744AB3
:1000A000752AF6EF00F0E86A736E7F6A7F84550E5A
:1000B0007E6EAA0E7E6E7F827FB2FED77F94744AD8
:1000C000752AF6EF00F0046A036EE86A0306045A24
:1000D000D8A0F6EF00F0030E026EE70E02D8F5D7B7
:1000E000026AFE0F016EE86A025AD8A012000400EC
:1000F000010600D0F8D7D89001360236FF0FFBE298
:100100000150F6EF00F0D89002320132FF0FFBE20F
:100110000150F6EF00F0046A036E020E15D0026A79
:10012000046A036E030E10D0026A046A036E010EA5
:100130000BD0036E060E08D0026A046A036E040E2A
:1001400003D0046A036E050E096E0450025C02E1DE
:100150000350015C040ED8B0010ED8B4020E09148D
:10016000D8A4FF0EF6EF00F0E866FF0E0114D8A445
:10017000FF0EF6EF00F00110D8A4FF0EF6EF00F02E
:10018000066A056A100E076E0234053606360350FD
:10019000055E0450065A05E2035005260450062267
:1001A000D89001360236072EEFD70150F6EF00F057
:1001B00003500702F3CF05F0F4CF06F00450080215
:1001C000F3CF01F0F4CF02F00702F3500626F4500B
:1001D0000122E86A022203500802F3500626F45076
:1001E0000122E86A02220550F6EF00F00001040047
:1001F0001200030EAF6E200EAC6E900EAB6E030EAF
:100200007B6E200EBA6E900EA66E226A08EF01F089
:10021000389CEBEF01F0040038BC6AEF01F001C03C
:100220002DF702C02EF703C031F704C032F705C026
:1002300035F706C036F707C039F708C03AF709C0E6
:100240003DF70AC03EF70BC03FF70CC040F70DC0AA
:1002500041F70EC042F70FC043F710C044F711C07A
:1002600045F712C046F700C047F721C048F723C042
:1002700049F724C04AF725C04BF726C04CF7F8CF02
:100280006BF7F7CF6EF7F6CF6DF727C04DF728C0A5
:100290004EF7F3CF6FF7F4CF70F713C04FF714C0DA
:1002A00050F715C053F716C054F717C057F718C0CA
:1002B00058F719C05BF71AC05CF71BC05FF71CC08A
:1002C00060F71DC063F71EC064F71FC067F720C04A
:1002D00068F7388C22B474EF01F02FC0FBFF2EC0FA
:1002E000FAFF2D50E06AF96E2CC0FBFF2BC0FAFF1D
:1002F0002A50E06AF96E040038ACDAEF01F02DC73D
:1003000001F02EC702F031C703F032C704F035C741
:1003100005F036C706F039C707F03AC708F03DC701
:1003200009F03EC70AF03FC70BF040C70CF041C7C9
:100330000DF042C70EF043C70FF044C710F045C799
:1003400011F046C712F047C700F048C721F049C76F
:1003500023F04AC724F04BC725F04CC726F06BC7E3
:10036000F8FF6EC7F7FF6DC7F6FF4DC727F04EC702
:1003700028F06FC7F3FF70C7F4FF4FC713F050C7E3
:1003800014F053C715F054C716F057C717F058C7E5
:1003900018F05BC719F05CC71AF05FC71BF060C7A5
:1003A0001CF063C71DF064C71EF067C71FF068C765
:1003B00020F0389C22B4E4EF01F02FC0FBFF2EC0E8
:1003C000FAFF2D50E06AF96E2CC0FBFF2BC0FAFF3C
:1003D0002A50E06AF96E389ECEEF02F0040038BE73
:1003E0004DEF02F001C071F702C072F703C075F75C
:1003F00004C076F705C079F706C07AF707C07DF725
:1004000008C07EF709C081F70AC082F70BC083F7E6
:100410000CC084F70DC085F70EC086F70FC087F7B4
:1004200010C088F711C089F712C08AF700C08BF797
:1004300021C08CF723C08DF724C08EF725C08FF71D
:1004400026C090F7F8CFAFF7F7CFB2F7F6CFB1F7F6
:1004500027C091F728C092F7F3CFB3F7F4CFB4F7E2
:1004600013C093F714C094F715C097F716C098F708
:1004700017C09BF718C09CF719C09FF71AC0A0F7C8
:100480001BC0A3F71CC0A4F71DC0A7F71EC0A8F788
:100490001FC0ABF720C0ACF7388E22B457EF02F084
:1004A0002FC0FBFF2EC0FAFF2D50E06AF96E2CC062
:1004B000FBFF2BC0FAFF2A50E06AF96E040038AE49
:1004C000BDEF02F071C701F072C702F075C703F00B
:1004D00076C704F079C705F07AC706F07DC707F044
:1004E0007EC708F081C709F082C70AF083C70BF006
:1004F00084C70CF085C70DF086C70EF087C70FF0D4
:1005000088C710F089C711F08AC712F08BC700F0B6
:100510008CC721F08DC723F08EC724F08FC725F03C
:1005200090C726F0AFC7F8FFB2C7F7FFB1C7F6FF15
:1005300091C727F092C728F0B3C7F3FFB4C7F4FF01
:1005400093C713F094C714F097C715F098C716F027
:100550009BC717F09CC718F09FC719F0A0C71AF0E7
:10056000A3C71BF0A4C71CF0A7C71DF0A8C71EF0A7
:10057000ABC71FF0ACC720F0389E22B4C7EF02F023
:100580002FC0FBFF2EC0FAFF2D50E06AF96E2CC081
:10059000FBFF2BC0FAFF2A50E06AF96E0F015D6B7A
:1005A0005C6B3F0E926EEB0E936EBD0E946ECF0E93
:1005B000956EF90E966E82829492828494948482CF
:1005C0009692849496943990818493948398959884
:1005D000A79AA786A7987D6A560EAF6E100EAB6ECF
:1005E000040EAC6EB99AB986B998010E7C6E030EF2
:1005F0007B6E100EA66E040EBA6E050ED56E1F0E23
:10060000CA6E506B369C369E37905B6A5C6A379632
:10061000C890C892C894C886C888C89AC89C280E32
:10062000C66EC78E379E0101076B36963880000173
:10063000DF6B0101086B00010400080E0101085D79
:100640000001D8B054EF03F0330EE96EEA6A0101FD
:100650000851000F00010EEC00F0D8901CEC00F0E7
:10066000320EE96EEA6A01010851000F00010EEC3A
:1006700000F0D8901CEC00F001010851370FE96E32
:10068000010EEA6AEA22EF6A340EE96EEA6A08515C
:10069000000F00010EEC00F0D8901CEC00F00101FE
:1006A000082B0001D8A0C8D7CE6B359E3596DA6BE3
:1006B000DB6BB66BB76B01010D6B0C6B0E6B0B6BD1
:1006C00000013AEC0AF0379C0101246B00010400A0
:1006D0001E0E0101245D0001D8B090EF03F001016E
:1006E0002451670FE96E010EEA6AEA22EF6824518D
:1006F000A30FE96E010EEA6AEA22EF682451C10FE6
:10070000E96E010EEA6AEA22EF682451850FE96E6C
:10071000010EEA6AEA22EF6A242B0001D8A0D7D79B
:100720000101246B00010400200E0101245D000181
:10073000D8B0B5EF03F0010124515F0FE96E020E4E
:10074000EA6AEA22EF6824513F0FE96E020EEA6A74
:10075000EA22EF682451DF0FE96E010EEA6AEA220D
:10076000EF68242B0001D8A0DED701010A6B368484
:10077000246B00010400140E0101245D0001D8B0B7
:10078000D5EF03F0010124513F0FE96E010EEA6A33
:10079000EA22EF682451530FE96E010EEA6AEA2259
:1007A000EF68242B0001D8A0E5D7359CCF6BCB6B2D
:1007B000D06B0101246B00010400460E0101245D91
:1007C0000001D8B0F0EF03F001012451AC0FE96E45
:1007D0000A0EEA6AEA22EF68242B0001D8A0ECD7BF
:1007E000948E949C839A959A338E329E01013E6B2F
:1007F000349E010E046E900E000164EC00F0E26B7A
:10080000E169B06BB16BBA6BBB6B5D6A200E576E62
:100810004E0E586E4C0EEC6FD769D869AE6BAF6B4D
:100820003690B26BB36BB86BB96B0101156B106B83
:1008300038980001B2EF04F0FBCF6FF0FACF6DF003
:10084000E9CF60F0EACF61F0E1CF64F0E2CF65F08C
:10085000D9CF68F0DACF69F022842290E06A9DAAAD
:1008600047EF04F09EAA47EF04F0228004007E0EBA
:100870002A6E080E2B6E000E2C6E0BEF01F08E0E02
:100880002A6E080E2B6E000E2C6E1BEF07F0E06A2E
:10089000A3AA60EF04F0A4AA60EF04F02280040091
:1008A000B00E2A6E080E2B6E000E2C6E0BEF01F0B0
:1008B000C00E2A6E080E2B6E000E2C6E9AEF07F0FB
:1008C000E06A76A07AEF04F077A07AEF04F0228055
:1008D0000400E20E2A6E080E2B6E000E2C6E0BEF3B
:1008E00001F0F20E2A6E080E2B6E000E2C6E18EF21
:1008F00008F07790E06A76A294EF04F077A294EF84
:1009000004F022800400160E2A6E090E2B6E000ED3
:100910002C6E0BEF01F0260E2A6E090E2B6E000EC8
:100920002C6EA2EF08F07792E06A22B02DEF04F06F
:10093000400E2A6E090E2B6E000E2C6E7BEF01F01E
:10094000229460C0E9FF61C0EAFF64C0E1FF65C0B6
:10095000E2FF68C0D9FF69C0DAFF6DC0FAFF6FC05F
:10096000FBFF1100F28EF28C3EEF05F0E8CF29F08C
:10097000D8CF71F0E0CF6CF0FBCF70F0FACF6EF013
:10098000E9CF62F0EACF63F0E1CF66F0E2CF67F043
:10099000D9CF6AF0DACF6BF02294E06A2292F2AA01
:1009A000E8EF04F0F2A4E8EF04F022820400BE0EA7
:1009B0002D6E090E2E6E000E2F6EEEEF01F0CE0E94
:1009C0002D6E090E2E6E000E2F6ECCEF07F0F294F6
:1009D000E06A9DA202EF05F09EA202EF05F02282DE
:1009E0000400F20E2D6E090E2E6E000E2F6EEEEF2D
:1009F00001F0020E2D6E0A0E2E6E000E2F6EE5EF28
:100A000007F09E92E06A9DA61BEF05F09EA61BEFE5
:100A100005F022820400260E2D6E0A0E2E6E000EA8
:100A20002F6EEEEF01F0360E2D6E0A0E2E6E000EBA
:100A30002F6EB7EF08F0E06A22B2CDEF04F04E0E51
:100A40002D6E0A0E2E6E000E2F6E5EEF02F062C04B
:100A5000E9FF63C0EAFF66C0E1FF67C0E2FF6AC06A
:100A6000D9FF6BC0DAFF70C0FBFF6EC0FAFF6CC02D
:100A7000E0FF29C0E8FF71C0D8FF1000D08EF28CD3
:100A80009F8A9D8AA58AA38AF194F28A9F929D8269
:100A900078807680788276829F969D86D08EF29E30
:100AA000F29CD66AD76AD59E9D82CA949D86F28CA6
:100AB000F28EAB8EAB989D8A9E9AAB88AC8AA68E3E
:100AC000A698A688BA8A9AEC1AF0769876967694C2
:100AD0007882788076807682F28CF28EF16BFD6B74
:100AE000F56BF76BF66BF86BFB6BF46B3692389A21
:100AF00001012A6B360E746E010E756E00014CEC0E
:100B000000F0E86F370E746E010E756E4CEC00F05D
:100B1000E96F380E746E010E756E4CEC00F0EA6FE2
:100B2000390E746E010E756E4CEC00F0EB6F040024
:100B3000EB51FF08D8A4A0EF05F03590A1EF05F028
:100B40003580ACEC0AF0300E746E010E756E4CEC14
:100B500000F0F26F0400F251FF08D8A4B1EF05F0E5
:100B6000F26B0400F00EF25DD8A0B9EF05F0EF0EC5
:100B7000F26FF2C0F3F0310E746E010E756E4CEC34
:100B800000F0FE6F0400FE51FF08D8A4C9EF05F085
:100B9000FE6B0400200EFE5DD8A0D1EF05F01F0E05
:100BA000FE6FFEC0FFF0320E746E010E756E4CECDF
:100BB00000F0FA6F330E746E010E756E4CEC00F09F
:100BC000F96F340E746E010E756E4CEC00F0FC6F14
:100BD0000400FA51FF08D8A4EFEF05F0FA6B040007
:100BE000F951FF08D8A4F6EF05F0F96B0400FC51A9
:100BF000FF08D8A4FDEF05F0FC6BC8EC0DF001EC8C
:100C00000EF0A1EC51F0CA84ECEC43F021EC32F090
:100C10000101246B00010400F00E0101245D0001BC
:100C2000D8B024EF06F0720EE96EEA6A0101245191
:100C3000000F00010EEC00F0D8901CEC00F0010158
:100C4000242B0001D8A0E7D70101246B0001040088
:100C5000200E0101245D0001D8B040EF06F03D0EEA
:100C6000E96EEA6A01012451000F00010EEC00F068
:100C7000D8901CEC00F00101242B0001D8A0E7D78C
:100C80000101086B00010400100E0101085D000164
:100C9000D8B05CEF06F0300EE96EEA6A0101085147
:100CA000000F00010EEC00F0D8801CEC00F00101F8
:100CB000082B0001D8A0E7D787EC35F0AFEC36F071
:100CC000400E746E010E756E4CEC00F00101296F40
:100CD0000400295101080001D8B476EF06F0400E57
:100CE000746E010E756E010E54EC00F0410E746EC0
:100CF000010E756E4CEC00F00101296F04002951C2
:100D000003080001D8B48CEF06F0410E746E010E9A
:100D1000756E030E54EC00F0420E746E010E756E8B
:100D20004CEC00F00101296F040029510108000179
:100D3000D8B4A2EF06F0420E746E010E756E010E6D
:100D400054EC00F0430E746E010E756E4CEC00F026
:100D50000101296F0400295121080001D8B4B8EF1E
:100D600006F0430E746E010E756E210E54EC00F009
:100D7000490E746E010E756E4CEC00F00101296F86
:100D80000400295100080001D8B4CEEF06F0490E46
:100D9000746E010E756E000E54EC00F04A0E746E07
:100DA000010E756E000E54EC00F002015E0E206F15
:100DB0001F6B0001010EEF6F86EC4FF04C0E746E4E
:100DC000010E756E4CEC00F00101296F0400FF511B
:100DD000295D0001D8B4F6EF06F04C0E746E010EDA
:100DE000756E0101FF51000154EC00F0FCEC1AF0AB
:100DF000EEEC49F011EC48F0FCEC1AF00DEC1AF0B6
:100E0000FCEC1AF016EC1AF0FCEC1AF082EC1AF07A
:100E1000FCEC1AF0C0EC17F00400EC514908D8A41F
:100E200014EF07F086EC45F007EC52F023EC4BF0A2
:100E3000CFEC08F0DBD714C113F1AECF14F10400EE
:100E400037AE69EF07F0010107515F0FE96E040E3D
:100E5000EA6AEA2214C1EFFF07050F6F0F515F0F17
:100E6000E96E040EEA6AEA22EFCF13F013500D0880
:100E7000D8A4E868FF0A136E07515F0FE96E040EED
:100E8000EA6AEA22EFCF15F015500A08D8A4E868FC
:100E9000FF0A156E13C001F015500001B4EC00F00C
:100EA000156E166E040015501610D8B45BEF07F0DF
:100EB000AB98379E36860101072B0400310E075D83
:100EC0000001D8A067EF07F0AB98379E368688EF11
:100ED00007F0010113515308D8A4E868FF0A136E04
:100EE00014515408D8A4E868FF0A156E13C001F025
:100EF00015500001B4EC00F0156E166E040015508C
:100F00001610D8B488EF07F00101076B378E000187
:100F1000AB8822B493EF07F02FC0FBFF2EC0FAFF7F
:100F20002D50E06AF96E2CC0FBFF2BC0FAFF2A504F
:100F3000E06AF96E12C111F17ACF12F1388801011D
:100F400011510008D8A4E868FF0A136E1251610815
:100F5000D8A4E868FF0A156E13C001F0155000010F
:100F6000B4EC00F0156E166E040015501610D8B4CF
:100F7000BBEF07F0388022B4C5EF07F02FC0FBFFAE
:100F80002EC0FAFF2D50E06AF96E2CC0FBFF2BC07B
:100F9000FAFF2A50E06AF96ED59EF29435865B2AF4
:100FA000000E5C22CE6B359C22B4DEEF07F02FC022
:100FB000FBFF2EC0FAFF2D50E06AF96E2CC0FBFF3C
:100FC0002BC0FAFF2A50E06AF96ECA949E92B02BA9
:100FD000000EB1235D2ABA2B000EBB230101162B94
:100FE0000400010E0001D05DD8A0F8EF07F0D00793
:100FF000B8C001F0B9C002F0046A000E99EC00F02C
:10100000D8A406EF08F0B807000EB95BCA8422B472
:1010100011EF08F02FC0FBFF2EC0FAFF2D50E06A41
:10102000F96E2CC0FBFF2BC0FAFF2A50E06AF96E64
:101030006F866F846F820400010E665CD8A08FEF0C
:1010400008F001010B517F0FE96E020EEA6AEA22F5
:1010500066CFEFFF0B51A70FE96E020EEA6AEA2294
:1010600067CFEFFF0B51CF0FE96E020EEA6AEA225B
:1010700068CFEFFF0B51F70FE96E020EEA6AEA2222
:1010800069CFEFFF0B511F0FE96E030EEA6AEA22E8
:101090006ACFEFFF0B51470FE96E030EEA6AEA22AF
:1010A0006BCFEFFF0B516F0FE96E030EEA6AEA2276
:1010B0006CCFEFFF0B51970FE96E030EEA6AEA223D
:1010C0006DCFEFFF0B51BF0FE96E030EEA6AEA2204
:1010D00065CFEFFF0B510F0FE96E040EEA6AEA22AB
:1010E00061CFEFFF0B51E70FE96E030EEA6AEA22C8
:1010F00062CFEFFF0B51370FE96E040EEA6AEA2266
:10110000EF6A0400280E0B5D0001D8B08BEF08F0E9
:1011100001010B2B0001378C0101106B0001609E57
:10112000779022B49BEF08F02FC0FBFF2EC0FAFF90
:101130002D50E06AF96E2CC0FBFF2BC0FAFF2A503D
:10114000E06AF96E0F01309F7792000122B4B0EF90
:1011500008F02FC0FBFF2EC0FAFF2D50E06AF96E99
:101160002CC0FBFF2BC0FAFF2A50E06AF96E9D9657
:10117000CE2B358ED66AD76A9E969D8622B4C8EF4E
:1011800008F02FC0FBFF2EC0FAFF2D50E06AF96E69
:101190002CC0FBFF2BC0FAFF2A50E06AF96E040056
:1011A00038AAA7EF09F0720EE96EEA6A01012A5126
:1011B000000F00010EEC00F0000ED8A4010E136E1B
:1011C000146A13C001F014C002F0046A010E8CEC22
:1011D00000F0136E2AC101F0F00E9CEC00F0156EC9
:1011E00013C001F01550B4EC00F0156E166E04003B
:1011F00015501610D8B488EF09F00400410E010113
:101200000C5D0001D8B088EF09F02AC101F0026A34
:10121000200E036E046AC0EC00F0136E02C014F0DE
:10122000DD0E1326000E1422CF51680FE96E0D0E4D
:10123000EA6AEA2213C0EFFF2AC101F0026A200E17
:10124000036E046AC0EC00F005C013F006C014F091
:1012500013C007F014C008F0080E036E046AD8EC3F
:1012600000F0136E06C014F0CF51F20FE96E0A0EB3
:10127000EA6AEA2213C0EFFFCF51220FE96E0D0E8A
:10128000EA6AEA22080EEF6ECF51AC0FE96E0A0E41
:10129000EA6AEA22EF6ACF51DC0FE96E0C0EEA6AC5
:1012A000EA22EF6A4E0EE96EEA6ACF51000F0EECA9
:1012B00000F0D8801CEC00F02AC101F0026A080E90
:1012C000036E046AC0EC00F0136E02C014F0132A1F
:1012D000000E1422CF51500FE96E0C0EEA6AEA227A
:1012E00013C0EFFF2AC101F0026A080E036E046A00
:1012F000C0EC00F005C013F006C014F0CF51960FFB
:10130000E96E0C0EEA6AEA2213C0EFFF87EC4BF09D
:101310000400410E01010C5D0001D8B093EF09F00B
:1013200001012A2B00010400F00E01012A5D0001D9
:10133000D8A0A7EF09F001012A6B389A0001C8EC88
:101340000DF001EC0EF0B7EC27F086EC0DF012007A
:1013500004000B0E0101105D0001D8A0D2EF09F0CE
:101360000101106BFDC001F0000E000194EC00F0D3
:10137000136EF1C001F0000E94EC00F0156E13C076
:1013800001F01550BBEC00F0156E166E0400155000
:101390001610D8B4D2EF09F00101010E156F00014B
:1013A000B86BB96B0400010E0101155D0001D8A0F6
:1013B00039EF0AF0016A026AB9C004F0B851A2EC30
:1013C00000F0D8A439EF0AF004000101155101081A
:1013D0000001D8A4FEEF09F0400EB86F060EB96FF9
:1013E0000101020E156F838A959A339E329E3E6BE1
:1013F000349E00013AEC0AF039EF0AF004000101D2
:10140000155102080001D8A416EF0AF0200EB86F9B
:10141000030EB96F0101030E156F839A959A338EEF
:10142000329E3E6B349E000139EF0AF00400010148
:10143000155103080001D8A42AEF0AF0F40EB86F82
:10144000010EB96F0101040E156F00019AEC1AF03C
:1014500039EF0AF004000101155104080001D8A475
:1014600039EF0AF00101156B0001C8EC0DF001EC39
:101470000EF0120001010B6B0D6B0C6B0E6B246BED
:1014800000010400450E0101245D0001D8B05CEFAD
:101490000AF001012451220FE96E0A0EEA6AEA22DB
:1014A000EF6A2451670FE96E0A0EEA6AEA22EF68D2
:1014B000242B0001D8A0E5D70101246B0001040012
:1014C000280E0101245D0001D8B0ABEF0AF0010144
:1014D0002451370FE96E040EEA6AEA22EF682451BC
:1014E0007F0FE96E020EEA6AEA22EF6A2451A70F23
:1014F000E96E020EEA6AEA22EF6A2451CF0FE96E22
:10150000020EEA6AEA22EF6A2451F70FE96E020E30
:10151000EA6AEA22EF6A24511F0FE96E030EEA6AB3
:10152000EA22EF6A2451470FE96E030EEA6AEA22C3
:10153000EF6A24516F0FE96E030EEA6AEA22EF6A3E
:101540002451970FE96E030EEA6AEA22EF6A242B10
:101550000001D8A0B4D71200F16BFD6BF56BF76BEF
:10156000F66BF86B0101086B000104003C0E0101F1
:10157000085D0001D8B0D3EF0BF001010851CD0F89
:10158000E96E040EEA6AEA22EF680851450FE96E37
:10159000050EEA6AEA22EF680851BD0FE96E050EF2
:1015A000EA6AEA22EF680851350FE96E060EEA6A28
:1015B000EA22EF6808C107F0086A050E036E046AA4
:1015C0000001D8EC00F0BE6F06C0BFF0BEC074FFD3
:1015D000BFC075FF4CEC00F0136E146A0101085196
:1015E000710FE96E060EEA6AEA2213C0EFFF0001EE
:1015F000BE29136E000EBF21146E13C074FF14C0F9
:1016000075FF4CEC00F0136E146A01010851910F44
:10161000E96E040EEA6AEA2213C0EFFF0001020E2F
:10162000BE25136E000EBF21146E13C074FF14C0CC
:1016300075FF4CEC00F0136E146A01010851090F9C
:10164000E96E050EEA6AEA2213C0EFFF0001030EFD
:10165000BE25136E000EBF21146E13C074FF14C09C
:1016600075FF4CEC00F0136E146A01010851810FF4
:10167000E96E050EEA6AEA2213C0EFFF0001040ECC
:10168000BE25136E000EBF21146E13C074FF14C06C
:1016900075FF4CEC00F0136E146A01010851F90F4C
:1016A000E96E050EEA6AEA2213C0EFFF0851710FD6
:1016B000E96E060EEA6AEA22EFCF13F00400135037
:1016C00045080001D8A4CEEF0BF001010851910F9D
:1016D000E96E040EEA6AEA22EFCF13F00400135019
:1016E00049080001D8A476EF0BF0F12B0101085155
:1016F000910FE96E040EEA6AEA22EFCF13F00400BC
:10170000135054080001D8A487EF0BF0FD2B010102
:101710000851910FE96E040EEA6AEA22EFCF13F046
:10172000040013504F080001D8A499EF0BF0F72BD9
:10173000F52B01010851910FE96E040EEA6AEA22C5
:10174000EFCF13F00400135044080001D8A4ABEF0E
:101750000BF0F62BF52B01010851910FE96E040EE9
:10176000EA6AEA22EFCF13F0040013505208000196
:10177000D8A4BDEF0BF0F82BF52B01010851910F08
:10178000E96E040EEA6AEA22EFCF13F00400135068
:1017900043080001D8A4CEEF0BF0F12B0101082B78
:1017A0000001D8A0E2D61200040036A0EBEF0BF047
:1017B000AE2B000EAF23AEC001F0AFC002F0046A42
:1017C000050E99EC00F0D8A4EBEF0BF03690AE6B61
:1017D000AF6BECEC0BF0120001010D51B50FE96E8F
:1017E000070EEA6AEA22EF6A0D51FA0FE96E070E58
:1017F000EA6AEA22FB0EEF6E0D513F0FE96E080E0A
:10180000EA6AEA22EF6A0D51840FE96E080EEA6A6D
:10181000EA22EF6A0D51670FE96E0A0EEA6AEA22C0
:10182000EF6A0D51220FE96E0A0EEA6AEA22EF6AA8
:101830000D51DD0FE96E090EEA6AEA22040EEF6E21
:10184000000182EC17F012000400010E01010A5D94
:101850000001D8A06EEF0CF0378A0AC109F104002C
:10186000010E0101095D0001D8A06EEF0CF001012D
:101870000905136E146A000E145A1350530FE96EC3
:10188000010E1420EA6EEFCF13F004001350FF088E
:101890000001D8A468EF0CF0E86A37BAE868136E64
:1018A0000AC101F0000E94EC00F0156E13C001F0B7
:1018B0001550B4EC00F0156E166E0400155016109D
:1018C000D8B466EF0CF001010A07000169EF0CF0D3
:1018D000379A010109070001D8B0C1D712000101F0
:1018E0000A510008D8A4E868FF0A136EE86A36A413
:1018F000E868156E13C001F015500001BBEC00F054
:10190000156E166E040015501610D8B492EF0CF038
:10191000D951670FE96E010EEA6AEA22EFCFDCF0D7
:10192000DFEF0CF00101010E096F0001040001015D
:1019300009510A5D0001D8A0DFEF0CF00101090593
:10194000136E146A000E145A1350530FE96E010EF1
:101950001420EA6EEFCF13F0040013500001D95D9C
:10196000D8A4D2EF0CF001010905136E146A000E21
:10197000145A13503F0FE96E010E1420EA6EEFCF98
:10198000DCF00905136E146A000E145A1350530F3D
:10199000E96E010E1420EA6EEF680AC109F1000138
:1019A000DAEF0CF0D951670FE96E010EEA6AEA220C
:1019B000EFCFDCF00101092B0001D8A0B7D712004E
:1019C00001012451CF0FE96E020EEA6AEA22EFCF3D
:1019D00013F013C001F0026A080E036E046A0001DE
:1019E000C0EC00F001012D6F2451CF0FE96E020E03
:1019F000EA6AEA22EFCF13F013C001F0026A080E80
:101A0000036E046A0001C0EC00F005C02EF1010E67
:101A1000016E01012E5100017EEC00F001012F6FDB
:101A200004001E0E2D5D0001D8B085EF0DF0010100
:101A30002451F70FE96E020EEA6AEA22EFCF13F0A3
:101A40000400135001080001D8A43FEF0DF001017C
:101A50002D51670FE96E010EEA6AEA22EFCF13F00B
:101A600013502F11136E146A2D51670FE96E010E7A
:101A7000EA6AEA2213C0EFFF000156EF0DF0010100
:101A80002F1F2D51670FE96E010EEA6AEA22EFCF90
:101A900013F013502F15136E146A2D51670FE96E52
:101AA000010EEA6AEA2213C0EFFF00010400140EDF
:101AB00001010A5D0001D8B061EF0DF001010A2BB0
:101AC000000101010A05156E166A000E165A2D5105
:101AD000670FE96E010EEA6AEA22EFCF13F01550A4
:101AE0003F0FE96E010E1620EA6E13C0EFFF0A05E4
:101AF000136E146A000E145A1350530FE96E010E40
:101B00001420EA6E2DC1EFFF0001120001010D51FA
:101B1000B50FE96E070EEA6AEA22EF6A0D51FA0F75
:101B2000E96E070EEA6AEA22FA0EEF6E0D513F0FD8
:101B3000E96E080EEA6AEA22EF6A0D51840FE96E37
:101B4000080EEA6AEA22E2C0EFFF0D51C90FE96E02
:101B5000080EEA6AEA22E1C0EFFF0D51670FE96E55
:101B60000A0EEA6AEA22EF6A0D51220FE96E0A0EA6
:101B7000EA6AEA22010EEF6E0D51DD0FE96E090EE1
:101B8000EA6AEA22060EEF6E000182EC17F01200FC
:101B900001010D51B50FE96E070EEA6AEA22EF6AFC
:101BA0000D51FA0FE96E070EEA6AEA22FD0EEF6E9A
:101BB0000D513F0FE96E080EEA6AEA22F2C0EFFF0C
:101BC0000D51840FE96E080EEA6AEA22EF6A0D51A0
:101BD000670FE96E0A0EEA6AEA22EF6A0D51220FD8
:101BE000E96E0A0EEA6AEA22EF6A0D51DD0FE96E2C
:101BF000090EEA6AEA22040EEF6E000182EC17F089
:101C0000120001010D51B50FE96E070EEA6AEA22D2
:101C1000EF6A0D51FA0FE96E070EEA6AEA22FC0E2E
:101C2000EF6E0D513F0FE96E080EEA6AEA22FEC020
:101C3000EFFF0D51840FE96E080EEA6AEA22EF6A9F
:101C40000D51670FE96E0A0EEA6AEA22EF6A0D513A
:101C5000220FE96E0A0EEA6AEA22EF6A0D51DD0FE1
:101C6000E96E090EEA6AEA22040EEF6E000182ECC8
:101C700017F0120001010D51B50FE96E070EEA6A67
:101C8000EA22EF6A0D51FA0FE96E070EEA6AEA22BC
:101C9000FE0EEF6E0D513F0FE96E080EEA6AEA2262
:101CA000EF6A0D51840FE96E080EEA6AEA22EF6AC4
:101CB0000D51670FE96E0A0EEA6AEA22EF6A0D51CA
:101CC000220FE96E0A0EEA6AEA22010EEF6E0D514A
:101CD000DD0FE96E090EEA6AEA22040EEF6E0001DA
:101CE00082EC17F012000400010E01010B5D0001EF
:101CF000D8A0A7EF0EF0338832980101030E3B6F96
:101D00003488576A586A246B000101010B05136E71
:101D1000146A000E145A24C101F0026A14C004F0BF
:101D20001350000196EC00F0D8A4A5EF0EF09EEC45
:101D300011F001012451370FE96E040EEA6AEA221C
:101D4000EF68242B0001D8A0E0D7ACEC18F012000B
:101D500001012451BF0FE96E030EEA6AEA22EFCFB8
:101D600013F00400135002080001D8A4ECEF0EF0A9
:101D7000010124517F0FE96E020EEA6AEA22EFCFD9
:101D8000C1F02451A70FE96E020EEA6AEA22EFCFF2
:101D900013F0040013500001C15DD8A4DEEF0EF073
:101DA000410EE96EEA6A01012451000F00010EECB8
:101DB00000F0D8901CEC00F0EAEF0EF0410EE96E56
:101DC000EA6A01012451000F00010EEC00F0D880F6
:101DD0001CEC00F09DEF11F001012451BF0FE96EE2
:101DE000030EEA6AEA22EFCF13F00400135003084F
:101DF0000001D8A43DEF0FF0010124517F0FE96EDF
:101E0000020EEA6AEA22EFCF13F02451A70FE96E1F
:101E1000020EEA6AEA22EFCF15F0135015240001F2
:101E2000C16F01012451CF0FE96E020EEA6AEA2266
:101E3000EFCF13F0040013500001C15DD8A42FEFC1
:101E40000FF0410EE96EEA6A01012451000F000112
:101E50000EEC00F0D8901CEC00F03BEF0FF0410EC0
:101E6000E96EEA6A01012451000F00010EEC00F056
:101E7000D8801CEC00F09DEF11F001012451BF0F40
:101E8000E96E030EEA6AEA22EFCF13F00400135062
:101E900004080001D8A49BEF0FF0010124517F0F2B
:101EA000E96E020EEA6AEA22EFCF13F02451A70F7F
:101EB000E96E020EEA6AEA22EFCF15F013501524FC
:101EC000156E166A16362451CF0FE96E020EEA6AB5
:101ED000EA22EFCF17F0155017240001C16F01015E
:101EE0002451F70FE96E020EEA6AEA22EFCF13F0EF
:101EF000040013500001C15DD8A48DEF0FF0410E16
:101F0000E96EEA6A01012451000F00010EEC00F0B5
:101F1000D8901CEC00F099EF0FF0410EE96EEA6AE0
:101F200001012451000F00010EEC00F0D8801CECE0
:101F300000F09DEF11F001012451BF0FE96E030E77
:101F4000EA6AEA22EFCF13F00400135005080001FB
:101F5000D8A407EF10F0010124517F0FE96E020EA3
:101F6000EA6AEA22EFCF13F02451A70FE96E020EBE
:101F7000EA6AEA22EFCF15F013501524156E166A9F
:101F800016362451CF0FE96E020EEA6AEA22EFCF2D
:101F900017F017501524176EE86A1620186E245192
:101FA000F70FE96E020EEA6AEA22EFCF19F0175036
:101FB00019240001C16F010124511F0FE96E030EA6
:101FC000EA6AEA22EFCF13F0040013500001C15D6A
:101FD000D8A4F9EF0FF0410EE96EEA6A010124512D
:101FE000000F00010EEC00F0D8901CEC00F005EFA3
:101FF00010F0410EE96EEA6A01012451000F000160
:102000000EEC00F0D8801CEC00F09DEF11F0010107
:102010002451BF0FE96E030EEA6AEA22EFCF13F0F4
:102020000400135006080001D8A481EF10F001014C
:1020300024517F0FE96E020EEA6AEA22EFCF13F015
:102040002451A70FE96E020EEA6AEA22EFCF15F0DB
:1020500013501524156E166A16362451CF0FE96EEB
:10206000020EEA6AEA22EFCF17F017501524176E16
:10207000E86A1620186E2451F70FE96E020EEA6A1C
:10208000EA22EFCF19F019501724196EE86A1820C8
:102090001A6E24511F0FE96E030EEA6AEA22EFCF8F
:1020A0001BF019501B240001C16F01012451470F7F
:1020B000E96E030EEA6AEA22EFCF13F00400135030
:1020C0000001C15DD8A473EF10F0410EE96EEA6A19
:1020D00001012451000F00010EEC00F0D8901CEC1F
:1020E00000F07FEF10F0410EE96EEA6A0101245121
:1020F000000F00010EEC00F0D8801CEC00F09DEF0A
:1021000011F001012451BF0FE96E030EEA6AEA22C1
:10211000EFCF13F00400135007080001D8A409EF13
:1021200011F0010124517F0FE96E020EEA6AEA22E2
:10213000EFCF13F02451A70FE96E020EEA6AEA22EC
:10214000EFCF15F013501524156E166A163624516C
:10215000CF0FE96E020EEA6AEA22EFCF17F01750AE
:102160001524176EE86A1620186E2451F70FE96ED1
:10217000020EEA6AEA22EFCF19F019501724196EFD
:10218000E86A18201A6E24511F0FE96E030EEA6ADE
:10219000EA22EFCF1BF01B5019241B6EE86A1A20AD
:1021A0001C6E2451470FE96E030EEA6AEA22EFCF54
:1021B0001DF01B501D240001C16F010124516F0F40
:1021C000E96E030EEA6AEA22EFCF13F0040013501F
:1021D0000001C15DD8A4FBEF10F0410EE96EEA6A80
:1021E00001012451000F00010EEC00F0D8901CEC0E
:1021F00000F007EF11F0410EE96EEA6A0101245187
:10220000000F00010EEC00F0D8801CEC00F09DEFF8
:1022100011F001012451BF0FE96E030EEA6AEA22B0
:10222000EFCF13F00400135008080001D8A49DEF6D
:1022300011F0010124517F0FE96E020EEA6AEA22D1
:10224000EFCF13F02451A70FE96E020EEA6AEA22DB
:10225000EFCF15F013501524156E166A163624515B
:10226000CF0FE96E020EEA6AEA22EFCF17F017509D
:102270001524176EE86A1620186E2451F70FE96EC0
:10228000020EEA6AEA22EFCF19F019501724196EEC
:10229000E86A18201A6E24511F0FE96E030EEA6ACD
:1022A000EA22EFCF1BF01B5019241B6EE86A1A209C
:1022B0001C6E2451470FE96E030EEA6AEA22EFCF43
:1022C0001DF01D501B241D6EE86A1C201E6E24513B
:1022D0006F0FE96E030EEA6AEA22EFCF1FF01D507E
:1022E0001F240001C16F01012451970FE96E030EF5
:1022F000EA6AEA22EFCF13F0040013500001C15D37
:10230000D8A491EF11F0410EE96EEA6A010124515F
:10231000000F00010EEC00F0D8901CEC00F09DEFD7
:1023200011F0410EE96EEA6A01012451000F00012B
:102330000EEC00F0D8801CEC00F01200A8EC0EF0BF
:10234000410EE96EEA6A01012451000F00010EEC12
:1023500000F0000ED8A4010E136E146A016A026A1E
:1023600014C004F01350A2EC00F0D8A4B9EF14F09C
:1023700001012451A70FE96E020EEA6AEA22EFCFAB
:1023800013F00400135001080001D8A431EF12F03B
:1023900001010D51B50FE96E070EEA6AEA22EF6AF4
:1023A0000D51FA0FE96E070EEA6AEA22010EEF6E8E
:1023B0002451CF0FE96E020EEA6AEA22EFCF13F042
:1023C0000D513F0FE96E080EEA6AEA2213C0EFFFD3
:1023D0002451F70FE96E020EEA6AEA22EFCF13F0FA
:1023E0000D51840FE96E080EEA6AEA2213C0EFFF6E
:1023F0000D51670FE96E0A0EEA6AEA22EF6A0D5183
:10240000220FE96E0A0EEA6AEA22EF6A0D51DD0F29
:10241000E96E090EEA6AEA22050EEF6E000182EC0F
:1024200017F0E0EC0CF001012451CF0FE96E020E21
:10243000EA6AEA22EFCF13F00400F00E135C000109
:10244000D8B02FEF12F001012451CF0FE96E020E28
:10245000EA6AEA22EFCFF3F00001BAEC14F0B9EF28
:1024600014F001012451A70FE96E020EEA6AEA2274
:10247000EFCF13F00400135002080001D8A407EFB7
:1024800013F001012451CF0FE96E020EEA6AEA222D
:10249000EFCF13F00400200E135C0001D8B003EF5F
:1024A00013F001012451CF0FE96E020EEA6AEA220D
:1024B000EFCFFFF00001CBEC14F001012451CF0F5E
:1024C000E96E020EEA6AEA22EFCF2DF12451F70FEE
:1024D000E96E020EEA6AEA22EFCF25F124511F0FBE
:1024E000E96E030EEA6AEA22EFCF13F02D513F0F97
:1024F000E96E020EEA6AEA2213C0EFFF2451470F89
:10250000E96E030EEA6AEA22EFCF13F02D51DF0FD6
:10251000E96E010EEA6AEA2213C0EFFF24516F0F41
:10252000E96E030EEA6AEA22EFCF26F12D513F0F42
:10253000E96E020EEA6AEA22EFCF13F01350FF08A9
:10254000D8A4E868FF0A136E25C101F0400E00010F
:102550009CEC00F0156E13C001F01550B4EC00F0C7
:10256000156E166E040015501610D8B4BDEF12F09B
:10257000010125514008256F000101012D513F0F38
:10258000E96E020EEA6AEA22EFCF13F01350FF0859
:10259000D8A4E868FF0A136E26C101F0400E0001BE
:1025A0009CEC00F0156E13C001F01550B4EC00F077
:1025B000156E166E040015501610D8B4E5EF12F023
:1025C000010126514008266F000104000101265137
:1025D000FF080001D8B4F9EF12F001012D515F0F8F
:1025E000E96E020EEA6AEA2226C1EFFF000103EF5C
:1025F00013F001012D515F0FE96E020EEA6AEA2223
:1026000025C1EFFF000107EC17F0B9EF14F001014D
:102610002451A70FE96E020EEA6AEA22EFCF13F007
:102620000400135004080001D8A423EF13F00101A3
:102630002A6B388A0001C8EC0DF001EC0EF086EC34
:102640000DF0B9EF14F001012451A70FE96E020E4D
:10265000EA6AEA22EFCF13F0040013506308000186
:10266000D8A451EF13F001012451CF0FE96E020EEF
:10267000EA6AEA22EFCF13F0040013505208000177
:10268000D8A44FEF13F00400010115510008000118
:10269000D8A44FEF13F00101010E156F0001B9EF3F
:1026A00014F0010124517F0FE96E020EEA6AEA225A
:1026B000EFCF13F00400135064080001D8A4F3EF27
:1026C00013F001012451A70FE96E020EEA6AEA2213
:1026D000EFCF13F004001350FC080001D8A4A9EFB9
:1026E00013F001010D51B50FE96E070EEA6AEA22F7
:1026F000EF6A0D51FA0FE96E070EEA6AEA22FC0E44
:10270000EF6E0D513F0FE96E080EEA6AEA22FEC035
:10271000EFFF0D51840FE96E080EEA6AEA22EF6AB4
:102720000D51670FE96E0A0EEA6AEA22EF6A0D514F
:10273000220FE96E0A0EEA6AEA22EF6A0D51DD0FF6
:10274000E96E090EEA6AEA22040EEF6E000182ECDD
:1027500017F001012451A70FE96E020EEA6AEA227E
:10276000EFCF13F004001350FD080001D8A4F1EFDF
:1027700013F001010D51B50FE96E070EEA6AEA2266
:10278000EF6A0D51FA0FE96E070EEA6AEA22FD0EB2
:10279000EF6E0D513F0FE96E080EEA6AEA22F2C0B1
:1027A000EFFF0D51840FE96E080EEA6AEA22EF6A24
:1027B0000D51670FE96E0A0EEA6AEA22EF6A0D51BF
:1027C000220FE96E0A0EEA6AEA22EF6A0D51DD0F66
:1027D000E96E090EEA6AEA22040EEF6E000182EC4D
:1027E00017F0B9EF14F0010124517F0FE96E020ECA
:1027F000EA6AEA22EFCF13F004001350F808000150
:10280000D8A452EF14F001012451A70FE96E020E73
:10281000EA6AEA22EFCF13F004001350F80800012F
:10282000D8A450EF14F083889598410E24EC00F062
:10283000410E24EC00F0410E24EC00F0520E24EC8A
:1028400000F0430E24EC00F0000E24EC00F0000E2B
:1028500024EC00F0000E24EC00F0000E24EC00F05C
:10286000500E24EC00F04F0E24EC00F04B0E24EC44
:1028700000F0000E24EC00F0000E24EC00F0000E3E
:1028800024EC00F00D0E24EC00F00A0E24EC00F015
:102890000D0E24EC00F00A0E24EC00F083989598BD
:1028A000B9EF14F001012451A70FE96E020EEA6A94
:1028B000EA22EFCF13F004001350FC080001D8A463
:1028C000A9EF14F001010D51B50FE96E070EEA6A88
:1028D000EA22EF6A0D51FA0FE96E070EEA6AEA2260
:1028E000020EEF6E2451CF0FE96E020EEA6AEA2261
:1028F000EFCF13F01304136E146A000E145A0D5127
:102900003F0FE96E080EEA6AEA2213C0EFFF0D518D
:10291000840FE96E080EEA6AEA22EF6A0D51670F2A
:10292000E96E0A0EEA6AEA22EF6A0D51220FE96E99
:102930000A0EEA6AEA22EF6A0D51DD0FE96E090E0E
:10294000EA6AEA22040EEF6E000182EC17F0B9EF9A
:1029500014F001012451A70FE96E020EEA6AEA227F
:10296000EFCF13F004001350FD080001D8A4B9EF15
:1029700014F012000400F351F25DD8A4CAEF14F071
:10298000F22B300E746E010E756EF25154EC00F0A5
:10299000C8EC0DF012000400FF51FE5DD8A4DBEF7F
:1029A00014F0FE2B310E746E010E756EFE5154EC58
:1029B00000F001EC0EF01200338032900101030EA2
:1029C000376F348000011200338232920101030E0E
:1029D000386F34820001120001010D51DD0FE96EE4
:1029E000090EEA6AEA22EFCF13F00400135002083E
:1029F0000001D8A410EF15F001010D51B50FE96EDB
:102A0000070EEA6AEA22EFCF13F00D51FA0FE96ED2
:102A1000070EEA6AEA2213C0EFFF000106EF17F083
:102A200001010D51DD0FE96E090EEA6AEA22EFCFCE
:102A300013F00400135003080001D8A441EF15F06F
:102A400001010D51B50FE96E070EEA6AEA22EFCFD8
:102A500013F00D51FA0FE96E070EEA6AEA22EFCF82
:102A600015F013501524156E166A16360D513F0FCA
:102A7000E96E080EEA6AEA2215C0EFFF000106EFD0
:102A800017F001010D51DD0FE96E090EEA6AEA2225
:102A9000EFCF13F00400135004080001D8A480EF16
:102AA00015F001010D51B50FE96E070EEA6AEA2231
:102AB000EFCF13F00D51FA0FE96E070EEA6AEA2222
:102AC000EFCF15F013501524156E166A16360D51FA
:102AD0003F0FE96E080EEA6AEA22EFCF17F01750AF
:102AE0001524176EE86A1620186E0D51840FE96ED2
:102AF000080EEA6AEA2217C0EFFF000106EF17F09E
:102B000001010D51DD0FE96E090EEA6AEA22EFCFED
:102B100013F00400135005080001D8A4CDEF15F000
:102B200001010D51B50FE96E070EEA6AEA22EFCFF7
:102B300013F00D51FA0FE96E070EEA6AEA22EFCFA1
:102B400015F013501524156E166A16360D513F0FE9
:102B5000E96E080EEA6AEA22EFCF17F01750152443
:102B6000176EE86A1620186E0D51840FE96E080E74
:102B7000EA6AEA22EFCF19F019501724196EE86AB1
:102B800018201A6E0D51C90FE96E080EEA6AEA2282
:102B900019C0EFFF000106EF17F001010D51DD0F25
:102BA000E96E090EEA6AEA22EFCF13F0040013502F
:102BB00006080001D8A428EF16F001010D51B50F49
:102BC000E96E070EEA6AEA22EFCF13F00D51FA0F11
:102BD000E96E070EEA6AEA22EFCF15F013501524CA
:102BE000156E166A16360D513F0FE96E080EEA6A29
:102BF000EA22EFCF17F017501524176EE86A162057
:102C0000186E0D51840FE96E080EEA6AEA22EFCFC2
:102C100019F019501724196EE86A18201A6E0D5110
:102C2000C90FE96E080EEA6AEA22EFCF1BF01B50CB
:102C300019241B6EE86A1A201C6E0D510E0FE96EE6
:102C4000090EEA6AEA221BC0EFFF000106EF17F047
:102C500001010D51DD0FE96E090EEA6AEA22EFCF9C
:102C600013F00400135007080001D8A491EF16F0E8
:102C700001010D51B50FE96E070EEA6AEA22EFCFA6
:102C800013F00D51FA0FE96E070EEA6AEA22EFCF50
:102C900015F013501524156E166A16360D513F0F98
:102CA000E96E080EEA6AEA22EFCF17F017501524F2
:102CB000176EE86A1620186E0D51840FE96E080E23
:102CC000EA6AEA22EFCF19F019501724196EE86A60
:102CD00018201A6E0D51C90FE96E080EEA6AEA2231
:102CE000EFCF1BF01B5019241B6EE86A1A201C6ED4
:102CF0000D510E0FE96E090EEA6AEA22EFCF1DF0C0
:102D00001D501B241D6EE86A1C201E6E0D51530FB2
:102D1000E96E090EEA6AEA221DC0EFFF000106EF24
:102D200017F001010D51DD0FE96E090EEA6AEA2282
:102D3000EFCF13F00400135008080001D8A406EFE9
:102D400017F001010D51B50FE96E070EEA6AEA228C
:102D5000EFCF13F00D51FA0FE96E070EEA6AEA227F
:102D6000EFCF15F013501524156E166A16360D5157
:102D70003F0FE96E080EEA6AEA22EFCF17F017500C
:102D80001524176EE86A1620186E0D51840FE96E2F
:102D9000080EEA6AEA22EFCF19F019501724196ECB
:102DA000E86A18201A6E0D51C90FE96E080EEA6A1A
:102DB000EA22EFCF1BF01B5019241B6EE86A1A2081
:102DC0001C6E0D510E0FE96E090EEA6AEA22EFCF72
:102DD0001DF01D501B241D6EE86A1C201E6E0D5137
:102DE000530FE96E090EEA6AEA22EFCF1FF01F5077
:102DF0001D241F6EE86A1E20206E0D51980FE96E8B
:102E0000090EEA6AEA221FC0EFFF00011200040067
:102E1000010E01010C5D0001D8A081EF17F0010146
:102E2000296B00010400010129510E5D0001D8A0A9
:102E30007FEF17F001012451A70FE96E020EEA6A35
:102E4000EA22EFCF13F02951FA0FE96E070EEA6A72
:102E5000EA22EFCF15F01350155CD8A4E868FF0AFA
:102E6000156E2451CF0FE96E020EEA6AEA22EFCF07
:102E700017F029513F0FE96E080EEA6AEA22EFCFF8
:102E800019F01750195CD8A4E868FF0A196E15C02C
:102E900001F019500001B4EC00F0196E1A6E040034
:102EA00019501A10D8B47AEF17F001012951670FA1
:102EB000E96E0A0EEA6AEA22EF682951B50FE96E57
:102EC000070EEA6AEA22EF682951FA0FE96E070E47
:102ED000EA6AEA22EF6829513F0FE96E080EEA6AB2
:102EE000EA22EF682951840FE96E080EEA6AEA22A5
:102EF000EF6800010101292B0001D8A093D7E8EC6D
:102F000018F01200ECEC14F00400440E01010C5D0A
:102F10000001D8B08FEF17F001010C2B0001040065
:102F200001010D510E5D0001D8B099EF17F00DC1F0
:102F30000EF10101296B00010400450E0101295D1C
:102F40000001D8B0BFEF17F001012951670FE96EFA
:102F50000A0EEA6AEA22EFCF13F004001350FF08CA
:102F60000001D8A4BAEF17F029C10DF10101440EF8
:102F7000296F00010101292B0001D8A0DDD7120023
:102F80000400010E01010C5D0001D8A0ABEF18F0A8
:102F90000400D8960F0120B7D8860001D8B6ABEF51
:102FA00018F00101246B00010400010124510E5DA1
:102FB0000001D8A0A9EF18F001012451670FE96EB4
:102FC0000A0EEA6AEA22EFCF13F004001350000859
:102FD0000001D8A4A4EF18F0338632960101030E45
:102FE0003A6F34862451670FE96E0A0EEA6AEA22C4
:102FF0000A0EEF6E71907192719482749494000134
:10300000C02B01012451B50FE96E070EEA6AEA22CE
:10301000EFCF13F004001350FF080001D8B461EFA4
:1030200018F00F01216BC00E226F01012451DD0F3A
:10303000E96E090EEA6AEA22EFCF25FF2451B50FA7
:10304000E96E070EEA6AEA22EFCF26FF2451FA0F53
:10305000E96E070EEA6AEA22EFCF27FF24513F0FFD
:10306000E96E080EEA6AEA22EFCF28FF2451840FA6
:10307000E96E080EEA6AEA22EFCF29FF2451C90F50
:10308000E96E080EEA6AEA22EFCF2AFF24510E0FFA
:10309000E96E090EEA6AEA22EFCF2BFF2451530FA3
:1030A000E96E090EEA6AEA22EFCF2CFF2451980F4D
:1030B000E96E090EEA6AEA22EFCF2DFF0F012087A1
:1030C000000101012451220FE96E0A0EEA6AEA2288
:1030D000EFCF13F00400135000080001D8A498EFBC
:1030E00018F001012451670FE96E0A0EEA6AEA221C
:1030F000EF682451B50FE96E070EEA6AEA22EF681D
:103100002451FA0FE96E070EEA6AEA22EF682451A9
:103110003F0FE96E080EEA6AEA22EF682451840F35
:10312000E96E080EEA6AEA22EF680001A2EF18F0E1
:1031300001012451670FE96E0A0EEA6AEA220A0EBB
:10314000EF6E00010EC124F10101242B0001D8A073
:103150002BD7E8EC18F012000400010E01010B5D02
:103160000001D8A0E7EF18F038960101246B0001A8
:1031700001010B05136E146A000E145A24C101F0EC
:10318000026A14C004F01350000196EC00F0D8A4B9
:10319000E0EF18F001012451370FE96E040EEA6ADE
:1031A000EA22EFCF13F004001350FF080001D8B457
:1031B000DBEF18F038860101242B0001D8A0D8D706
:1031C000040038B6E7EF18F001010B6B00011200A4
:1031D0000400010E01010C5D0001D8A053EF19F0AD
:1031E00038960EC12BF101012B51670FE96E0A0EC3
:1031F000EA6AEA22EFCF13F01350FF08D8A4E86878
:10320000FF0A136EE86A38A6E868156E13C001F06D
:1032100015500001B4EC00F0156E166E0400155048
:103220001610D8B44AEF19F00400010E01010C5D2C
:103230000001D8A01FEF19F001010C0700010400E4
:10324000010E01010E5D0001D8A02AEF19F0010165
:103250000E07000101012B51B50FE96E070EEA6A56
:10326000EA22EF682B51FA0FE96E070EEA6AEA22AA
:10327000EF682B513F0FE96E080EEA6AEA22EF6809
:103280002B51840FE96E080EEA6AEA22EF6800010A
:103290004EEF19F001012B6B3886000101012B075D
:1032A0000001D8B0A0D712000400010E01010C5D8E
:1032B0000001D8A00CEF1AF00101246B00010400FA
:1032C000010124510E5D0001D8A00CEF1AF001019C
:1032D0002451670FE96E0A0EEA6AEA22EFCF13F073
:1032E00013C001F0FF0E00019CEC00F0136E010111
:1032F0002451670FE96E0A0EEA6AEA22EFCF15F051
:1033000015C001F0000E000194EC00F0156E13C022
:1033100001F01550B4EC00F0156E166E0400155057
:103320001610D8B407EF1AF001012451670FE96EA7
:103330000A0EEA6AEA22EFCF13F01304136E146A3E
:10334000000E145A2451670FE96E0A0EEA6AEA2247
:1033500013C0EFFF2451670FE96E0A0EEA6AEA22F2
:10336000EFCF13F00400135000080001D8A407EFBA
:103370001AF001012451220FE96E0A0EEA6AEA22CC
:10338000EFCF13F00400010E135C0001D8A0E2EFB0
:1033900019F001012451220FE96E0A0EEA6AEA22AD
:1033A000EFCF13F01304136E146A000E145A245155
:1033B000220FE96E0A0EEA6AEA2213C0EFFF00014B
:1033C00007EF1AF001012451670FE96E0A0EEA6A4D
:1033D000EA22EF682451B50FE96E070EEA6AEA2285
:1033E000EF682451FA0FE96E070EEA6AEA22EF68E5
:1033F00024513F0FE96E080EEA6AEA22EF68245171
:10340000840FE96E080EEA6AEA22EF680001010102
:10341000242B0001D8A053D712000400290E5D5CB4
:10342000D8A015EF1AF05D6A3FDF1200BAC001F0B4
:10343000BBC002F0270E046E100E99EC00F0D8A469
:1034400081EF1AF0D4EC0BF0BA6BBB6B0101102BBF
:1034500000013AEC0EF00400010EFE5DD8A081EFF1
:103460001AF00101246B0001FE05136E146A000EB0
:10347000145A24C101F0026A14C004F0135096ECEF
:1034800000F0D8A481EF1AF001010D51B50FE96EDB
:10349000070EEA6AEA22EF6A0D51FA0FE96E070E8B
:1034A000EA6AEA22020EEF6E0D513F0FE96E080E36
:1034B000EA6AEA2224C1EFFF0D51840FE96E080E7B
:1034C000EA6AEA22EF6A0D51670FE96E0A0EEA6AAC
:1034D000EA22EF6A0D51220FE96E0A0EEA6AEA2229
:1034E000EF6A0D51DD0FE96E090EEA6AEA22040E59
:1034F000EF6E000182EC17F00101242B0001D8A02F
:10350000B3D71200040037AC8BEF1AF0379C8272ED
:10351000949273EC0EF00400D8960F0130AFD88669
:103520000001D8B699EF1AF0827294920F01309F81
:10353000000112006F8EE86A6EBEE868136EE86ADA
:103540006EACE868156E13C001F01550B4EC00F0D5
:10355000156E166EE86A6EAAE868176E155016109A
:10356000016E1750B4EC00F0176E186E040017507F
:103570001810D8A4BDEF1AF0DED70E01090E436F64
:10358000980E446F030E456F708A7098726A640ECD
:10359000606E0F01620E306F0E01F96BF86BFD6B00
:1035A000FC6BE16BE06BE96BE86B6F9E6F9C6F9A55
:1035B0000001E86A6EAEE868136EE86A6EACE8680F
:1035C000156E13C001F01550B4EC00F0156E166EB8
:1035D000E86A6EAAE868176E15501610016E17504B
:1035E000B4EC00F0176E186E040017501810D8A431
:1035F000FBEF1AF0DED71200040036A61FEF1CF016
:10360000AB9836960400070E0101075D0001D8A0B3
:103610001BEF1CF0040004015F5149080001D8A40D
:1036200016EF1BF006EC2DF01BEF1CF0040004015C
:103630005F5154080001D8A422EF1BF06DEC2FF06D
:103640001BEF1CF004015F514F08D8A4E868FF0A83
:10365000136E5F514408D8A4E868FF0A156E13C0C2
:1036600001F015500001BBEC00F0156E166E040160
:103670005F515208D8A4E868FF0A176E155016105B
:10368000016E17500001BBEC00F0176E186E0400BD
:1036900017501810D8B451EF1BF0ECEC22F01BEFD0
:1036A0001CF004015F516F08D8A4E868FF0A136E8C
:1036B0005F516408D8A4E868FF0A156E13C001F0D2
:1036C00015500001BBEC00F0156E166E04015F5141
:1036D0007208D8A4E868FF0A176E15501610016E1C
:1036E00017500001BBEC00F0176E186E0400175065
:1036F0001810D8B480EF1BF0ECEC22F01BEF1CF09C
:1037000004015F514308D8A4E868FF0A136E6051B2
:103710000001E85DD8A4E868FF0A156E13C001F047
:103720001550B4EC00F0156E166E040161510001E5
:10373000E95DD8A4E868FF0A176E15501610016EEF
:103740001750B4EC00F0176E186E040162510001BE
:10375000EA5DD8A4E868FF0A196E17501810016EC8
:103760001950B4EC00F0196E1A6E040019501A10BA
:10377000D8B4BFEF1BF0E2EC29F01BEF1CF0040102
:1037800060510008D8A4E868FF0A136E6151000870
:10379000D8A4E868FF0A156E13C001F015500001A7
:1037A000B4EC00F0156E166E040162510008D8A446
:1037B000E868FF0A176E15501610016E17500001C9
:1037C000B4EC00F0176E186E040017501810D8B43F
:1037D000EEEF1BF020EC1CF01BEF1CF0EC51490845
:1037E000D8A4E868FF0A136E04015F514108D8A409
:1037F000E868FF0A156E13C001F015500001B4EC23
:1038000000F0156E166E040160514408D8A4E868F3
:10381000FF0A176E15501610016E17500001B4EC18
:1038200000F0176E186E040017501810D8B41BEF74
:103830001CF0BFEC37F00101076BAB8800011200F0
:10384000040004015F5100080001D8A4FDEF1CF042
:10385000040163514C08D8A4E868FF0A136E645150
:103860004C08D8A4E868FF0A156E13C001F0155083
:103870000001B4EC00F0156E166E04001550161021
:10388000D8B44FEF1CF00400EC514908D8A44BEF1A
:103890001CF0848296924C0EEC6FFBEF1CF004013E
:1038A00063514908D8A4E868FF0A136E64514908B7
:1038B000D8A4E868FF0A156E13C001F01550000186
:1038C000B4EC00F0156E166E040015501610D8B446
:1038D00076EF1CF00400EC514C08D8A472EF1CF0F9
:1038E00084929692490EEC6FFBEF1CF00401635139
:1038F0005408D8A4E868FF0A136E64514D08D8A490
:10390000E868FF0A156E13C001F015500001B4EC11
:1039100000F0156E166E040015501610D8B495EF11
:103920001CF03BEC1EF0FBEF1CF00401635150084F
:10393000D8A4E868FF0A136E64516608D8A4E86842
:10394000FF0A156E13C001F015500001B4EC00F031
:10395000156E166E040015501610D8B4BAEF1CF090
:10396000339E329E01013E6B349E838A959A0001FC
:10397000FBEF1CF0040163515008D8A4E868FF0A6B
:10398000136E64516E08D8A4E868FF0A156E13C060
:1039900001F015500001B4EC00F0156E166E040035
:1039A00015501610D8B4DFEF1CF0338E329E010193
:1039B0003E6B349E839A959A0001FBEF1CF0040144
:1039C00063515508D8A4E868FF0A136E64514C0887
:1039D000D8A4E868FF0A156E13C001F01550000165
:1039E000B4EC00F0156E166E040015501610D8B425
:1039F000FBEF1CF0388A3AEF1EF0040004015F511F
:103A000043080001D8A43AEF1EF0040163514708AF
:103A1000D8A4E868FF0A136E64C401F0100E000118
:103A20009CEC00F0156E13C001F01550B4EC00F0E2
:103A3000156E166E040015501610D8B42CEF1DF03C
:103A400065C41CF101011E6B400E040164250101D7
:103A50001F6F000156EC27F0040163514908D8A4F8
:103A6000E868FF0A136E64514408D8A4E868FF0AA6
:103A7000156E13C001F015500001B4EC00F0156E86
:103A8000166E040015501610D8B452EF1DF0040045
:103A9000ED510401655D0001D8A452EF1DF039809D
:103AA00086EC45F0040163514108D8A4E868FF0A98
:103AB000136E64514508D8A4E868FF0A156E13C058
:103AC00001F015500001B4EC00F0156E166E040004
:103AD00015501610D8B473EF1DF021EC32F087ECBE
:103AE00035F0AFEC36F0040163516C08D8A4E868F7
:103AF000FF0A136E64514C08D8A4E868FF0A156EDB
:103B000013C001F015500001B4EC00F0156E166EF4
:103B1000040015501610D8B49DEF1DF00400800E5F
:103B20000401655D0001D8A099EF1DF0E26B9BEFE9
:103B30001DF065C4E2F086EC0DF0040163516C08E1
:103B4000D8A4E868FF0A136E64514808D8A4E8684E
:103B5000FF0A156E13C001F015500001B4EC00F01F
:103B6000156E166E040015501610D8B4BCEF1DF07B
:103B700065C4E1F086EC0DF0040163516C08D8A433
:103B8000E868FF0A136E64514F08D8A4E868FF0A7A
:103B9000156E13C001F015500001B4EC00F0156E65
:103BA000166E040015501610D8B4E1EF1DF0040095
:103BB0000401655100080001D8A4E1EF1DF0ECEC10
:103BC0000BF0040163516C08D8A4E868FF0A136E77
:103BD000156813C001F015500001B4EC00F0156E2B
:103BE000166E64C401F0060E9CEC00F0176E1550C2
:103BF0001610016E1750B4EC00F0176E186E04002A
:103C000017501810D8B43AEF1EF00101176B65C4B5
:103C1000FFF104000401645100080001D8A419EF69
:103C20001EF00201800E006F000122EC20F03AEF3E
:103C30001EF004000401645101080001D8A429EF1A
:103C40001EF002010F0E006F000148EC21F03AEF68
:103C50001EF064C407F0086A100E036E046AD8EC04
:103C600000F0136E06C014F013040201006F00018F
:103C700048EC21F0120004000401655156080001CF
:103C8000D8A482EF1EF083889598410E24EC00F0B2
:103C9000410E24EC00F0410E24EC00F0520E24EC16
:103CA00000F0430E24EC00F0000E24EC00F0000EB7
:103CB00024EC00F0000E24EC00F0000E24EC00F0E8
:103CC000560E24EC00F0430E24EC00F0010E24EC20
:103CD00000F0030E24EC00F0010E24EC00F0210EA5
:103CE00024EC00F00D0E24EC00F00A0E24EC00F0A1
:103CF0000D0E24EC00F00A0E24EC00F08398959849
:103D0000BAEF1FF004000401655150080001D8A467
:103D1000CAEF1EF001010D51B50FE96E070EEA6AF8
:103D2000EA22EF6A0D51FA0FE96E070EEA6AEA22FB
:103D3000F80EEF6E0D513F0FE96E080EEA6AEA22A7
:103D4000EF6A0D51840FE96E080EEA6AEA22EF6A03
:103D50000D51C90FE96E080EEA6AEA22EF6A0D51A9
:103D6000670FE96E0A0EEA6AEA22EF6A0D51220F26
:103D7000E96E0A0EEA6AEA22EF6A0D51DD0FE96E7A
:103D8000090EEA6AEA22060EEF6E000182EC17F0D5
:103D9000BAEF1FF004000401655152080001D8A4D5
:103DA00078EF1FF0389816C12DF101012D51000157
:103DB0002BEC00F0DCEC14F01E0E63EC00F0E86A73
:103DC00038B8E868136E01012D51125DD8A4E86877
:103DD000FF0A156E13C001F015500001B4EC00F09D
:103DE000156E166E040015501610D8B439EF1FF07A
:103DF000E4EC14F083889598410E24EC00F0410E19
:103E000024EC00F0410E24EC00F0520E24EC00F003
:103E1000430E24EC00F0000E24EC00F0000E24EC25
:103E200000F0000E24EC00F0000E24EC00F0520E26
:103E300024EC00F0010E24EC00F0000E24EC00F065
:103E4000000E24EC00F0000E24EC00F0000E24EC38
:103E500000F00D0E24EC00F00A0E24EC00F00D0E24
:103E600024EC00F00A0E24EC00F08398959876EF8D
:103E70001FF083889598410E24EC00F0410E24EC4D
:103E800000F0410E24EC00F0520E24EC00F0430E42
:103E900024EC00F0000E24EC00F0000E24EC00F006
:103EA000000E24EC00F0000E24EC00F0520E24EC86
:103EB00000F0000E24EC00F0000E24EC00F0000EE8
:103EC00024EC00F0000E24EC00F0000E24EC00F0D6
:103ED0000D0E24EC00F00A0E24EC00F00D0E24EC84
:103EE00000F00A0E24EC00F083989598BAEF1FF0CA
:103EF00004000401655142080001D8A4BAEF1FF084
:103F00008492969283889598410E24EC00F0410E9D
:103F100024EC00F0410E24EC00F0520E24EC00F0F2
:103F2000430E24EC00F0000E24EC00F0000E24EC14
:103F300000F0000E24EC00F0000E24EC00F0420E25
:103F400024EC00F0010E24EC00F0000E81B2010E12
:103F500024EC00F00D0E24EC00F00A0E24EC00F02E
:103F60000D0E24EC00F00A0E24EC00F083989598D6
:103F70008482969212000101176B00010400040E66
:103F80000101175D0001D8B021EF20F017C107F043
:103F9000086A020E036E046AD8EC00F0136E06C0C5
:103FA00014F01350FF0FE96E010E1420EA6EEFCFEC
:103FB00013F00400F00E135CD8B01CEF20F017C112
:103FC00007F0086A020E036E046AD8EC00F0136E64
:103FD00006C014F0132A000E14221350FF0FE96ECE
:103FE000010E1420EA6EEFCFDEF00400D896DEBF9B
:103FF000D886D8B60DEF20F00400D896010101A1B3
:10400000D8860001D8B609EF20F048EC21F00BEF7C
:1040100020F022EC20F01CEF20F00400D8960101E3
:1040200001B1D8860001D8B61AEF20F048EC21F093
:104030001CEF20F022EC20F00101172B0001D8A08A
:104040009DD7120017C107F0086A020E036E046ABA
:10405000D8EC00F0136E06C014F01350FF0FE96E99
:10406000010E1420EA6EEFCFE7F0E7C001F0026A1C
:10407000080E036E046AC0EC00F0136E02C014F068
:104080001350CD0FE96E040E1420EA6EEFCFD1F07D
:10409000E7C001F0026A080E036E046AC0EC00F08B
:1040A000136E02C014F01350450FE96E050E142074
:1040B000EA6EEFCFD2F0E7C001F0026A080E036E9D
:1040C000046AC0EC00F0136E02C014F01350BD0F70
:1040D000E96E050E1420EA6EEFCFD3F0E7C001F0D1
:1040E000026A080E036E046AC0EC00F0136E02C090
:1040F00014F01350350FE96E060E1420EA6EEFCF60
:10410000D4F0D96B0101010E286F0001FD51F1259A
:10411000136E146A143628C101F0026A14C004F048
:10412000135096EC00F0D8A447EF21F001012805C8
:10413000136E146A000E145A1350910FE96E040E98
:104140001420EA6EEFCF13F00001D151135CD8A414
:10415000E868FF0A136E01012805156E166A000E45
:10416000165A1550090FE96E050E1620EA6EEFCFAC
:1041700015F00001D251155CD8A4E868FF0A156E4D
:1041800013C001F01550B4EC00F0156E166E01016D
:104190002805176E186A000E185A1750810FE96E1D
:1041A000050E1820EA6EEFCF17F00001D351175C0F
:1041B000D8A4E868FF0A176E15501610016E175044
:1041C000B4EC00F0176E186E01012805196E1A6A1A
:1041D000000E1A5A1950F90FE96E050E1A20EA6EF0
:1041E000EFCF19F00001D451195CD8A4E868FF0A98
:1041F000196E17501810016E1950B4EC00F0196EBA
:104200001A6E040019501A10D8B42CEF21F0D9C03E
:1042100007F0086A080E036E046AD8EC00F0136E0B
:1042200006C014F0E7C001F0026A080E036E046ACB
:10423000C0EC00F005C015F006C016F013501524B0
:10424000E46FE4C0E5F0E66BE36BAAEC22F0FD510D
:10425000F1250101286F000101012805136E146A80
:10426000000E145A1350910FE96E040E1420EA6EDA
:10427000EFCF13F00400135049080001D8A442EF17
:1042800021F0D92B0101282B0001D8A03FD7120023
:1042900017C107F0086A020E036E046AD8EC00F03A
:1042A000136E06C014F01350FF0FE96E010E1420B8
:1042B000EA6EEFCFE7F0E7C001F0026A080E036E86
:1042C000046AC0EC00F0136E02C014F01350CD0F5E
:1042D000E96E040E1420EA6EEFCFD1F0E7C001F0D2
:1042E000026A080E036E046AC0EC00F0136E02C08E
:1042F00014F01350450FE96E050E1420EA6EEFCF4F
:10430000D2F0E7C001F0026A080E036E046AC0EC46
:1043100000F0136E02C014F01350BD0FE96E050ECD
:104320001420EA6EEFCFD3F0E7C001F0026A080E66
:10433000036E046AC0EC00F0136E02C014F0135058
:10434000350FE96E060E1420EA6EEFCFD4F0D96B6C
:104350000101010E286F0001FD51F125136E146A51
:10436000143628C101F0026A14C004F0135096EC10
:1043700000F0D8A4A9EF22F001012805136E146AF9
:10438000000E145A1350910FE96E040E1420EA6EB9
:10439000EFCF13F00001D151135CD8A4E868FF0AF5
:1043A000136E01012805156E166A000E165A155077
:1043B000090FE96E050E1620EA6EEFCF15F0000129
:1043C000D251155CD8A4E868FF0A156E13C001F03D
:1043D0001550B4EC00F0156E166E01012805176E2D
:1043E000186A000E185A1750810FE96E050E182032
:1043F000EA6EEFCF17F00001D351175CD8A4E8683C
:10440000FF0A176E15501610016E1750B4EC00F02D
:10441000176E186E01012805196E1A6A000E1A5AD5
:104420001950F90FE96E050E1A20EA6EEFCF19F058
:104430000001D451195CD8A4E868FF0A196E17501E
:104440001810016E1950B4EC00F0196E1A6E0400C9
:1044500019501A10D8B48EEF22F0D9C007F0086AAC
:10446000080E036E046AD8EC00F0136E06C014F058
:10447000E7C001F0026A080E036E046AC0EC00F0A7
:1044800005C015F006C016F013501524E46F17C1CF
:1044900007F0086A020E036E046AD8EC00F0136E8F
:1044A00006C014F0132A000E14221350FF0FE96EF9
:1044B000010E1420EA6EEFCF2EF10F0E01012E1522
:1044C0002F6F2FC107F0086A100E036E046A0001F7
:1044D000D8EC00F001012F6F04002F5100080001FB
:1044E000D8A477EF22F00101040E2F6F00012FC135
:1044F000E6F02EC101F0026A040E86EC00F0010124
:104500002F6F2F972FC1E3F0E4C0E5F00001AAEC74
:1045100022F0FD51F1250101286F0001010128055C
:10452000136E146A000E145A1350910FE96E040EA4
:104530001420EA6EEFCF13F0040013504908000175
:10454000D8A4A4EF22F0D92B0101282B0001D8A078
:1045500003D7120001010D51B50FE96E070EEA6A8B
:10456000EA22EF6A0D51FA0FE96E070EEA6AEA22B3
:10457000030EEF6E0D513F0FE96E080EEA6AEA2254
:10458000E5C0EFFF0D51840FE96E080EEA6AEA22DA
:10459000E6C0EFFF0D51C90FE96E080EEA6AEA2284
:1045A000E3C0EFFF0D51670FE96E0A0EEA6AEA22D7
:1045B000EF6A0D51220FE96E0A0EEA6AEA22EF6AEB
:1045C0000D51DD0FE96E090EEA6AEA22060EEF6E62
:1045D000000182EC17F01200C26B010EC96F0400DB
:1045E000C9515F5CD8A0A0EF24F01D0EC925136E41
:1045F000146A14361350CD0FE96E040E1420EA6EBF
:10460000EFCF13F004015F51135CD8A4E868FF0AF0
:10461000136E1D0E0001C925156E166A1636460E5C
:10462000E96EEA6A1550000F0EEC00F0000ED8A4F7
:10463000010E156E166A15C001F016C002F0046A6C
:10464000010E8CEC00F0156E13C001F01550B4ECA7
:1046500000F0156E166E040015501610D8B432EF27
:1046600023F0C22B1D0EC925136E146A1436135085
:10467000CD0FE96E040E1420EA6EEFCF13F00401A3
:104680005F51135CD8A4E868FF0A136E1D0E000189
:10469000C925156E166A16361550450FE96E050EBA
:1046A0001620EA6EEFCF15F004016051155CD8A416
:1046B000E868FF0A156E13C001F015500001B4EC54
:1046C00000F0156E166E1D0EC925176E186A183685
:1046D0001750BD0FE96E050E1820EA6EEFCF17F0E8
:1046E00004016151175CD8A4E868FF0A176E1550E1
:1046F0001610016E17500001B4EC00F0176E186E22
:104700001D0EC925196E1A6A1A361950350FE96E31
:10471000060E1A20EA6EEFCF19F004016251195CFF
:10472000D8A4E868FF0A196E17501810016E1950C6
:104730000001B4EC00F0196E1A6E040019501A1042
:10474000D8B49DEF24F0C905136E146A000E145AF4
:104750001350850FE96E010E1420EA6E63C4EFFF5B
:10476000C905136E146A000E145A1350850FE96EB2
:10477000010E1420EA6EEFCF13F0C905156E166A0C
:10478000000E165A1550A30FE96E010E1620EA6EA0
:10479000EFCF15F0135015180101036F0400010E3F
:1047A000035D0001D8A09BEF24F0B7EC27F00101D6
:1047B000086B00010400080E0101085D0001D8B07B
:1047C00097EF24F0C905136E146A000E145A13C033
:1047D00007F014C008F0080E036E046AD8EC00F06D
:1047E000136E06C014F0135001010825246F03C195
:1047F00001F0026A0851000186EC00F001012E6F01
:10480000720EE96EEA6A2451000F00010EEC00F00E
:10481000000ED8A4010E136E146A13C001F014C068
:1048200002F0046A010E8CEC00F0136EE86A0101DC
:104830002EB1E868156E13C001F015500001B4ECFC
:1048400000F0156E166E040015501610D8B492EFD5
:1048500024F024C101F0026A200E036E046AC0EC49
:1048600000F0136E02C014F0DD0E1326000E1422A9
:10487000CF51680FE96E0D0EEA6AEA2213C0EFFF0E
:1048800024C101F0026A200E036E046AC0EC00F03D
:1048900005C013F006C014F013C007F014C008F0F0
:1048A000080E036E046AD8EC00F0136E06C014F014
:1048B000CF51F20FE96E0A0EEA6AEA2213C0EFFF47
:1048C000CF51220FE96E0D0EEA6AEA22080EEF6E52
:1048D000CF51AC0FE96E0A0EEA6AEA22EF6ACF51B5
:1048E000DC0FE96E0C0EEA6AEA22EF6A4E0EE96E00
:1048F000EA6ACF51000F0EEC00F0D8801CEC00F0FB
:10490000CF51500FE96E0C0EEA6AEA22C9C0EFFFE0
:10491000CF51960FE96E0C0EEA6AEA2208C1EFFF4A
:1049200087EC4BF00101082B0001D8A043D7A1EC84
:1049300024F09DEF24F0A1EC24F0C92BD8A04FD691
:1049400012001D0EC925136E146A1436460EE96E48
:10495000EA6A1350000F0EEC00F0000ED8A4010E0E
:10496000136E146A010E016E026A14C004F0135033
:10497000A2EC00F0D8A4F2EF24F0C9C018F17CEC4E
:1049800025F001014B0E196F0001C905136E146A61
:10499000000E145A1350850FE96E010E1420EA6EB2
:1049A000EFCF1AF10DEC25F0C905156E166A000E51
:1049B000165AC905136E146A000E145A1350850F47
:1049C000E96E010E1420EA6EEFCF13F01550A30F1D
:1049D000E96E010E1620EA6E13C0EFFF5FC0C9F04A
:1049E0000CEF25F0C905156E166A000E165AC9059A
:1049F000136E146A000E145A1350850FE96E010EDF
:104A00001420EA6EEFCF13F01550A30FE96E010EDC
:104A10001620EA6E13C0EFFF1200050E026E460E5E
:104A200071EC00F083889598410E24EC00F0410E63
:104A300024EC00F0410E24EC00F0520E24EC00F0C7
:104A4000430E24EC00F01D0EC925136E146A1436B3
:104A50001350CD0FE96E040E1420EA6EEFCF13F061
:104A6000135024EC00F01D0EC925136E146A143681
:104A70001350450FE96E050E1420EA6EEFCF13F0C8
:104A8000135024EC00F01D0EC925136E146A143661
:104A90001350BD0FE96E050E1420EA6EEFCF13F030
:104AA000135024EC00F01D0EC925136E146A143641
:104AB0001350350FE96E060E1420EA6EEFCF13F097
:104AC000135024EC00F001011951000124EC00F016
:104AD00001011A51000124EC00F00D0E24EC00F04D
:104AE0000A0E24EC00F00D0E24EC00F00A0E24EC6B
:104AF00000F0839895981200040004015F51440867
:104B00000001D8A48AEF25F0010EC46F8EEC25F0C9
:104B10008DEF25F0C46B8EEC25F012000400C4511B
:104B20000108D8A45CEF26F00101086B0001040025
:104B3000080E0101085D0001D8B05CEF26F0C451F9
:104B4000330FE96E010EEA6AEA22EFCF13F0C205D5
:104B5000156E166A000E165A15C007F016C008F03A
:104B6000080E036E046AD8EC00F0156E06C016F04D
:104B700013501526E86A1622155001010825296FE1
:104B80002951ED0FE96E060EEA6AEA22EFCF13F023
:104B9000060E0825156E166A163615505F0FE96E5B
:104BA000040E1620EA6EEFCF15F0135015182D6F76
:104BB0001805136E146A000E145A1350850FE96E0F
:104BC000010E1420EA6EEFCF13F013C001F0026A59
:104BD0000851000186EC00F001012E6F2DC101F09B
:104BE000000E000194EC00F0136EE86A01012EB192
:104BF000E868156E13C001F015500001B4EC00F028
:104C0000156E166E040015501610D8B442EF26F03B
:104C100001012951AD0FE96E060EEA6AEA22EFCFD3
:104C200013F00400400E135C0001D8B042EF26F0F0
:104C3000060E01010825136E146A143613505F0F17
:104C4000E96E040E1420EA6EEFCF13F013C007F0E4
:104C5000086A040E036E046A0001D8EC00F0136EBB
:104C600006C014F0020E132401011C6F1E6B2951A3
:104C7000AD0FE96E060EEA6AEA22EFCF1FF10001DE
:104C800056EC27F0060E01010825136E146A14363F
:104C900013505F0FE96E040E1420EA6EEFCF13F08D
:104CA0002951ED0FE96E060EEA6AEA2213C0EFFF02
:104CB000082B0001D8A03BD701011805136E146A18
:104CC000000E145A1350850FE96E010E1420EA6E7F
:104CD000EFCF13F01805156E166A000E165A155010
:104CE000A30FE96E010E1620EA6EEFCF15F01350F8
:104CF00015182D6F0400010E2D5D0001D8A055EF91
:104D000027F00101086B00010400080E0101085D95
:104D10000001D8B055EF27F02DC101F0026A010162
:104D20000851000186EC00F001012E6F0400D896B6
:104D30002EA1D8860001D8B650EF27F0C451330F0A
:104D4000E96E010EEA6AEA22EFCF13F0C205156E92
:104D5000166A000E165A15C007F016C008F0080EA5
:104D6000036E046AD8EC00F0156E06C016F01350FE
:104D70001526E86A1622155001010825296F2951C8
:104D8000AD0FE96E060EEA6AEA22EFCF2FF11805A1
:104D9000136E146A000E145A1350850FE96E010E3B
:104DA0001420EA6EEFCF13F013C001F0026A08512D
:104DB000000186EC00F001012B6F0400400E2F5D16
:104DC0000001D8B050EF27F00400D89601012BA1C4
:104DD000D8860001D8B642EF27F00400C45101087C
:104DE000D8A431EF27F001012951ED0FE96E060E2D
:104DF000EA6AEA22EFCF13F013C007F0086A040E44
:104E0000036E046A0001D8EC00F0136E06C014F0C3
:104E1000020E132401011C6F1E6B2951AD0FE96EA8
:104E2000060EEA6AEA22EFCF1FF1000156EC27F0E6
:104E3000060E01010825136E146A143613505F0F15
:104E4000E96E040E1420EA6EEFCF13F02951ED0F36
:104E5000E96E060EEA6AEA2213C0EFFF000140EF96
:104E600027F00101FE0E1C6F1E6B2951AD0FE96E7C
:104E7000060EEA6AEA22EFCF1FF1000156EC27F096
:104E800050EF27F001011C6B1E6B2951AD0FE96E2D
:104E9000060EEA6AEA22EFCF1FF1000156EC27F076
:104EA0000101082B0001D8A02FD712000101166BB9
:104EB0000001E86A38A0E868136E16C101F01C0E04
:104EC0009CEC00F0156E13C001F01550B4EC00F02E
:104ED000156E166E040015501610D8B471EF27F039
:104EE000E8D70101830E196F1A6BD8901F351B6F1D
:104EF00004001E5100080001D8A485EF27F0FE0E23
:104F000001011B17000189EF27F0010E01011B139E
:104F10000001010119511A19136E146A1B51131A59
:104F20001C5113181D6F0001DCEC14F00101195124
:104F300000012BEC00F001011A5100012BEC00F0F4
:104F400001011B5100012BEC00F001011C5100017B
:104F50002BEC00F001011D5100012BEC00F00400CE
:104F600038A0B5EF27F0E4EC14F038901200FB6B9A
:104F7000F46B010EDD6F0400DD515F5CD8A0A1EF82
:104F800028F01D0EDD25136E146A14361350CD0F54
:104F9000E96E040E1420EA6EEFCF13F013504F08A1
:104FA000D8A4E868FF0A136E1D0EDD25156E166A7B
:104FB00016361550CD0FE96E040E1620EA6EEFCFAF
:104FC00015F015504408D8A4E868FF0A156E13C000
:104FD00001F01550BBEC00F0156E166E1D0EDD25B0
:104FE000176E186A18361750CD0FE96E040E182088
:104FF000EA6EEFCF17F017505208D8A4E868FF0AFE
:10500000176E15501610016E1750BBEC00F0176E9E
:10501000186E1D0EDD25196E1A6A1A361950CD0F3D
:10502000E96E040E1A20EA6EEFCF19F019506F08DE
:10503000D8A4E868FF0A196E17501810016E1950AD
:10504000BBEC00F0196E1A6E1D0EDD251B6E1C6A7E
:105050001C361B50CD0FE96E040E1C20EA6EEFCFFC
:105060001BF01B506408D8A4E868FF0A1B6E195097
:105070001A10016E1B50BBEC00F01B6E1C6E04007E
:105080001B501C10D8B49EEF28F0EE6B0400080EE5
:10509000EE5DD8B09EEF28F0DD05136E146A000EA9
:1050A000145A1350850FE96E010E1420EA6EEFCFEB
:1050B00013F013C001F0026AEE5186EC00F001011A
:1050C0002D6F0001DD05136E146A000E145A13C013
:1050D00007F014C008F0080E036E046AD8EC00F064
:1050E000136E06C014F01350EE2501012E6F04005C
:1050F000D8962DA1D8860001D8B69BEF28F0900E47
:10510000E96EEA6A01012E51000F00010EEC00F079
:10511000000ED8A4010E136E146A016A026A14C04C
:1051200004F01350A2EC00F0D8A49AEF28F0FB2B67
:105130009BEF28F0F42BEE2BD8A0A8D7DD2BD8A01E
:105140001AD7DD6B0400100EDD5DD8B00FEF29F02B
:105150003D0EE96EEA6ADD51000F0EEC00F0000E24
:10516000D8A4010E136E146A010E016E026A14C0F7
:1051700004F01350A2EC00F0D8A40CEF29F0EE6B71
:10518000DD510008D8A4E868FF0A136EF451000846
:10519000D8A4E868FF0A156E13C001F01550B4ECEE
:1051A00000F0156E166E040015501610D8B4DDEF21
:1051B00028F084EC29F00CEF29F0DD510108D8A487
:1051C000E868FF0A136EF4C001F0000E94EC00F0E2
:1051D000156E13C001F01550B4EC00F0156E166E8C
:1051E000040015501610D8B4FAEF28F084EC29F01A
:1051F0000CEF29F0DD05136E146A000E145AF4C08A
:1052000001F0026A14C004F0135099EC00F0D8A425
:105210000CEF29F084EC29F0DD2BD8A093D7DD6BBF
:105220000400100EDD5DD8B083EF29F0010EEE6FA3
:10523000100EDD25136E146A14363D0EE96EEA6A0F
:105240001350000F0EEC00F0000ED8A4010E136EE8
:10525000146A010E016E026A14C004F01350A2EC2D
:1052600000F0D8A480EF29F0DD510008D8A4E86848
:10527000FF0A136EFB510008D8A4E868FF0A156EF8
:1052800013C001F01550B4EC00F0156E166E04005A
:1052900015501610D8B451EF29F084EC29F080EFA6
:1052A00029F0DD510108D8A4E868FF0A136EFBC09D
:1052B00001F0000E94EC00F0156E13C001F01550D3
:1052C000B4EC00F0156E166E040015501610D8B42C
:1052D0006EEF29F084EC29F080EF29F0DD05136EE4
:1052E000146A000E145AFBC001F0026A14C004F0E4
:1052F000135099EC00F0D8A480EF29F084EC29F049
:10530000DD2BD8A08DD71200CF51680FE96E0D0E9E
:10531000EA6AEA22E50EEF6EDDC007F0086A080EC1
:10532000036E046AD8EC00F0136E06C014F0EEC0F1
:1053300007F0086A800E036E046AD8EC00F0156E60
:1053400006C016F01350152614501622CF51F20F36
:10535000E96E0A0EEA6AEA2215C0EFFFCF51220F6A
:10536000E96E0D0EEA6AEA22080EEF6ECF51AC0F1D
:10537000E96E0A0EEA6AEA22020EEF6ECF51DC0FE6
:10538000E96E0C0EEA6AEA22EF6A4E0EE96EEA6AEC
:10539000CF51000F0EEC00F0D8801CEC00F0CF5184
:1053A000500FE96E0C0EEA6AEA22DDC0EFFFCF5122
:1053B000960FE96E0C0EEA6AEA22F4C0EFFF87EC62
:1053C0004BF01200040163514908D8A4E868FF0AB1
:1053D000136E67514508D8A4E868FF0A156E13C01C
:1053E00001F015500001B4EC00F0156E166E0400CB
:1053F00015501610D8B403EF2AF0C8EC31F039EC90
:105400002FF00BEF2BF0040163514608D8A4E86895
:10541000FF0A136E64515608D8A4E868FF0A156E97
:1054200013C001F015500001B4EC00F0156E166EBB
:10543000040015501610D8B427EF2AF00101560EBB
:10544000196F0001C8690CEC2BF00BEF2BF0040175
:1054500063514608D8A4E868FF0A136E64515808DF
:10546000D8A4E868FF0A156E13C001F015500001BA
:10547000B4EC00F0156E166E040015501610D8B47A
:10548000DDEF2AF004015F516025136E146A1436B3
:1054900061511326E86A142262511326E86A142225
:1054A00063511326E86A142264511326E86A142211
:1054B00065511324596EE86A14205A6E076A010E6A
:1054C000086E67C403F0046A0001D8EC00F0136EA4
:1054D00006C014F0040168511326E86A142259C06A
:1054E00001F05AC002F014C004F0135000018CEC1B
:1054F00000F0136E040166514308D8A4E868FF0A5F
:10550000156E13C001F015500001B4EC00F0156EDB
:10551000166E040015501610D8B4D3EF2AF004000C
:105520000401655100080001D8A49FEF2AF0010191
:10553000580E196F00010CEC2BF01FEC44F0040026
:105540000401655101080001D8A4B8EF2AF0010157
:10555000580E196F00010CEC2BF0F26BF36B300E50
:10556000746E010E756EF25154EC00F0C8EC0DF043
:1055700004000401655102080001D8A4D1EF2AF00B
:105580000101580E196F00010CEC2BF0FE6BFF6B44
:10559000310E746E010E756EFE5154EC00F001EC8C
:1055A0000EF0DBEF2AF0040EC86F0101580E196FE0
:1055B00000010CEC2BF00BEF2BF0040163514608BB
:1055C000D8A4E868FF0A136E64515208D8A4E868AA
:1055D000FF0A156E13C001F015500001B4EC00F085
:1055E000156E166E040015501610D8B40BEF2BF084
:1055F0004A0E746E010E756E04016551000154EC83
:1056000000F00101520E196F00010CEC2BF0050E99
:1056100063EC00F0FF0012008388959804000101FC
:10562000195156080001D8A4D3EF2BF0430EE825FA
:10563000136E146A1436E9511326E86A1422EA51EB
:105640001326E86A1422460E1326000E1422560E64
:105650001326000E1422FF0E1326000E1422132A06
:10566000000E1422030E1326000E1422132A000E1D
:105670001422210E1324596E000E14205A6E410E6E
:1056800024EC00F0410E24EC00F0410E24EC00F07C
:10569000520E24EC00F0430E24EC00F0430E24ECF8
:1056A00000F0E85124EC00F0E95124EC00F0EA515C
:1056B00024EC00F0460E24EC00F0560E24EC00F032
:1056C000FF0E24EC00F0010E24EC00F0030E24EC9D
:1056D00000F0010E24EC00F0210E24EC00F0000E8E
:1056E00024EC00F0430E24EC00F05A5024EC00F0BF
:1056F000595024EC00F00D0E24EC00F00A0E24ECBE
:1057000000F00D0E24EC00F00A0E24EC00F0410E27
:1057100024EC00F0410E24EC00F0410E24EC00F0EB
:10572000520E24EC00F0430E24EC00F0430E24EC67
:1057300000F0E85124EC00F0E95124EC00F0EA51CB
:1057400024EC00F0460E24EC00F0560E24EC00F0A1
:10575000FF0E24EC00F0010E24EC00F0030E24EC0C
:1057600000F0010E24EC00F0210E24EC00F0000EFD
:1057700024EC00F0430E24EC00F05A5024EC00F02E
:10578000595024EC00F00D0E24EC00F00A0E24EC2D
:1057900000F00D0E24EC00F00A0E24EC00F08398CB
:1057A000959803EF2DF004000101195152080001F2
:1057B000D8A46CEF2CF0430EE825136E146A14364F
:1057C000E9511326E86A1422EA511326E86A1422E2
:1057D000460E1326000E1422520E1326000E14221B
:1057E000FF0E1324596E000E14205A6E410E24EC45
:1057F00000F0410E24EC00F0410E24EC00F0520EBB
:1058000024EC00F0430E24EC00F0430E24EC00F0F6
:10581000E85124EC00F0E95124EC00F0EA5124ECCA
:1058200000F0460E24EC00F0520E24EC00F0FF0EC7
:1058300024EC00F0430E24EC00F05A5024EC00F06D
:10584000595024EC00F00D0E24EC00F00A0E24EC6C
:1058500000F00D0E24EC00F00A0E24EC00F0410ED6
:1058600024EC00F0410E24EC00F0410E24EC00F09A
:10587000520E24EC00F0430E24EC00F0430E24EC16
:1058800000F0E85124EC00F0E95124EC00F0EA517A
:1058900024EC00F0460E24EC00F0520E24EC00F054
:1058A000FF0E24EC00F0430E24EC00F05A5024ECE0
:1058B00000F0595024EC00F00D0E24EC00F00A0E1C
:1058C00024EC00F00D0E24EC00F00A0E24EC00F0A5
:1058D0008398959803EF2DF00400010119515808A1
:1058E0000001D8A403EF2DF0430EE825136E146ACF
:1058F0001436E9511326E86A1422EA511326E86A9D
:105900001422460E1326000E1422580E1326000EE3
:105910001422C8511324596EE86A14205A6E410E9D
:1059200024EC00F0410E24EC00F0410E24EC00F0D9
:10593000520E24EC00F0430E24EC00F0430E24EC55
:1059400000F0E85124EC00F0E95124EC00F0EA51B9
:1059500024EC00F0460E24EC00F0580E24EC00F08D
:10596000C85124EC00F0430E24EC00F05A5024EC13
:1059700000F0595024EC00F00D0E24EC00F00A0E5B
:1059800024EC00F00D0E24EC00F00A0E24EC00F0E4
:10599000410E24EC00F0410E24EC00F0410E24EC0A
:1059A00000F0520E24EC00F0430E24EC00F0430E05
:1059B00024EC00F0E85124EC00F0E95124EC00F074
:1059C000EA5124EC00F0460E24EC00F0580E24ECD2
:1059D00000F0C85124EC00F0430E24EC00F05A50C3
:1059E00024EC00F0595024EC00F00D0E24EC00F0F3
:1059F0000A0E24EC00F00D0E24EC00F00A0E24EC4C
:105A000000F0839895988398959812000400010EF1
:105A1000F15DD8A004EF2FF0D96B35980101010E8C
:105A2000186F0001FD51F125136E146A143618C168
:105A300001F0026A14C004F0135096EC00F0D8A4F0
:105A400004EF2FF001011805136E146A000E145AAA
:105A50001350910FE96E040E1420EA6EEFCF13F08D
:105A600004015F51135CD8A4E868FF0A136E0101BA
:105A70001805156E166A000E165A1550090FE96EB4
:105A8000050E1620EA6EEFCF15F004016051155C8B
:105A9000D8A4E868FF0A156E13C001F01550000184
:105AA000B4EC00F0156E166E01011805176E186A39
:105AB000000E185A1750810FE96E050E1820EA6E75
:105AC000EFCF17F004016151175CD8A4E868FF0A12
:105AD000176E15501610016E17500001B4EC00F04F
