:020000040000FA
:04000000A9EF3FF035
:04000800D7EF02F03C
:080018003CEF03F0096EF80B48
:10002000E830E830E830E926D8B0EA2A23EC00F0DE
:10003000096EEF14CEEF00F004009EA8FDD7AD6E60
:10004000D880CEEF00F0010E09B0E84409B2E844D0
:1000500009B2E84409B4E838120002500110D8B4DB
:10006000012A800E01B8021A01B4021A01B2021A62
:10007000023401360236CEEF00F07F6A7F80735083
:10008000744A752ACEEF00F0E86A736E7F6A7F8447
:10009000550E7E6EAA0E7E6E7F827FB2FED77F9453
:1000A000744A752ACEEF00F0046A036EE86A03060C
:1000B000045AD8A0CEEF00F0030E026EE70E02D86D
:1000C000F5D7026AFE0F016EE86A025AD8A0120044
:1000D0000400010600D0F8D7D89001360236FF0F91
:1000E000FBE20150CEEF00F0D89002320132FF0F58
:1000F000FBE20150CEEF00F0036E060E02D0036E5D
:10010000050E096E0450025C02E10350015C040E0E
:10011000D8B0010ED8B4020E0914D8A4FF0ECEEF49
:1001200000F0E866FF0E0114D8A4FF0ECEEF00F039
:10013000066A056A100E076E02340536063603504D
:10014000055E0450065A05E20350052604500622B7
:10015000D89001360236072EEFD70150CEEF00F0CF
:1001600003500702F3CF05F0F4CF06F00450080265
:10017000F3CF01F0F4CF02F00702F3500626F4505B
:100180000122E86A022203500802F3500626F450C6
:100190000122E86A02220550CEEF00F000010400BF
:1001A0001200030EAF6E200EAC6E900EAB6E1E6A88
:1001B000DAEF00F03090ADEF01F0040030B034EF32
:1001C00001F001C08CF002C08DF003C090F004C0BB
:1001D00091F005C094F006C095F007C098F008C0F3
:1001E00099F009C09CF00AC09DF00BC09EF00CC0B5
:1001F0009FF00DC0A0F00EC0A1F00FC0A2F010C083
:10020000A3F011C0A4F012C0A5F000C0A6F01DC05C
:10021000A7F01FC0A8F020C0A9F021C0AAF022C0FA
:10022000ABF0F8CFCAF0F7CFCDF0F6CFCCF023C0CB
:10023000ACF024C0ADF0F3CFCEF0F4CFCFF013C0CC
:10024000AEF014C0AFF015C0B2F016C0B3F017C0D6
:10025000B6F018C0B7F019C0BAF01AC0BBF01BC096
:10026000BEF01CC0BFF030801EB43EEF01F02BC0CA
:10027000FBFF2AC0FAFF2950E06AF96E28C0FBFF95
:1002800027C0FAFF2650E06AF96E040030A09CEF08
:1002900001F08CC001F08DC002F090C003F091C05D
:1002A00004F094C005F095C006F098C007F099C01E
:1002B00008F09CC009F09DC00AF09EC00BF09FC0E2
:1002C0000CF0A0C00DF0A1C00EF0A2C00FF0A3C0B2
:1002D00010F0A4C011F0A5C012F0A6C000F0A7C095
:1002E0001DF0A8C01FF0A9C020F0AAC021F0ABC02B
:1002F00022F0CAC0F8FFCDC0F7FFCCC0F6FFACC0FB
:1003000023F0ADC024F0CEC0F3FFCFC0F4FFAEC0E9
:1003100013F0AFC014F0B2C015F0B3C016F0B6C001
:1003200017F0B7C018F0BAC019F0BBC01AF0BEC0C1
:100330001BF0BFC01CF030901EB4A6EF01F02BC024
:10034000FBFF2AC0FAFF2950E06AF96E28C0FBFFC4
:1003500027C0FAFF2650E06AF96E309280EF02F073
:10036000040030B207EF02F001C0D0F002C0D1F0BB
:1003700003C0D4F004C0D5F005C0D8F006C0D9F051
:1003800007C0DCF008C0DDF009C0E0F00AC0E1F011
:100390000BC0E2F00CC0E3F00DC0E4F00EC0E5F0DD
:1003A0000FC0E6F010C0E7F011C0E8F012C0E9F0AD
:1003B00000C0EAF01DC0EBF01FC0ECF020C0EDF073
:1003C00021C0EEF022C0EFF0F8CF0EF1F7CF11F11F
:1003D000F6CF10F123C0F0F024C0F1F0F3CF12F10A
:1003E000F4CF13F113C0F2F014C0F3F015C0F6F01F
:1003F00016C0F7F017C0FAF018C0FBF019C0FEF0F5
:100400001AC0FFF01BC002F11CC003F130821EB401
:1004100011EF02F02BC0FBFF2AC0FAFF2950E06A5F
:10042000F96E28C0FBFF27C0FAFF2650E06AF96E7C
:10043000040030A26FEF02F0D0C001F0D1C002F092
:10044000D4C003F0D5C004F0D8C005F0D9C006F080
:10045000DCC007F0DDC008F0E0C009F0E1C00AF040
:10046000E2C00BF0E3C00CF0E4C00DF0E5C00EF00C
:10047000E6C00FF0E7C010F0E8C011F0E9C012F0DC
:10048000EAC000F0EBC01DF0ECC01FF0EDC020F0A2
:10049000EEC021F0EFC022F00EC1F8FF11C1F7FF4E
:1004A00010C1F6FFF0C023F0F1C024F012C1F3FF39
:1004B00013C1F4FFF2C013F0F3C014F0F6C015F04E
:1004C000F7C016F0FAC017F0FBC018F0FEC019F024
:1004D000FFC01AF002C11BF003C11CF030921EB421
:1004E00079EF02F02BC0FBFF2AC0FAFF2950E06A27
:1004F000F96E28C0FBFF27C0FAFF2650E06AF96EAC
:100500000F015D6B5C6B506BC880C882C894C89645
:10051000C898C88AC88C280EC66E959883989598F6
:10052000948E949CA79AA786A7987D6A560EAF6E64
:10053000100EAB6E040EAC6EB99AB986B9987C6A8F
:10054000560E7B6E100EA66E040EBA6E010E046E71
:10055000900E000155EC00F05E6A556A396A3A6AFD
:100560002F962F943B6A3C6A4C6A2E9A2E984C0E1A
:10057000536E2F9C576A2E9E4C6A2E9A376A386AA1
:100580002F902F8A84829692849496942E929382AE
:100590009380948894869590958695949592928A66
:1005A0009286839495948382959238EF03F0FBCFE3
:1005B0006FF0FACF6DF0E9CF60F0EACF61F0E1CFF4
:1005C00064F0E2CF65F0D9CF68F0DACF69F01E842D
:1005D0001E90E06A9DAA02EF03F09EAA02EF03F0CC
:1005E0001E800400F40E266E050E276E000E286E87
:1005F000DDEF00F0040E266E060E276E000E286E4C
:100600008CEF04F0E06AA3AA1BEF03F0A4AA1BEF8F
:1006100003F01E800400260E266E060E276E000EC6
:10062000286EDDEF00F0360E266E060E276E000EE9
:10063000286E03EF05F0E06A1EB0E8EF02F04C0E02
:10064000266E060E276E000E286E1FD61E9460C002
:10065000E9FF61C0EAFF64C0E1FF65C0E2FF68C076
:10066000D9FF69C0DAFF6DC0FAFF6FC0FBFF110050
:10067000F28EF28CC0EF03F0E8CF25F0D8CF71F006
:10068000E0CF6CF0FBCF70F0FACF6EF0E9CF62F004
:10069000EACF63F0E1CF66F0E2CF67F0D9CF6AF03E
:1006A000DACF6BF01E94E06A1E92F2AA6DEF03F0AF
:1006B000F2A46DEF03F01E820400C80E296E060E30
:1006C0002A6E000E2B6E4CD6D80E296E060E2A6EA0
:1006D000000E2B6E18EF05F0F294E06A9DA286EFF3
:1006E00003F09EA286EF03F01E820400FA0E296E2C
:1006F000060E2A6E000E2B6E33D60A0E296E070EDA
:100700002A6E000E2B6E2EEF05F09E92E06A9DA6DB
:100710009EEF03F09EA69EEF03F01E8204002C0EB7
:10072000296E070E2A6E000E2B6E1AD63C0E296E0D
:10073000070E2A6E000E2B6EA8EF05F0E06A1EB2BF
:1007400053EF03F0520E296E070E2A6E000E2B6E29
:100750006FD662C0E9FF63C0EAFF66C0E1FF67C011
:10076000E2FF6AC0D9FF6BC0DAFF70C0FBFF6EC04A
:10077000FAFF6CC0E0FF25C0E8FF71C0D8FF100091
:10078000D08EF28C810ED56E3C0ECA6E9F8A9D8AE9
:10079000A58AA38AF194F28A9F929D829F969D8654
:1007A000D66AD76AD58E9D82CA849D86F28CF28ED7
:1007B000AB8EAB989D8A9E9AAB88AC8AAAEC0BF064
:1007C000746A756A3DEC00F0526E010E746E756AC3
:1007D0003DEC00F04E6E020E746E756A3DEC00F05A
:1007E0004F6E030E746E756A3DEC00F0506E040E91
:1007F000746E756A3DEC00F0516E440E4E6E400E04
:10080000566E476807EC0DF0040043500108D8A469
:100810000FEF04F0700E566E476807EC0DF07C6B1E
:100820007D6B7E6B7F6B806B816B826B836B11EC5E
:1008300006F0400E746E756A3DEC00F0766F0400B1
:1008400076510308D8B42BEF04F0400E746E756A2D
:10085000030E45EC00F0410E746E756A3DEC00F03D
:10086000766F040076510308D8B43DEF04F0410ED2
:10087000746E756A030E45EC00F0420E746E756A74
:100880003DEC00F0766F040076510108D8B44FEFCC
:1008900004F0420E746E756A010E45EC00F0430ED2
:1008A000746E756A3DEC00F0766F040076510008B6
:1008B000D8B461EF04F0430E746E756A000E45EC17
:1008C00000F04A0E746E756A3DEC00F0766F04001D
:1008D00076510008D8B473EF04F04A0E746E756A4E
:1008E000000E45EC00F04B0E746E756A000E45EC80
:1008F00000F08CEC06F05BEC0CF01EEC0BF090ECD6
:1009000008F080EC06F0040053504908D8A48BEF9F
:1009100004F0FCEC0BF0EDD75DC05CF0AECF5DF009
:1009200004002FACD6EF04F05750140FE96E010EFF
:10093000EA6AEA225DC0EFFF57045B6E5B50140F5A
:10094000E96E010EEA6AEA22EFCF13F013500D08A8
:10095000D8A4E868FF0A136E5750140FE96E010E11
:10096000EA6AEA22EFCF15F015500A08D8A4E86821
:10097000FF0A156E13C001F0155091EC00F0156ED2
:10098000166E040015501610D8B4CAEF04F0AB98D8
:100990002F9C2E8E572A0400B30E575CD8A0D4EF9C
:1009A00004F0AB982F9C2E8EF1EF04F05C505308AE
:1009B000D8A4E868FF0A136E5D505408D8A4E8680C
:1009C000FF0A156E13C001F0155091EC00F0156E82
:1009D000166E040015501610D8B4F1EF04F0576AE3
:1009E0002F8CAB881EB4FCEF04F02BC0FBFF2AC099
:1009F000FAFF2950E06AF96E28C0FBFF27C0FAFF12
:100A00002650E06AF96EAB987ACF5AF0AB881EB4E4
:100A100011EF05F02BC0FBFF2AC0FAFF2950E06A56
:100A2000F96E28C0FBFF27C0FAFF2650E06AF96E76
:100A3000D59EF2944C6A010E436E1EB427EF05F06A
:100A40002BC0FBFF2AC0FAFF2950E06AF96E28C0CC
:100A5000FBFF27C0FAFF2650E06AF96ECA949E9207
:100A60003B2A000E3C22800E016E020E026E3CC03C
:100A700004F03B507FEC00F0D8A44CEF05F02F942D
:100A800039C001F03AC002F0046A000E7CEC00F0BC
:100A9000D8A44CEF05F02F86400E016E1F0E026E9B
:100AA0003CC004F03B507FEC00F0D8A467EF05F0A9
:100AB0003B6A3C6A2F8439C001F03AC002F0046AF4
:100AC000000E7CEC00F0D8A467EF05F02F8637C04D
:100AD00001F038C002F0046A000E7CEC00F0D8A4EB
:100AE00080EF05F03706000E385A016A026A38C0F6
:100AF00004F037507FEC00F0D8A480EF05F02F8091
:100B000039C001F03AC002F0046A000E7CEC00F03B
:100B1000D8A494EF05F004002FA292EF05F0390657
:100B2000000E3A5A2F724192BEEC05F0CA841EB4F0
:100B3000A1EF05F02BC0FBFF2AC0FAFF2950E06AA5
:100B4000F96E28C0FBFF27C0FAFF2650E06AF96E55
:100B50009D964C2A2E8A9E969D861EB4B7EF05F070
:100B60002BC0FBFF2AC0FAFF2950E06AF96E28C0AB
:100B7000FBFF27C0FAFF2650E06AF96E04002EA2A0
:100B800010EF06F00400010E415CD8A010EF06F053
:100B9000040042500008D8A4D0EF05F0839295924B
:100BA000040042500108D8A4E6EF05F04104136E9A
:100BB000146A000E145A2C0EE96EEA6A1350000FE4
:100BC0000EEC00F0D8B48390D8A483800400425087
:100BD0000208D8A4EEEF05F083829592422A040021
:100BE000030E425CD8A010EF06F0426A0400010E2A
:100BF000415CD8A0FDEF05F041060400415000081B
:100C0000D8A410EF06F02E92402A83829592838416
:100C10009594010E026E900E62EC00F08394959410
:100C2000120004002EB22FEF06F0406A746B04002D
:100C3000650E745DD8B02FEF06F00400080E405C1E
:100C4000D8A027EF06F0640E746F2CEF06F080EC4E
:100C500006F0010E54EC00F0742BD8A0E8D7120077
:100C6000030E4024766F76B72D8076A72D9076B54B
:100C70002D8276A52D9276B32D8476A32D9476B110
:100C80002D8676A12D9640507C0FE96E000EEA6A03
:100C9000EA22EFCF13F013C007F0086A050E036EC7
:100CA000046AB0EC00F0136E06C014F0D890143251
:100CB00013321328776F77BF2C8E77AF2C9E77BDBA
:100CC0002C8C77AD2C9C77BB2C8A77AB2C9A77B980
:100CD0002C8877A92C9877B72C8677A72C9677B590
:100CE0002C8477A52C9477B32C8277A32C9277B1A0
:100CF0002C8077A12C900C0E416E426A2E8212003D
:100D000004002EB28BEF06F00400080E405CD8B051
:100D10008BEF06F0A5DF120004002EAEB7EF07F050
:100D2000AB982E9E0400070E575CD8A0B5EF07F0D5
:100D300004000101145144080001D8A4A4EF06F0F6
:100D4000A0EC08F0B5EF07F0010114510008D8A499
:100D5000E868FF0A136E15510008D8A4E868FF0A76
:100D6000156E13C001F01550000191EC00F0156EE6
:100D7000166E010116510008D8A4E868FF0A176E24
:100D800015501610016E1750000191EC00F0176E0F
:100D9000186E010117510008D8A4E868FF0A196EFF
:100DA00017501810016E1950000191EC00F0196EE7
:100DB0001A6E040019501A10D8B488EF07F0010118
:100DC00018514C08D8A4E868FF0A136E19514C0852
:100DD000D8A4E868FF0A156E13C001F01550000191
:100DE00091EC00F0156E166E040015501610D8B474
:100DF00004EF07F0040053504908D8A402EF07F0AD
:100E0000848296924C0E536E010118514908D8A461
:100E1000E868FF0A136E19514908D8A4E868FF0A68
:100E2000156E13C001F01550000191EC00F0156E25
:100E3000166E040015501610D8B42BEF07F059ECBD
:100E40000BF0040053504C08D8A429EF07F084920B
:100E50009692490E536E010118514E08D8A4E868C5
:100E6000FF0A136E19514E08D8A4E868FF0A156EE0
:100E700013C001F01550000191EC00F0156E166ED4
:100E8000040015501610D8B448EF07F02F9A2F869B
:100E9000010118515308D8A4E868FF0A136E1951CC
:100EA0005308D8A4E868FF0A156E13C001F0155066
:100EB000000191EC00F0156E166E0400155016102E
:100EC000D8B465EF07F02F8A2F8601011851540816
:100ED000D8A4E868FF0A136E19514D08D8A4E86831
:100EE000FF0A156E13C001F01550000191EC00F0DF
:100EF000156E166E040015501610D8B486EF07F064
:100F00004D682F9A84729692B8EC07F0B5EF07F00F
:100F100053504908D8A4E868FF0A136E0101145120
:100F20004108D8A4E868FF0A156E13C001F01550F7
:100F3000000191EC00F0156E166E01011551440888
:100F4000D8A4E868FF0A176E15501610016E1750E6
:100F5000000191EC00F0176E186E04001750181085
:100F6000D8B4B5EF07F078EC0CF0576AAB881200F4
:100F7000040001011A5156080001D8A4FFEF07F040
:100F800083889598410E1CEC00F0410E1CEC00F09B
:100F9000410E1CEC00F0520E1CEC00F0430E1CEC59
:100FA00000F0000E1CEC00F0000E1CEC00F0000E37
:100FB0001CEC00F0000E1CEC00F0560E1CEC00F0D7
:100FC0004E501CEC00F0030E1CEC00F0030E1CEC69
:100FD00000F0010E1CEC00F0000E1CEC00F00D0EF9
:100FE0001CEC00F00A0E1CEC00F00D0E1CEC00F0E6
:100FF0000A0E1CEC00F0839895988FEF08F004001F
:1010000001011A5153080001D8A451EF08F0546AA5
:10101000446A0400080E445CD8B04DEF08F0070E97
:101020004424136E146A14361350140FE96E010E23
:101030001420EA6EEFCF13F00400010E135CD8A069
:101040003CEF08F0800E016E026A445077EC00F02D
:10105000766F7651541244500708136E000ED8A0D4
:10106000E804146E13507C0FE96E000E1420EA6E33
:101070003F0EEF6E4AEF08F044500708136E000E63
:10108000D8A0E804146E13507C0FE96E000E1420F3
:10109000EA6EEF6A442AD8A0BCD741EC0BF08FEF80
:1010A00008F0040001011A5142080001D8A48FEF92
:1010B00008F083889598410E1CEC00F0410E1CEC62
:1010C00000F0410E1CEC00F0520E1CEC00F0430E40
:1010D0001CEC00F0000E1CEC00F0000E1CEC00F00C
:1010E000000E1CEC00F0000E1CEC00F0420E1CEC9C
:1010F00000F0010E1CEC00F0000E81B2010E1CECA1
:1011000000F00D0E1CEC00F00A0E1CEC00F00D0EB1
:101110001CEC00F00A0E1CEC00F08398959812006D
:101120000400ABA496EF08F0AECF76F00400ABA2BB
:101130009FEF08F0AB98020E54EC00F0AB88120061
:10114000010114514E5CD8A4E868FF0A136E1551D2
:101150004F5CD8A4E868FF0A156E13C001F0155063
:10116000000191EC00F0156E166E01011651505CF5
:10117000D8A4E868FF0A176E15501610016E1750B4
:10118000000191EC00F0176E186E01011751515CCF
:10119000D8A4E868FF0A196E17501810016E19508C
:1011A000000191EC00F0196E1A6E040019501A102B
:1011B000D8B4C5EF09F0010118514608D8A4E86871
:1011C000FF0A136E19515608D8A4E868FF0A156E75
:1011D00013C001F01550000191EC00F0156E166E71
:1011E000040015501610D8B4FCEF08F0560E726FBC
:1011F000C6EC09F0C5EF09F0010118514608D8A462
:10120000E868FF0A136E19515208D8A4E868FF0A6B
:10121000156E13C001F01550000191EC00F0156E31
:10122000166E040015501610D8B426EF09F04B0EB8
:10123000746E756A01011A51000145EC00F0520EFE
:10124000726FC6EC09F0FF00C5EF09F001011851FB
:101250001925136E146A14361A511326E86A1422DB
:101260001B511326E86A14221C511326E86A142223
:101270001D511326E86A14221E511326E86A14220F
:101280001F511326E86A142220511326E86A1422FB
:1012900021511324316EE86A1420326E2251430822
:1012A000D8A4E868FF0A136E2351325CD8A4E8681A
:1012B000FF0A156E13C001F01550000191EC00F00B
:1012C000156E166E01012451315CD8A4E868FF0A3E
:1012D000176E15501610016E1750000191EC00F0BA
:1012E000176E186E040017501810D8B4C5EF09F027
:1012F00018C154F019C14DF0596A0400080E595C28
:10130000D8B09BEF09F0060E5924136E146A1436F8
:101310001350140FE96E010E1420EA6EEFCF13F094
:1013200059507C0FE96E000EEA6AEA2213C0EFFF03
:10133000592AD8A0E2D754C078F07C5178A1E86A45
:101340007C6F7D5178A3E86A7D6F7E5178A5E86A4D
:101350007E6F7F5178A7E86A7F6F805178A9E86A2D
:10136000806F815178ABE86A816F825178ADE86A0D
:10137000826F835178AFE86A836F41EC0BF04B0EBC
:10138000726F54C073F017EC0CF0120083889598BC
:10139000040072515608D8A48CEF0AF04E504F2426
:1013A000136E146A143650501326E86A14225150F2
:1013B0001326E86A1422460E1326000E1422560E37
:1013C0001326000E1422FF0E1326000E1422030E05
:1013D0001326000E1422030E1326000E1422132AC5
:1013E000000E1422000E1324316E000E1420326EF3
:1013F000410E1CEC00F0410E1CEC00F0410E1CEC08
:1014000000F0520E1CEC00F0430E1CEC00F04E50AD
:101410001CEC00F04F501CEC00F050501CEC00F0A5
:1014200051501CEC00F0460E1CEC00F0560E1CEC6B
:1014300000F0FF0E1CEC00F0030E1CEC00F0030E9D
:101440001CEC00F0010E1CEC00F0000E1CEC00F097
:10145000000E1CEC00F0430E1CEC00F032501CECB3
:1014600000F031501CEC00F00D0E1CEC00F00A0EE8
:101470001CEC00F00D0E1CEC00F00A0E1CEC00F051
:10148000410E1CEC00F0410E1CEC00F0410E1CEC77
:1014900000F0520E1CEC00F0430E1CEC00F04E501D
:1014A0001CEC00F04F501CEC00F050501CEC00F015
:1014B00051501CEC00F0460E1CEC00F0560E1CECDB
:1014C00000F0FF0E1CEC00F0030E1CEC00F0030E0D
:1014D0001CEC00F0010E1CEC00F0000E1CEC00F007
:1014E000000E1CEC00F0430E1CEC00F032501CEC23
:1014F00000F031501CEC00F00D0E1CEC00F00A0E58
:101500001CEC00F00D0E1CEC00F00A0E1CEC00F0C0
:10151000839895981BEF0BF04E504F24136E146A6E
:10152000143650501326E86A142251501326E86AE4
:101530001422460E1326000E1422520E1326000EFD
:101540001422FF0E1324316E000E1420326E410E51
:101550001CEC00F0410E1CEC00F0410E1CEC00F005
:10156000520E1CEC00F0430E1CEC00F04E501CEC34
:1015700000F04F501CEC00F050501CEC00F05150AB
:101580001CEC00F0460E1CEC00F0520E1CEC00F0BF
:10159000FF0E1CEC00F0430E1CEC00F032501CEC73
:1015A00000F031501CEC00F00D0E1CEC00F00A0EA7
:1015B0001CEC00F00D0E1CEC00F00A0E1CEC00F010
:1015C000410E1CEC00F0410E1CEC00F0410E1CEC36
:1015D00000F0520E1CEC00F0430E1CEC00F04E50DC
:1015E0001CEC00F04F501CEC00F050501CEC00F0D4
:1015F00051501CEC00F0460E1CEC00F0520E1CEC9E
:1016000000F0FF0E1CEC00F0430E1CEC00F032501A
:101610001CEC00F031501CEC00F00D0E1CEC00F046
:101620000A0E1CEC00F00D0E1CEC00F00A0E1CEC77
:1016300000F08398959883989598120004002FA63F
:1016400038EF0BF02F9604002FB42FEF0BF0541C43
:10165000766F39EC0BF007EC0DF038EF0BF05450CF
:101660005518776F771D766F39EC0BF007EC0DF09E
:10167000120004002FAA3EEF0BF0766976C047F007
:10168000120011EC06F0541C766FF3DF07EC0DF03E
:101690000400080E4D5CD8B058EF0BF0010E016E3F
:1016A0004D506FEC00F0556EBC0E396EBE0E3A6EAA
:1016B0001200040052504508D8B4A9EF0BF04E0EAA
:1016C000526E586A0400030E585CD8B0A3EF0BF0BA
:1016D0003DC001F03EC002F02DEC00F001C03DF035
:1016E00002C03EF03D50FF08D8A4E868136E3D509C
:1016F0000008D8A4E868156E13C001F0155091ECED
:1017000000F0156E166E040015501610D8B493EF45
:101710000BF05850840FE96E000EEA6AEA223DC0D1
:10172000EFFFA0EF0BF0AB0E5824136E146A1436C3
:101730005850840FE96E000EEA6AEA2213C0EFFFE8
:10174000582AD8A0BFD784C04FF085C050F086C0BB
:1017500051F012005F6A0400290E5F5CD8B0C4EF3C
:101760000BF0040081B2B7EF0BF0010E756F0400AF
:1017700081A2BEEF0BF0280E5F6E756B320E54EC3B
:1017800000F05F2AD8A0E7D70400010E755DD8A04D
:10179000FBEF0BF0746A756AFF0E45EC00F0010E6A
:1017A000746E756AFF0E45EC00F0020E746E756A79
:1017B000FF0E45EC00F0030E746E756AFF0E45ECEB
:1017C00000F0040E746E756AFF0E45EC00F05F6A5F
:1017D0000400040E5F5CD8B0FBEF0BF0849296928D
:1017E000640E54EC00F084829692640E54EC00F087
:1017F0005F2AD8A0EDD71200040081B20FEF0CF0E1
:1018000004005E500008D8A40DEF0CF0050E5E6ECB
:10181000726B52C073F017EC0CF016EF0CF0040072
:10182000010E5E5CD8A016EF0CF05E0612000400FC
:1018300053504C08D8A424EF0CF0849296922F9029
:10184000800E376E020E386E050E026E460E62EC8A
:1018500000F083889598410E1CEC00F0410E1CECC2
:1018600000F0410E1CEC00F0520E1CEC00F0430E98
:101870001CEC00F04E501CEC00F04F501CEC00F043
:1018800050501CEC00F051501CEC00F072511CEC5C
:1018900000F073511CEC00F00D0E1CEC00F00A0E71
:1018A0001CEC00F00D0E1CEC00F00A0E1CEC00F01D
:1018B000839895981200E86A2FB0E868136E535029
:1018C0004C08D8A4E868FF0A156E13C001F0155043
:1018D00091EC00F0156E166E040015501610D8B479
:1018E00077EF0CF0848296922F90376A386A120054
:1018F00052504E08D8A4E868FF0A136E0101165131
:101900004E5CD8A4E868FF0A156E13C001F01550AC
:10191000000191EC00F0156E166E010117514F5C3D
:10192000D8A4E868FF0A176E15501610016E1750FC
:10193000000191EC00F0176E186E01011851505C17
:10194000D8A4E868FF0A196E17501810016E1950D4
:10195000000191EC00F0196E1A6E01011951515CF1
:10196000D8A4E868FF0A1B6E19501A10016E1B50AC
:10197000000191EC00F01B6E1C6E04001B501C104B
:10198000D8B4E2EF0CF0450E526E746A756A52508C
:1019900045EC00F0010E746E756A4E5045EC00F097
:1019A000020E746E756A4F5045EC00F0030E746EB3
:1019B000756A505045EC00F0040E746E756A515013
:1019C00045EC00F01200A00E466E2E981DEC0DF0B6
:1019D0001200A10E466E2E981200D00E466E2E8872
:1019E00045C034F01DEC0DF01200D10E466E2E886D
:1019F00045C034F00EEC0DF012000400C5BC05EF3C
:101A00000DF02E86C58C06EF0DF02E96120056C0F6
:101A100046F02E882F881DEC0DF01200040046B011
:101A200013EF0DF046802E8C2E8A010E4C6ED66A76
:101A3000D76AD58E64EC0DF01200040046A022EFA8
:101A40000DF046902E9C2E8A010E4C6ED66AD76AF7
:101A5000D58E2CEC0DF012000400010E4C5CD8A0C9
:101A600063EF0DF004002EAA62EF0DF02E9AA8ECA1
:101A70000DF004004C500508D8A446EF0DF0BDDF72
:101A800004002EA646EF0DF047C0C9FF04004C50DD
:101A90000608D8A452EF0DF0B0DF04002EA652EFD6
:101AA0000DF0C58404004C500708D8A462EF0DF077
:101AB0004C6AD59E436A04002EB862EF0DF0050E05
:101AC00054EC00F0C9D712000400010E4C5CD8A001
:101AD000A7EF0DF004002EAAA6EF0DF02E9AA8ECA9
:101AE0000DF004004C500508D8A47DEF0DF085DF03
:101AF00004002EA67DEF0DF0C58004004C500608B2
:101B0000D8A485EF0DF046C0C9FF04004C5007086B
:101B1000D8A48CEF0DF0C58604004C500808D8A45A
:101B200096EF0DF0C9CF47F0090E4C6E04004C50F3
:101B30000908D8A49DEF0DF0C58404004C500A0894
:101B4000D8A4A6EF0DF04C6AB190436ABDD712003D
:101B500004004C500108D8A4AFEF0DF0C58004007C
:101B60004C500208D8A4B9EF0DF046502EBCE80442
:101B7000C96E04004C500308D8A4CEEF0DF0040049
:101B80002FB8CCEF0DF039DF04002EA6CAEF0DF010
:101B900034C0C9FFCEEF0DF0050E4C6E04004C5062
:101BA0000408D8A4DEEF0DF004002EA8DCEF0DF041
:101BB000050E4C6EDEEF0DF033C0C9FF12000300BE
:021BC000FED74E
:020000040030CA
:020000040000FA
:10667000FFFFFFFFFFFFFFFFD1EF00F0FFFFFFFF76
:020000040000FA
:1066C0000400CF7F0000E300000009000000CA7F43
:1066D0000000EC00000005000000C07F0000D900B1
:1066E00000000A000000BE7F0000F500000002006C
:0266F0000000A8
:0E66F200D4EC3AF0030EE126640EF36E020EB5
:10670000F3CFDBFFDE6ADD6ADECF10F0DDCF11F004
:10671000FD0EDBCF12F0FE0E28EC3BF00BE2020E7A
:10672000DBCFE6FFD3EC3FF0E552DF2A010EECE3CE
:10673000DB2AEAD7030EE15C02E2E16AE552E16E90
:10674000D9EF3AF0D4EC3AF0E652FD0EDBCF10F080
:10675000DB06FE0EDBCF11F001E2DB06105011105C
:1067600007E00A0EE66EE66AC4DFE552E552EDD7B1
:10677000E552D9EF3AF0D9CFE6FFE1CFD9FF0A0EC3
:10678000E126DF6A4A0EE66EE66A9CEC39F0E552D5
:10679000E552E76E010EE7CFDBFF020EDB6A030E68
:1067A000DB6AF29ED19096949692040EE66EE66AAB
:1067B000010EE66EE66ACB0EE66E000EE66E52EC59
:1067C00039F0106E060EE15E1050030EE66EE66ABA
:1067D000410EE66EE66AF20EE66E000EE66E52ECD2
:1067E00039F0106E060EE15E105086EC3BF036EC90
:1067F0003DF00001E16B0001CB5109E00001CB51FC
:10680000106E116AFF0E101801E1115013E19DEC9A
:1068100038F0010EE66EBF0EE66E7E0EE66E000EDE
:10682000E66ECBEC3DF0E552E552E552E552000153
:10683000E16B63D046EC38F000091AE00001010E6C
:10684000E16F00011E0EDD6FDE6BDF6BE06B81A27E
:10685000FED7010EE66EBC0EE66E7E0EE66E000EF4
:10686000E66ECBEC3DF0E552E552E552E55245D0FF
:10687000010EDB50040818E10001010EE16F000178
:106880000A0EDD6FDE6BDF6BE06B010EE66EB90E9C
:10689000E66E7E0EE66E000EE66ECBEC3DF0E55247
:1068A000E552E552E55229D04B0EE66EE66A9CECC5
:1068B00039F0E552E5520001DD6F0001DE6BDF6B60
:1068C000E06BD880000E0001DD55000EDE55000E95
:1068D000DF55000EE05503E20001010EE16F010EED
:1068E000E66EB60EE66E7E0EE66E000EE66ECBEC43
:1068F0003DF0E552E552E552E552010EE66EB40E6A
:10690000E66E7E0EE66E000EE66ECBEC3DF0E552D6
:10691000E552E552E552010EE66EAD0EE66E7E0ED4
:10692000E66E000EE66ECBEC3DF0E552E552E55228
:10693000E552010EE66EA70EE66E7E0EE66E000EC6
:10694000E66ECBEC3DF0E552E552E552E552010E24
:10695000E66EDDC0E6FF74EC3DF0E552E552000165
:10696000D890DD37DE37DF37E037010EE66EA20E56
:10697000E66E7E0EE66E000EE66ECBEC3DF0E55266
:10698000E552E552E552010EE66E010EE66E74EC3C
:106990003DF0E552E552010EE66EA00EE66E7E0E6B
:1069A000E66E000EE66ECBEC3DF0E552E552E552A8
:1069B000E552010EE66E090EE66E74EC3DF0E5520E
:1069C000E552010EE66E9B0EE66E7E0EE66E000E42
:1069D000E66ECBEC3DF0E552E552E552E552010E94
:1069E000E66EF2C0E6FF74EC3DF0E552E552010EB2
:1069F000E66EA00EE66E7E0EE66E000EE66ECBEC48
:106A00003DF0E552E552E552E552010EE66EF3C067
:106A1000E6FF74EC3DF0E552E552010EE66EA00E85
:106A2000E66E7E0EE66E000EE66ECBEC3DF0E552B5
:106A3000E552E552E552010EE66EF4C0E6FF74EC55
:106A40003DF0E552E552010EE66E970EE66E7E0EC3
:106A5000E66E000EE66ECBEC3DF0E552E552E552F7
:106A6000E552010EE66ECBC0E6FF74EC3DF0E55258
:106A7000E552010EE66EA00EE66E7E0EE66E000E8C
:106A8000E66ECBEC3DF0E552E552E552E552010EE3
:106A9000E66ECCC0E6FF74EC3DF0E552E552010E27
:106AA000E66EA00EE66E7E0EE66E000EE66ECBEC97
:106AB0003DF0E552E552E552E552010EE66ECDC0DD
:106AC000E6FF74EC3DF0E552E552010EE66EA00ED5
:106AD000E66E7E0EE66E000EE66ECBEC3DF0E55205
:106AE000E552E552E552010EE66ECEC0E6FF74ECCB
:106AF0003DF0E552E552010EE66E950EE66E7E0E15
:106B0000E66E000EE66ECBEC3DF0E552E552E55246
:106B1000E552010EE66E840EE66E7E0EE66E000E07
:106B2000E66ECBEC3DF0E552E552E552E5529BDADC
:106B30000001E15101E196D0F2A42ED08474847258
:106B40009DDA0001D9C010F0DAC011F0DBC012F0FC
:106B5000DCC013F0D92B000EDA23DB23DC23000189
:106B6000DD51105C0001DE5111580001DF51125857
:106B70000001E051135810E3010EE66E7C0EE66E44
:106B80007E0EE66E000EE66ECBEC3DF0E552E55271
:106B9000E552E5520001E16B81B212D0020EDBCF6B
:106BA000F3FFDB2AF35004080AE20001060EEC6F43
:106BB0000001420EC56FB0EC3CF081A2FED702D0BE
:106BC000020EDB6A030EDB50010A0DE0010A01E050
:106BD00045D0ACEC3BF0000905E0010EF36E030E6E
:106BE000F3CFDBFF3ED0010EE66E790EE66E7E0E31
:106BF000E66E000EE66ECBEC3DF0E552E552E55256
:106C0000E55258EC3EF0A0D9010EE66E760EE66E27
:106C10007E0EE66E000EE66ECBEC3DF0E552E552E0
:106C2000E552E55258EC3EF00001EC0505E00001AC
:106C3000D96BDA6BDB6BDC6BB0EC3CF0010EE66E13
:106C4000730EE66E7E0EE66E000EE66ECBEC3DF049
:106C5000E552E552E552E55258EC3EF0030EDB6A90
:106C600000D066D7DE52040EDD6E010EE66EE66AD7
:106C70004A0EE66EE66AD950010FE66E000EDA2083
:106C8000E66E6DDB106E060EE15E1050010EE66ED4
:106C90006E0EE66E7E0EE66E000EE66ECBEC3DF0FE
:106CA000E552E552E552E55258EC3EF0FCD90009B8
:106CB00003E158EC3EF0FF0058EC3EF0010EE66EAA
:106CC000660EE66E7E0EE66E000EE66ECBEC3DF0D6
:106CD000E552E552E552E5520400D18004003CEF54
:106CE00033F00A0EE15C02E2E16AE552E16EE55240
:106CF000E7CFD9FF1200D4EC3AF00F0EE1261AECE0
:106D00003BF0010E00C1DBFF01C1DFFF3AEC3BF0BD
:106D10000D0EEECFDBFF0E0EEDCFDBFF3AEC3BF0BE
:106D20009A0EEE5C010EEE58000EEE58000EEE5874
:106D300002E3020E66D03AEC3BF0EECF04F0EECF69
:106D400005F0EECF06F0EFCF07F0400E096E0A6AAD
:106D50000B6A0C6A61EC3FF000C0DEFF01C0DEFF91
:106D600002C0DEFF03C0DDFFDD52DD52CAEC3AF0A7
:106D7000105011101210131030E1080EE66EE66A82
:106D8000C0EC3AF0D950040FE66E000EDA200CEC9D
:106D90003BF00C0EDB6A080EF36E0C0EDBCFF4FF3B
:106DA000F350F45C1AE2D950040F106EDACF11F0F0
:106DB0000C0EDB500F011024E96E000EDA20EA6E93
:106DC000EF50E66E0C0EDB50020FF2EC3AF0E5529B
:106DD000E750EF6E0C0EDB2ADED70D0EDBCFE6FFA1
:106DE0000E0EDBCFE6FFF7DAE552E552C9DB020E05
:106DF000E66E010EE66E11DB71EC3BF00001ED6B0F
:106E0000000E106E0F0EE15C02E2E16AE552E16EE7
:106E10001050CFD3030EE66EE66A410EE66EE66AC8
:106E200069EF3BF013EC3BF069EF3BF0BDDB020E8A
:106E3000E126E20EDE6E000EDD6E010EE66E580EED
:106E4000E66E7E0EE66E000E32EC3BF058EC3EF045
:106E50002AD9000907E00001E26B010E55EC3BF076
:106E6000000E06D00001010EE26F55EC3BF0050E5E
:106E7000106E020EE15C02E2E16AE552E16E105032
:106E800098D30001ED6B400E6FDB410E6DDB420EBF
:106E90006BDB430E69DB4C0E67DB000C0001ED6B16
:106EA0004DEC3BF0010EEF6EF8DB090EEF6E000CBF
:106EB0007BDB030EE126DF6A010EDB6A020EDB6A72
:106EC000FE0EDB508FDBEF50430803E00001030EA2
:106ED000EC6FDF6AFE0EDB50DF5C0BE2DF5082DB23
:106EE000EF50116AE8500001C7271150C823DF2A6C
:106EF000F1D7FE0EDB2876DB020EEFCFDBFFFE0EB6
:106F0000DB50020F6FDB010EEFCFDBFFDBCF10F0AA
:106F1000020EDBCF11F00001C751101802E1C85179
:106F2000111803E00001040EEC6F0001EC5102E0C7
:106F3000010E01D0000E106E030EE15C02E2E16A68
:106F4000E552E16E105035D32FDBE652DF6A0001C7
:106F5000EC6B460E0001C65D03E00001010EEC6F14
:106F6000DF6A640EDF5C08E2C6DBDF503BDBEF501C
:106F7000E66EBCDBDF2AF5D70001C551470A60E0A9
:106F8000110A4FE0130A3FE0010A2FE00C0A20E04B
:106F90000B0A10E00D0A62E1030EE66E2CDB61E1E4
:106FA000010EE66E540EE66E7E0EE66E000E5ADBA5
:106FB00031DF35D0040EE66E1EDB53E1010EE66EC6
:106FC000520EE66E7E0EE66E000E4CDB2BDF27D0F7
:106FD000E66A11DB46E1010EE66E500EE66E7E0EAD
:106FE000E66E000E3FDB5ADF1AD0420EE66E03DB80
:106FF00038E1010EE66E4E0EE66E7E0EE66E000E77
:1070000031DB79DE0CD0E66AF6DA2BE1010EE66EB2
:107010004C0EE66E7E0EE66E000E24DB07DF0001EE
:107020001FD0E66AE8DA1DE12CDF0001EC6F010EEB
:10703000E66E4A0EE66E7E0EE66E000E13DB11D093
:10704000E66AD9DA0EE1010EE66E420EE66E7E0EBB
:10705000E66E000E07DB0001E16B03D00001010EBC
:10706000EC6FE552A6D2D59ED59CD59AD598D596EB
:10707000F80ED5140709D56E3EEF38F0D59EF29480
:10708000B30ED76EB40ED66ED58E1200938281B237
:10709000000C010EE66EE66AA2EC33F0E552E55212
:1070A00081B2000C010C80DA090EE126080EDB6AC1
:1070B000BADAD950040FE66E000EDA20E66ECFDAA7
:1070C000070E7BDA010EE66E3B0EE66E7E0EE66E76
:1070D000000EC8DAD4DA5EDA10C0E6FF11C0E6FFAF
:1070E00012C0E6FF13C0E6FF8ADA146E080EE15EF6
:1070F0001450E552E7CF13F0E552E7CF12F0E55216
:10710000E7CF11F0E552E7CF10F01050041808E176
:107110001150051805E11250061802E11350071826
:1071200002E0000E01D0010E106E090EE15C02E2D9
:10713000E16AE552E16E10503CD236DA080EE126E3
:107140005EDA106E080EE15E1050040E04C0DBFF24
:10715000050E05C0DBFF060E06C0DBFF070E07C0ED
:10716000DBFF2BDA60DAD9CFE6FFDACFE6FF40DAD1
:10717000080EE15C02E2E16AE552E16E1AD2120009
:1071800013DA0D0EE126FB0EDB50E76E080EE7CF9B
:10719000DBFF090EDB6A0A0EDB6A0B0EDB6A4ADADA
:1071A0008FDA68DAFB0EDBCFEEFFFC0EDBCFEEFFF3
:1071B000FD0EDBCFEEFFFE0EDBCFEEFFF70EDBCFDB
:1071C00010F0F80EDBCF11F0F90EDBCF12F0FA0E53
:1071D000DBCF13F04FDA1050EE5C1150EE58125026
:1071E000EE581350EE582DE2D5D93F0E1016116A05
:1071F000126A136A105011101210131003E1080ED6
:10720000DB6A5EDA080EDBCFF3FFDB2AF350EAD944
:10721000EFCF10F0116A126A136AD950090FE96EA4
:10722000DACFEAFF1050EE261150EE221250EE2275
:107230001350EE221FDAEE2A000EEE22EE22EE228C
:10724000BDD7010EE66E340EE66E7E0EE66E000EC3
:1072500009DA10DA090EDBCFEEFF0A0EDBCFEEFF04
:107260000B0EDBCFEEFF0C0EDBCFEEFF08DA090EC4
:10727000DBCF10F00A0EDBCF11F00B0EDBCF12F0DC
:107280000C0EDBCF13F010C004F011C005F012C0DB
:1072900006F013C007F00D0EE15C02E2E16AE55270
:1072A000E16E87D1D9CFE6FFE1CFD9FF020EE1260B
:1072B000DE6ADD6ADECF10F0DDCF11F0F90EDBCF34
:1072C00012F0FA0EDBCF13F01250105C135011586D
:1072D00029E2FB0EDB50746EFB0EDBCF10F0FC0ED0
:1072E000DBCF11F011C010F0116A1050756E7F6A7B
:1072F0007F800000FD0EDBCF10F0FE0EDBCF11F023
:10730000DE501024E96EDD501120EA6E73CFEFFFDE
:10731000FB0EDB2AFC0E01E3DB2ADF2A010E01E370
:10732000DB2AC8D7020EE15C02E2E16AE552E16EB7
:10733000E552E7CFD9FF120037D9E652010EE66ECB
:10734000E66AFD0EDBCFE6FFFE0EDBCFE6FFD9CF10
:10735000E6FFDACFE6FF83D9DF50E5522AD124D900
:10736000020EE126DE6ADD6ADECF10F0DDCF11F01D
:10737000F90EDBCF12F0FA0E6BD926E2FB0EDB50D2
:10738000746EFB0EFC0EDBCF11F011C010F011502B
:10739000756EFD0EDBCF10F0FE0EDBCF11F0DE5070
:1073A0001024E96EDD501120EA6EEF50736E040E6A
:1073B0007F6EBCD8FB0EDB2AFC0E01E3DB2ADF2A42
:1073C000010ED2E3DB2AD0D7020EE15C02E2E16AD1
:1073D000E552E16EEED0D9CFE6FFE1CFD9FF040050
:1073E000FD0EDBCF10F0FE0EDBCF11F0126A060EA1
:1073F0001F0B10C0F6FF11C0F7FF12C0F8FF06E028
:10740000D890F636F736F836E806FAE1940E7F6E35
:107410008DD8E552E7CFD9FF1200D9CFE6FFE1CFF3
:10742000D9FF020EE126F90EDBCFF6FFFA0EDBCF15
:10743000F7FFFB0EDBCFF8FFDE6ADD6ADECF10F070
:10744000DDCF11F0400E105C000E115814E2FD0E5D
:10745000DBCF10F0FE0EDBCF11F0DE501024E96E12
:10746000DD501120EA6EEF50F56E0D00DF2A010E9F
:1074700001E3DB2AE3D70A00A40E7F6E57D8020E81
:10748000E15C02E2E16AE552E16EE552E7CFD9FF45
:107490001200D9CFE6FFE1CFD9FF020EE126FB0EA5
:1074A000DB50F00809E0F90EDBCFF6FFFA0EDBCF78
:1074B000F7FFFB0EDBCFF8FFDE6ADD6ADECF10F0F0
:1074C000DDCF11F0F70EDBCF12F0F80EDBCF13F0AB
:1074D0001250105C135011581FE20900300EF85C76
:1074E00008E1050EF65C01E1F568080EF65C01E1C5
:1074F000F568FD0EDBCF10F0FE0EDBCF11F0DE5095
:107500001024E96EDD501120EA6EF5CFEFFFDF2A7F
:10751000010E01E3DB2AD2D7020EE15C02E2E16A4E
:10752000E552E16EE552E7CFD9FF1200D9CFE6FF71
:10753000E1CFD9FFE652F250800B01E0010EDF6E81
:10754000F29E550E7E6EAA0E7E6E7F82DF5001E0A7
:10755000F28E7FB2FED77F94E552E552E7CFD9FF96
:107560001200C4D87BEF3BF0E66EE66AE5DEE5523A
:10757000E552E66E000191D8E552E750EF6E120039
:1075800079D8EECFE6FFEECFE6FFEECFE6FFEFCF06
:10759000E6FF12006FD8EECF10F0EECF11F0EECF75
:1075A00012F0EFCF13F01200D9CFE6FFE1CFD9FFF1
:1075B0001200E552E7CFD9FF1200DB50DF6E060E56
:1075C000DB50E76E010EE7CFDBFF050EDB50E76E09
:1075D000020EE7CFDBFF040EDB50E76E030EE7CFB2
:1075E000DBFF1200EA6A000FE96E010EEA221200C8
:1075F000B6DE71EF3BF05CDCE55200091200800E54
:10760000E66E660EE66EE66AE66A080EE66EE66A04
:10761000E66AE66AC0EF38F0E66E3BDF106E080EF1
:10762000E15E10501200040EE66EE66A440EE66E4D
:10763000E66A12000C0EDB6ADE6ADE6ADE6ADD6A6A
:10764000DD52DD521200030EDBCFE6FF76EF3BF09A
:10765000DBCF13F01250105C13501158120022DED1
:1076600071EF3BF0E66ECBEC3DF0E552E552E552B2
:10767000E5521200D9CFE9FFDACFEAFF1200010E7E
:10768000E66EDFCFE6FF6DDFDBCFE6FF6ADF020EDF
:10769000DBCFE6FF66DF23EF3BF0ED51ED2BEA6A2F
:1076A000600FE96E000EEA221200E66EE66A4C0EEA
:1076B000E66EE66ADECFE6FFDDCFE6FFF8EF3AF0F2
:1076C000400EE66EE66A5CDF000EE66E010E0CEF21
:1076D0003BF0000EE66E010EE66E8ADF0001ED6BF8
:1076E000000C106E060EE15E1050120074EC3DF0BE
:1076F000E552E5521200010EE66E560EE66E7E0E63
:0C770000E66E000EAFDF010EE66E120018
:04770C0099D9040EF5
:10771000E126550EDE6EDE6ADE6ADD6ADD52DD527E
:10772000A786AC84DF50AF6E010EDB507D6EAC8A55
:10773000AC98AB8EAB880F015D6B5C6B95988398B2
:107740000001F569F6690001ED6B040EE15C02E2EF
:10775000E16AE552E16E79D173D9020EE126010E9C
:10776000DB6AABA207D0AB98E66EB7EC3FF0E55210
:10777000AB8804D0ABA404D0AE50DF6E000EADD009
:107780009EAAA9D0AE50DF6E9E9A0001EE510C0A5F
:1077900001E195D0070A01E18BD0010A01E183D014
:1077A000030A01E17CD0010A6DE00F0A44E0010AFE
:1077B0003CE0030A30E0010A25E0070A1CE0010A68
:1077C00010E0030A09E0010A01E084D0530EDF5CF7
:1077D00001E081D0EE2B7FD0540EDF5C24E1020E5D
:1077E00077D0DF500001C76FC86BCB51DF5C11E170
:1077F0000001030E6DD019D9CC51DF5C0AE1000104
:10780000040E66D012D9CD51DF5C03E10001050EF4
:107810005FD0000108D009D9CE51DF5C03E100013F
:10782000060E56D00001EE6B56D0FFD8DFCFC6F063
:107830000001070E4DD0F9D8DFCFC5F0460EC65D6A
:107840001FE1C551450A16E0130A14E0110A12E0BF
:10785000030A0CE0070A06E00D0A12E10001EF6BD3
:10786000060E0BD00001EF6B070E07D00001EF6B87
:10787000450E03D00001EF6B030EF06F080E28D009
:1078800000011BD0EF51EF2BEA6A000FE96E010EE9
:10789000EA22DFCFEFFFF051EF5D1DE30ED00D0EBA
:1078A000DF5C19E108D00A0EDF5C07E10B0E10D097
:1078B0000D0EDF5C02E10C0E0BD0090E09D00A0E92
:1078C000DF5C05E1EE6BDE52010EDD6E04D0090EC9
:1078D000EE6F01D0EE6B010EDB50106E020EE15C1C
:1078E00002E2E16AE552E16E1050AFD0A9D8ACA235
:1078F000FED7FE0EDB50AD6EFE0EDB50116AE85077
:107900000001C9271150CA23A0D09AD8030EE1263E
:10791000640EF36E020EF3CFDBFFDE6ADD6ADECFAC
:1079200010F0DDCF11F0FD0EDBCF12F0FE0EDBCF3D
:1079300013F01250105C135011580BE2020EDBCF03
:10794000E6FFD3EC3FF0E552DF2A010EE8E3DB2A45
:10795000E6D7030EE15C02E2E16AE552E16E75D022
:107960006FD8040EE126DF6A030EDB6ADB6A020EC3
:10797000F36E030EDBCFF4FFF350F45C4DE2AB98F3
:107980008388520E5AD8430E58D80001C96BCA6B6F
:10799000CBC0E6FF5ED8CCC0E6FF5BD8CDC0E6FF2B
:1079A00058D8CEC0E6FF55D8460E47D8C5C0E6FF2A
:1079B00050D8ECC0E6FF4DD80001ED51DF5C0AE283
:1079C000DF50DF2AEA6A600FE96E000EEA22EF500C
:1079D000E66EF1D7010EC9C0DBFF020ECAC0DBFFA5
:1079E000430E2BD8020EDBCFE6FF33D8010EDBCFE0
:1079F000E6FF2FD831D830D8ACA2FED78398AB8819
:107A0000450E0001C55D05E0020EF36E030EF3CFD7
:107A1000DBFF030EDB2AABD70001ED6B040EE15C4C
:107A200002E2E16AE552E16E10D0DF50116AE850DF
:107A30000001C7271150C8231200E66E29EF3DF060
:107A4000D9CFE6FFE1CFD9FF1200E552E7CFD9FF4A
:107A500012004CDFE55212000D0EEFDF0A0E1DEF93
:027A60003DF0F7
:0E7A620076D9FE0EDBCFEBF04CD171D9040EBD
:107A7000E126550EDE6EDE6ADE6ADD6ADD52DD521B
:107A8000B986BA84DF507B6E010EDB507C6EBA8AF9
:107A9000BA98A68EA688040EE15C02E2E16AE5527D
:107AA000E16E30D10001E751E91904E1E851EA192A
:107AB00001E11200BAA214D0E7C0E9FFE8C0EAFF72
:107AC000EF50796EE551E71908E1E651E81905E153
:107AD000E3C0E7F0E4C0E8F01200E72B000EE82373
:107AE0001200D9CFE6FF0ED133D9050EE126040EE0
:107AF000DB6A640E146E26D90750DBD812BE1368F9
:107B0000E3D813BE146808D902E3040EDB2A640E1E
:107B1000156E18D903C014F00A0E166E0C6E03C051
:107B200007F0C5EC3FF00750C4D812BE1368CCD89C
:107B300013BE1468F1D802E3040EDB2A0A0E146E99
:107B400001D90350B6D812BE13681ED9E552E750CA
:107B5000EF6E040EDB2AD9CF10F0DACF11F0DBCFB5
:107B600012F0136A12BE13680FD9EF6AFD0EDBCF55
:107B7000E6FFD9CFE6FFDACFE6FF5BD8E552E55264
:107B8000E552050EE15C02E2E16AE552E16EBAD02F
:107B9000D9CFE6FFB7D0DCD8030EE126D9CFE9FF75
:107BA000DACFEAFFFC0EDBCFEEFFFD0EDBCFEEFF00
:107BB000FE0EDBCFEEFFE1D802E1115033E0FB0E09
:107BC000DB5007E0B4D82EE0BAA2FCD78AD8796E91
:107BD000F9D7ADD827E085D899D8E551E91908E15A
:107BE000E651EA1905E1E3C0E9F0E4C0EAF003D0A8
:107BF000E92B000EEA23E751E919EBE1E851EA1914
:107C0000E8E1E351E91908E1E451EA1905E1E5C0C9
:107C1000E9F0E6C0EAF003D0E907000EEA5B230EC4
:107C200075D8D7D7030EE15C02E2E16AE552E16E56
:107C300069D08ED8A2D802E1115039E0FC0EDB5099
:107C40000AE08BD834E0BAA2FCD78FD801E3DB2A54
:107C5000EF50796EF6D781D82AE087D801E3DB2A86
:107C6000EF5054D8E551E91908E1E651EA1905E168
:107C7000E3C0E9F0E4C0EAF003D0E92B000EEA2308
:107C8000E751E919E8E1E851EA19E5E1E351E919B9
:107C900008E1E451EA1905E1E5C0E9F0E6C0EAF0DF
:107CA00003D0E907000EEA5B230E30D8D4D72AD0E0
:107CB0001200300FE66ED9CF10F0DACF11F0040EBB
:107CC000DBCF12F0136A12005FD8E552E750EF6E77
:107CD000D9CF11F0DACF12F0040EDBCF13F0146A13
:107CE0001200D9CFE9FFDACFEAFFEFCFF6FFEE2A95
:107CF000EFCFF7FF000EEE22EFCFF8FFEE220800E5
:107D0000F5501200E552E7CFD9FF1200E9C0E9FFB4
:107D1000EAC0EAFFEF6E120011501324E96E125010
:107D20001420EA6EEFCF10F0300E105C1200DFCF9F
:107D3000F6FF010EDBCFF7FF020EDBCFF8FF0800E6
:107D4000F55012000C6EFE0EDBCF07F0C5EF3FF0D2
:107D5000D9CFE6FFE1CFD9FF1200FD0EDBCFE9FF5F
:107D6000FE0EDBCFEAFFEF501200FD0EDBCFE9FF86
:107D7000DB2AFE0EDBCFEAFF12000001EB51106E92
:107D8000116AFF0E1018120010501224E96E1150E3
:067D90001320EA6E120050
:0A7D9600C00EF66E660EF76E000ECA
:107DA000F86E00010900F550D46F0900F550D56F49
:107DB00003E1D46701D03DD00900F550CF6F090031
:107DC000F550D06F0900F550D16F09000900F5504A
:107DD000E96E0900F550EA6E090009000900F55046
:107DE000D26F0900F550D36F09000900F6CFD6F025
:107DF000F7CFD7F0F8CFD8F0CFC0F6FFD0C0F7FF5D
:107E0000D1C0F8FF0001D25302E1D35307E00900CB
:107E1000F550EE6ED207F8E2D307F9D7D6C0F6FFD9
:107E2000D7C0F7FFD8C0F8FF0001D407000ED55B1C
:047E3000BFD71200A6
:0C7E34000A4373756D3A000A4573756DC2
:107E40003A00474F544F41505000560045004400FF
:107E5000480043004E002C00557064617465205347
:107E6000746174757300476F746F41707000537460
:107E70006F70005F73005F6E005F760054494D4580
:107E80004F5554000A4F70656E4D6F7469637320CF
:107E900032303137000A000A4120000A46575600A6
:107EA0002E000A424C56000A57445420000A424C05
:107EB00020444D0042000A44000A43000A42000ADE
:027EC00041007F
:0E7EC20004500902F3CF00F0F4CF01F00A02E1
:107ED000F3500126000EF420026E04500B02F35002
:107EE0000226000EF420036E04500C02F350032609
:107EF00005500902F3500126F4500222000E03221D
:107F000005500A02F3500226F450032205500B02DA
:107F1000F350032606500902F3500226F4500322C0
:107F200006500A02F350032607500902F3500326B5
:027F300012003D
:0E7F3200410EF36E00EE00F00E0E01D81200AC
:107F4000EA6002D0EE6AFCD7F350E9601200EE6AF4
:027F5000FCD75C
:0E7F52001DEE00F02DEE00F0F86A0F9CCBEC57
:0E7F60003EF0DEEC3FF0BBEC33F0FBD712003E
:027F6E00FF0E04
:107F7000E350176E1B0E00D001D0200EE76EE72EE7
:0A7F8000FED7172EFAD700D012002A
:067F8A00036A080EE76E19
:107F9000D890073603360C50035C02E3036E072AC1
:067FA000E72EF7D71200E6
:0A7FA600FF0EE350E84E1200000049
:0C7FB00000D000D000D0E82EFAD712005C
:027FBC001200B1
:027FBE00FEFFC4
:0A7FC00000000000000000000100B6
:057FCA000000000000B2
:017FCF00F7BA
:087FD00000F700F700F70001C3
:020000040030CA
:0100000015EA
:0100010012EC
:0100030026D6
:010008000FE8
:01000900C036
:00000001FF
