:020000040000FA
:04000000A9EF3FF035
:040008002CEF03F0E6
:0800180092EF03F0096EF80BF2
:10002000E830E830E830E926D8B0EA2A2BEC00F0D6
:10003000096EEF14A4EF00F00950D8A0E86AEF1899
:100040000914EF1AA4EF00F004009EA8FDD7AD6ECE
:10005000D880A4EF00F0010E09B0E84409B2E844EA
:1000600009B2E84409B4E838120002500110D8B4CB
:10007000012A800E01B8021A01B4021A01B2021A52
:10008000023401360236A4EF00F07F6A7F8073509D
:10009000744A752AA4EF00F0E86A736E7F6A7F8461
:1000A000550E7E6EAA0E7E6E7F827FB2FED77F9443
:1000B000744A752AA4EF00F0046A036EE86A030626
:1000C000045AD8A0A4EF00F0030E026EE70E02D887
:1000D000F5D7026AFE0F016EE86A025AD8A0120034
:1000E0000400010600D0F8D7D89001360236FF0F81
:1000F000FBE20150A4EF00F0D89002320132FF0F72
:10010000FBE20150A4EF00F0046A036E020E05D07A
:10011000036E060E02D0036E050E096E0450025CDB
:1001200002E10350015C040ED8B0010ED8B4020EF7
:100130000914D8A4FF0EA4EF00F0E866FF0E011426
:10014000D8A4FF0EA4EF00F0000104001200030E7B
:10015000AF6E200EAC6E900EAB6E1E6AB0EF00F06C
:1001600030907BEF01F0040030B006EF01F001C0E9
:10017000AAF002C0ABF003C0AEF004C0AFF005C0FF
:10018000B2F006C0B3F007C0B6F008C0B7F009C0BF
:10019000BAF00AC0BBF00BC0BCF00CC0BDF00DC083
:1001A000BEF00EC0BFF00FC0C0F010C0C1F011C053
:1001B000C2F012C0C3F000C0C4F01DC0C5F01FC023
:1001C000C6F020C0C7F021C0C8F022C0C9F0F8CFE7
:1001D000E8F0F7CFEBF0F6CFEAF023C0CAF024C086
:1001E000CBF013C0CCF014C0CDF015C0D0F016C0C9
:1001F000D1F017C0D4F018C0D5F019C0D8F01AC08B
:10020000D9F01BC0DCF01CC0DDF030801EB410EF54
:1002100001F02BC0FBFF2AC0FAFF2950E06AF96EFB
:1002200028C0FBFF27C0FAFF2650E06AF96E0400E1
:1002300030A06AEF01F0AAC001F0ABC002F0AEC07E
:1002400003F0AFC004F0B2C005F0B3C006F0B6C012
:1002500007F0B7C008F0BAC009F0BBC00AF0BCC0D4
:100260000BF0BDC00CF0BEC00DF0BFC00EF0C0C0A2
:100270000FF0C1C010F0C2C011F0C3C012F0C4C072
:1002800000F0C5C01DF0C6C01FF0C7C020F0C8C038
:1002900021F0C9C022F0E8C0F8FFEBC0F7FFEAC0C8
:1002A000F6FFCAC023F0CBC024F0CCC013F0CDC001
:1002B00014F0D0C015F0D1C016F0D4C017F0D5C0DE
:1002C00018F0D8C019F0D9C01AF0DCC01BF0DDC09E
:1002D0001CF030901EB474EF01F02BC0FBFF2AC05D
:1002E000FAFF2950E06AF96E28C0FBFF27C0FAFF29
:1002F0002650E06AF96E309246EF02F0040030B208
:10030000D1EF01F001C0EEF002C0EFF003C0F2F057
:1003100004C0F3F005C0F6F006C0F7F007C0FAF02D
:1003200008C0FBF009C0FEF00AC0FFF00BC000F1EE
:100330000CC001F10DC002F10EC003F10FC004F1B9
:1003400010C005F111C006F112C007F100C008F19C
:100350001DC009F11FC00AF120C00BF121C00CF132
:1003600022C00DF1F8CF2CF1F7CF2FF1F6CF2EF1FF
:1003700023C00EF124C00FF113C010F114C011F10D
:1003800015C014F116C015F117C018F118C019F1F5
:1003900019C01CF11AC01DF11BC020F11CC021F1B5
:1003A00030821EB4DBEF01F02BC0FBFF2AC0FAFF46
:1003B0002950E06AF96E28C0FBFF27C0FAFF2650DB
:1003C000E06AF96E040030A235EF02F0EEC001F0F1
:1003D000EFC002F0F2C003F0F3C004F0F6C005F085
:1003E000F7C006F0FAC007F0FBC008F0FEC009F045
:1003F000FFC00AF000C10BF001C10CF002C10DF00A
:1004000003C10EF004C10FF005C110F006C111F0D8
:1004100007C112F008C100F009C11DF00AC11FF0A8
:100420000BC120F00CC121F00DC122F02CC1F8FF4E
:100430002FC1F7FF2EC1F6FF0EC123F00FC124F02C
:1004400010C113F011C114F014C115F015C116F04C
:1004500018C117F019C118F01CC119F01DC11AF00C
:1004600020C11BF021C11CF030921EB43FEF02F0FE
:100470002BC0FBFF2AC0FAFF2950E06AF96E28C0A2
:10048000FBFF27C0FAFF2650E06AF96E0F015D6B93
:100490005C6B506B948E949C84949694959C939AE8
:1004A000839C959C819A939AE86A80A2E868136E6F
:1004B000E86A80A4E868156E13C001F015500001C9
:1004C0003CDE156E166E040015501610D8B46BEF96
:1004D00002F0030E446EE86A80A2E868136EE86AD0
:1004E00080B4E868156E13C001F0155026DE156E55
:1004F000166E040015501610D8B481EF02F0040EE9
:10050000446EE86A80B2E868136EE86A80A4E8681E
:10051000156E13C001F0155010DE156E166E040036
:1005200015501610D8B497EF02F0050E446EE86A25
:1005300080B2E868136EE86A80B4E868156E13C08C
:1005400001F015509DEC00F0156E166E040015506C
:100550001610D8B4AEEF02F0060E446EC880C88202
:10056000C894C896C898C88AC88C280EC66E839846
:100570009598A79AA786A7987D6A560EAF6E100E1B
:10058000AB6E040EAC6EB99AB986B9987C6A560EF9
:100590007B6E100EA66E040EBA6E9A6B9B6B9C6BF4
:1005A0009D6B9E6B9F6BA06BA16BA26BA36BA46BEF
:1005B000A56BA66BA76BA86BA96B5E6A396A3A6AD2
:1005C0002F865D6A376A386A2F942F923D6A3E6A99
:1005D00052685468506A516A826B0400080E825D4A
:1005E000D8B00AEF03F02D0EE96EEA6A8251000FCF
:1005F0000EEC00F0D8801CEC00F02C0EE96EEA6ADC
:100600008251000F0EEC00F0D8801CEC00F0822B21
:10061000D8A0E3D7426A556A0A0E4F6E4D6A2E98EB
:100620002E964C0E5C6E2E922F9C726B2E9E4D6AF7
:100630002E98566A2F902F8A848296929480948264
:1006400094849580958295849586948A93829380EC
:10065000948894868EEF03F0FBCF6FF0FACF6DF0A5
:10066000E9CF60F0EACF61F0E1CF64F0E2CF65F06E
:10067000D9CF68F0DACF69F01E841E90E06A9DAA97
:1006800057EF03F09EAA57EF03F01E8004009E0E62
:10069000266E060E276E000E286EB3EF00F0AE0E2B
:1006A000266E060E276E000E286EE8EF04F0E06A54
:1006B000A3AA70EF03F0A4AA70EF03F01E80040059
:1006C000D00E266E060E276E000E286EB3EF00F0D9
:1006D000E00E266E060E276E000E286E5FEF05F008
:1006E000E06A1EB03DEF03F0F80E266E060E276E90
:1006F000000E286E17EF01F01E9460C0E9FF61C084
:10070000EAFF64C0E1FF65C0E2FF68C0D9FF69C0CD
:10071000DAFF6DC0FAFF6FC0FBFF1100F28EF28CA2
:100720001AEF04F0E8CF25F0D8CF71F0E0CF6CF0ED
:10073000FBCF70F0FACF6EF0E9CF62F0EACF63F052
:10074000E1CF66F0E2CF67F0D9CF6AF0DACF6BF095
:100750001E94E06A1E92F2AAC4EF03F0F2A4C4EF62
:1007600003F01E820400760E296E070E2A6E000E1C
:100770002B6E7EEF01F0860E296E070E2A6E000E9C
:100780002B6E74EF05F0F294E06A9DA2DEEF03F0A9
:100790009EA2DEEF03F01E820400AA0E296E070E51
:1007A0002A6E000E2B6E7EEF01F0BA0E296E070E38
:1007B0002A6E000E2B6E8AEF05F09E92E06A9DA6CF
:1007C000F7EF03F09EA6F7EF03F01E820400DE0EA3
:1007D000296E070E2A6E000E2B6E7EEF01F0EE0ED4
:1007E000296E070E2A6E000E2B6EFEEF05F0E06AF2
:1007F0001EB2A9EF03F0060E296E080E2A6E000E37
:100800002B6EE2EF01F062C0E9FF63C0EAFF66C051
:10081000E1FF67C0E2FF6AC0D9FF6BC0DAFF70C0BA
:10082000FBFF6EC0FAFF6CC0E0FF25C0E8FF71C09F
:10083000D8FF1000D08EF28C810ED56E1F0ECA6EBE
:100840009F8A9D8AA58AA38AF194F28A9F929D82AB
:100850009F969D86D66AD76AD58E9D82CA849D86CC
:10086000F28CF28EAB8EAB989D8A9E9AAB88AC8A46
:10087000A68EA698A38AA49ABA8A65EC0CF0746A2C
:10088000756A45EC00F05B6E010E746E756A45EC9E
:1008900000F0576E020E746E756A45EC00F0586EEB
:1008A000030E746E756A45EC00F0596E040E746E9A
:1008B000756A45EC00F05A6E490E576E400E5F6E39
:1008C0004868DFEC0DF0040043500108D8A46EEF37
:1008D00004F0700E5F6E4868DFEC0DF0400E746E31
:1008E000756A45EC00F0846F04008451445CD8B410
:1008F00080EF04F0400E746E756A44504DEC00F0C9
:10090000410E746E756A45EC00F0846F04008451EA
:100910000308D8B492EF04F0410E746E756A030EAA
:100920004DEC00F0420E746E756A45EC00F0846F79
:10093000040084510108D8B4A4EF04F0420E746E90
:10094000756A010E4DEC00F0430E746E756A45EC4D
:1009500000F0846F040084510008D8B4B6EF04F0AE
:10096000430E746E756A000E4DEC00F04A0E746E04
:10097000756A45EC00F0846F040084510008D8B417
:10098000C8EF04F04A0E746E756A000E4DEC00F06C
:100990004B0E746E756A000E4DEC00F080869296D8
:1009A000010E046E900E5DEC00F014EC06F045ECC8
:1009B0000BF034EC0DF00BEC0CF0CCEC0AF0040076
:1009C0005C504908D8A4E7EF04F0B7EC0CF0EDD781
:1009D00077C076F0AECF77F004002FAC32EF05F0A1
:1009E0007251320FE96E010EEA6AEA2277C0EFFF18
:1009F0007205756F7551320FE96E010EEA6AEA22CF
:100A0000EFCF13F013500D08D8A4E868FF0A136E57
:100A10007251320FE96E010EEA6AEA22EFCF15F049
:100A200015500A08D8A4E868FF0A156E13C001F033
:100A300015509DEC00F0156E166E04001550161042
:100A4000D8B426EF05F0AB982F9C2E8E722B0400A5
:100A5000B30E725DD8A030EF05F0AB982F9C2E8EB0
:100A60004DEF05F076515308D8A4E868FF0A136EDD
:100A700077515408D8A4E868FF0A156E13C001F036
:100A800015509DEC00F0156E166E040015501610F2
:100A9000D8B44DEF05F0726B2F8CAB881EB458EFB5
:100AA00005F02BC0FBFF2AC0FAFF2950E06AF96E5F
:100AB00028C0FBFF27C0FAFF2650E06AF96EAB980A
:100AC0007ACF74F0AB881EB46DEF05F02BC0FBFF3E
:100AD0002AC0FAFF2950E06AF96E28C0FBFF27C040
:100AE000FAFF2650E06AF96ED59EF2944D6A010E27
:100AF000436E1EB483EF05F02BC0FBFF2AC0FAFF44
:100B00002950E06AF96E28C0FBFF27C0FAFF265083
:100B1000E06AF96ECA949E923D2A000E3E22552A42
:100B2000DCEC0AF02E8C500E016E026A3EC004F01E
:100B30003D508BEC00F0D8A4ADEF05F08086929686
:100B40002F9237C001F038C002F0046A000E88EC22
:100B500000F0D8A4ADEF05F02F84E80E016E030E6F
:100B6000026E3EC004F03D508BEC00F0D8A4CBEFF9
:100B700005F03D6A3E6A809692962F822E9237C08B
:100B800001F038C002F0046A000E88EC00F0D8A42E
:100B9000CBEF05F02F840400010E565CD8A0D9EFEE
:100BA00005F05606040056500008D8A4D9EF05F009
:100BB0002F8037C001F038C002F0046A000E88ECC4
:100BC00000F0D8A4E7EF05F03706000E385A782B6E
:100BD000CA841EB4F3EF05F02BC0FBFF2AC0FAFF56
:100BE0002950E06AF96E28C0FBFF27C0FAFF2650A3
:100BF000E06AF96EB69EB79EB68E12009D964D2A9B
:100C00002E889E969D861EB40DEF06F02BC0FBFF2E
:100C10002AC0FAFF2950E06AF96E28C0FBFF27C0FE
:100C2000FAFF2650E06AF96E04002EAE72EF07F06C
:100C3000AB982E9E0400090E725DD8A070EF07F0ED
:100C400004000101325149080001D8A42CEF06F03C
:100C500068EC08F070EF07F0010132510008D8A4E9
:100C6000E868FF0A136E33510008D8A4E868FF0A49
:100C7000156E13C001F0155000019DEC00F0156ECB
:100C8000166E010134510008D8A4E868FF0A176EF7
:100C900015501610016E175000019DEC00F0176EF4
:100CA000186E010135510008D8A4E868FF0A196ED2
:100CB00017501810016E195000019DEC00F0196ECC
:100CC0001A6E040019501A10D8B443EF07F001014E
:100CD00036514C08D8A4E868FF0A136E37514C0807
:100CE000D8A4E868FF0A156E13C001F01550000182
:100CF0009DEC00F0156E166E040015501610D8B459
:100D00008EEF06F004005C504908D8A48AEF06F084
:100D1000848296924C0E5C6E41EF07F001013651D1
:100D20004908D8A4E868FF0A136E37514908D8A4C7
:100D3000E868FF0A156E13C001F0155000019DEC24
:100D400000F0156E166E040015501610D8B4B5EFED
:100D500006F004005C504C08D8A4B1EF06F0849271
:100D60009692490E5C6E41EF07F0010136514E0834
:100D7000D8A4E868FF0A136E37514E08D8A4E86873
:100D8000FF0A156E13C001F0155000019DEC00F034
:100D9000156E166E040015501610D8B4D4EF06F078
:100DA0002F9A2F8441EF07F0010136515308D8A440
:100DB000E868FF0A136E37515308D8A4E868FF0AA1
:100DC000156E13C001F0155000019DEC00F0156E7A
:100DD000166E040015501610D8B4F3EF06F02F8AE3
:100DE0002F8441EF07F0010136514308D8A4E86889
:100DF000FF0A136E37514308D8A4E868FF0A156E3E
:100E000013C001F0155000019DEC00F0156E166E38
:100E1000040015501610D8B420EF07F09A6B9B6BA6
:100E20009C6B9D6B9E6B9F6BA06BA16BA26BA36B6E
:100E3000A46BA56BA66BA76BA86BA96B41EF07F022
:100E4000010136515408D8A4E868FF0A136E3751DF
:100E50004D08D8A4E868FF0A156E13C001F01550BC
:100E600000019DEC00F0156E166E04001550161072
:100E7000D8B441EF07F04E682F9A8472969273ECC3
:100E800007F070EF07F05C504908D8A4E868FF0A43
:100E9000136E010132514108D8A4E868FF0A156EAB
:100EA00013C001F0155000019DEC00F0156E166E98
:100EB000010133514408D8A4E868FF0A176E1550A1
:100EC0001610016E175000019DEC00F0176E186EA1
:100ED000040017501810D8B470EF07F050EC0DF064
:100EE000726BAB88120004000101385156080001F2
:100EF000D8A4BAEF07F083889598410E24EC00F04F
:100F0000410E24EC00F0410E24EC00F0520E24ECD3
:100F100000F0430E24EC00F0000E24EC00F0000E74
:100F200024EC00F0000E24EC00F0000E24EC00F0A5
:100F3000560E24EC00F0575024EC00F0445024EC02
:100F400000F0030E24EC00F0010E24EC00F0000E83
:100F500024EC00F00D0E24EC00F00A0E24EC00F05E
:100F60000D0E24EC00F00A0E24EC00F08398959806
:100F700067EF08F004000101385149080001D8A4C6
:100F8000F5EF07F083889598410E24EC00F0410EB0
:100F900024EC00F0410E24EC00F0520E24EC00F0A2
:100FA000430E24EC00F0000E24EC00F0000E24ECC4
:100FB00000F0000E24EC00F0000E24EC00F0490ECE
:100FC00024EC00F0525024EC00F00D0E24EC00F064
:100FD0000A0E24EC00F00D0E24EC00F00A0E24ECB6
:100FE00000F08398959867EF08F0040001013851EC
:100FF00073080001D8A411EF08F004000101395171
:1010000000080001D8A40BEF08F0839C959C819AFE
:10101000939A0FEF08F0838C959C818A939A67EFDF
:1010200008F004000101385143080001D8A429EF59
:1010300008F004000101395100080001D8A425EF8F
:1010400008F0838A959A27EF08F0839A959A67EFBC
:1010500008F004000101385142080001D8A467EFEC
:1010600008F083889598410E24EC00F0410E24ECA2
:1010700000F0410E24EC00F0520E24EC00F0430E80
:1010800024EC00F0000E24EC00F0000E24EC00F044
:10109000000E24EC00F0000E24EC00F0420E24ECD4
:1010A00000F0010E24EC00F0000E81B2010E24ECE1
:1010B00000F00D0E24EC00F00A0E24EC00F00D0EF2
:1010C00024EC00F00A0E24EC00F0839895981200AE
:1010D00001013251575CD8A4E868FF0A136E3351FE
:1010E000585CD8A4E868FF0A156E13C001F01550CB
:1010F00000019DEC00F0156E166E01013451595C33
:10110000D8A4E868FF0A176E15501610016E175024
:1011100000019DEC00F0176E186E010135515A5C0C
:10112000D8A4E868FF0A196E17501810016E1950FC
:1011300000019DEC00F0196E1A6E040019501A108F
:10114000D8B458EF09F004000101365149080001F4
:10115000D8A40CEF09F037C14EF00400080E4E5C25
:10116000D8B0BDEF08F0010E016E4E5077EC00F0E4
:101170005D6E140E376E300E386E0400010138516A
:1011800046080001D8A4C9EF08F039C14FF0CBEFF1
:1011900008F00A0E4F6E2E8252C07AF0500E7B6F0E
:1011A000D8905E34E96EEA6AEA369A0EE926000EB5
:1011B000EA22EFCF3BF0ECCF3CF05EC07CF03CC0CD
:1011C0007DF03BC07EF0430E7F6F7A517B25136E1E
:1011D000146A14367C511326E86A14227D511326B2
:1011E000E86A14227E511326E86A14227F511324E0
:1011F0003B6EE86A14203C6E3CC080F03BC081F03E
:10120000E0EC0CF05E2A0400080E5E5CD8A00AEF49
:1012100009F05E6A58EF09F0010136514608D8A47A
:10122000E868FF0A136E37515608D8A4E868FF0A29
:10123000156E13C001F0155000019DEC00F0156E05
:10124000166E040015501610D8B42DEF09F0560E86
:101250007A6F74EC09F058EF09F001013651460835
:10126000D8A4E868FF0A136E37515208D8A4E8687A
:10127000FF0A156E13C001F0155000019DEC00F03F
:10128000156E166E040015501610D8B458EF09F0FC
:101290004B0E746E756A0101385100014DEC00F07F
:1012A000520E7A6F74EC09F0050E5CEC00F0FF0052
:1012B0005C504C08D8A4E868FF0A136EE86A2EB2A6
:1012C000E868156E13C001F015509DEC00F0156E26
:1012D000166E040015501610D8B473EF09F080B6DE
:1012E000848280A6849212008388959804007A51A3
:1012F0005608D8A43AEF0AF057505824136E146ACF
:10130000143659501326E86A14225A501326E86AF4
:101310001422460E1326000E1422560E1326000E1B
:101320001422FF0E1326000E142244501326E86ADE
:101330001422030E1326000E1422132A000E142268
:10134000000E1324316E000E1420326E410E24EC78
:1013500000F0410E24EC00F0410E24EC00F0520E9F
:1013600024EC00F0430E24EC00F0575024EC00F085
:10137000585024EC00F0595024EC00F05A5024EC62
:1013800000F0460E24EC00F0560E24EC00F0FF0EA8
:1013900024EC00F0445024EC00F0030E24EC00F0A8
:1013A000010E24EC00F0000E24EC00F0000E24EC02
:1013B00000F0430E24EC00F0325024EC00F03150E9
:1013C00024EC00F00D0E24EC00F00A0E24EC00F0EA
:1013D0000D0E24EC00F00A0E24EC00F0410E24EC7B
:1013E00000F0410E24EC00F0410E24EC00F0520E0F
:1013F00024EC00F0430E24EC00F0575024EC00F0F5
:10140000585024EC00F0595024EC00F05A5024ECD1
:1014100000F0460E24EC00F0560E24EC00F0FF0E17
:1014200024EC00F0445024EC00F0030E24EC00F017
:10143000010E24EC00F0000E24EC00F0000E24EC71
:1014400000F0430E24EC00F0325024EC00F0315058
:1014500024EC00F00D0E24EC00F00A0E24EC00F059
:101460000D0E24EC00F00A0E24EC00F08398959801
:10147000C9EF0AF057505824136E146A14365950A5
:101480001326E86A14225A501326E86A1422460EDC
:101490001326000E1422520E1326000E1422FF0EE5
:1014A0001324316E000E1420326E410E24EC00F035
:1014B000410E24EC00F0410E24EC00F0520E24EC1E
:1014C00000F0430E24EC00F0575024EC00F058508C
:1014D00024EC00F0595024EC00F05A5024EC00F0B9
:1014E000460E24EC00F0520E24EC00F0FF0E24EC2B
:1014F00000F0430E24EC00F0325024EC00F03150A8
:1015000024EC00F00D0E24EC00F00A0E24EC00F0A8
:101510000D0E24EC00F00A0E24EC00F0410E24EC39
:1015200000F0410E24EC00F0410E24EC00F0520ECD
:1015300024EC00F0430E24EC00F0575024EC00F0B3
:10154000585024EC00F0595024EC00F05A5024EC90
:1015500000F0460E24EC00F0520E24EC00F0FF0EDA
:1015600024EC00F0430E24EC00F0325024EC00F0A8
:10157000315024EC00F00D0E24EC00F00A0E24ECA7
:1015800000F00D0E24EC00F00A0E24EC00F083981D
:1015900095988398959812000400ABA4D2EF0AF0B6
:1015A000AECF84F00400ABA2DBEF0AF0AB98020EE2
:1015B0005CEC00F0AB88120082BA508E82AA509E7A
:1015C00083B6508C83A6509C83B4508A83A4509ACF
:1015D00083B2508883A2509883B0508683A05096DF
:1015E00082B4508482A4509482B2508282A25092DB
:1015F00082B0508082A0509004005050515CD8B40A
:1016000044EF0BF050505118426E515042160400F6
:10161000010E425CD8A042EF0BF0866B0400080E6E
:10162000865DD8B042EF0BF042C001F0026A8651ED
:101630007FEC00F0856F0400D89685A1D886D8B6D7
:101640003FEF0BF0D8908635E96EEA6AEA369A0EDB
:10165000E926000EEA22EFCF13F0ECCF14F0132AA4
:10166000000E1422D8908635E96EEA6AEA369A0EA0
:10167000E926000EEA2213C0EFFF14C0ECFF862B10
:10168000D8A0CCD750C051F0120004002EAC0AEF05
:101690000CF02E9C82BA2D8E82AA2D9E83B62D8CA4
:1016A00083A62D9C83B42D8A83A42D9A83B22D8882
:1016B00083A22D9883B02D8683A02D9682B42D848D
:1016C00082A42D9482B22D8282A22D9282B02D808E
:1016D00082A02D90536A826B0400080E825DD8B000
:1016E000FFEF0BF052C001F0026A82517FEC00F074
:1016F000846F2D0EE96EEA6A8251000F0EEC00F045
:10170000000ED8A4010E136E146A13C001F014C0A9
:1017100002F0000E84B1010E84EC00F0D8A4CBEFEF
:101720000BF082518A0FE96E000EEA6AEA22EFCFCF
:1017300013F01328136E146A143682518A0FE96E5F
:10174000000EEA6AEA2213C0EFFF82518A0FE96EA7
:10175000000EEA6AEA22EFCF13F0040013504F5C48
:10176000D8B0C9EF0BF02D0EE96EEA6A8251000F76
:101770000EEC00F0000ED8A4010E136E146A2C0EAD
:10178000E96EEA6A8251000F0EEC00F013301CEC97
:1017900000F0E8EF0BF082518A0FE96E000EEA6A62
:1017A000EA22EF6A2D0EE96EEA6A8251000F0EEC12
:1017B00000F0000ED8A4010E136E146A2C0EE96E10
:1017C000EA6A8251000F0EEC00F013301CEC00F0BE
:1017D0002C0EE96EEA6A8251000F0EEC00F0000E4A
:1017E000D8A4010E136E146A13C001F0825177EC75
:1017F00000F0856F85515312822BD8A06DD753C04E
:1018000052F004005250545CD8B408EF0CF02F840E
:1018100052C054F012000400240E555CD8A02CEFE6
:101820000CF0556A04002FA42CEF0CF02F94040048
:101830002FB223EF0CF052C084F02DEC0CF0DFEC53
:101840000DF02CEF0CF052505D18856F85C084F0C0
:101850002DEC0CF0DFEC0DF0120004002FAA32EF9B
:101860000CF0846984C048F0120004005B50450805
:10187000D8B464EF0CF04E0E5B6E736B0400030E75
:10188000735DD8B05EEF0CF03FC001F040C002F0D5
:1018900035EC00F001C03FF002C040F03F50782529
:1018A000136E146A14367351920FE96E000EEA6AD1
:1018B000EA2213C0EFFF732BD8A0E0D792C058F0F4
:1018C00093C059F094C05AF01200796B0400290EAD
:1018D000795DD8B07FEF0CF0040081B272EF0CF0AC
:1018E000010E836F040081A279EF0CF0280E796F4E
:1018F000836B320E5CEC00F0792BD8A0E7D70400A4
:10190000010E835DD8A0B6EF0CF0746A756AFF0E05
:101910004DEC00F0010E746E756AFF0E4DEC00F098
:10192000020E746E756AFF0E4DEC00F0030E746EBD
:10193000756AFF0E4DEC00F0040E746E756AFF0EB2
:101940004DEC00F0796B0400040E795DD8B0B6EF71
:101950000CF084929692640E5CEC00F08482969275
:10196000640E5CEC00F0792BD8A0EDD712000400D7
:1019700081B2D1EF0CF0016A026A3AC004F039502A
:101980008BEC00F0D8A4CFEF0CF06FDFAC0E396E0B
:101990000D0E3A6E7A6B5BC07BF0E0EC0CF0DFEF83
:1019A0000CF039C001F03AC002F0046A000E88EC75
:1019B00000F0D8A4DFEF0CF03906000E3A5A1200FE
:1019C00004005C504C08D8A4EBEF0CF08482969293
:1019D0002F90140E566E050E026E460E6AEC00F045
:1019E00083889598410E24EC00F0410E24EC00F021
:1019F000410E24EC00F0520E24EC00F0430E24ECD7
:101A000000F0575024EC00F0585024EC00F05950EE
:101A100024EC00F05A5024EC00F07A5124EC00F051
:101A20007B5124EC00F07C5124EC00F07D5124EC3F
:101A300000F07E5124EC00F07F5124EC00F0805146
:101A400024EC00F0815124EC00F00D0E24EC00F0A9
:101A50000A0E24EC00F00D0E24EC00F00A0E24EC2B
:101A600000F0839895981200E86A2FB0E868136E2A
:101A70005C504C08D8A4E868FF0A156E13C001F04A
:101A800015509DEC00F0156E166E040015501610E2
:101A9000D8B44FEF0DF0848296922F90566A1200C0
:101AA0005B504E08D8A4E868FF0A136E0101345158
:101AB000575CD8A4E868FF0A156E13C001F01550F2
:101AC00000019DEC00F0156E166E01013551585C59
:101AD000D8A4E868FF0A176E15501610016E17504B
:101AE00000019DEC00F0176E186E01013651595C33
:101AF000D8A4E868FF0A196E17501810016E195023
:101B000000019DEC00F0196E1A6E010137515A5C0C
:101B1000D8A4E868FF0A1B6E19501A10016E1B50FA
:101B200000019DEC00F01B6E1C6E04001B501C108D
:101B3000D8B4BAEF0DF0450E5B6E746A756A5B50EF
:101B40004DEC00F0010E746E756A57504DEC00F0CC
:101B5000020E746E756A58504DEC00F0030E746EF0
:101B6000756A59504DEC00F0040E746E756A5A5047
:101B70004DEC00F01200A00E476E2E96F5EC0DF025
:101B80001200A10E476E2E961200D00E476E2E86C2
:101B900046C034F0F5EC0DF01200D10E476E2E86E3
:101BA00046C034F0E6EC0DF012000400C5BCDDEFD9
:101BB0000DF02E84C58CDEEF0DF02E9412005FC068
:101BC00047F02E862F88F5EC0DF01200040047B088
:101BD000EBEF0DF047802E8A2E88010E4D6ED66AEF
:101BE000D76AD58E3CEC0EF01200040047A0FAEF45
:101BF0000DF047902E9A2E88010E4D6ED66AD76A48
:101C0000D58E04EC0EF012000400010E4D5CD8A03D
:101C10003BEF0EF004002EA83AEF0EF02E9880EC69
:101C20000EF004004D500508D8A41EEF0EF0BDDFE5
:101C300004002EA41EEF0EF048C0C9FF04004D5052
:101C40000608D8A42AEF0EF0B0DF04002EA42AEF75
:101C50000EF0C58404004D500708D8A43AEF0EF0EA
:101C60004D6AD59E436A04002EB63AEF0EF0050E7B
:101C70005CEC00F0C9D712000400010E4D5CD8A046
:101C80007FEF0EF004002EA87EEF0EF02E9880EC71
:101C90000EF004004D500508D8A455EF0EF085DF76
:101CA00004002EA455EF0EF0C58004004D50060828
:101CB000D8A45DEF0EF047C0C9FF04004D500708DF
:101CC000D8A464EF0EF0C58604004D500808D8A4CF
:101CD0006EEF0EF0C9CF48F0090E4D6E04004D5066
:101CE0000908D8A475EF0EF0C58404004D500A0809
:101CF000D8A47EEF0EF04D6AB190436ABDD71200B2
:101D000004004D500108D8A487EF0EF0C5800400F0
:101D10004D500208D8A491EF0EF047502EBAE804B7
:101D2000C96E04004D500308D8A4A6EF0EF00400BD
:101D30002FB8A4EF0EF039DF04002EA4A2EF0EF0AE
:101D400034C0C9FFA6EF0EF0050E4D6E04004D50D5
:101D50000408D8A4B6EF0EF004002EA6B4EF0EF0DF
:101D6000050E4D6EB6EF0EF033C0C9FF1200030032
:021D7000FED79C
:020000040030CA
:020000040000FA
:10667000FFFFFFFFFFFFFFFFA7EF00F0FFFFFFFFA0
:020000040000FA
:1066C0000400CF7F0000E300000009000000CA7F43
:1066D0000000EC00000005000000C07F0000D900B1
:1066E00000000A000000BE7F0000F500000002006C
:0266F0000000A8
:0E66F200D4EC3AF0030EE126640EF36E020EB5
:10670000F3CFDBFFDE6ADD6ADECF10F0DDCF11F004
:10671000FD0EDBCF12F0FE0E28EC3BF00BE2020E7A
:10672000DBCFE6FFD3EC3FF0E552DF2A010EECE3CE
:10673000DB2AEAD7030EE15C02E2E16AE552E16E90
:10674000D9EF3AF0D4EC3AF0E652FD0EDBCF10F080
:10675000DB06FE0EDBCF11F001E2DB06105011105C
:1067600007E00A0EE66EE66AC4DFE552E552EDD7B1
:10677000E552D9EF3AF0D9CFE6FFE1CFD9FF0A0EC3
:10678000E126DF6A4A0EE66EE66A9CEC39F0E552D5
:10679000E552E76E010EE7CFDBFF020EDB6A030E68
:1067A000DB6AF29ED19096949692040EE66EE66AAB
:1067B000010EE66EE66ACB0EE66E000EE66E52EC59
:1067C00039F0106E060EE15E1050030EE66EE66ABA
:1067D000410EE66EE66AF20EE66E000EE66E52ECD2
:1067E00039F0106E060EE15E105086EC3BF036EC90
:1067F0003DF00001E16B0001CB5109E00001CB51FC
:10680000106E116AFF0E101801E1115013E19DEC9A
:1068100038F0010EE66EBF0EE66E7E0EE66E000EDE
:10682000E66ECBEC3DF0E552E552E552E552000153
:10683000E16B63D046EC38F000091AE00001010E6C
:10684000E16F00011E0EDD6FDE6BDF6BE06B81A27E
:10685000FED7010EE66EBC0EE66E7E0EE66E000EF4
:10686000E66ECBEC3DF0E552E552E552E55245D0FF
:10687000010EDB50040818E10001010EE16F000178
:106880000A0EDD6FDE6BDF6BE06B010EE66EB90E9C
:10689000E66E7E0EE66E000EE66ECBEC3DF0E55247
:1068A000E552E552E55229D04B0EE66EE66A9CECC5
:1068B00039F0E552E5520001DD6F0001DE6BDF6B60
:1068C000E06BD880000E0001DD55000EDE55000E95
:1068D000DF55000EE05503E20001010EE16F010EED
:1068E000E66EB60EE66E7E0EE66E000EE66ECBEC43
:1068F0003DF0E552E552E552E552010EE66EB40E6A
:10690000E66E7E0EE66E000EE66ECBEC3DF0E552D6
:10691000E552E552E552010EE66EAD0EE66E7E0ED4
:10692000E66E000EE66ECBEC3DF0E552E552E55228
:10693000E552010EE66EA70EE66E7E0EE66E000EC6
:10694000E66ECBEC3DF0E552E552E552E552010E24
:10695000E66EDDC0E6FF74EC3DF0E552E552000165
:10696000D890DD37DE37DF37E037010EE66EA20E56
:10697000E66E7E0EE66E000EE66ECBEC3DF0E55266
:10698000E552E552E552010EE66E010EE66E74EC3C
:106990003DF0E552E552010EE66EA00EE66E7E0E6B
:1069A000E66E000EE66ECBEC3DF0E552E552E552A8
:1069B000E552010EE66E090EE66E74EC3DF0E5520E
:1069C000E552010EE66E9B0EE66E7E0EE66E000E42
:1069D000E66ECBEC3DF0E552E552E552E552010E94
:1069E000E66EF2C0E6FF74EC3DF0E552E552010EB2
:1069F000E66EA00EE66E7E0EE66E000EE66ECBEC48
:106A00003DF0E552E552E552E552010EE66EF3C067
:106A1000E6FF74EC3DF0E552E552010EE66EA00E85
:106A2000E66E7E0EE66E000EE66ECBEC3DF0E552B5
:106A3000E552E552E552010EE66EF4C0E6FF74EC55
:106A40003DF0E552E552010EE66E970EE66E7E0EC3
:106A5000E66E000EE66ECBEC3DF0E552E552E552F7
:106A6000E552010EE66ECBC0E6FF74EC3DF0E55258
:106A7000E552010EE66EA00EE66E7E0EE66E000E8C
:106A8000E66ECBEC3DF0E552E552E552E552010EE3
:106A9000E66ECCC0E6FF74EC3DF0E552E552010E27
:106AA000E66EA00EE66E7E0EE66E000EE66ECBEC97
:106AB0003DF0E552E552E552E552010EE66ECDC0DD
:106AC000E6FF74EC3DF0E552E552010EE66EA00ED5
:106AD000E66E7E0EE66E000EE66ECBEC3DF0E55205
:106AE000E552E552E552010EE66ECEC0E6FF74ECCB
:106AF0003DF0E552E552010EE66E950EE66E7E0E15
:106B0000E66E000EE66ECBEC3DF0E552E552E55246
:106B1000E552010EE66E840EE66E7E0EE66E000E07
:106B2000E66ECBEC3DF0E552E552E552E5529BDADC
:106B30000001E15101E196D0F2A42ED08474847258
:106B40009DDA0001D9C010F0DAC011F0DBC012F0FC
:106B5000DCC013F0D92B000EDA23DB23DC23000189
:106B6000DD51105C0001DE5111580001DF51125857
:106B70000001E051135810E3010EE66E7C0EE66E44
:106B80007E0EE66E000EE66ECBEC3DF0E552E55271
:106B9000E552E5520001E16B81B212D0020EDBCF6B
:106BA000F3FFDB2AF35004080AE20001060EEC6F43
:106BB0000001420EC56FB0EC3CF081A2FED702D0BE
:106BC000020EDB6A030EDB50010A0DE0010A01E050
:106BD00045D0ACEC3BF0000905E0010EF36E030E6E
:106BE000F3CFDBFF3ED0010EE66E790EE66E7E0E31
:106BF000E66E000EE66ECBEC3DF0E552E552E55256
:106C0000E55258EC3EF0A0D9010EE66E760EE66E27
:106C10007E0EE66E000EE66ECBEC3DF0E552E552E0
:106C2000E552E55258EC3EF00001EC0505E00001AC
:106C3000D96BDA6BDB6BDC6BB0EC3CF0010EE66E13
:106C4000730EE66E7E0EE66E000EE66ECBEC3DF049
:106C5000E552E552E552E55258EC3EF0030EDB6A90
:106C600000D066D7DE52040EDD6E010EE66EE66AD7
:106C70004A0EE66EE66AD950010FE66E000EDA2083
:106C8000E66E6DDB106E060EE15E1050010EE66ED4
:106C90006E0EE66E7E0EE66E000EE66ECBEC3DF0FE
:106CA000E552E552E552E55258EC3EF0FCD90009B8
:106CB00003E158EC3EF0FF0058EC3EF0010EE66EAA
:106CC000660EE66E7E0EE66E000EE66ECBEC3DF0D6
:106CD000E552E552E552E5520400D18004003CEF54
:106CE00033F00A0EE15C02E2E16AE552E16EE55240
:106CF000E7CFD9FF1200D4EC3AF00F0EE1261AECE0
:106D00003BF0010E00C1DBFF01C1DFFF3AEC3BF0BD
:106D10000D0EEECFDBFF0E0EEDCFDBFF3AEC3BF0BE
:106D20009A0EEE5C010EEE58000EEE58000EEE5874
:106D300002E3020E66D03AEC3BF0EECF04F0EECF69
:106D400005F0EECF06F0EFCF07F0400E096E0A6AAD
:106D50000B6A0C6A61EC3FF000C0DEFF01C0DEFF91
:106D600002C0DEFF03C0DDFFDD52DD52CAEC3AF0A7
:106D7000105011101210131030E1080EE66EE66A82
:106D8000C0EC3AF0D950040FE66E000EDA200CEC9D
:106D90003BF00C0EDB6A080EF36E0C0EDBCFF4FF3B
:106DA000F350F45C1AE2D950040F106EDACF11F0F0
:106DB0000C0EDB500F011024E96E000EDA20EA6E93
:106DC000EF50E66E0C0EDB50020FF2EC3AF0E5529B
:106DD000E750EF6E0C0EDB2ADED70D0EDBCFE6FFA1
:106DE0000E0EDBCFE6FFF7DAE552E552C9DB020E05
:106DF000E66E010EE66E11DB71EC3BF00001ED6B0F
:106E0000000E106E0F0EE15C02E2E16AE552E16EE7
:106E10001050CFD3030EE66EE66A410EE66EE66AC8
:106E200069EF3BF013EC3BF069EF3BF0BDDB020E8A
:106E3000E126E20EDE6E000EDD6E010EE66E580EED
:106E4000E66E7E0EE66E000E32EC3BF058EC3EF045
:106E50002AD9000907E00001E26B010E55EC3BF076
:106E6000000E06D00001010EE26F55EC3BF0050E5E
:106E7000106E020EE15C02E2E16AE552E16E105032
:106E800098D30001ED6B400E6FDB410E6DDB420EBF
:106E90006BDB430E69DB4C0E67DB000C0001ED6B16
:106EA0004DEC3BF0010EEF6EF8DB090EEF6E000CBF
:106EB0007BDB030EE126DF6A010EDB6A020EDB6A72
:106EC000FE0EDB508FDBEF50430803E00001030EA2
:106ED000EC6FDF6AFE0EDB50DF5C0BE2DF5082DB23
:106EE000EF50116AE8500001C7271150C823DF2A6C
:106EF000F1D7FE0EDB2876DB020EEFCFDBFFFE0EB6
:106F0000DB50020F6FDB010EEFCFDBFFDBCF10F0AA
:106F1000020EDBCF11F00001C751101802E1C85179
:106F2000111803E00001040EEC6F0001EC5102E0C7
:106F3000010E01D0000E106E030EE15C02E2E16A68
:106F4000E552E16E105035D32FDBE652DF6A0001C7
:106F5000EC6B460E0001C65D03E00001010EEC6F14
:106F6000DF6A640EDF5C08E2C6DBDF503BDBEF501C
:106F7000E66EBCDBDF2AF5D70001C551470A60E0A9
:106F8000110A4FE0130A3FE0010A2FE00C0A20E04B
:106F90000B0A10E00D0A62E1030EE66E2CDB61E1E4
:106FA000010EE66E540EE66E7E0EE66E000E5ADBA5
:106FB00031DF35D0040EE66E1EDB53E1010EE66EC6
:106FC000520EE66E7E0EE66E000E4CDB2BDF27D0F7
:106FD000E66A11DB46E1010EE66E500EE66E7E0EAD
:106FE000E66E000E3FDB5ADF1AD0420EE66E03DB80
:106FF00038E1010EE66E4E0EE66E7E0EE66E000E77
:1070000031DB79DE0CD0E66AF6DA2BE1010EE66EB2
:107010004C0EE66E7E0EE66E000E24DB07DF0001EE
:107020001FD0E66AE8DA1DE12CDF0001EC6F010EEB
:10703000E66E4A0EE66E7E0EE66E000E13DB11D093
:10704000E66AD9DA0EE1010EE66E420EE66E7E0EBB
:10705000E66E000E07DB0001E16B03D00001010EBC
:10706000EC6FE552A6D2D59ED59CD59AD598D596EB
:10707000F80ED5140709D56E3EEF38F0D59EF29480
:10708000B30ED76EB40ED66ED58E1200938281B237
:10709000000C010EE66EE66AA2EC33F0E552E55212
:1070A00081B2000C010C80DA090EE126080EDB6AC1
:1070B000BADAD950040FE66E000EDA20E66ECFDAA7
:1070C000070E7BDA010EE66E3B0EE66E7E0EE66E76
:1070D000000EC8DAD4DA5EDA10C0E6FF11C0E6FFAF
:1070E00012C0E6FF13C0E6FF8ADA146E080EE15EF6
:1070F0001450E552E7CF13F0E552E7CF12F0E55216
:10710000E7CF11F0E552E7CF10F01050041808E176
:107110001150051805E11250061802E11350071826
:1071200002E0000E01D0010E106E090EE15C02E2D9
:10713000E16AE552E16E10503CD236DA080EE126E3
:107140005EDA106E080EE15E1050040E04C0DBFF24
:10715000050E05C0DBFF060E06C0DBFF070E07C0ED
:10716000DBFF2BDA60DAD9CFE6FFDACFE6FF40DAD1
:10717000080EE15C02E2E16AE552E16E1AD2120009
:1071800013DA0D0EE126FB0EDB50E76E080EE7CF9B
:10719000DBFF090EDB6A0A0EDB6A0B0EDB6A4ADADA
:1071A0008FDA68DAFB0EDBCFEEFFFC0EDBCFEEFFF3
:1071B000FD0EDBCFEEFFFE0EDBCFEEFFF70EDBCFDB
:1071C00010F0F80EDBCF11F0F90EDBCF12F0FA0E53
:1071D000DBCF13F04FDA1050EE5C1150EE58125026
:1071E000EE581350EE582DE2D5D93F0E1016116A05
:1071F000126A136A105011101210131003E1080ED6
:10720000DB6A5EDA080EDBCFF3FFDB2AF350EAD944
:10721000EFCF10F0116A126A136AD950090FE96EA4
:10722000DACFEAFF1050EE261150EE221250EE2275
:107230001350EE221FDAEE2A000EEE22EE22EE228C
:10724000BDD7010EE66E340EE66E7E0EE66E000EC3
:1072500009DA10DA090EDBCFEEFF0A0EDBCFEEFF04
:107260000B0EDBCFEEFF0C0EDBCFEEFF08DA090EC4
:10727000DBCF10F00A0EDBCF11F00B0EDBCF12F0DC
:107280000C0EDBCF13F010C004F011C005F012C0DB
:1072900006F013C007F00D0EE15C02E2E16AE55270
:1072A000E16E87D1D9CFE6FFE1CFD9FF020EE1260B
:1072B000DE6ADD6ADECF10F0DDCF11F0F90EDBCF34
:1072C00012F0FA0EDBCF13F01250105C135011586D
:1072D00029E2FB0EDB50746EFB0EDBCF10F0FC0ED0
:1072E000DBCF11F011C010F0116A1050756E7F6A7B
:1072F0007F800000FD0EDBCF10F0FE0EDBCF11F023
:10730000DE501024E96EDD501120EA6E73CFEFFFDE
:10731000FB0EDB2AFC0E01E3DB2ADF2A010E01E370
:10732000DB2AC8D7020EE15C02E2E16AE552E16EB7
:10733000E552E7CFD9FF120037D9E652010EE66ECB
:10734000E66AFD0EDBCFE6FFFE0EDBCFE6FFD9CF10
:10735000E6FFDACFE6FF83D9DF50E5522AD124D900
:10736000020EE126DE6ADD6ADECF10F0DDCF11F01D
:10737000F90EDBCF12F0FA0E6BD926E2FB0EDB50D2
:10738000746EFB0EFC0EDBCF11F011C010F011502B
:10739000756EFD0EDBCF10F0FE0EDBCF11F0DE5070
:1073A0001024E96EDD501120EA6EEF50736E040E6A
:1073B0007F6EBCD8FB0EDB2AFC0E01E3DB2ADF2A42
:1073C000010ED2E3DB2AD0D7020EE15C02E2E16AD1
:1073D000E552E16EEED0D9CFE6FFE1CFD9FF040050
:1073E000FD0EDBCF10F0FE0EDBCF11F0126A060EA1
:1073F0001F0B10C0F6FF11C0F7FF12C0F8FF06E028
:10740000D890F636F736F836E806FAE1940E7F6E35
:107410008DD8E552E7CFD9FF1200D9CFE6FFE1CFF3
:10742000D9FF020EE126F90EDBCFF6FFFA0EDBCF15
:10743000F7FFFB0EDBCFF8FFDE6ADD6ADECF10F070
:10744000DDCF11F0400E105C000E115814E2FD0E5D
:10745000DBCF10F0FE0EDBCF11F0DE501024E96E12
:10746000DD501120EA6EEF50F56E0D00DF2A010E9F
:1074700001E3DB2AE3D70A00A40E7F6E57D8020E81
:10748000E15C02E2E16AE552E16EE552E7CFD9FF45
:107490001200D9CFE6FFE1CFD9FF020EE126FB0EA5
:1074A000DB50F00809E0F90EDBCFF6FFFA0EDBCF78
:1074B000F7FFFB0EDBCFF8FFDE6ADD6ADECF10F0F0
:1074C000DDCF11F0F70EDBCF12F0F80EDBCF13F0AB
:1074D0001250105C135011581FE20900300EF85C76
:1074E00008E1050EF65C01E1F568080EF65C01E1C5
:1074F000F568FD0EDBCF10F0FE0EDBCF11F0DE5095
:107500001024E96EDD501120EA6EF5CFEFFFDF2A7F
:10751000010E01E3DB2AD2D7020EE15C02E2E16A4E
:10752000E552E16EE552E7CFD9FF1200D9CFE6FF71
:10753000E1CFD9FFE652F250800B01E0010EDF6E81
:10754000F29E550E7E6EAA0E7E6E7F82DF5001E0A7
:10755000F28E7FB2FED77F94E552E552E7CFD9FF96
:107560001200C4D87BEF3BF0E66EE66AE5DEE5523A
:10757000E552E66E000191D8E552E750EF6E120039
:1075800079D8EECFE6FFEECFE6FFEECFE6FFEFCF06
:10759000E6FF12006FD8EECF10F0EECF11F0EECF75
:1075A00012F0EFCF13F01200D9CFE6FFE1CFD9FFF1
:1075B0001200E552E7CFD9FF1200DB50DF6E060E56
:1075C000DB50E76E010EE7CFDBFF050EDB50E76E09
:1075D000020EE7CFDBFF040EDB50E76E030EE7CFB2
:1075E000DBFF1200EA6A000FE96E010EEA221200C8
:1075F000B6DE71EF3BF05CDCE55200091200800E54
:10760000E66E660EE66EE66AE66A080EE66EE66A04
:10761000E66AE66AC0EF38F0E66E3BDF106E080EF1
:10762000E15E10501200040EE66EE66A440EE66E4D
:10763000E66A12000C0EDB6ADE6ADE6ADE6ADD6A6A
:10764000DD52DD521200030EDBCFE6FF76EF3BF09A
:10765000DBCF13F01250105C13501158120022DED1
:1076600071EF3BF0E66ECBEC3DF0E552E552E552B2
:10767000E5521200D9CFE9FFDACFEAFF1200010E7E
:10768000E66EDFCFE6FF6DDFDBCFE6FF6ADF020EDF
:10769000DBCFE6FF66DF23EF3BF0ED51ED2BEA6A2F
:1076A000600FE96E000EEA221200E66EE66A4C0EEA
:1076B000E66EE66ADECFE6FFDDCFE6FFF8EF3AF0F2
:1076C000400EE66EE66A5CDF000EE66E010E0CEF21
:1076D0003BF0000EE66E010EE66E8ADF0001ED6BF8
:1076E000000C106E060EE15E1050120074EC3DF0BE
:1076F000E552E5521200010EE66E560EE66E7E0E63
:0C770000E66E000EAFDF010EE66E120018
:04770C0099D9040EF5
:10771000E126550EDE6EDE6ADE6ADD6ADD52DD527E
:10772000A786AC84DF50AF6E010EDB507D6EAC8A55
:10773000AC98AB8EAB880F015D6B5C6B95988398B2
:107740000001F569F6690001ED6B040EE15C02E2EF
:10775000E16AE552E16E79D173D9020EE126010E9C
:10776000DB6AABA207D0AB98E66EB7EC3FF0E55210
:10777000AB8804D0ABA404D0AE50DF6E000EADD009
:107780009EAAA9D0AE50DF6E9E9A0001EE510C0A5F
:1077900001E195D0070A01E18BD0010A01E183D014
:1077A000030A01E17CD0010A6DE00F0A44E0010AFE
:1077B0003CE0030A30E0010A25E0070A1CE0010A68
:1077C00010E0030A09E0010A01E084D0530EDF5CF7
:1077D00001E081D0EE2B7FD0540EDF5C24E1020E5D
:1077E00077D0DF500001C76FC86BCB51DF5C11E170
:1077F0000001030E6DD019D9CC51DF5C0AE1000104
:10780000040E66D012D9CD51DF5C03E10001050EF4
:107810005FD0000108D009D9CE51DF5C03E100013F
:10782000060E56D00001EE6B56D0FFD8DFCFC6F063
:107830000001070E4DD0F9D8DFCFC5F0460EC65D6A
:107840001FE1C551450A16E0130A14E0110A12E0BF
:10785000030A0CE0070A06E00D0A12E10001EF6BD3
:10786000060E0BD00001EF6B070E07D00001EF6B87
:10787000450E03D00001EF6B030EF06F080E28D009
:1078800000011BD0EF51EF2BEA6A000FE96E010EE9
:10789000EA22DFCFEFFFF051EF5D1DE30ED00D0EBA
:1078A000DF5C19E108D00A0EDF5C07E10B0E10D097
:1078B0000D0EDF5C02E10C0E0BD0090E09D00A0E92
:1078C000DF5C05E1EE6BDE52010EDD6E04D0090EC9
:1078D000EE6F01D0EE6B010EDB50106E020EE15C1C
:1078E00002E2E16AE552E16E1050AFD0A9D8ACA235
:1078F000FED7FE0EDB50AD6EFE0EDB50116AE85077
:107900000001C9271150CA23A0D09AD8030EE1263E
:10791000640EF36E020EF3CFDBFFDE6ADD6ADECFAC
:1079200010F0DDCF11F0FD0EDBCF12F0FE0EDBCF3D
:1079300013F01250105C135011580BE2020EDBCF03
:10794000E6FFD3EC3FF0E552DF2A010EE8E3DB2A45
:10795000E6D7030EE15C02E2E16AE552E16E75D022
:107960006FD8040EE126DF6A030EDB6ADB6A020EC3
:10797000F36E030EDBCFF4FFF350F45C4DE2AB98F3
:107980008388520E5AD8430E58D80001C96BCA6B6F
:10799000CBC0E6FF5ED8CCC0E6FF5BD8CDC0E6FF2B
:1079A00058D8CEC0E6FF55D8460E47D8C5C0E6FF2A
:1079B00050D8ECC0E6FF4DD80001ED51DF5C0AE283
:1079C000DF50DF2AEA6A600FE96E000EEA22EF500C
:1079D000E66EF1D7010EC9C0DBFF020ECAC0DBFFA5
:1079E000430E2BD8020EDBCFE6FF33D8010EDBCFE0
:1079F000E6FF2FD831D830D8ACA2FED78398AB8819
:107A0000450E0001C55D05E0020EF36E030EF3CFD7
:107A1000DBFF030EDB2AABD70001ED6B040EE15C4C
:107A200002E2E16AE552E16E10D0DF50116AE850DF
:107A30000001C7271150C8231200E66E29EF3DF060
:107A4000D9CFE6FFE1CFD9FF1200E552E7CFD9FF4A
:107A500012004CDFE55212000D0EEFDF0A0E1DEF93
:027A60003DF0F7
:0E7A620076D9FE0EDBCFEBF04CD171D9040EBD
:107A7000E126550EDE6EDE6ADE6ADD6ADD52DD521B
:107A8000B986BA84DF507B6E010EDB507C6EBA8AF9
:107A9000BA98A68EA688040EE15C02E2E16AE5527D
:107AA000E16E30D10001E751E91904E1E851EA192A
:107AB00001E11200BAA214D0E7C0E9FFE8C0EAFF72
:107AC000EF50796EE551E71908E1E651E81905E153
:107AD000E3C0E7F0E4C0E8F01200E72B000EE82373
:107AE0001200D9CFE6FF0ED133D9050EE126040EE0
:107AF000DB6A640E146E26D90750DBD812BE1368F9
:107B0000E3D813BE146808D902E3040EDB2A640E1E
:107B1000156E18D903C014F00A0E166E0C6E03C051
:107B200007F0C5EC3FF00750C4D812BE1368CCD89C
:107B300013BE1468F1D802E3040EDB2A0A0E146E99
:107B400001D90350B6D812BE13681ED9E552E750CA
:107B5000EF6E040EDB2AD9CF10F0DACF11F0DBCFB5
:107B600012F0136A12BE13680FD9EF6AFD0EDBCF55
:107B7000E6FFD9CFE6FFDACFE6FF5BD8E552E55264
:107B8000E552050EE15C02E2E16AE552E16EBAD02F
:107B9000D9CFE6FFB7D0DCD8030EE126D9CFE9FF75
:107BA000DACFEAFFFC0EDBCFEEFFFD0EDBCFEEFF00
:107BB000FE0EDBCFEEFFE1D802E1115033E0FB0E09
:107BC000DB5007E0B4D82EE0BAA2FCD78AD8796E91
:107BD000F9D7ADD827E085D899D8E551E91908E15A
:107BE000E651EA1905E1E3C0E9F0E4C0EAF003D0A8
:107BF000E92B000EEA23E751E919EBE1E851EA1914
:107C0000E8E1E351E91908E1E451EA1905E1E5C0C9
:107C1000E9F0E6C0EAF003D0E907000EEA5B230EC4
:107C200075D8D7D7030EE15C02E2E16AE552E16E56
:107C300069D08ED8A2D802E1115039E0FC0EDB5099
:107C40000AE08BD834E0BAA2FCD78FD801E3DB2A54
:107C5000EF50796EF6D781D82AE087D801E3DB2A86
:107C6000EF5054D8E551E91908E1E651EA1905E168
:107C7000E3C0E9F0E4C0EAF003D0E92B000EEA2308
:107C8000E751E919E8E1E851EA19E5E1E351E919B9
:107C900008E1E451EA1905E1E5C0E9F0E6C0EAF0DF
:107CA00003D0E907000EEA5B230E30D8D4D72AD0E0
:107CB0001200300FE66ED9CF10F0DACF11F0040EBB
:107CC000DBCF12F0136A12005FD8E552E750EF6E77
:107CD000D9CF11F0DACF12F0040EDBCF13F0146A13
:107CE0001200D9CFE9FFDACFEAFFEFCFF6FFEE2A95
:107CF000EFCFF7FF000EEE22EFCFF8FFEE220800E5
:107D0000F5501200E552E7CFD9FF1200E9C0E9FFB4
:107D1000EAC0EAFFEF6E120011501324E96E125010
:107D20001420EA6EEFCF10F0300E105C1200DFCF9F
:107D3000F6FF010EDBCFF7FF020EDBCFF8FF0800E6
:107D4000F55012000C6EFE0EDBCF07F0C5EF3FF0D2
:107D5000D9CFE6FFE1CFD9FF1200FD0EDBCFE9FF5F
:107D6000FE0EDBCFEAFFEF501200FD0EDBCFE9FF86
:107D7000DB2AFE0EDBCFEAFF12000001EB51106E92
:107D8000116AFF0E1018120010501224E96E1150E3
:067D90001320EA6E120050
:0A7D9600C00EF66E660EF76E000ECA
:107DA000F86E00010900F550D46F0900F550D56F49
:107DB00003E1D46701D03DD00900F550CF6F090031
:107DC000F550D06F0900F550D16F09000900F5504A
:107DD000E96E0900F550EA6E090009000900F55046
:107DE000D26F0900F550D36F09000900F6CFD6F025
:107DF000F7CFD7F0F8CFD8F0CFC0F6FFD0C0F7FF5D
:107E0000D1C0F8FF0001D25302E1D35307E00900CB
:107E1000F550EE6ED207F8E2D307F9D7D6C0F6FFD9
:107E2000D7C0F7FFD8C0F8FF0001D407000ED55B1C
:047E3000BFD71200A6
:0C7E34000A4373756D3A000A4573756DC2
:107E40003A00474F544F41505000560045004400FF
:107E5000480043004E002C00557064617465205347
:107E6000746174757300476F746F41707000537460
:107E70006F70005F73005F6E005F760054494D4580
:107E80004F5554000A4F70656E4D6F7469637320CF
:107E900032303137000A000A4120000A46575600A6
:107EA0002E000A424C56000A57445420000A424C05
:107EB00020494D0042000A44000A43000A42000AD9
:027EC00041007F
:0E7EC20004500902F3CF00F0F4CF01F00A02E1
:107ED000F3500126000EF420026E04500B02F35002
:107EE0000226000EF420036E04500C02F350032609
:107EF00005500902F3500126F4500222000E03221D
:107F000005500A02F3500226F450032205500B02DA
:107F1000F350032606500902F3500226F4500322C0
:107F200006500A02F350032607500902F3500326B5
:027F300012003D
:0E7F3200410EF36E00EE00F00E0E01D81200AC
:107F4000EA6002D0EE6AFCD7F350E9601200EE6AF4
:027F5000FCD75C
:0E7F52001DEE00F02DEE00F0F86A0F9CCBEC57
:0E7F60003EF0DEEC3FF0BBEC33F0FBD712003E
:027F6E00FF0E04
:107F7000E350176E1B0E00D001D0200EE76EE72EE7
:0A7F8000FED7172EFAD700D012002A
:067F8A00036A080EE76E19
:107F9000D890073603360C50035C02E3036E072AC1
:067FA000E72EF7D71200E6
:0A7FA600FF0EE350E84E1200000049
:0C7FB00000D000D000D0E82EFAD712005C
:027FBC001200B1
:027FBE00FEFFC4
:0A7FC00000000000000000000100B6
:057FCA000000000000B2
:017FCF00F7BA
:087FD00000F700F700F70001C3
:020000040030CA
:0100000015EA
:0100010012EC
:0100030026D6
:010008000FE8
:01000900C036
:00000001FF
