:020000040000FA
:1000000001EFFCF0FFFFFFFF96EF02F0FFFFFFFFA5
:10001000FFFFFFFFFFFFFFFF24EF01F0096EF80B6A
:10002000E830E830E830E926D8B0EA2A6FEC00F092
:10003000096EEF1412EF01F00950D8A0E86AEF182A
:100040000914EF1A12EF01F004009EA8FDD7AE6E5E
:10005000D88012EF01F0E9500400A4A8FDD7A96EE2
:10006000D88012EF01F0219E0A50D8B4218E100ED4
:10007000096EE86A05360636E83421D80966F9D7EC
:100080001200219E0A50D8B4218E050E096E270E4B
:10009000046E100E0CD8030E046EE80E08D8046A25
:1000A000640E05D8046A0A0E02D8055008D0036E03
:1000B0000650026E0550016ED6EC00F00150016E44
:1000C000094E219E0A5003E0095CD8B0120001508D
:1000D000D8A4219E21BE1200300F0CEF01F0010EBA
:1000E00009B0E84409B2E84409B2E84409B4E83880
:1000F0001200046A036EE86A0306045AD8A012EFDD
:1001000001F0030E026EE70E02D8F5D7026AFE0F69
:10011000016EE86A025AD8A012000400010600D05D
:10012000F8D7D89001360236FF0FFBE2015012EFEC
:1001300001F0D89002320132FF0FFBE2015012EFC2
:1001400001F0036E020E16D0046A036E030E12D085
:10015000026A046A036E010E0DD0026A046A036E1D
:10016000060E08D0026A046A036E040E03D0046A05
:10017000036E050E096E0450025C02E10350015C3F
:10018000040ED8B0010ED8B4020E0914D8A4FF0E84
:1001900012EF01F0E866FF0E0114D8A4FF0E12EF73
:1001A00001F00110D8A4FF0E12EF01F0066A056AF3
:1001B000100E076E0234053606360350055E0450F5
:1001C000065A05E20350052604500622D89001364F
:1001D0000236072EEFD7015012EF01F0035007024D
:1001E000F3CF05F0F4CF06F004500802F3CF01F08E
:1001F000F4CF02F00702F3500626F4500122E86A19
:10020000022203500802F3500626F4500122E86A45
:100210000222055012EF01F0E96EFB6A1250FA6EED
:100220001150F96E000104001200030EB06E200E92
:10023000AD6E900EAC6E030EAB6E200EA86E900EDF
:100240009C6E226A25EF01F010003A9E08EF02F042
:1002500004003ABE87EF01F001C0F8F702C0F9F7D9
:1002600003C0FCF704C0FDF705C000F806C001F8A4
:1002700007C004F808C005F809C008F80AC009F862
:100280000BC00AF80CC00BF80DC00CF80EC00DF82E
:100290000FC00EF810C00FF811C010F812C011F8FE
:1002A00000C012F821C013F823C014F824C015F8B8
:1002B00025C016F826C017F8F8CF36F8F7CF39F86A
:1002C000F6CF38F827C018F828C019F8F3CF3AF855
:1002D000F4CF3BF813C01AF814C01BF815C01EF871
:1002E00016C01FF817C022F818C023F819C026F846
:1002F0001AC027F81BC02AF81CC02BF81DC02EF806
:100300001EC02FF81FC032F820C033F83A8E22B436
:1003100091EF01F02FC0FBFF2EC0FAFF2D50E06AD5
:10032000F96E2CC0FBFF2BC0FAFF2A50E06AF96E71
:1003300004003AAEF7EF01F0F8C701F0F9C702F098
:10034000FCC703F0FDC704F000C805F001C806F0C3
:1003500004C807F005C808F008C809F009C80AF081
:100360000AC80BF00BC80CF00CC80DF00DC80EF04D
:100370000EC80FF00FC810F010C811F011C812F01D
:1003800012C800F013C821F014C823F015C824F0D7
:1003900016C825F017C826F036C8F8FF39C8F7FF89
:1003A00038C8F6FF18C827F019C828F03AC8F3FF74
:1003B0003BC8F4FF1AC813F01BC814F01EC815F090
:1003C0001FC816F022C817F023C818F026C819F065
:1003D00027C81AF02AC81BF02BC81CF02EC81DF025
:1003E0002FC81EF032C81FF033C820F03A9E22B446
:1003F00001EF02F02FC0FBFF2EC0FAFF2D50E06A84
:10040000F96E2CC0FBFF2BC0FAFF2A50E06AF96E90
:100410003888D390D3929B8C8396959682869496B7
:1004200098689768BF0E966E9568FE0E946E9368F6
:100430009268480E7E6E480E7C6E7F6A560EB06ED5
:100440007D6A560EAB6E900EAC6E900E9C6E260EB4
:10045000AD6E260EA86E9C98AC980101D86B3798AB
:10046000E96B3596379AEA6B120ED46F399C359248
:100470003196030EE46FE36BC569368CEC6BED6B64
:10048000EE6BF26AC16B34943492856B866B876B2A
:10049000886BC26B379C3298A869C46902010B6BE8
:1004A0000101EF6BF16B379E180EA76F369A3A96E3
:1004B0003A923A90AB6B31903796F36B3090309222
:1004C000309430963098309A309C309E36983696DC
:1004D000E86B3894328A02013E6B3F6B406B416B94
:1004E000426B436B446B456B7C0E6E6E800E6D6E83
:1004F000280E6C6E0101C0693398896B8A6B369245
:100500003690389C388E0201116B0D6B0101E16948
:10051000E269DE69DC693A980E0EFC6F3292060ED3
:100520009C6F3290EB6B000159EF03F0FBCF6FF043
:10053000FACF6DF0E9CF60F0EACF61F0E1CF64F07F
:10054000E2CF65F0D9CF68F0DACF69F0228422904B
:10055000E06A9DAAC0EF02F09EAAC0EF02F02280DE
:100560000400700E2A6E050E2B6E000E2C6E70D6D7
:10057000800E2A6E050E2B6E000E2C6E40EF06F0DC
:10058000E06AA3AAD8EF02F0A4AAD8EF02F0228072
:100590000400A00E2A6E050E2B6E000E2C6E58D68F
:1005A000B00E2A6E050E2B6E000E2C6EE6EF06F0D6
:1005B000E06AF2AAF1EF02F0F2A4F1EF02F0228079
:1005C0000400D00E2A6E050E2B6E000E2C6E40D647
:1005D000E00E2A6E050E2B6E000E2C6EE0EF07F07B
:1005E000F294E06A9DA20AEF03F09EA20AEF03F0E4
:1005F00022800400020E2A6E060E2B6E000E2C6E58
:1006000027D6120E2A6E060E2B6E000E2C6EFAEFF7
:1006100007F09E92E06AA0A223EF03F0A1A223EFCD
:1006200003F022800400340E2A6E060E2B6E000E9C
:100630002C6E0ED6440E2A6E060E2B6E000E2C6EFD
:1006400032EF08F0A192E06AA3AE3CEF03F0A4AE53
:100650003CEF03F022800400680E2A6E060E2B6E1B
:10066000000E2C6E28EF01F0780E2A6E060E2B6E0F
:10067000000E2C6EC0EF07F0E06A22B0A7EF02F088
:100680008E0E2A6E060E2B6E000E2C6E51D6229404
:1006900060C0E9FF61C0EAFF64C0E1FF65C0E2FF3E
:1006A00068C0D9FF69C0DAFF6DC0FAFF6FC0FBFFF9
:1006B0001100F28EF28C040ED56E030ECA6E280E57
:1006C000796E9F8A9D8AA58AA38AF184F28A9F8285
:1006D0009D82A282A082A58EA38EAC889C88A082D7
:1006E000A19279909D82CA84500E79EC00F0359CDD
:1006F000358E0101C6693B90C069BE6902011F6B5E
:10070000236B266B01018F6B800E906F0201166BBD
:1007100001014C0ED66F0001B6EC10F00101BD6B6B
:1007200000010400F00E0101BD5D0001D8B010EF22
:1007300004F00101D890BD35E96EEA6AEA36580E38
:10074000E9260D0EEA22EF6AEC6A1C0EE96E010E34
:10075000EA6EBD51000F00010EEC00F0D8901CECC9
:1007600000F00101BD51780FE96E0B0EEA6AEA2232
:10077000EF6ABD51880FE96E0A0EEA6AEA223F0E5F
:10078000EF6EA40EE96EEA6ABD51000F00010EEC97
:1007900000F0D8901CEC00F00101BD51A00FE96EF3
:1007A000080EEA6AEA22EF68BD513C0FE96E080EB6
:1007B000EA6AEA22EF683A0EE96E010EEA6EBD516E
:1007C000000F00010EEC00F0D8901CEC00F0C20EFF
:1007D000E96EEA6A0101BD51000F00010EEC00F064
:1007E000D8801CEC00F0FE0EE96EEA6A0101BD51F2
:1007F000000F00010EEC00F0D8801CEC00F0E00EC1
:10080000E96EEA6A0101BD51000F00010EEC00F033
:10081000D8901CEC00F00101BD2B0001D8A081D7BD
:10082000010158910201166B0101BD6B000104002A
:10083000320E0101BD5D0001D8B040EF04F00101AE
:10084000BD51FB0FE96E040EEA6AEA22EF68BD5162
:10085000910FE96E050EEA6AEA22EF68BD512D0F8D
:10086000E96E050EEA6AEA22EF68BD515F0FE96E94
:10087000050EEA6AEA22EF68BD2B0001D8A0D7D79F
:100880000101F96BBD6B00010400410E0101BD5D6A
:100890000001D8B074EF04F00101BD51350FE96ECD
:1008A000070EEA6AEA22EF68BD51760FE96E070E7D
:1008B000EA6AEA22EF68BD51F40FE96E060EEA6AB1
:1008C000EA22EF68BD51B70FE96E070EEA6AEA2225
:1008D000EF68BD51B30FE96E060EEA6AEA22EF68CF
:1008E000BD2B0001D8A0D0D70101BD6B00010400D1
:1008F0001E0E0101BD5D0001D8B0AFEF04F0010193
:10090000BD51F30FE96E020EEA6AEA22EF6A7D69D1
:100910007E69D890BD35E96EEA6AEA36040EE926AA
:10092000090EEA22EF6AEC6A1E0EBD25136E146AE8
:100930001436D8901334E96E1434EA6E040EE926A6
:10094000090EEA22EF6AEC6ABD51B70FE96E020E9A
:10095000EA6AEA22EF68BD2B0001D8A0C8D70101DE
:10096000BD6B00010400200E0101BD5D0001D8B087
:10097000DBEF04F00101BD51EB0FE96E030EEA6AF3
:10098000EA22EF68BD512B0FE96E040EEA6AEA22F3
:10099000EF68BD518B0FE96E030EEA6AEA22EF6839
:1009A000BD516B0FE96E030EEA6AEA22EF6ABD2BB6
:1009B0000001D8A0D7D70101BD6B00010101A70537
:1009C000136E146A000E145ABDC101F0026A14C0FD
:1009D00004F013500001AAEC00F0D8A408EF05F0D1
:1009E0000101BD516B0FE96E040EEA6AEA22EF685D
:1009F0003C0EE96EEA6ABD51000F00010EEC00F0FA
:100A0000D8901CEC00F00101BD2B0001D8A0D6D776
:100A10000101BD6B00010400180E0101BD5D000164
:100A2000D8B023EF05F00101D890BD35E96EEA6A30
:100A3000EA36CB0EE926040EEA22EF6AEC6ABD2BF9
:100A40000001D8A0E8D70201066B0101D2693694F3
:100A5000070E046ED00E00017AEC00F0BBECD5F06E
:100A60004DECD8F027ECD8F0EDECD7F061ECDDF0F0
:100A700001014C0ED66F4C0E966F4C0E976F996B12
:100A8000000197ECD5F00A0E79EC00F097ECD5F068
:100A90000101010EBD6F000104000101BD51A55D02
:100AA0000001D8A066EF05F00101BD05136E146AC0
:100AB000000E145A13504D0FE96E030E1420EA6E07
:100AC000E4C1EFFFBD2B0001D8A0E6D73B800400B6
:100AD000010E0101A65D0001D8A094EF05F001010F
:100AE000010EBD6F000104000101BD51A65D0001B2
:100AF000D8A091EF05F00101BD05136E146A000E38
:100B0000145A480EE96EEA6A1350000F00010EEC09
:100B100000F0D8801CEC00F00101BD2B0001D8A032
:100B2000E2D73B8295EF05F03B92140E79EC00F092
:100B300014EC18F0359E0FECD5F0320E79EC00F085
:100B400084ECA8F0358EA38E0101010EBD6F00016B
:100B500004000101BD51A55D0001D8A0F0EF05F032
:100B60000201096B00010400080E0201095D000189
:100B7000D8B0EBEF05F00101BD05136E146A000E4D
:100B8000145A13C007F014C008F0080E036E046A6C
:100B90000001EEEC00F0136E06C014F013500201D9
:100BA0000925236F23C291F10101926B0001E7EC4B
:100BB000AFF00201D8902335E96EEA6AEA36580EA2
:100BC000E9260D0EEA2291C1EFFF92C1ECFF092B3D
:100BD0000001D8A0C8D70101BD2B0001D8A0B8D70B
:100BE00024EC5FF04FECE0F0A9EC0AF06BEC41F084
:100BF000BEEC50F038980400030E0101EB5D0001DB
:100C0000D8A006EF06F00101EB6B00015AEC08F0EA
:100C100075EC08F05BEC67F0E2EC10F016EC30F0ED
:100C20000101D6514C08D8A4E868FF0A136EE86A9F
:100C300032A0E868156E13C001F015500001CAEC2F
:100C400000F0156E166E040015501610D8B43FEF64
:100C500006F08286949673EC9CF070ECDEF08DECDE
:100C60000BF0CDEC08F0E8EC15F014EC18F07CEC8F
:100C70001FF087EC14F022EC32F0B1ECE5F0BBD7BA
:100C8000FFC1FEF1AFCFFFF1040037A895EF06F0EA
:100C90000101E9516C0FE96E020EEA6AEA22FFC116
:100CA000EFFF0400140EE95D0001D8B05DEF06F01F
:100CB0000101E92B000160EF06F037983586AC980A
:100CC0000101FE510D08D8A4E868FF0A136EFF5118
:100CD0000A08D8A4E868FF0A156E13C001F0155081
:100CE0000001CAEC00F0156E166E040015501610C7
:100CF000D8B47FEF06F037983586AC98D59E0400BF
:100D0000020103514F080001D8A493EF06F004003C
:100D10000101E951FC5D0001D8B093EF06F037986E
:100D20003586AC98D59ED5EF06F00101FE515208EC
:100D3000D8A4E868FF0A136EFF514308D8A4E868F6
:100D4000FF0A156E13C001F015500001CAEC00F047
:100D5000156E166E040015501610D8B4B5EF06F0D7
:100D60000101E96B3788359600010101FE51470802
:100D7000D8A4E868FF0A136EFF514D08D8A4E868AC
:100D8000FF0A156E13C001F015500001CAEC00F007
:100D9000156E166E040015501610D8B4D5EF06F077
:100DA0000101E96B37883596000122B4DFEF06F0C8
:100DB0002FC0FBFF2EC0FAFF2D50E06AF96E2CC049
:100DC000FBFF2BC0FAFF2A50E06AF96E01C200F265
:100DD00002C201F2AACF02F2040035BC5BEF07F0B9
:100DE0000101EA51040FE96E0A0EEA6AEA2202C220
:100DF000EFFF020102510D08D8A4E868FF0A136E44
:100E0000EAC101F0820E0001A8EC00F0156E13C0DB
:100E100001F01550D1EC00F0156E166E040015505F
:100E20001610D8B418EF07F0379A9C9853EF07F0D4
:100E3000020102510808D8A4E868FF0A136E0251A3
:100E40001B08D8A4E868FF0A156E13C001F01550FE
:100E50000001D1EC00F0156E166E020102517F0800
:100E6000D8A4E868FF0A176E15501610016E1750C7
:100E70000001D1EC00F0176E186E04001750181026
:100E8000D8B450EF07F00400010E0101EA5D000143
:100E9000D8A04EEF07F00101EA07000153EF07F079
:100EA0000101EA2B0001040033A659EF07F002C24A
:100EB000A9FFAFEF07F0040037AA83EF07F0020E97
:100EC0000101D45D136E146A000E145AEAC101F0D8
:100ED000026A14C004F013500001AFEC00F0D8A473
:100EE00076EF07F0379A9C9881EF07F00101EA51FD
:100EF000040FE96E0A0EEA6AEA2202C2EFFFEA2B49
:100F00000001AFEF07F0020100515308D8A4E868D0
:100F1000FF0A136E01515408D8A4E868FF0A156E41
:100F200013C001F015500001CAEC00F0156E166EEA
:100F3000020102515208D8A4E868FF0A176E155042
:100F40001610016E17500001CAEC00F0176E186EF3
:100F5000040017501810D8B4AFEF07F0378A22B446
:100F6000B9EF07F02FC0FBFF2EC0FAFF2D50E06A4B
:100F7000F96E2CC0FBFF2BC0FAFF2A50E06AF96E15
:100F8000A39E0400010E0101C15D0001D8A0CCEFB9
:100F900007F00101C12B00013484A49EA38E22B46A
:100FA000D9EF07F02FC0FBFF2EC0FAFF2D50E06AEB
:100FB000F96E2CC0FBFF2BC0FAFF2A50E06AF96ED5
:100FC000D59ED66AD76A040035B6E9EF07F0398CAA
:100FD000AC9822B4F3EF07F02FC0FBFF2EC0FAFF4E
:100FE0002D50E06AF96E2CC0FBFF2BC0FAFF2A508F
:100FF000E06AF96ECA94CC6A0400010E0101EF5D4B
:101000000001D8A007EF08F00101EF07000104007C
:10101000010E0101F15D0001D8A012EF08F00101FD
:10102000F107000104000201055100080001D8A4E5
:101030001CEF08F0388032860201052B9E92CA848C
:10104000000122B42BEF08F02FC0FBFF2EC0FAFFE7
:101050002D50E06AF96E2CC0FBFF2BC0FAFF2A501E
:10106000E06AF96EA19279906B840101C16B338AB9
:1010700087C101F088C102F00468FF0E0001A5ECF1
:1010800000F0D8A449EF08F00101872B000E882357
:10109000000122B453EF08F02FC0FBFF2EC0FAFF6F
:1010A0002D50E06AF96E2CC0FBFF2BC0FAFF2A50CE
:1010B000E06AF96E0400ACA460EF08F0AFCF20F254
:1010C00004009CA466EF08F0AACF20F20400ACA2B2
:1010D0006DEF08F0AC98AC92AC8804009CA274EF61
:1010E00008F09C989C929C881200E86A37BCE868DB
:1010F000136E0101C1510008D8A4E868FF0A156EFB
:1011000013C001F015500001CAEC00F0156E166E08
:10111000040015501610D8B4CCEF08F0379CA39EED
:101120006C9A959A959C838A959A838C959C0A0EC5
:1011300086EC00F00101BD6B00010400090E010105
:10114000BD5D0001D8B0BEEF08F00A0E86EC00F0DD
:10115000839A959A0A0E86EC00F0839C959C0A0E61
:1011600086EC00F0838A959A0A0E86EC00F0838C58
:10117000959C0101BD2B0001D8A0DFD7958A958CE5
:101180007C0E6E6E800E6D6E280E6C6EA49EA38E0D
:101190000101C16B349400011200040037A62BEF4B
:1011A0000AF00400080E0101F35D0001D8B027EF3A
:1011B0000AF03B0E39A6E86A136E000E39A6E86AFB
:1011C000146E900E13240101806FF3C17FF10001B2
:1011D000A7ECEFF0C0C15CF00400F00E5C5CD8B08E
:1011E00022EF0AF037940101CA6B00010400200EBF
:1011F0000101CA5D0001D8B05FEF09F03B0E39A6CE
:10120000E86A136E000E39A6E86A146E8F0E132476
:101210000101806FF3C107F0086A200E036E046AB3
:101220000001EEEC00F0136E06C014F01350010143
:10123000CA257F6F0001A7ECEFF00400F00E01015A
:10124000C05D0001D8B056EF09F0C0C101F0026ADC
:10125000080E036E046AD6EC00F005C01FF2C0C190
:1012600001F0026A080E036E046AD6EC00F0020177
:10127000236F2351110FE96E030EEA6AEA22EFCFC2
:1012800013F013C001F0026A1F5100019CEC00F042
:101290000201266FE86A37B4010F26B10109D8B4FC
:1012A0003794D8A4378400015AEF09F001011F0ECA
:1012B000CA6F00010101CA2B0001D8A097D75CC0FA
:1012C00001F0026A080E036E046AD6EC00F005C055
:1012D0001FF25CC001F0026A080E036E046AD6ECCD
:1012E00000F00201236F010E266F26C201F01F518C
:1012F000000194EC00F00201266F0400000137A405
:10130000EEEF09F0300EE96EEA6A0101F351000FC9
:1013100000010EEC00F0000ED8A4010E136E146A4A
:10132000016A026A14C004F01350B8EC00F0D8A4AB
:10133000EAEF09F0300EE96EEA6A0101F351000F9D
:1013400000010EEC00F0D8801CEC00F0F2C101F0BE
:10135000000EA8EC00F0136EF2C101F0F90EB2EC31
:1013600000F0156E13C001F01550CAEC00F0156EB8
:10137000166E040015501610D8B4CDEF09F0020116
:10138000A10E3A6F5CC03BF2F2C139F2F00E3C6F35
:1013900000013CECE9F0E1EF09F0A5ECE5F001011A
:1013A000F951A00FE96E080EEA6AEA22A10EEF6E6B
:1013B000F9513C0FE96E080EEA6AEA225CC0EFFFC1
:1013C00000010101DA6B5CC0DBF1000137EC30F0A9
:1013D000ECEF09F02CEC0AF022EF0AF00101F351D6
:1013E0003E0FE96E020EEA6AEA22EF6A300EE96EFB
:1013F000EA6AF351000F00010EEC00F0D8901CECEB
:1014000000F0A5ECE5F00101F951A00FE96E080E1E
:10141000EA6AEA22A00EEF6EF9513C0FE96E080E5F
:10142000EA6AEA225CC0EFFF010EDA6F5CC0DBF112
:101430000201A10E3A6F5CC03BF2000145EC4BF09B
:1014400037EC30F00101F32B00012BEF0AF0010122
:10145000F36B37960001120002012351110FE96E60
:10146000030EEA6AEA22EFCF13F013C001F0026A1A
:101470001F5100019CEC00F00201196F0400D89686
:1014800019B1D8860001D8B69CEF0AF00101F351DA
:101490003E0FE96E020EEA6AEA22EFCF13F013283C
:1014A000136E146A1436F3513E0FE96E020EEA6AA7
:1014B000EA2213C0EFFF0400F25100080001D8A493
:1014C00078EF0AF0A5ECE5F00101F951A00FE96E03
:1014D000080EEA6AEA22A10EEF6EF9513C0FE96E9E
:1014E000080EEA6AEA225CC0EFFF00019CEF0AF0F6
:1014F0000101F3513E0FE96E020EEA6AEA22EFCFD4
:1015000013F00400060E135C0001D8A09CEF0AF053
:10151000A5ECE5F00101F951A00FE96E080EEA6AA9
:10152000EA22A10EEF6EF9513C0FE96E080EEA6A4D
:10153000EA225CC0EFFF0001120013C2C0F10101FA
:101540000E0E7F6F806B00018BECEFF0A9EC0AF0C0
:1015500012000400D896020113ADD8860001D8B657
:1015600012EF0BF05C6A0101A705136E146A000EFE
:10157000145A5CC001F0026A14C004F01350000158
:10158000AAEC00F0D8A410EF0BF00101C70E806F99
:10159000200E5C247F6F0001A7ECEFF00400D896CA
:1015A0000101C0A7D8860001D8B6E7EF0AF0400EC7
:1015B000E96EEA6A5C50000F0EEC00F0D8801CEC7B
:1015C00000F05CC0F4F186ECE0F00DEF0BF0400EA3
:1015D000E96EEA6A5C50000F0EEC00F0D8901CEC4B
:1015E00000F0040E0101C0A5E86A136E000EC0A54C
:1015F000E86A146E020EC0A3E86A156E000EC0A35E
:10160000E86A166E13501526145016221550C0B1F4
:10161000010F5F6E000180EC47F05C2AD8A0A3D7D1
:1016200036EF0BF05C6A0101A705136E146A000E19
:10163000145A5CC001F0026A14C004F01350000197
:10164000AAEC00F0D8A436EF0BF0400EE96EEA6A7F
:101650005C50000F0EEC00F00201D89013B7D88058
:1016600000011CEC00F05C2AD8A0DDD71200E7C115
:1016700007F0086A040E036E046AEEEC00F0010144
:101680007F6F3B0E39A6E86A136E000E39A6E86A32
:10169000146E8D0E1324806F0001A7ECEFF0C0C113
:1016A000CFF1E7C107F0086A040E036E046AEEEC9E
:1016B00000F0136E06C014F0132801017F6F0001C3
:1016C000A7ECEFF0C0C1CEF1E7C107F0086A040E45
:1016D000036E046AEEEC00F0136E06C014F0020E06
:1016E000132401017F6F0001A7ECEFF0C0C1CDF121
:1016F000E7C107F0086A040E036E046AEEEC00F01E
:10170000136E06C014F0030E132401017F6F000155
:10171000A7ECEFF0C0C1C9F11200040036A890EFA9
:101720000EF004000101A751E85D0001D8B08BEF75
:101730000EF0040039A855EF0EF00101E8516B0FCF
:10174000E96E040EEA6AEA22EFCF13F013C001F04B
:10175000F10E0001B2EC00F0136E0101E851AB0F85
:10176000E96E040EEA6AEA22EFCF15F015C001F027
:10177000200E0001B2EC00F0156E13C001F0155000
:10178000CAEC00F0156E166E040015501610D8B491
:101790004FEF0EF08296949601017B6B7C6BE8C153
:1017A000E7F1000164DF040036AA23EF0CF018EC27
:1017B000B7F001019A5100012CEC00F03A0E2CEC2C
:1017C00000F0200E2CEC00F00A6AAAC105F0066AAF
:1017D000560E116E126A41EC00F0200E2CEC00F057
:1017E000020E0A6EBCC105F0066A560E116E126A30
:1017F00041EC00F03A0E2CEC00F0020E0A6ED5C15E
:1018000005F0066A560E116E126A41EC00F0200EC9
:101810002CEC00F0500E2CEC00F0490E2CEC00F0FB
:10182000440E2CEC00F03A0E2CEC00F0020E0A6E86
:10183000E8C105F0066A560E116E126A41EC00F01E
:10184000200E2CEC00F00101E851AB0FE96E040E04
:10185000EA6AEA22EFCF1FF202011F512B0FE96E55
:10186000040EEA6AEA22EFCF5DF05DC001F0280EB7
:101870000001A8EC00F0136E5DC001F0AF0EB2ECF9
:1018800000F0156E13C001F01550CAEC00F0156E93
:10189000166E040015501610D8B42DEF0EF004008B
:1018A00039B665EF0CF00101E8510B0FE96E040E3B
:1018B000EA6AEA22EFCF13F05D50135C836F846B0A
:1018C000D8A08407000175EF0CF00101E8510B0F5F
:1018D000E96E040EEA6AEA22EFCF13F013505D5C62
:1018E000836F846BD8A084070001010184BF378215
:1018F00084AF379283C113F084C114F014AE03D0C7
:10190000136CE86A145613C007F014C008F0CFC176
:1019100003F0046A0001EEEC00F00101936F06C0D1
:1019200094F10400000137A2A0EF0CF001019351E3
:101930007B5F94517C5B000199EC10F0A8EF0CF0F8
:10194000010193517B2794517C23000183EC10F01B
:1019500083C113F084C114F014AE03D0136CE86A91
:10196000145613C001F014C002F00101C951000166
:10197000A4EC00F0D8A4D7EF0CF00101E851AB0FB4
:10198000E96E030EEA6AEA22EFCF13F013508325C3
:10199000136EE86A8421146EE851AB0FE96E030EF2
:1019A000EA6AEA2213C0EFFF0001E0EF0CF0010148
:1019B000E851AB0FE96E030EEA6AEA22EF6A000112
:1019C0000101E851AB0FE96E030EEA6AEA22EFCF9C
:1019D00021F2020121BF358821AF359821C201F0E3
:1019E0003F0E0001A8EC00F0136E21C201F0EB0ED7
:1019F000B2EC00F0156E13C001F01550CAEC00F007
:101A0000156E166E040015501610D8B42CEF0DF09C
:101A1000040035A818EF0DF00101E851AB0FE96E95
:101A2000030EEA6AEA22EB0EEF6E000122EF0DF0E0
:101A30000101E851AB0FE96E030EEA6AEA223F0E9C
:101A4000EF6E00010101E851AB0FE96E030EEA6A87
:101A5000EA22EFCF21F200010101E851AB0FE96E5C
:101A6000030EEA6AEA22EFCF13F01350E8BEE86CE7
:101A7000136E146A13C007F014C008F0CEC103F04F
:101A8000046A0001EEEC00F00101936F06C094F1CE
:101A90000400000135A857EF0DF0010193517B5F61
:101AA00094517C5B000199EC10F05FEF0DF00101A7
:101AB00093517B2794517C23000183EC10F00400A8
:101AC00039B672EF0DF00101E851CB0FE96E030E4C
:101AD000EA6AEA22EFCF13F05D50135CB16F0001A8
:101AE0007FEF0DF00101E851CB0FE96E030EEA6ABA
:101AF000EA22EFCF13F013505D5CB16F00010101DA
:101B0000B1BF3382B1AF3392B151E8BEE86C136E0E
:101B1000146A13C007F014C008F0CDC103F0046AC2
:101B20000001EEEC00F00101936F06C094F1040097
:101B3000000133A2A6EF0DF0010193517B5F945198
:101B40007C5B000199EC10F0AEEF0DF001019351B8
:101B50007B2794517C23000183EC10F00101E851B4
:101B6000CB0FE96E030EEA6AEA225DC0EFFF0400C4
:101B7000D8967CAFD8860001D8B6C3EF0DF001012E
:101B80007B6B7C6B0001D89001017C337B330400BC
:101B9000000136AAD6EF0DF00A6A7BC105F07CC1C0
:101BA00006F0560E116E126A41EC00F07BC101F096
:101BB0007CC102F0046A7E0EAFEC00F0D8A4E6EF20
:101BC0000DF001017E0E7B6F7C6B00017BC101F08B
:101BD0007CC102F0046A3F0EAFEC00F0D8A410EF15
:101BE0000EF001013F0EB26FE8516B0FE96E040E6B
:101BF000EA6AEA22EFCF5CF0000191EC0EF03F0EB2
:101C000001017B5DB26FE8518B0FE96E040EEA6A49
:101C1000EA22EFCF5CF0000191EC0EF02BEF0EF01A
:101C20007BC1B2F10101E8516B0FE96E040EEA6A63
:101C3000EA22EFCF5CF0000191EC0EF00101B26BF3
:101C4000E8518B0FE96E040EEA6AEA22EFCF5CF0EE
:101C5000000191EC0EF047EF0EF00101B26BE8517C
:101C60006B0FE96E040EEA6AEA22EFCF5CF0000126
:101C700091EC0EF00101B26BE8518B0FE96E040E8E
:101C8000EA6AEA22EFCF5CF0000191EC0EF004006A
:101C900036AA4DEF0EF0BEECA5F053EF0EF0E8C102
:101CA000F4F102ECE0F085EF0EF00101E851AB0F2A
:101CB000E96E040EEA6AEA22EFCF13F00400200E68
:101CC000135C0001D8B081EF0EF00101E8516B0FF9
:101CD000E96E040EEA6AEA22EFCF5CF0B26B000113
:101CE00091EC0EF00101E8518B0FE96E040EEA6AE7
:101CF000EA22EFCF5CF0B26B000191EC0EF085EFC1
:101D00000EF0E8C1F4F102ECE0F00101E82B3698A6
:101D1000000190EF0EF0369636980101E86B000155
:101D200012000400F00E5C5CD8B035EF0FF0D890D4
:101D30005C34E96EEA6AEA36580EE9260D0EEA22AC
:101D4000EF6AEC6A5C50880FE96E0A0EEA6AEA22D2
:101D5000B2C1EFFF5CC001F0026A080E036E046AB4
:101D6000D6EC00F005C01FF25CC001F0026A080E5C
:101D7000036E046AD6EC00F00201236F010E266F99
:101D800026C201F01F51000194EC00F00201266F01
:101D9000E00EE96EEA6A5C50000F00010EEC00F004
:101DA000D8801CEC00F00400010E0101B25D0001BE
:101DB000D8A002EF0FF002012351110FE96E030EBC
:101DC000EA6AEA22EFCF13F013502611136E146A59
:101DD0002351110FE96E030EEA6AEA2213C0EFFFE6
:101DE0000101020EDA6F5CC0DBF1000137EC30F06C
:101DF000F4C117F25CC0F4F155ECB1F017C2F4F184
:101E000028EF0FF00201261F2351110FE96E030E78
:101E1000EA6AEA22EFCF13F013502615136E146A04
:101E20002351110FE96E030EEA6AEA2213C0EFFF95
:101E30000101030EDA6F5CC0DBF1000137EC30F01A
:101E4000F4C117F25CC0F4F155ECB1F017C2F4F133
:101E50003B80020123514D0FE96E030EEA6AEA222C
:101E6000E4C1EFFF00013DEF0FF004005C50F0080B
:101E7000D8A43DEF0FF03EEC0FF012003C0EE96EDF
:101E8000EA6A0101E851000F00010EEC00F0000EBB
:101E9000D8A4010E136E146A010E016E026A14C0FA
:101EA00004F01350B8EC00F0D8A473EF0FF0020167
:101EB000010E196F00014BEC10F00201D60E1A6FE3
:101EC0000001EDEC0FF00201D70E1A6F0001EDECEE
:101ED0000FF00201D80E1A6F0001EDEC0FF079EC53
:101EE0000FF078EF0FF00201196B00014BEC10F0CE
:101EF0001200C80E0101E8257F6F040E39A6E86ABA
:101F0000136E000E39A6E86A146ED50E1324806F86
:101F10000001A7ECEFF00400F00E0101C05D00012C
:101F2000D8B0ECEF0FF0C0C146F20201476B0101DF
:101F3000E8510B0FE96E040EEA6AEA22EFCF13F0C4
:101F40000400600E135C0001D8B0ADEF0FF0020189
:101F5000600E1F6F0001CDEF0FF00101E8510B0F74
:101F6000E96E040EEA6AEA22EFCF13F00400710E64
:101F7000135C0001D8A0C3EF0FF00201700E1F6FB9
:101F80000001CDEF0FF00101E8510B0FE96E040ED7
:101F9000EA6AEA22EFCF1FF20001600E02011F5F22
:101FA000180E1F2501017F6F040E39A6E86A136E13
:101FB000000E39A6E86A146ED50E1324806F000156
:101FC000A7ECEFF00101020EAC6FC0C148F20201B4
:101FD000496B0001E2ECB1F01200E8C17FF1040EA0
:101FE00039A6E86A136E000E39A6E86A146E13501B
:101FF00002011A250101806F0001A7ECEFF0040037
:10200000F00E0101C05D0001D8B04AEF10F0C0C170
:1020100046F20201476B400E0101E8257F6F040E76
:1020200039A6E86A136E000E39A6E86A146E1350DA
:1020300002011A250101806F0001A7ECEFF0C0C179
:1020400001F0000EA8EC00F0136EC0C101F03F0ECD
:10205000B2EC00F0156E13C001F01550CAEC00F0A0
:10206000156E166E040015501610D8B444EF10F01B
:102070000101020EAC6FC0C148F20201496B0001C0
:10208000E2ECB1F04AEF10F00101010EAC6F00017B
:10209000EEECB3F01200640E0101E8257F6F040E30
:1020A00039A6E86A136E000E39A6E86A146ED70ED8
:1020B0001324806F0001A7ECEFF00400F00E010183
:1020C000C05D0001D8B082EF10F0C0C146F202013D
:1020D000476B0400195101080001D8A47CEF10F0EF
:1020E0000101020EAC6F02013F0E486F496B000107
:1020F000E2ECB1F082EF10F00101010EAC6F0001D3
:10210000EEECB3F01200040036AA98EF10F02B0E9C
:102110002CEC00F0030E0A6E93C105F094C106F09A
:10212000560E116E126A41EC00F0200E2CEC00F0FD
:102130001200040036AAAEEF10F02D0E2CEC00F0C9
:10214000030E0A6E93C105F094C106F0560E116E8F
:10215000126A41EC00F0200E2CEC00F0120001019C
:10216000020E806F00018BECEFF012000101C36BD7
:10217000000104003E0E0101C35D0001D8B0DDEF97
:1021800010F0520EE96EEA6A0101C351000F00011E
:102190000EEC00F0D8901CEC00F00101D890C33593
:1021A000E96EEA6AEA36040EE926090EEA22EF6AC7
:1021B000EC6AC32B0001D8A0DCD701013C0EB46F40
:1021C00000011200040035A6D4EF13F0379E3596B7
:1021D00004000201035149080001D8A424EF11F0C2
:1021E000ECC1BDF1040002016C5149080001D8A402
:1021F000FEEF10F0BCEC21F020EF11F00400020122
:102200006C5154080001D8A40AEF11F005ECEEF06F
:1022100020EF11F0040002016C5143080001D8A422
:1022200016EF11F066EC21F020EF11F0040002012E
:102230006C514C080001D8A420EF11F07EEC20F086
:102240001DC2EFF1D1EF13F00400020103514F085A
:102250000001D8A458EF12F002016C514408D8A430
:10226000E868FF0A136E6C515208D8A4E868FF0AA8
:10227000156E13C001F015500001D1EC00F0156E81
:10228000166E02016C514F08D8A4E868FF0A176E59
:1022900015501610016E17500001D1EC00F0176EAA
:1022A000186E040017501810D8B456EF12F0EDC194
:1022B000BDF1020170514B08D8A4E868FF0A136E03
:1022C0001D0E0101BD25156E166A16361550C30F79
:1022D000E96E050E1620EA6EEFCF15F002016C5183
:1022E000155CD8A4E868FF0A156E13C001F01550FC
:1022F0000001CAEC00F0156E166E1D0E0101BD2521
:10230000176E186A18361750FF0FE96E050E182061
:10231000EA6EEFCF17F002016D51175CD8A4E868A0
:10232000FF0A176E15501610016E17500001CAEC07
:1023300000F0176E186E1D0E0101BD25196E1A6A88
:102340001A3619503B0FE96E060E1A20EA6EEFCFCF
:1023500019F002016E51195CD8A4E868FF0A196EE1
:1023600017501810016E19500001CAEC00F0196ED8
:102370001A6E1D0E0101BD251B6E1C6A1C361B50FA
:10238000770FE96E060E1C20EA6EEFCF1BF00201FC
:102390006F511B5CD8A4E868FF0A1B6E19501A1015
:1023A000016E1B500001CAEC00F01B6E1C6E040095
:1023B0001B501C10D8B415EF12F0080E0101BD25FA
:1023C000BE6F040002016C5152080001D8A4F8EF5E
:1023D00011F00101BD05136E146A000E145A13505A
:1023E000110FE96E030E1420EA6E71C2EFFF0001B7
:1023F0000101BD05136E146A000E145A1350110F1B
:10240000E96E030E1420EA6EEFCFC0F10001AFECCD
:10241000EFF01EC2F1F1EDC1C3F1D5EC13F0EDC147
:10242000BDF10CECEBF056EF12F0EDC1BDF11D0E5D
:102430000101BD25136E146A14361350C30FE96EE3
:10244000050E1420EA6EEFCF29F21D0EBD25136E86
:10245000146A14361350FF0FE96E050E1420EA6E4D
:10246000EFCF2AF21D0EBD25136E146A14361350D9
:102470003B0FE96E060E1420EA6EEFCF2BF21D0E15
:10248000BD25136E146A14361350770FE96E060ECD
:102490001420EA6EEFCF2CF21D0EBD25B46F090E8D
:1024A000B36F0001D9EC27F0CEEC60F0D1EF13F060
:1024B00004000201035152080001D8A435EF13F0C3
:1024C000040002016C5152080001D8A433EF13F04C
:1024D000EEC1BDF157EC1FF0020170514B08D8A4BA
:1024E000E868FF0A136E6C51315DD8A4E868FF0AF2
:1024F000156E13C001F015500001CAEC00F0156E06
:10250000166E02016D51325DD8A4E868FF0A176E9D
:1025100015501610016E17500001CAEC00F0176E2E
:10252000186E02016E51335DD8A4E868FF0A196E77
:1025300017501810016E19500001CAEC00F0196E06
:102540001A6E02016F51345DD8A4E868FF0A1B6E51
:1025500019501A10016E1B500001CAEC00F01B6EDE
:102560001C6E04001B501C10D8B4F7EF12F00101D0
:10257000BD05136E146A000E145A13502F0FE96E26
:10258000030E1420EA6E71C2EFFF1EC2F1F1EEC11C
:10259000C3F1E86A35BCE868136EE86A31BEE868E2
:1025A000156E13C001F015500001CAEC00F0156E55
:1025B000166E040015501610D8B4E4EF12F00101A5
:1025C000A06B000197EC60F00101EE05136E146A38
:1025D000000E145A480EE96EEA6A1350000F00010B
:1025E0000EEC00F0D8901CEC00F033EF13F0EEC1CD
:1025F000BDF11D0E0101BD25136E146A1436135072
:10260000C30FE96E050E1420EA6EEFCF29F21D0EFE
:10261000BD25136E146A14361350FF0FE96E050EB4
:102620001420EA6EEFCF2AF21D0EBD25136E146A38
:10263000143613503B0FE96E060E1420EA6EEFCFEE
:102640002BF21D0EBD25136E146A14361350770F2E
:10265000E96E060E1420EA6EEFCF2CF21C0EB36F5B
:102660000001CEEC60F0D1EF13F004000201035141
:1026700046080001D8A461EF13F070C258F271C28D
:1026800059F2A0C15AF26CC25BF26DC25CF26EC22A
:102690005DF26FC25EF272C25FF273C260F274C228
:1026A00061F275C262F276C263F277C264F278C2F6
:1026B00065F279C266F27AC267F260EC78F0D1EF27
:1026C00013F004000201035174080001D8A4BFEF05
:1026D00013F002016C515408D8A4E868FF0A136E85
:1026E0006D513008D8A4E868FF0A156E13C001F0D8
:1026F00015500001CAEC00F0156E166E02016E5105
:102700003008D8A4E868FF0A176E15501610016E3D
:1027100017500001CAEC00F0176E186E02016F51DD
:102720003008D8A4E868FF0A196E17501810016E17
:1027300019500001CAEC00F0196E1A6E040019500D
:102740001A10D8B4BDEF13F00101C36B00010400EF
:10275000100E0101C35D0001D8B0BDEF13F00E0EE5
:102760000101C3255C6E00014AECEDF0DEECEBF0FC
:102770000101C32B0001D8A0EAD7D1EF13F0040068
:102780000201035142080001D8A4D1EF13F0040064
:102790000101D65149080001D8A4D1EF13F02CEC67
:1027A00028F00101E96B00011200E86A35BCE86815
:1027B000136E1D0E0101C325156E166A16361550CF
:1027C000C30FE96E050E1620EA6EEFCF15F0155017
:1027D0007208D8A4E868FF0A156E13C001F01550FE
:1027E0000001CAEC00F0156E166E040015501610AC
:1027F000D8B400EF14F00101A06B000197EC60F079
:10280000E86A35BCE868136EE86A31B8E868156EA6
:1028100013C001F01550CAEC00F0156E166E1D0EB7
:102820000101C325176E186A18361750C30FE96ED9
:10283000050E1820EA6EEFCF17F017507208D8A4D3
:10284000E868176E15501610016E17500001CAEC9B
:1028500000F0176E186E040017501810D8B436EF39
:1028600014F00101A06B0001ABEC5FF0E86A35BC2D
:10287000E868136EE86A31BCE868156E13C001F0B1
:102880001550CAEC00F0156E166E040015501610A7
:10289000D8B450EF14F00101A06B0001B1EC62F06C
:1028A0000101C305136E146A000E145A13504D0F24
:1028B000E96E030E1420EA6EEFCF13F00400010E50
:1028C000135C0001D8A086EF14F00101C305156E5A
:1028D000166A000E165AC305136E146A000E145AB7
:1028E00013504D0FE96E030E1420EA6EEFCF13F074
:1028F0001304136E146A000E145A15504D0FE96E2E
:10290000030E1620EA6E13C0EFFF00011200040050
:1029100039ACA1EF14F0399C040032A29FEF14F0FF
:1029200004000101E9519C5D0001D8B09BEF14F057
:1029300035869DEF14F0A2EC14F0A1EF14F0A2EC98
:1029400014F012000101E96B379ED59E04000201CC
:10295000035149080001D8A4EFEF14F0ECC1BDF118
:102960000101BD05136E146A000E145A1350C30FF3
:10297000E96E050E1420EA6EEFCF29F2BD05136E45
:10298000146A000E145A1350FF0FE96E050E14203E
:10299000EA6EEFCF2AF2BD05136E146A000E145AC8
:1029A00013503B0FE96E060E1420EA6EEFCF2BF2A8
:1029B000BD05136E146A000E145A1350770FE96E9A
:1029C000060E1420EA6EEFCF2CF2BD05B46F070E91
:1029D000B36FA06B0001D9EC27F0CEEC60F00400DF
:1029E000020103514F080001D8A438EF15F0EDC1E2
:1029F000BDF11D0E0101BD25136E146A143613506E
:102A0000C30FE96E050E1420EA6EEFCF29F21D0EFA
:102A1000BD25136E146A14361350FF0FE96E050EB0
:102A20001420EA6EEFCF2AF21D0EBD25136E146A34
:102A3000143613503B0FE96E060E1420EA6EEFCFEA
:102A40002BF21D0EBD25136E146A14361350770F2A
:102A5000E96E060E1420EA6EEFCF2CF21D0EBD2596
:102A6000B46F080EB36F0001D9EC27F0CEEC60F024
:102A7000120004000201035146080001D8A445EFEA
:102A800015F0070ED56E47EF15F0040ED56E829047
:102A90009490378EAC88D66AD76AD58E399C12004E
:102AA000040038AEE6EF15F0040036B25DEF15F025
:102AB0000101892B000182EF15F036920101896B2B
:102AC000E86A33B8E868136E8A510008D8A4E86849
:102AD000FF0A156E13C001F015500001CAEC00F09A
:102AE000156E166E040015501610D8B47FEF15F051
:102AF00033980101210E8A6F000182EF15F0010168
:102B00008A2B00018AC180F189C17FF1A7ECEFF027
:102B1000C0C1E0F13680E86A35ACE868136EE86A57
:102B200038BCE868156E13C001F01550CAEC00F00F
:102B3000156E166E040015501610D8B4DBEF15F0A4
:102B4000530E2CEC00F0790E2CEC00F06E0E2CECF9
:102B500000F0630E2CEC00F0200E2CEC00F0500E78
:102B60002CEC00F0030E0A6E8AC105F0066A560EC0
:102B7000116E126A41EC00F02F0E2CEC00F0030EE7
:102B80000A6E89C105F0066A560E116E126A41EC92
:102B900000F03D0E2CEC00F00A6AE0C105F0066A78
:102BA000560E116E126A41EC00F00D0E2CEC00F086
:102BB0000A0E2CEC00F0040001018951FF0800010D
:102BC000D8A4E4EF15F03682E7EF15F03690120046
:102BD00004000101EB5100080001D8A48BEF17F0AD
:102BE000E86A37AEE868136EA4C101F0000EA8ECE5
:102BF00000F0156E13C001F01550CAEC00F0156E10
:102C0000166E040015501610D8B48BEF17F00400A0
:102C10000101EF5100080001D8A48BEF17F01DC28D
:102C2000EFF10101EC2B0400EC51A45D0001D8B0E0
:102C300026EF16F00101010EEC6F02010C6B3284DD
:102C400000012EDF0101010EEB6F00010201490EB0
:102C5000036FECC1BDF10101BD05136E146A000ED6
:102C6000145A520EE96EEA6A1350000F00010EEC7E
:102C700000F0000ED8A4010E136E146A016A026AF5
:102C800014C004F01350B8EC00F0D8A48BEF17F088
:102C90000101BD05136E146A000E145A1350C30FC0
:102CA000E96E050E1420EA6EEFCF13F00400135006
:102CB00049080001D8A461EF16F08CEC17F08BEFF7
:102CC00017F00101BD05136E146A000E145A13505B
:102CD000C30FE96E050E1420EA6EEFCF13F0040067
:102CE000135054080001D8A4F8EF16F08280949095
:102CF0000201020E266F000145EC2FF0040032A401
:102D000086EF16F002010B2B329400010400030E33
:102D100002010B5D0001D8A091EF16F002010B6BD0
:102D20000001040002010B5100080001D8A49DEF2E
:102D300016F00201410E196F0001040002010B514F
:102D400001080001D8A4A9EF16F00201540E196F72
:102D50000001040002010B5102080001D8A4B5EFE4
:102D600016F00201480E196F00010101BD05136E36
:102D7000146A000E145A1350C30FE96E050E142086
:102D8000EA6EEFCF58F2BD05136E146A000E145AA6
:102D90001350FF0FE96E050E1420EA6EEFCF59F2C3
:102DA000BD05136E146A000E145A13503B0FE96EE2
:102DB000060E1420EA6EEFCF5AF2BD05136E146AA8
:102DC000000E145A1350770FE96E060E1420EA6EA7
:102DD000EFCF5BF219C25CF223C25DF202015E6BBF
:102DE0005F6B606B0001B7EC78F043DE8BEF17F0A0
:102DF0000101BD05136E146A000E145A1350C30F5F
:102E0000E96E050E1420EA6EEFCF13F004001350A4
:102E100043080001D8A411EF17F08CEC17F08BEFEA
:102E200017F00101BD05136E146A000E145A1350F9
:102E3000C30FE96E050E1420EA6EEFCF13F0040005
:102E400013504C080001D8A48BEF17F082809490A7
:102E50000101BD05136E146A000E145A1350C30FFE
:102E6000E96E050E1420EA6EEFCF58F2BD05136E21
:102E7000146A000E145A1350FF0FE96E050E142049
:102E8000EA6EEFCF59F2BD05136E146A000E145AA4
:102E900013503B0FE96E060E1420EA6EEFCF5AF284
:102EA000BD05136E146A000E145A1350770FE96EA5
:102EB000060E1420EA6EEFCF5BF20201490E5C6F42
:102EC0008AC15DF289C15EF2E0C15FF211C260F2B7
:102ED00011510B0FE96E040EEA6AEA22EFCF61F29C
:102EE00013C262F20DC263F20D512B0FE96E040E94
:102EF000EA6AEA22EFCF64F2DEC165F2DCC166F273
:102F0000BCC167F2D5C168F2AAC169F2000104EC44
:102F100079F039EC15F012000201010E266F828063
:102F20009490000145EC2FF00101BD05136E146A69
:102F3000000E145A1350C30FE96E050E1420EA6EEA
:102F4000EFCF58F2BD05136E146A000E145A1350D9
:102F5000FF0FE96E050E1420EA6EEFCF59F2BD05A2
:102F6000136E146A000E145A13503B0FE96E060ECE
:102F70001420EA6EEFCF5AF2BD05136E146A000EEC
:102F8000145A1350770FE96E060E1420EA6EEFCF35
:102F90005BF20201490E5C6F23C25DF2460E5E6F6A
:102FA000C7C15FF20400000136A0E1EF17F0020193
:102FB000450E606F8AC161F289C162F2E0C163F2BD
:102FC00000010101BD05136E146A000E145A13505E
:102FD000C30FE96E050E1420EA6EEFCF13F0040064
:102FE000135049080001D8A40FEF18F002014F0E4A
:102FF000646FE3C165F20101E351110FE96E030E45
:10300000EA6AEA22EFCF66F2E32B0400E351A55D02
:103010000001D8B00FEF18F00101E36B000104ECE0
:1030200079F039EC15F0120004000101EB510108B0
:103030000001D8A479EF1BF0E8683BA0E86A136EA2
:10304000A5C101F0000EA8EC00F0156E13C001F050
:103050001550CAEC00F0156E166E040015501610CF
:10306000D8B475EF1BF0040037BE73EF1BF00400FB
:103070000101F15100080001D8A471EF1BF001011A
:10308000ED2B0400ED51A55D0001D8B04EEF18F016
:103090000101010EED6F020EEB6F0001EDC1BDF1FC
:1030A0001D0E0101BD25136E146A14361350C30F93
:1030B000E96E050E1420EA6EEFCF13F013504F089F
:1030C000D8A4E868FF0A136E1D0EBD25156E166A9A
:1030D00016361550C30FE96E050E1620EA6EEFCFB7
:1030E00015F015504408D8A4E868FF0A156E13C0FF
:1030F00001F015500001D1EC00F0156E166E1D0E9A
:103100000101BD25176E186A18361750C30FE96EF6
:10311000050E1820EA6EEFCF17F017505208D8A40A
:10312000E868FF0A176E15501610016E175000015F
:10313000D1EC00F0176E186E040017501810D8B4B8
:103140005AEF1BF01D0E0101BD25136E146A1436D3
:10315000520EE96EEA6A1350000F00010EEC00F007
:10316000000ED8A4010E136E146A016A026A14C01C
:1031700004F01350B8EC00F0D8A458EF1BF0010194
:10318000BD05136E146A000E145A13504D0FE96EEC
:10319000030E1420EA6EEFCF13F00400010E135C4F
:1031A0000001D8A058EF1BF002014F0E036F1EC2A2
:1031B000F1F1266B000145EC2FF00101BD05136E06
:1031C000146A000E145A1350110FE96E030E1420E6
:1031D000EA6EEFCF13F0135002012325136E146A29
:1031E00014360101BD05156E166A000E165A15C07B
:1031F00007F016C008F0080E036E046A0001EEEC3A
:1032000000F0156E06C016F01550880FE96E0A0E14
:103210001620EA6EEFCF15F015501324156EE86AEC
:103220001420166E0101BD05176E186A000E185A9B
:1032300017C007F018C008F0080E036E046A0001FA
:10324000EEEC00F0176E06C018F0172A000E1822D8
:103250001750880FE96E0A0E1820EA6EEFCF17F0AC
:1032600017501524176EE86A1620186E0101BD0567
:10327000196E1A6A000E1A5A19C007F01AC008F01F
:10328000080E036E046A0001EEEC00F0196E06C031
:103290001AF0020E1926000E1A221950880FE96E34
:1032A0000A0E1A20EA6EEFCF19F019501724196E82
:1032B000E86A18201A6E0101BD051B6E1C6A000E1B
:1032C0001C5A1BC007F01CC008F0080E036E046AED
:1032D0000001EEEC00F01B6E06C01CF0030E1B2676
:1032E000000E1C221B50880FE96E0A0E1C20EA6E8D
:1032F000EFCF1BF01B5019240101796FE86A1A20E7
:103300007A6FBD05136E146A000E145A13C007F0CD
:1033100014C008F0080E036E046A0001EEEC00F021
:10332000136E06C014F0040E1326000E1422135060
:10333000880FE96E0A0E1420EA6EEFCF13F01350D7
:1033400001017925136EE86A7A21146EBD05156EA8
:10335000166A000E165A15C007F016C008F0080EBF
:10336000036E046A0001EEEC00F0156E06C016F064
:10337000050E1526000E16221550880FE96E0A0E4E
:103380001620EA6EEFCF15F015501324156EE86A7B
:103390001420166E0101BD05176E186A000E185A2A
:1033A00017C007F018C008F0080E036E046A000189
:1033B000EEEC00F0176E06C018F0060E1726000E91
:1033C00018221750880FE96E0A0E1820EA6EEFCF08
:1033D00017F017501524176EE86A1620186E0101B1
:1033E000BD05196E1A6A000E1A5A19C007F01AC0E4
:1033F00008F0080E036E046A0001EEEC00F0196E8E
:1034000006C01AF0070E1926000E1A221950880F4E
:10341000E96E0A0E1A20EA6EEFCF19F01950172440
:103420000101796FE86A18207A6F828094901D0EEE
:10343000BD25136E146A14361350C30FE96E050EC2
:103440001420EA6EEFCF58F21D0EBD25136E146ADC
:1034500014361350FF0FE96E050E1420EA6EEFCFFD
:1034600059F21D0EBD25136E146A143613503B0F0E
:10347000E96E060E1420EA6EEFCF5AF21D0EBD253E
:10348000136E146A14361350770FE96E060E14206B
:10349000EA6EEFCF5BF2BD05136E146A000E145A8C
:1034A0001350110FE96E030E1420EA6EEFCF5CF299
:1034B00023C25DF2BD05136E146A000E145A13C0C8
:1034C00007F014C008F0080E036E046A0001EEEC69
:1034D00000F0136E06C014F01350880FE96E0A0E48
:1034E0001420EA6EEFCF5EF20101BD05136E146A7F
:1034F000000E145A13C007F014C008F0080E036E33
:10350000046A0001EEEC00F0136E06C014F0132AFA
:10351000000E14221350880FE96E0A0E1420EA6E72
:10352000EFCF5FF20101BD05136E146A000E145A4D
:1035300013C007F014C008F0080E036E046A0001FF
:10354000EEEC00F0136E06C014F0020E1326000E0F
:1035500014221350880FE96E0A0E1420EA6EEFCF82
:1035600060F20101BD05136E146A000E145A13C0F7
:1035700007F014C008F0080E036E046A0001EEECB8
:1035800000F0136E06C014F0030E1326000E142272
:103590001350880FE96E0A0E1420EA6EEFCF61F225
:1035A0000101BD05136E146A000E145A13C007F012
:1035B00014C008F0080E036E046A0001EEEC00F07F
:1035C000136E06C014F0040E1326000E14221350BE
:1035D000880FE96E0A0E1420EA6EEFCF62F2010145
:1035E000BD05136E146A000E145A13C007F014C000
:1035F00008F0080E036E046A0001EEEC00F0136E92
:1036000006C014F0050E1326000E14221350880F66
:10361000E96E0A0E1420EA6EEFCF63F20101BD05D8
:10362000136E146A000E145A13C007F014C008F089
:10363000080E036E046A0001EEEC00F0136E06C083
:1036400014F0060E1326000E14221350880FE96E94
:103650000A0E1420EA6EEFCF64F20101BD05136E6D
:10366000146A000E145A13C007F014C008F0080EB4
:10367000036E046A0001EEEC00F0136E06C014F055
:10368000070E1326000E14221350880FE96E0A0E3F
:103690001420EA6EEFCF65F20201430E666F7AC125
:1036A00067F279C168F2000104EC79F039EC15F0A9
:1036B00071EF1BF00101BD05136E146A000E145A60
:1036C00013504D0FE96E030E1420EA6EEFCF13F086
:1036D0000400010E135C0001D8A071EF1BF0B0ECE8
:1036E0001BF07AEC1BF079EF1BF00101020EEB6F7F
:1036F0000001120034980201010E096F000104005C
:10370000020109510101A55D0001D8A0A3EF1BF042
:1037100002010905136E146A000E145A13504D0F5E
:10372000E96E030E1420EA6EEFCF13F00400010ED1
:10373000135C0001D8A09EEF1BF034880201092B16
:103740000001D8A0DCD734B83B8034A83B900400FB
:103750003BB0AFEF1BF00101020EEB6F0001120056
:103760001D0E0101BD25136E146A14361350C30FCC
:10377000E96E050E1420EA6EEFCF13F013506F08B8
:10378000D8A4E868FF0A136E1D0EBD25156E166AD3
:1037900016361550C30FE96E050E1620EA6EEFCFF0
:1037A00015F015506408D8A4E868FF0A156E13C018
:1037B00001F015500001D1EC00F0156E166E1D0ED3
:1037C0000101BD25176E186A18361750C30FE96E30
:1037D000050E1820EA6EEFCF17F017507208D8A424
:1037E000E868FF0A176E15501610016E1750000199
:1037F000D1EC00F0176E186E040017501810D8B4F2
:103800009DEF1EF0BDC1C3F1D5EC13F0080E010110
:10381000BD25BE6FBD05136E146A000E145A1350F9
:10382000110FE96E030E1420EA6EEFCFC0F1000114
:10383000AFECEFF002014F0E036F1EC2F1F1010178
:10384000BD05136E146A000E145A1350110FE96E61
:10385000030E1420EA6EEFCF13F01350020123255C
:10386000136E146A14360101BD05156E166A000E3A
:10387000165A15C007F016C008F0080E036E046A49
:103880000001EEEC00F0156E06C016F01550880F22
:10389000E96E0A0E1620EA6EEFCF15F015501324CC
:1038A000156EE86A1420166E0101BD05176E186AC0
:1038B000000E185A17C007F018C008F0080E036E63
:1038C000046A0001EEEC00F0176E06C018F0172A2B
:1038D000000E18221750880FE96E0A0E1820EA6EA3
:1038E000EFCF17F017501524176EE86A1620186EE0
:1038F0000101BD05196E1A6A000E1A5A19C007F0A7
:103900001AC008F0080E036E046A0001EEEC00F025
:10391000196E06C01AF0020E1926000E1A2219504E
:10392000880FE96E0A0E1A20EA6EEFCF19F01950CF
:103930001724196EE86A18201A6E0101BD051B6E66
:103940001C6A000E1C5A1BC007F01CC008F0080EB1
:10395000036E046A0001EEEC00F01B6E06C01CF062
:10396000030E1B26000E1C221B50880FE96E0A0E48
:103970001C20EA6EEFCF1BF01B5019240101796F58
:10398000E86A1A207A6FBD05136E146A000E145A85
:1039900013C007F014C008F0080E036E046A00019B
:1039A000EEEC00F0136E06C014F0040E1326000EA9
:1039B00014221350880FE96E0A0E1420EA6EEFCF1E
:1039C00013F0135001017925136EE86A7A21146E01
:1039D000BD05156E166A000E165A15C007F016C002
:1039E00008F0080E036E046A0001EEEC00F0156E9C
:1039F00006C016F0050E1526000E16221550880F6B
:103A0000E96E0A0E1620EA6EEFCF15F0155013245A
:103A1000156EE86A1420166E0101BD05176E186A4E
:103A2000000E185A17C007F018C008F0080E036EF1
:103A3000046A0001EEEC00F0176E06C018F0060EE6
:103A40001726000E18221750880FE96E0A0E18204C
:103A5000EA6EEFCF17F017501524176EE86A16209C
:103A6000186E0101BD05196E1A6A000E1A5A19C0A6
:103A700007F01AC008F0080E036E046A0001EEECAD
:103A800000F0196E06C01AF0070E1926000E1A2251
:103A90001950880FE96E0A0E1A20EA6EEFCF19F05E
:103AA000195017240101796FE86A18207A6F828013
:103AB00094901D0EBD25136E146A14361350C30F57
:103AC000E96E050E1420EA6EEFCF58F21D0EBD25EB
:103AD000136E146A14361350FF0FE96E050E14208E
:103AE000EA6EEFCF59F21D0EBD25136E146A14361F
:103AF00013503B0FE96E060E1420EA6EEFCF5AF218
:103B00001D0EBD25136E146A14361350770FE96E1F
:103B1000060E1420EA6EEFCF5BF2BD05136E146A39
:103B2000000E145A1350110FE96E030E1420EA6EA2
:103B3000EFCF5CF223C25DF2BD05136E146A000E76
:103B4000145A13C007F014C008F0080E036E046A7C
:103B50000001EEEC00F0136E06C014F01350880F55
:103B6000E96E0A0E1420EA6EEFCF5EF20101BD0588
:103B7000136E146A000E145A13C007F014C008F034
:103B8000080E036E046A0001EEEC00F0136E06C02E
:103B900014F0132A000E14221350880FE96E0A0E37
:103BA0001420EA6EEFCF5FF20101BD05136E146AB7
:103BB000000E145A13C007F014C008F0080E036E6C
:103BC000046A0001EEEC00F0136E06C014F0020E61
:103BD0001326000E14221350880FE96E0A0E1420CB
:103BE000EA6EEFCF60F20101BD05136E146A000E9C
:103BF000145A13C007F014C008F0080E036E046ACC
:103C00000001EEEC00F0136E06C014F0030E132654
:103C1000000E14221350880FE96E0A0E1420EA6E6B
:103C2000EFCF61F20101BD05136E146A000E145A44
:103C300013C007F014C008F0080E036E046A0001F8
:103C4000EEEC00F0136E06C014F0040E1326000E06
:103C500014221350880FE96E0A0E1420EA6EEFCF7B
:103C600062F20101BD05136E146A000E145A13C0EE
:103C700007F014C008F0080E036E046A0001EEECB1
:103C800000F0136E06C014F0050E1326000E142269
:103C90001350880FE96E0A0E1420EA6EEFCF63F21C
:103CA0000101BD05136E146A000E145A13C007F00B
:103CB00014C008F0080E036E046A0001EEEC00F078
:103CC000136E06C014F0060E1326000E14221350B5
:103CD000880FE96E0A0E1420EA6EEFCF64F201013C
:103CE000BD05136E146A000E145A13C007F014C0F9
:103CF00008F0080E036E046A0001EEEC00F0136E8B
:103D000006C014F0070E1326000E14221350880F5D
:103D1000E96E0A0E1420EA6EEFCF65F20201430E3F
:103D2000666F7AC167F279C168F2000104EC79F03C
:103D30009EEC1EF0050E79EC00F012000101D36B31
:103D400000010400080E0101D35D0001D8B056EF58
:103D50001FF00101BD05136E146A000E145A13C042
:103D600007F014C008F0080E036E046A0001EEECC0
:103D700000F0136E06C014F013500101D325D76F65
:103D8000E00EE96EEA6AD751000F00010EEC00F078
:103D9000000ED8A4010E136E146A010E016E026AA1
:103DA00014C004F01350B8EC00F0D8A451EF1FF089
:103DB000E00EE96EEA6A0101D751000F00010EEC36
:103DC00000F0D8901CEC00F00101700E806FD7C19C
:103DD0007FF10001A7ECEFF00400200E0101C05DAF
:103DE0000001D8B051EF1FF00101470E966FC0C11E
:103DF00097F1C0C1BBF1BD05136E146A000E145AD1
:103E00001350110FE96E030E1420EA6EEFCF13F07A
:103E100013C001F0026AD35100019CEC00F00201D2
:103E20001F6F0400D8961FA1D8860001D8B644EFB2
:103E30001FF00101D751880FE96E0A0EEA6AEA22E3
:103E4000EFCF13F0040E076E086A13C003F0046A84
:103E50000001EEEC00F00101986FD751880FE96E78
:103E60000A0EEA6AEA22EFCF13F0040E076E086A20
:103E700013C003F0046A0001EEEC00F00101BA6F18
:103E8000338E000149EF1FF00101986BBA6B339E2E
:103E900000010101430E996F000197ECD5F02FEC62
:103EA0003CF00101D32B0001D8A04BD71200020136
:103EB0001F6B00010400040E02011F5D0001D8B059
:103EC0007BEF1FF0200E0101BD25806FAD0E0201BA
:103ED0001F2501017F6F0001A7ECEFF002011F51C8
:103EE000310FE96E020EEA6AEA22C0C1EFFF1F2B12
:103EF0000001D8A0DFD7120004000101EB51020835
:103F00000001D8A47DEF20F004003BA27AEF20F05E
:103F1000040037BE40EF20F004000101F151000819
:103F20000001D8A440EF20F00101EE2B0400EE5177
:103F3000A65D0001D8B0A1EF1FF00101010EEE6FE8
:103F40000001EEC1BDF1B3DF04000201315152089E
:103F50000001D8A428EF20F00101BD05136E146AFA
:103F6000000E145A480EE96EEA6A1350000F000161
:103F70000EEC00F0000ED8A4010E136E146A010EB0
:103F8000016E026A14C004F01350B8EC00F0D8A41B
:103F900026EF20F00201520E036F1EC2F1F1266BD4
:103FA000000145EC2FF00101BD05136E146A000EEF
:103FB000145A13502F0FE96E030E1420EA6EEFCF40
:103FC00013F01350020123250101796F7A6B7A37C0
:103FD0008280949031C258F232C259F233C25AF2FE
:103FE00034C25BF2BD05136E146A000E145A1350EE
:103FF0002F0FE96E030E1420EA6EEFCF5CF223C29E
:104000005DF202015E6B5F6B606B616B626B636B99
:10401000646B656B430E666F7AC167F279C168F2B3
:10402000000104EC79F039EC15F00101BD05136EC7
:10403000146A000E145A480EE96EEA6A1350000F13
:1040400000010EEC00F0D8901CEC00F040EF20F0E6
:10405000BDC1C3F10101A06B000197EC60F001014B
:10406000BD05136E146A000E145A480EE96EEA6A12
:104070001350000F00010EEC00F0D8901CEC00F083
:1040800034980101010EBD6F000104000101BD5112
:10409000A65D0001D8A06DEF20F00101BD05136EF3
:1040A000146A000E145A480EE96EEA6A1350000FA3
:1040B00000010EEC00F0000ED8A4010E136E146A7D
:1040C0001350010B34B80109D8B43498D8A43488FB
:1040D0000101BD2B0001D8A0D8D734B83B8234A849
:1040E0003B9204003BB278EF20F00101EB6B000142
:1040F0007DEF20F00101EB6B000112000101BD0515
:10410000136E146A000E145A1350C30FE96E050E95
:104110001420EA6EEFCF13F002016C51135CD8A4A7
:10412000E868FF0A136E0101BD05156E166A000EE0
:10413000165A1550FF0FE96E050E1620EA6EEFCFE6
:1041400015F002016D51155CD8A4E868FF0A156EE0
:1041500013C001F015500001CAEC00F0156E166E88
:104160000101BD05176E186A000E185A17503B0F53
:10417000E96E060E1820EA6EEFCF17F002016E51BD
:10418000175CD8A4E868FF0A176E15501610016E68
:1041900017500001CAEC00F0176E186E0101BD0542
:1041A000196E1A6A000E1A5A1950770FE96E060E28
:1041B0001A20EA6EEFCF19F002016F51195CD8A4F2
:1041C000E868FF0A196E17501810016E19500001A7
:1041D000CAEC00F0196E1A6E040019501A10D8B407
:1041E00026EF21F002017251FF08D8A4E868136E8F
:1041F000E9C101F0070E0001A8EC00F0156E13C034
:1042000001F01550CAEC00F0156E166E0400155042
:104210001610D8B424EF21F0A5ECE5F00101F95116
:10422000A00FE96E080EEA6AEA2272C2EFFFF951A6
:104230003C0FE96E080EEA6AEA2273C2EFFF74C20D
:10424000E1F175C2E2F1000165EF21F00101BD0568
:10425000136E146A000E145A1350C30FE96E050E44
:104260001420EA6EEFCF29F2BD05136E146A000E1A
:10427000145A1350FF0FE96E050E1420EA6EEFCFAB
:104280002AF2BD05136E146A000E145A13503B0F28
:10429000E96E060E1420EA6EEFCF2BF2BD05136E09
:1042A000146A000E145A1350770FE96E060E14208C
:1042B000EA6EEFCF2CF2BD05B46F070EB36FA06BA3
:1042C0000001D9EC27F0CEEC60F012000101BD0531
:1042D000136E146A000E145A1350FF0FE96E050E88
:1042E0001420EA6EEFCF13F002016D51135CD8A4D5
:1042F000E868136E0101BD05156E166A000E165AA8
:1043000015503B0FE96E060E1620EA6EEFCF15F042
:1043100002016E51155CD8A4E868156E13C001F057
:1043200015500001D1EC00F0156E166E0101BD05AF
:10433000176E186A000E185A1750770FE96E060E9E
:104340001820EA6EEFCF17F002016F51175CD8A466
:10435000E868176E15501610016E17500001D1EC69
:1043600000F0176E186E040017501810D8B4BBEF89
:1043700021F098EC22F012000101BD05136E146AC1
:10438000000E145A1350FF0FE96E050E1420EA6E4A
:10439000EFCF13F002016D51135CD8A4E868FF0A57
:1043A000136E0101BD05156E166A000E165A1550E2
:1043B0003B0FE96E060E1620EA6EEFCF15F00201F4
:1043C0006E51155CD8A4E868FF0A156E13C001F0A1
:1043D00015500001CAEC00F0156E166E0101BD0506
:1043E000176E186A000E185A1750770FE96E060EEE
:1043F0001820EA6EEFCF17F002016F51175CD8A4B6
:10440000E868FF0A176E15501610016E175000016C
:10441000CAEC00F0176E186E040017501810D8B4CC
:1044200095EF22F0040033AC91EF22F002017051BD
:104430007125136E146A143672511326E86A142219
:1044400073511326E86A142274511326E86A142261
:10445000755113240101796FE86A14207A6F7A513B
:104460000201765DD8A4E868FF0A136E0101795154
:104470000201775DD8A4E868FF0A156E13C001F049
:1044800015500001CAEC00F0156E166E04001550B0
:104490001610D8B450EF22F0D8EC22F08FEF22F0B3
:1044A0000101BD05136E146A000E145A1350C30F98
:1044B000E96E050E1420EA6EEFCF29F2BD05136EEA
:1044C000146A000E145A1350FF0FE96E050E1420E3
:1044D000EA6EEFCF2AF2BD05136E146A000E145A6D
:1044E00013503B0FE96E060E1420EA6EEFCF2BF24D
:1044F000BD05136E146A000E145A1350770FE96E3F
:10450000060E1420EA6EEFCF2CF2BD05B46F1B0E21
:10451000B36FA06B0001D9EC27F0CEEC60F093EF05
:1045200022F0D8EC22F097EF22F098EC22F0120063
:104530000101BD05136E146A000E145A1350C30F07
:10454000E96E050E1420EA6EEFCF29F2BD05136E59
:10455000146A000E145A1350FF0FE96E050E142052
:10456000EA6EEFCF2AF2BD05136E146A000E145ADC
:1045700013503B0FE96E060E1420EA6EEFCF2BF2BC
:10458000BD05136E146A000E145A1350770FE96EAE
:10459000060E1420EA6EEFCF2CF2BD05B46F0A0EA2
:1045A000B36FA06B0001D9EC27F0CEEC60F01200E5
:1045B0000101BD05156E166A000E165A0201701D26
:1045C000136E14681550990FE96E020E1620EA6EEC
:1045D00013C0EFFF0101BD05176E186A000E185ACF
:1045E000BD05136E146A000E145A1350990FE96E2C
:1045F000020E1420EA6EEFCF13F0BD05156E166A99
:10460000000E165A1550B70FE96E020E1620EA6E0C
:10461000EFCF15F0151C156E16681350151A1750AC
:10462000990FE96E020E1820EA6E15C0EFFFBD0566
:10463000136E146A000E145A1350990FE96E020E8D
:104640001420EA6EEFCF13F0BD05156E166A000E4A
:10465000165A1550D50FE96E020E1620EA6EEFCFEE
:1046600015F01350151802011F6F04001F510008A8
:104670000001D8B4C6EF24F00201096B0001040068
:10468000080E0201095D0001D8B0C4EF24F0010159
:10469000BD05136E146A000E145A13C007F014C03F
:1046A00008F0080E036E046A0001EEEC00F0136ED1
:1046B00006C014F01350020109251A6F1A51680F31
:1046C000E96E0C0EEA6AEA22EFCFF4F1C20EE96E4F
:1046D000EA6A1A51000F00010EEC00F0000ED8A497
:1046E000010E136E146A010E016E026A14C004F00A
:1046F0001350B8EC00F0D8A4BFEF24F00101BD05C1
:10470000136E146A000E145A1350990FE96E020EBC
:104710001420EA6EEFCF13F013C001F0026A020119
:10472000095100019CEC00F00101D36FBD05136E2F
:10473000146A000E145A1350D50FE96E020E14209D
:10474000EA6EEFCF13F013C001F0026A02010951C3
:1047500000019CEC00F00101D76FE86AD3B1E86872
:10476000136EE86AD7A1E868156E13C001F0155002
:104770000001CAEC00F0156E166E040015501610FC
:10478000D8B43BEF24F067EC25F0FE0EE96EEA6A40
:1047900002011A51000F00010EEC00F0000ED8A427
:1047A000010E136E146A010E016E026A14C004F049
:1047B0001350B8EC00F0D8A435EF24F0F4C101F0A8
:1047C000026A080E036E046AD6EC00F0136E02C093
:1047D00014F01E0E1326000E14221350C30FE96EA0
:1047E000050E1420EA6EEFCF13F013504408D8A43E
:1047F000E868136EF4C101F0026A080E036E046AE1
:10480000D6EC00F0156E02C016F01E0E1526000E36
:1048100016221550C30FE96E050E1620EA6EEFCF73
:1048200015F015506408D8A4E868156E13C001F09F
:104830001550CAEC00F0156E166E040015501610D7
:10484000D8B429EF24F01AC2C6F1F8EC25F033EF02
:1048500024F002011A51780FE96E0B0EEA6AEA227F
:10486000010EEF6E000139EF24F01AC2C6F1F8EC28
:1048700025F0BFEF24F0E86A0101D3A1E868136EC8
:10488000E86AD7B1E868156E13C001F01550000151
:10489000CAEC00F0156E166E040015501610D8B450
:1048A000BFEF24F0FE0EE96EEA6A02011A51000F12
:1048B00000010EEC00F0000ED8A4010E136E146A75
:1048C000010E016E026A14C004F01350B8EC00F03F
:1048D000D8A4B9EF24F002011A51780FE96E0B0E3B
:1048E000EA6AEA22EFCF13F013C001F0000E0001D4
:1048F000A8EC00F0136E02011A51780FE96E0B0E4E
:10490000EA6AEA22EFCF15F015C001F00101AD51BE
:104910000001B2EC00F0156E13C001F01550CAECA6
:1049200000F0156E166E040015501610D8B4B7EFCF
:1049300024F004000101B05100080001D8A4B5EF33
:1049400024F00101F451880FE96E0A0EEA6AEA22A6
:104950003F0EEF6EE00EE96EEA6AF451000F0001BF
:104960000EEC00F0D8801CEC00F0F8EC25F0BFEF66
:1049700024F067EC25F01AC2C6F1F8EC25F002012C
:10498000092B0001D8A07BD648EF25F00201096B66
:1049900000010400080E0201095D0001D8B048EFD3
:1049A00025F00101BD05136E146A000E145A13C0E0
:1049B00007F014C008F0080E036E046A0001EEEC64
:1049C00000F0136E06C014F01350020109251A6F8F
:1049D0001A51680FE96E0C0EEA6AEA22EFCFF4F181
:1049E000C20EE96EEA6A1A51000F00010EEC00F0E7
:1049F000000ED8A4010E136E146A010E016E026A35
:104A000014C004F01350B8EC00F0D8A443EF25F024
:104A1000FE0EE96EEA6A02011A51000F00010EEC67
:104A200000F0000ED8A4010E136E146A010E016E80
:104A3000026A14C004F01350B8EC00F0D8A443EF9D
:104A400025F00101BD05136E146A000E145A1350AF
:104A5000990FE96E020E1420EA6EEFCF13F013C027
:104A600001F0026A0201095100019CEC00F0010111
:104A7000D36F0400D896D3A1D8860001D8B643EFEF
:104A800025F046EC26F00201092B0001D8A081D7C1
:104A90000101BD05156E166A000E165ABD05136E8E
:104AA000146A000E145A1350990FE96E020E142066
:104AB000EA6EEFCF13F01550D50FE96E020E1620F7
:104AC000EA6E13C0EFFF00017BEC27F01200040038
:104AD00035A2E0EF25F0490E2CEC00F06E0E2CEC28
:104AE00000F0700E2CEC00F0750E2CEC00F0740E43
:104AF0002CEC00F0200E2CEC00F0700E2CEC00F0F2
:104B0000720E2CEC00F0650E2CEC00F0730E2CEC09
:104B100000F0730E2CEC00F0650E2CEC00F0640E2F
:104B20002CEC00F03D0E2CEC00F00A6A1AC205F0E5
:104B3000066A560E116E126A41EC00F0200E2CEC43
:104B400000F0730E2CEC00F0650E2CEC00F06C0EF7
:104B50002CEC00F0650E2CEC00F0630E2CEC00F059
:104B6000740E2CEC00F0650E2CEC00F0640E2CECB6
:104B700000F0200E2CEC00F06F0E2CEC00F0750E07
:104B80002CEC00F0740E2CEC00F0700E2CEC00F00D
:104B9000750E2CEC00F0740E2CEC00F03D0E2CEC9D
:104BA00000F00A6AF4C105F0066A560E116E126A28
:104BB00041EC00F00D0E2CEC00F00A0E2CEC00F095
:104BC000E86A35BCE868136EE86A31BAE868156EC1
:104BD00013C001F01550CAEC00F0156E166E0400FB
:104BE00015501610D8B4F7EF25F010EC63F0120052
:104BF00002011A51780FE96E0B0EEA6AEA22EF6A97
:104C00000400F00E0101F45D0001D8B01EEF26F0A3
:104C1000A5ECE5F00101F951A00FE96E080EEA6A72
:104C2000EA22A20EEF6EF9513C0FE96E080EEA6A15
:104C3000EA22F4C1EFFF000145EF26F00400010174
:104C4000F451F0080001D8A42EEF26F01AC2A8F102
:104C5000BDC1F8F109C2F7F18DEC31F0040001019A
:104C6000F451F1080001D8A438EF26F024EC5FF0ED
:104C700004000101F451F2080001D8A445EF26F028
:104C80000101D269000125EC5EF01200F4C101F0CF
:104C9000026A080E036E046AD6EC00F0136E02C0BE
:104CA00014F01E0E1326000E14221350C30FE96ECB
:104CB000050E1420EA6EEFCF13F013504408D8A469
:104CC000E868FF0A136EF4C101F0026A080E036E71
:104CD000046AD6EC00F0156E02C016F01E0E152602
:104CE000000E16221550C30FE96E050E1620EA6E4F
:104CF000EFCF15F015506408D8A4E868FF0A156EC8
:104D000013C001F01550D1EC00F0156E166EF4C111
:104D100001F0F00EB2EC00F0176E15501610016E97
:104D20001750CAEC00F0176E186E040017501810D8
:104D3000D8B47AEF27F002011A51780FE96E0B0E02
:104D4000EA6AEA22EFCF13F004000101AD51135CCF
:104D50000001D8B027EF27F002011A51780FE96E51
:104D60000B0EEA6AEA22EFCF13F01328136E146ACF
:104D700014361A51780FE96E0B0EEA6AEA2213C054
:104D8000EFFF1A51780FE96E0B0EEA6AEA22EFCFB5
:104D900013F0040013500101AD5D0001D8A425EF0C
:104DA00027F0860EE96EEA6A0101F451000F000156
:104DB0000EEC00F0000ED8A4010E136E146A131E40
:104DC000141E860EE96EEA6A0101F451000F00011B
:104DD0000EEC00F013301CEC00F00101F451880FD0
:104DE000E96E0A0EEA6AEA22EFCF13F004001350CC
:104DF0003F080001D8A409EF27F0860EE96EEA6AA1
:104E00000101F451000F00010EEC00F0D8901CECF1
:104E100000F00101F451880FE96E0A0EEA6AEA22F5
:104E2000EFCF13F004001350AE5D0001D8A025EFC2
:104E300027F0860EE96EEA6A0101F451000F0001C5
:104E40000EEC00F0D8801CEC00F07AEF27F0860E14
:104E5000E96EEA6A0101F451000F00010EEC00F066
:104E6000000ED8A4010E136E146A010E016E026AC0
:104E700014C004F01350B8EC00F0D8A45EEF27F093
:104E8000A5ECE5F09A0E0101AF25136E146A1436F5
:104E90001306000E145AF951A00FE96E080EEA6AC3
:104EA000EA2213C0EFFFF9513C0FE96E080EEA6ADF
:104EB000EA22F4C1EFFF00017AEF27F0A5ECE5F05C
:104EC0009D0E0101AF25136E146A14361306000EF1
:104ED000145AF951A00FE96E080EEA6AEA2213C0CB
:104EE000EFFFF9513C0FE96E080EEA6AEA22F4C1BD
:104EF000EFFF00011200040002017151500800018F
:104F0000D8A4D8EF27F072C21FF20400080E0201E5
:104F10001F5D0001D8B0D8EF27F00101BD05136E69
:104F2000146A000E145A13C007F014C008F0080EDB
:104F3000036E046A0001EEEC00F0136E06C014F07C
:104F4000135002011F25236F096B00010400180E86
:104F50000201095D0001D8B0D8EF27F00201095124
:104F6000810FE96E020EEA6AEA22EFCF13F0040025
:104F70001350235D0001D8A4D3EF27F073C28CF146
:104F800074C28BF10201D8900935E96EEA6AEA36FB
:104F9000CB0EE926040EEA228BC1EFFF8CC1ECFF99
:104FA000170E096F00010201092B0001D8A0CED70E
:104FB00012000101D890B435E96EEA6AEA36040EAF
:104FC000E926090EEA22EFCF13F0ECCF14F013C05C
:104FD00001F014C002F0FD0E046EE70E0001A5EC16
:104FE00000F0D8A413EF28F00101D890B435E96E91
:104FF000EA6AEA36040EE926090EEA22EFCF13F038
:10500000ECCF14F0132A000E1422D890B435E96EB8
:10501000EA6AEA36040EE926090EEA2213C0EFFF17
:1050200014C0ECFF000112000201156B0001040026
:10503000140E0201155D0001D8B02BEF28F002011B
:105040001551580FE96E020EEA6AEA22EF6A152B33
:105050000001D8A0ECD71200040035AC5DEF28F0B9
:10506000020170514508D8A4E868FF0A136E715117
:105070004908D8A4E868FF0A156E13C001F015505E
:105080000001CAEC00F0156E166E040015501610E3
:10509000D8B45DEF28F0C8DF0201450E586F490E05
:1050A000596F5A6B6CC25BF26DC25CF26EC25DF2FC
:1050B0006FC25EF2000160EC78F066EC28F039EC2B
:1050C00029F03596AC8870ECD4F01200E86A35BA55
:1050D000E868136E02016C515208D8A4E868FF0A10
:1050E000156E13C001F015500001CAEC00F0156EEA
:1050F000166E040015501610D8B48AEF28F0A6C119
:105100005CF0210E5F6E0101AD0E9A6FA96B00017C
:10511000C9EF28F002016C514408D8A4E868FF0ADE
:10512000136E6C514F08D8A4E868FF0A156E13C0BF
:1051300001F015500001D1EC00F0156E166E020161
:105140006C515208D8A4E868FF0A176E1550161063
:10515000016E17500001D1EC00F0176E186E0400BC
:1051600017501810D8B4C0EF28F0A5C15CF0210E7C
:105170005F6E01019A6B010EA96F0001C9EF28F063
:10518000A4C15CF0020E5F6E01019A6B020EA96F62
:10519000000133945CC001F0000EA8EC00F0136E27
:1051A0005CC001F01E0EB2EC00F0156E13C001F0F1
:1051B0001550CAEC00F0156E166E0400155016104E
:1051C000D8B431EF29F00101010EC36F00010400D2
:1051D0000101C3515C5C0001D8A02FEF29F033849A
:1051E00002011F6B00010400040E02011F5D00019B
:1051F000D8B022EF29F05F500101C325136E146A65
:1052000014361304806F9A5102011F2501017F6F2C
:105210000001A7ECEFF002011F516C0FE96E020EC6
:10522000EA6AEA22EFCF13F004000101C051135CD7
:105230000001D8B41DEF29F0339402011F2B0001A7
:10524000D8A0D1D7040033A42AEF29F0C3C126F295
:105250005CC0C3F10101C32B0001D8A0B8D738EF5F
:1052600029F004001E0E5C5CD8A038EF29F05C6ABF
:105270001200040033B441EF29F066EC2CF061EF2A
:105280002AF00400020171514E080001D8A457EF22
:105290002AF0040035BC45EF2AF04E0E2CEC00F04D
:1052A000650E2CEC00F0770E2CEC00F0200E2CECB0
:1052B00000F06D0E2CEC00F06F0E2CEC00F0640E84
:1052C0002CEC00F0750E2CEC00F06C0E2CEC00F0C9
:1052D000650E2CEC00F0200E2CEC00F0770E2CEC80
:1052E00000F0690E2CEC00F0740E2CEC00F0680E4F
:1052F0002CEC00F0200E2CEC00F0640E2CEC00F0F6
:10530000750E2CEC00F0700E2CEC00F06C0E2CECFA
:1053100000F0690E2CEC00F0630E2CEC00F0610E36
:105320002CEC00F0740E2CEC00F0650E2CEC00F070
:10533000200E2CEC00F0490E2CEC00F0440E2CEC6E
:1053400000F0200E2CEC00F0660E2CEC00F06F0E3E
:105350002CEC00F0750E2CEC00F06E0E2CEC00F036
:10536000640E2CEC00F02C0E2CEC00F0200E2CEC3B
:1053700000F0670E2CEC00F0650E2CEC00F06E0EC9
:105380002CEC00F0650E2CEC00F0720E2CEC00F012
:10539000610E2CEC00F0740E2CEC00F0690E2CEC7D
:1053A00000F06E0E2CEC00F0670E2CEC00F0200EDE
:1053B0002CEC00F06E0E2CEC00F0650E2CEC00F0E6
:1053C000770E2CEC00F0200E2CEC00F0490E2CECAB
:1053D00000F0440E2CEC00F02C0E2CEC00F0200E13
:1053E0002CEC00F0700E2CEC00F06C0E2CEC00F0AD
:1053F000650E2CEC00F0610E2CEC00F0730E2CEC22
:1054000000F0650E2CEC00F0200E2CEC00F0700E7D
:105410002CEC00F0720E2CEC00F0650E2CEC00F081
:10542000730E2CEC00F0730E2CEC00F0200E2CEC24
:1054300000F0620E2CEC00F0750E2CEC00F0740EF7
:105440002CEC00F0740E2CEC00F06F0E2CEC00F045
:105450006E0E2CEC00F0200E2CEC00F0610E2CEC0B
:1054600000F0670E2CEC00F0610E2CEC00F0690EE1
:105470002CEC00F06E0E2CEC00F00D0E2CEC00F07D
:105480000A0E2CEC00F04DEF2AF014EC28F002018B
:10549000440E5F6F00012EEC2FF001011A0EB36F66
:1054A0000001CEEC60F070ECD4F061EF2AF0040063
:1054B00035BC5FEF2AF062EC2AF061EF2AF021ECB4
:1054C0002FF012000201701D5C6E6C514408D8A4CC
:1054D000E868FF0A136E6C514F08D8A4E868FF0A09
:1054E000156E13C001F015500001D1EC00F0156EDF
:1054F000166E02016C515208D8A4E868FF0A176EB4
:1055000015501610016E17500001D1EC00F0176E07
:10551000186E040017501810D8B409EF2BF06F0E56
:105520002CEC00F0750E2CEC00F0740E2CEC00F05E
:10553000700E2CEC00F0750E2CEC00F0740E2CECC0
:1055400000F0200E2CEC00F002016C5100012CEC5C
:1055500000F00A6A02012605136E146A000E145A3E
:1055600013C005F014C006F0560E116E126A000149
:1055700041EC00F0200E2CEC00F00A6A0201260536
:10558000136E146A000E145A13C007F014C008F00A
:10559000080E036E046A0001EEEC00F0136E06C004
:1055A00014F013C005F014C006F0560E116E126A06
:1055B00041EC00F02D0E2CEC00F03E0E2CEC00F037
:1055C0000A6A02012605136E146A000E145A13C0EB
:1055D00007F014C008F0080E036E046A0001EEEC38
:1055E00000F0136E06C014F0070E1326000E1422EE
:1055F00013C005F014C006F0560E116E126A41EC8D
:1056000000F00D0E2CEC00F00A0E2CEC00F065EF13
:105610002CF002016C514908D8A4E868FF0A136E07
:105620006C514208D8A4E868FF0A156E13C001F057
:1056300015500001D1EC00F0156E166E04001550E7
:105640001610D8B486EF2BF0690E2CEC00F06E0E1D
:105650002CEC00F0700E2CEC00F0750E2CEC00F031
:10566000740E2CEC00F0200E2CEC00F002016C51BA
:1056700000012CEC00F00A6A02012605136E146A80
:10568000000E145A13C005F014C006F0560E116E29
:10569000126A000141EC00F0200E2CEC00F00A6AC6
:1056A0009AC107F0086A080E036E046AEEEC00F077
:1056B000136E06C014F05F501326E86A142213C05C
:1056C00005F014C006F0560E116E126A41EC00F09F
:1056D000200E2CEC00F09AC107F0086A080E036E49
:1056E000046AEEEC00F0136E06C014F013505F2451
:1056F0005C6E0101080ED16F3896000188ECCBF08A
:1057000018ECCDF0BEECA5F065EF2CF00400020122
:105710006C514C080001D8A4D0EF2BF04F0E2CECAC
:1057200000F04C0E2CEC00F0450E2CEC00F0440E7A
:105730002CEC00F0200E2CEC00F0730E2CEC00F0A2
:10574000630E2CEC00F0720E2CEC00F0650E2CECCD
:1057500000F0650E2CEC00F06E0E2CEC00F0200E2C
:105760002CEC00F002016C5100012CEC00F00A6AF4
:1057700002012605136E146A000E145A13C005F0B8
:1057800014C006F0560E116E126A000141EC00F0D2
:105790000D0E2CEC00F00A0E2CEC00F065EF2CF056
:1057A000040002016C5154080001D8A41DEF2CF034
:1057B000540E2CEC00F0650E2CEC00F06D0E2CEC71
:1057C00000F0700E2CEC00F02F0E2CEC00F0480EC8
:1057D0002CEC00F0750E2CEC00F06D0E2CEC00F0B3
:1057E0002F0E2CEC00F0410E2CEC00F0440E2CECB3
:1057F00000F0430E2CEC00F0200E2CEC00F0020127
:105800006C5100012CEC00F00A6A02012605136EAF
:10581000146A000E145A13C005F014C006F0560E98
:10582000116E126A000141EC00F00D0E2CEC00F03C
:105830000A0E2CEC00F065EF2CF0040002016C5114
:1058400043080001D8A465EF2CF0430E2CEC00F0C7
:10585000410E2CEC00F04E0E2CEC00F0200E2CEC47
:1058600000F0430E2CEC00F06F0E2CEC00F06E0EEE
:105870002CEC00F0740E2CEC00F0720E2CEC00F00E
:105880006F0E2CEC00F06C0E2CEC00F0200E2CECCB
:1058900000F002016C5100012CEC00F00A6A0201D8
:1058A0002605136E146A000E145A13C005F014C0B6
:1058B00006F0560E116E126A000141EC00F00D0E5A
:1058C0002CEC00F00A0E2CEC00F0120004001D0E6F
:1058D0005C5CD8B01AEF2DF06CC258F202016C512A
:1058E0004908D8A4E868FF0A136E6C515408D8A47C
:1058F000E868FF0A156E13C001F015500001D1ECE5
:1059000000F0156E166E02016C514C08D8A4E868C0
:10591000FF0A176E15501610016E17500001D1ECDA
:1059200000F0176E186E02016C514F08D8A4E86899
:10593000FF0A196E17501810016E19500001D1ECB2
:1059400000F0196E1A6E02016C514408D8A4E86880
:10595000FF0A1B6E19501A10016E1B500001D1EC8A
:1059600000F01B6E1C6E02016C515208D8A4E8684E
:10597000FF0A1D6E1B501C10016E1D500001D1EC62
:1059800000F01D6E1E6E04001D501E10D8B4CBEF2B
:105990002CF0C4EC2DF002016C516908D8A4E86821
:1059A000FF0A136E6C516F08D8A4E868FF0A156EE1
:1059B00013C001F015500001D1EC00F0156E166E09
:1059C00002016C516408D8A4E868FF0A176E1550EC
:1059D0001610016E17500001D1EC00F0176E186E12
:1059E00002016C517208D8A4E868FF0A196E1750BA
:1059F0001810016E19500001D1EC00F0196E1A6EEA
:105A000002016C514308D8A4E868FF0A1B6E1950C4
:105A10001A10016E1B500001D1EC00F01B6E1C6EC1
:105A200004001B501C10D8B418EF2DF0C4EC2DF05E
:105A3000C3EF2DF0040035BCC3EF2DF04D0E2CEC60
:105A400000F0610E2CEC00F0780E2CEC00F0200E33
:105A50002CEC00F0230E2CEC00F0200E2CEC00F0CF
:105A60006F0E2CEC00F0660E2CEC00F0200E2CECEF
:105A700000F06D0E2CEC00F06F0E2CEC00F0640EBC
:105A80002CEC00F0750E2CEC00F06C0E2CEC00F001
:105A9000650E2CEC00F0730E2CEC00F0200E2CECBC
:105AA00000F0720E2CEC00F0650E2CEC00F0610E94
:105AB0002CEC00F0630E2CEC00F0680E2CEC00F0E7
:105AC000650E2CEC00F0640E2CEC00F0200E2CEC9B
:105AD00000F06F0E2CEC00F06E0E2CEC00F0200E9F
