:020000040000FA
:0400000090EF01F08C
:04000800ECEF03F026
:0800180039EF04F0096EF80B4A
:10002000E830E830E830E926D8B0EA2AD3EC00F02E
:10003000096EEF148DEF01F00950D8A0E86AEF18AF
:100040000914EF1A8DEF01F0E950A4A8FED7796EDC
:10005000D8808DEF01F0080E21B4010E046E036A02
:1000600027C0EAFF25C0E9FF231CEF16E988E92A2B
:10007000EC16070E01EC01F02350EF12060E01EC16
:1000800001F0235025C0E9FFEF14FF0F21A4033234
:1000900021B40336320E01EC01F0042EE5D70350F3
:1000A000D8808DEF01F0036E080E21B4010E046EAE
:1000B00027C0EAFF25C0E9FF231CEF16E988E92ADB
:1000C000EC16060E01EC01F023500332D8B0EF120B
:1000D000370E01EC01F02350EF12090E01EC01F094
:1000E000042EE8D7D8808DEF01F021A28DEF01F02A
:1000F00004D0216E21A08DEF01F027C0EAFF25502A
:10010000120FE96E2350EF1225C0E9FF231CEF16F2
:10011000E988E92AEC16010E026EE00E02EC01F00D
:100120002350EF12010E026EE00E02EF01F0219E4D
:100130000A50D8B4218E100E096EE86A05360636CC
:10014000E83421D80966F9D71200219E0A50D8B4A4
:10015000218E050E096E270E046E100E0CD8030EAC
:10016000046EE80E08D8046A640E05D8046A0A0E04
:1001700002D8055008D0036E0650026E0550016E7D
:1001800051EC01F00150016E094E219E0A5003E02E
:10019000095CD8B012000150D8A4219E21BE1200E3
:1001A000300F87EF01F0010E09B0E84409B2E844CE
:1001B00009B2E84409B4E83812007F6A7F807350BE
:1001C000744A752A8DEF01F0E86A736E7F6A7F8446
:1001D000550E7E6EAA0E7E6E7F827FB2FED77F9412
:1001E000744A752A8DEF01F0046A036EE86A03060B
:1001F000045AD8A08DEF01F0030E026EE70E02D86C
:10020000F5D7026AFE0F016E000000D000D0E86A48
:10021000025AD8A01200010600D000D0F5D7D8901D
:1002200001360236FF0FFBE201508DEF01F0D8904E
:1002300002320132FF0FFBE201508DEF01F0036E3D
:10024000020E13D0036E030E10D0026A046A036E0E
:10025000010E0BD0036E060E08D0026A046A036E0C
:10026000040E03D0046A036E050E096E0450025C8E
:1002700002E10350015C040ED8B0010ED8B4020EA6
:100280000914D8A4FF0E8DEF01F0E866FF0E0114EB
:10029000D8A4FF0E8DEF01F00110D8A4FF0E8DEF52
:1002A00001F0066A056A100E076E0234053606363E
:1002B0000350055E0450065A05E20350052604501B
:1002C0000622D89001360236072EEFD701508DEF67
:1002D00001F003500702F3CF05F0F4CF06F004500D
:1002E0000802F3CF01F0F4CF02F00702F350062624
:1002F000F4500122E86A022203500802F350062655
:10030000F4500122E86A022205508DEF01F0E96EF7
:10031000FB6A1250FA6E1150F96E000100001200D3
:10032000A00E7B6E200EBA6E900EA66E226A99EF1A
:1003300001F038987AEF02F038B8FAEF01F001C016
:1003400091F402C092F403C095F404C096F405C081
:1003500099F406C09AF407C09DF408C09EF409C041
:10036000A1F40AC0A2F40BC0A3F40CC0A4F40DC005
:10037000A5F40EC0A6F40FC0A7F410C0A8F411C0D5
:10038000A9F412C0AAF400C0ABF421C0ACF423C09D
:10039000ADF424C0AEF425C0AFF426C0B0F4F8CF5D
:1003A000CFF4F7CFD2F4F6CFD1F427C0B1F428C000
:1003B000B2F4F3CFD3F4F4CFD4F413C0B3F414C035
:1003C000B4F415C0B7F416C0B8F417C0BBF418C025
:1003D000BCF419C0BFF41AC0C0F41BC0C3F41CC0E5
:1003E000C4F41DC0C7F41EC0C8F41FC0CBF420C0A5
:1003F000CCF4388822B404EF02F02FC0FBFF2EC0EB
:10040000FAFF2D50E06AF96E2CC0FBFF2BC0FAFFFB
:100410002A50E06AF96E38A869EF02F091C401F041
:1004200092C402F095C403F096C404F099C405F098
:100430009AC406F09DC407F09EC408F0A1C409F058
:10044000A2C40AF0A3C40BF0A4C40CF0A5C40DF020
:10045000A6C40EF0A7C40FF0A8C410F0A9C411F0F0
:10046000AAC412F0ABC400F0ACC421F0ADC423F0B8
:10047000AEC424F0AFC425F0B0C426F0CFC4F8FF5A
:10048000D2C4F7FFD1C4F6FFB1C427F0B2C428F03C
:10049000D3C4F3FFD4C4F4FFB3C413F0B4C414F052
:1004A000B7C415F0B8C416F0BBC417F0BCC418F03C
:1004B000BFC419F0C0C41AF0C3C41BF0C4C41CF0FC
:1004C000C7C41DF0C8C41EF0CBC41FF0CCC420F0BC
:1004D000389822B473EF02F02FC0FBFF2EC0FAFF52
:1004E0002D50E06AF96E2CC0FBFF2BC0FAFF2A509A
:1004F000E06AF96E389A5BEF03F038BADBEF02F08E
:1005000001C0D6F402C0D7F403C0DAF404C0DBF4AF
:1005100005C0DEF406C0DFF407C0E2F408C0E3F46F
:1005200009C0E6F40AC0E7F40BC0E8F40CC0E9F433
:100530000DC0EAF40EC0EBF40FC0ECF410C0EDF403
:1005400011C0EEF412C0EFF400C0F0F421C0F1F4D9
:1005500023C0F2F424C0F3F425C0F4F426C0F5F46B
:10056000F8CF14F5F7CF17F5F6CF16F527C0F6F448
:1005700028C0F7F4F3CF18F5F4CF19F513C0F8F449
:1005800014C0F9F415C0FCF416C0FDF417C000F552
:1005900018C001F519C004F51AC005F51BC008F50F
:1005A0001CC009F51DC00CF51EC00DF51FC010F5CF
:1005B00020C011F5388A22B4E5EF02F02FC0FBFF0E
:1005C0002EC0FAFF2D50E06AF96E2CC0FBFF2BC045
:1005D000FAFF2A50E06AF96E38AA4AEF03F0D6C44F
:1005E00001F0D7C402F0DAC403F0DBC404F0DEC4C7
:1005F00005F0DFC406F0E2C407F0E3C408F0E6C487
:1006000009F0E7C40AF0E8C40BF0E9C40CF0EAC44E
:100610000DF0EBC40EF0ECC40FF0EDC410F0EEC41E
:1006200011F0EFC412F0F0C400F0F1C421F0F2C4F4
:1006300023F0F3C424F0F4C425F0F5C426F014C567
:10064000F8FF17C5F7FF16C5F6FFF6C427F0F7C485
:1006500028F018C5F3FF19C5F4FFF8C413F0F9C466
:1006600014F0FCC415F0FDC416F000C517F001C568
:1006700018F004C519F005C51AF008C51BF009C526
:100680001CF00CC51DF00DC51EF010C51FF011C5E6
:1006900020F0389A22B454EF03F02FC0FBFF2EC095
:1006A000FAFF2D50E06AF96E2CC0FBFF2BC0FAFF59
:1006B0002A50E06AF96ED390D3929B8CA79AA786B2
:1006C000A7987D6A8A0EAF6E100EAB6E040EAC6EEC
:1006D000B99AB986B9987C6A8A0E7B6EA66A040EAE
:1006E000BA6E030ED56E3A0ECD6E7F0ECA6E050E33
:1006F000886E0F015D6B5C6B9268CC0E936E980EEA
:10070000946E600E956EF80E966E00019E697D697E
:100710005F683798829A949A839895988480969087
:100720003498348E35803582358435863588C89046
:10073000C892C894C886C888C89AC89C280EC66E35
:10074000C78E866B34963492339A369E976B359A61
:100750003394996B986BA76B280EA75DD8B0C9EF3F
:1007600003F0A751690FE96E040EEA6AEA22EF6806
:10077000A751B10FE96E020EEA6AEA22EF68A751AB
:10078000410FE96E040EEA6AEA22EF6AA72BD8A0AD
:10079000E3D7369CBA6BBB6BBC6BBD6B0F0EBE6FE9
:1007A000170EBF6F1D0EC06F080EC16F1E0E526E6A
:1007B000536A506A516A8F6B906B8E6B4E6A4F6AA8
:1007C0003E6A3F6A4C6A4D6A406A416A4C0E936FBA
:1007D0003794379635EF04F0FBCF6FF0FACF6DF01A
:1007E000E9CF60F0EACF61F0E1CF64F0E2CF65F0ED
:1007F000D9CF68F0DACF69F022842290E06AB6AEF1
:1008000017EF04F0B7AE17EF04F022801C0E2A6E2B
:10081000080E2B6E000E2C6E9CEF01F02C0E2A6E33
:10082000080E2B6E000E2C6EF7EF07F0B79EE06AF5
:1008300022B0FDEF03F0460E2A6E080E2B6E000E5E
:100840002C6E0BEF02F0229460C0E9FF61C0EAFF5A
:1008500064C0E1FF65C0E2FF68C0D9FF69C0DAFF8C
:100860006DC0FAFF6FC0FBFF1100F28EF28C07EF34
:1008700005F0E8CF29F0D8CF71F0E0CF6CF0FBCFD6
:1008800070F0FACF6EF0E9CF62F0EACF63F0E1CF1B
:1008900066F0E2CF67F0D9CF6AF0DACF6BF022943E
:1008A000E06A229276A069EF04F077A069EF04F085
:1008B0002282C00E2D6E080E2E6E000E2F6E1DD6DB
:1008C000D00E2D6E080E2E6E000E2F6E4CEF08F01F
:1008D0007790E06A76A281EF04F077A281EF04F0CE
:1008E0002282F00E2D6E080E2E6E000E2F6E05D693
:1008F000000E2D6E090E2E6E000E2F6ECDEF08F03D
:100900007792E06AF2AA9AEF04F0F2A49AEF04F068
:100910002282220E2D6E090E2E6E000E2F6E7DEF9E
:1009200002F0320E2D6E090E2E6E000E2F6E53EF5A
:1009300007F0F294E06A9DA0B3EF04F09EA0B3EF3D
:1009400004F02282540E2D6E090E2E6E000E2F6EB4
:100950007DEF02F0640E2D6E090E2E6E000E2F6ECE
:1009600066EF07F09E90E06A9DA2CCEF04F09EA295
:10097000CCEF04F02282860E2D6E090E2E6E000E34
:100980002F6E7DEF02F0960E2D6E090E2E6E000E6C
:100990002F6EE2EF07F09E92E06A9DA6E4EF04F06E
:1009A0009EA6E4EF04F02282B80E2D6E090E2E6E84
:1009B000000E2F6E7DEF02F0C80E2D6E090E2E6E0A
:1009C000000E2F6EE2EF08F0E06A22B250EF04F062
:1009D000E00E2D6E090E2E6E000E2F6EECEF02F063
:1009E00062C0E9FF63C0EAFF66C0E1FF67C0E2FFE3
:1009F0006AC0D9FF6BC0DAFF70C0FBFF6EC0FAFFA0
:100A00006CC0E0FF29C0E8FF71C0D8FF1000D08E95
:100A1000F28CF194F28A9F909D809F929D82B88E75
:100A2000B68E78907680789276829F969D86D08ECC
:100A3000F29EF29CD66AD76ACE6ACF6AD59ECD90D6
:100A40009D82CA849D86F28CF28EAB9EAB989D9A55
:100A50009E9AAB98AC9AA68EA698BA8A7AEC29F0A0
:100A6000769876967694768076828B6BF28CF28E80
:100A7000756B486A496AA36B94699569AC69AD69FD
:100A8000A869A969AB697F698069736974693884E9
:100A90008C698D6BD0B650EF05F0388C51EF05F0B6
:100AA000389C0400826B060E825DD8B070EF05F0B2
:100AB0008251C70FE96E000EEA6AEA22EF6A82519C
:100AC000D30FE96E000EEA6AEA22EF6A8251CD0F77
:100AD000E96E000EEA6AEA22EF6A822BD8A0E3D719
:100AE00039EC14F00400A76B080EA75DD8B0D2EF64
:100AF00005F0A7C074FF756ADDEC00F0136E146A90
:100B0000A751E90FE96E000EEA6AEA2213C0EFFF6F
:100B1000530E25EC00F0770E25EC00F0690E25EC65
:100B200000F0740E25EC00F0630E25EC00F0680E6A
:100B300025EC00F06C0E25EC00F0690E25EC00F0C1
:100B40006E0E25EC00F06B0E25EC00F05B0E25EC34
:100B500000F00A6AA7C005F0066A480E116E126A14
:100B6000A5EC00F05D0E25EC00F03D0E25EC00F04C
:100B70000A6AA751E90FE96E000EEA6AEA22EFCF8E
:100B800013F013C005F0066A480E116E126AA5EC48
:100B900000F00D0E25EC00F00A0E25EC00F0A72B5E
:100BA000D8A0A2D7080E746E756ADDEC00F0A46FB1
:100BB000090E746E756ADDEC00F0A56F530E25EC1E
:100BC00000F0650E25EC00F06E0E25EC00F0730EC3
:100BD00025EC00F06F0E25EC00F0720E25EC00F015
:100BE0006C0E25EC00F0690E25EC00F06E0E25EC85
:100BF00000F06B0E25EC00F03D0E25EC00F00A6ACB
:100C0000A4C005F0066A480E116E126AA5EC00F049
:100C10000D0E25EC00F00A0E25EC00F0530E25EC2D
:100C200000F0650E25EC00F06E0E25EC00F0730E62
:100C300025EC00F06F0E25EC00F0720E25EC00F0B4
:100C40006C0E25EC00F0690E25EC00F06E0E25EC24
:100C500000F06B0E25EC00F0320E25EC00F03D0E9E
:100C600025EC00F00A6AA5C005F0066A480E116E70
:100C7000126AA5EC00F00D0E25EC00F00A0E25EC32
:100C800000F0040036983694369A3392379E426AC2
:100C9000436A828A949ABDEC2DF037AA52EF06F08F
:100CA00032EC2FF038ACBCEF06F0570E25EC00F01C
:100CB000610E25EC00F0740E25EC00F0630E25ECBF
:100CC00000F0680E25EC00F0640E25EC00F06F0ECD
:100CD00025EC00F0670E25EC00F0200E25EC00F06E
:100CE000720E25EC00F0650E25EC00F0730E25EC7D
:100CF00000F0650E25EC00F0740E25EC00F00D0EF2
:100D000025EC00F00A0E25EC00F09951D90FE96EA0
:100D1000020EEA6AEA22040EEF6E9951010FE96EA3
:100D2000030EEA6AEA22040EEF6E9951290FE96E6A
:100D3000030EEA6AEA22E9C0EFFF9951510FE96E0A
:100D4000030EEA6AEA22EF6A9951690FE96E040E0E
:100D5000EA6AEA22EF6A9951410FE96E040EEA6AE3
:100D6000EA22EF6A9951190FE96E040EEA6AEA2243
:100D7000050EEF6EB9EC22F04F0E25EC00F0700E70
:100D800025EC00F0650E25EC00F06E0E25EC00F071
:100D90004D0E25EC00F06F0E25EC00F0740E25ECE6
:100DA00000F0690E25EC00F0630E25EC00F0730EE8
:100DB00025EC00F0200E25EC00F06D0E25EC00F087
:100DC000690E25EC00F0630E25EC00F0720E25ECA8
:100DD00000F06F0E25EC00F0200E25EC00F0430E25
:100DE00025EC00F0410E25EC00F04E0E25EC00F055
:100DF000200E25EC00F0460E25EC00F00A6A010EEC
:100E0000056E066A480E116E126AA5EC00F02E0EF1
:100E100025EC00F00A6A030E056E066A480E116E94
:100E2000126AA5EC00F02E0E25EC00F00A6A380ECE
:100E3000056E066A480E116E126AA5EC00F00D0EE2
:100E400025EC00F00A0E25EC00F00400DAEC29F0A5
:100E50000400AFEC2DF0040059EC29F0040068EC1C
:100E600029F00400FAEC08F00400C2EC22F00400BF
:100E700039EC27F00400E4EC2FF00400F0EC14F05F
:100E800004001AEC16F004007FEC2BF00400AEEC2A
:100E90002AF00400EDEC0AF0040068EC09F004000C
:100EA00004EC09F0D2D7D59EF29422B45FEF07F09C
:100EB0002FC0FBFF2EC0FAFF2D50E06AF96E2CC048
:100EC000FBFF2BC0FAFF2A50E06AF96ECD909E908E
:100ED000338AA6AECCEF07F0540E25EC00F0690E75
:100EE00025EC00F06D0E25EC00F0650E25EC00F011
:100EF000720E25EC00F0200E25EC00F0310E25ECF2
:100F000000F0200E25EC00F0690E25EC00F0320E0A
:100F100025EC00F0630E25EC00F0200E25EC00F02F
:100F2000450E25EC00F0520E25EC00F0520E25EC9B
:100F300000F04F0E25EC00F0520E25EC00F02C0EC8
:100F400025EC00F0200E25EC00F0690E25EC00F0F9
:100F5000320E25EC00F0630E25EC00F06D0E25EC52
:100F600000F06F0E25EC00F0640E25EC00F0650E2D
:100F700025EC00F03D0E25EC00F00A6A86C005F075
:100F8000066A480E116E126AA5EC00F00D0E25ECF3
:100F900000F00A0E25EC00F0379A482A000E49228C
:100FA000866B22B4DBEF07F02FC0FBFF2EC0FAFFE9
:100FB0002D50E06AF96E2CC0FBFF2BC0FAFF2A50BF
:100FC000E06AF96ECA949E923384CA8422B4F0EF28
:100FD00007F02FC0FBFF2EC0FAFF2D50E06AF96E1C
:100FE0002CC0FBFF2BC0FAFF2A50E06AF96EB79EB7
:100FF0008B51F10FE96E000EEA6AEA22EFCF88FF0B
:101000008B51D90FE96E000EEA6AEA22EFCF96F013
:1010100096B1848296A1849296B3848496A3849494
:1010200096B5838096A5839096B7838296A7839280
:1010300096B9838496A9839496BB838696AB839650
:1010400096BD828496AD829496BF828096AF829040
:10105000300EE96EEA6A8B51000F0EEC00F0D8B446
:101060008292D8A482828B2B080E8B5DD8A03AEF97
:1010700008F08B6B888422B445EF08F02FC0FBFF8B
:101080002EC0FAFF2D50E06AF96E2CC0FBFF2BC07A
:10109000FAFF2A50E06AF96E6F866F846F8266509D
:1010A0000008D8A4BAEF08F09851F90FE96E000EC5
:1010B000EA6AEA2266CFEFFF9851210FE96E010E2E
:1010C000EA6AEA2267CFEFFF9851490FE96E010EF5
:1010D000EA6AEA2268CFEFFF9851710FE96E010EBC
:1010E000EA6AEA2269CFEFFF9851990FE96E010E83
:1010F000EA6AEA226ACFEFFF9851C10FE96E010E4A
:10110000EA6AEA226BCFEFFF9851E90FE96E010E10
:10111000EA6AEA226CCFEFFF9851110FE96E020ED6
:10112000EA6AEA226DCFEFFF9851390FE96E020E9D
:10113000EA6AEA2265CFEFFF9851890FE96E020E45
:10114000EA6AEA2261CFEFFF9851610FE96E020E61
:10115000EA6AEA2262CFEFFF9851B10FE96E020E00
:10116000EA6AEA22EF6A280E985DD8B0B9EF08F073
:10117000982B368C609E779022B4C6EF08F02FC073
:10118000FBFF2EC0FAFF2D50E06AF96E2CC0FBFF6A
:101190002BC0FAFF2A50E06AF96E0F01309F779258
:1011A000000122B4DBEF08F02FC0FBFF2EC0FAFFD6
:1011B0002D50E06AF96E2CC0FBFF2BC0FAFF2A50BD
:1011C000E06AF96E9D96862B3486D66AD76A9E961B
:1011D0009D8622B4F3EF08F02FC0FBFF2EC0FAFF6C
:1011E0002D50E06AF96E2CC0FBFF2BC0FAFF2A508D
:1011F000E06AF96E010E715CD8A003EF09F0716A24
:10120000422A000E4322120033A008EF09F0756B4A
:10121000016A026A41C004F0405033EC01F0D8A4E6
:1012200067EF09F04C0E406E1D0E416E3390752B2A
:10123000430E25EC00F0410E25EC00F04E0E25EC9F
:1012400000F0200E25EC00F0620E25EC00F0750E8B
:1012500025EC00F0730E25EC00F0200E25EC00F0DC
:101260006E0E25EC00F06F0E25EC00F0740E25ECF0
:1012700000F0200E25EC00F06F0E25EC00F06B0E58
:1012800025EC00F0200E25EC00F02E0E25EC00F0F1
:101290002E0E25EC00F02E0E25EC00F0200E25EC95
:1012A00000F00A6A75C005F0066A480E116E126AEF
:1012B000A5EC00F00D0E25EC00F00A0E25EC00F078
:1012C000050E755DD8A067EF09F0756BFF00120081
:1012D000016A026A53C004F0525033EC01F0D8A402
:1012E00035EF0AF04CC001F04DC002F0720E046EF2
:1012F000600E2AEC01F0D8A481EF09F04C6A4D6A27
:101300008F6B8F510008D8A48AEF09F036EC0AF0F1
:1013100035EF0AF08F510108D8A4BAEF09F08E51C9
:101320000008D8A4A1EF09F05F689E69800E7D6F68
:101330001F0E526E536A010E8E6F39EC14F0B2EF2D
:1013400009F08E510108D8A4B2EF09F05F689E69D8
:101350007D69770E526E010E536E90C08FF08E6BCA
:1013600039EC14F0020E8E5DD8A0B8EF09F08E6B48
:1013700035EF0AF08F510208D8A4E6EF09F08E513C
:101380000008D8A4D0EF09F05F689E6B7D691F0E3E
:10139000526E536A010E8E6F39EC14F0DEEF09F0D5
:1013A0008E510108D8A4DEEF09F05F689E697D695F
:1013B0001F0E526E536A8E6B39EC14F0020E8E5D66
:1013C000D8A0E4EF09F08E6B35EF0AF08F510308D7
:1013D000D8A435EF0AF032AC02EF0AF05F50FF08F4
:1013E000D8A4F4EF09F0329E5F500008D8A4FAEFB9
:1013F00009F0328E32AEFEEF09F05F2A32BE02EF04
:101400000AF05F0637A019EF0AF09E51FF08D8A432
:101410000BEF0AF037929E510008D8A411EF0AF0A2
:10142000378237A215EF0AF09E2B37B219EF0AF078
:101430009E0733AC30EF0AF07D51FF08D8A422EFAD
:101440000AF0339E7D510008D8A428EF0AF0338EAD
:1014500033AE2CEF0AF07D2B33BE30EF0AF07D0760
:10146000020E526E536A39EC14F012008E510008CD
:10147000D8A44EEF0AF033A042EF0AF05F6A9E69EB
:1014800044EF0AF05F689E6B7D69290E526E536AC5
:10149000010E8E6F39EC14F0E6EF0AF08E51010860
:1014A000D8A45FEF0AF05F689E697D69360E526EC0
:1014B000536A020E8E6F39EC14F0E6EF0AF08E518B
:1014C0000208D8A481EF0AF034A46DEF0AF05F6837
:1014D0009E69800E7D6F78EF0AF037AA75EF0AF0EB
:1014E0009E697D695F6A78EF0AF0800E9E6F7D6964
:1014F000290E526E536A030E8E6F39EC14F0E6EF2C
:101500000AF08E510308D8A492EF0AF05F689E6932
:101510007D69360E526E536A040E8E6F39EC14F0EC
:10152000E6EF0AF08E510408D8A4ACEF0AF037AC0D
:101530009FEF0AF09E69800E7D6FA2EF0AF0800E89
:101540009E6F7D695F68290E526E536A050E8E6F1D
:1015500039EC14F0E6EF0AF08E510508D8A4BDEF7F
:101560000AF05F689E697D69360E526E536A060EF8
:101570008E6F39EC14F0E6EF0AF08E510608D8A40D
:10158000D7EF0AF037AECAEF0AF09E69800E7D6F82
:10159000CDEF0AF0800E9E6F7D695F68290E526E56
:1015A000536A070E8E6F39EC14F0E6EF0AF08E5195
:1015B0000708D8A4E6EF0AF05F689E697D69E20E2D
:1015C000526E040E536E8E6B39EC14F0080E8E5D65
:1015D000D8A0ECEF0AF08E6B120083AAFEEF0AF09F
:1015E0004F0E25EC00F0430E25EC00F00D0E25EC1F
:1015F00000F00A0E25EC00F0FEEF0AF0120033ECCA
:1016000014F0810E256E0F0E276E010E236E010E53
:1016100079EC00F0330E53EC00F075EC00F036EC92
:1016200014F033EC14F0810E256E0F0E276E010EB0
:10163000236E000E79EC00F02BEC00F0E16F2BEC48
:1016400000F0E26F2BEC00F0E36F2BEC00F0E46FA6
:101650002BEC00F0E56F2BEC00F0E66F2BEC00F0CC
:10166000E76F2BEC00F0E86F75EC00F036EC14F04F
:10167000520E25EC00F04F0E25EC00F04D0E25EC3F
:1016800000F03A0E25EC00F0200E25EC00F00A6A7E
:10169000E1C005F0066A480E116E126AA5EC00F072
:1016A000200E25EC00F00A6AE2C005F0066A480E3A
:1016B000116E126AA5EC00F0200E25EC00F00A6A0B
:1016C000E3C005F0066A480E116E126AA5EC00F040
:1016D000200E25EC00F00A6AE4C005F0066A480E08
:1016E000116E126AA5EC00F0200E25EC00F00A6ADB
:1016F000E5C005F0066A480E116E126AA5EC00F00E
:10170000200E25EC00F00A6AE6C005F0066A480ED5
:10171000116E126AA5EC00F0200E25EC00F00A6AAA
:10172000E7C005F0066A480E116E126AA5EC00F0DB
:10173000200E25EC00F00A6AE8C005F0066A480EA3
:10174000116E126AA5EC00F00D0E25EC00F00A0EE9
:1017500025EC00F0E151FF08D8A4E868FF0A136EF9
:10176000E251FF08D8A4E868FF0A156E13C001F023
:10177000155045EC01F0156E166EE351FF08D8A424
:10178000E868FF0A176E15501610016E175045ECE9
:1017900001F0176E186EE451FF08D8A4E868FF0A3C
:1017A000196E17501810016E195045EC01F0196EA2
:1017B0001A6E19501A10D8B4E2EF0BF03794379C18
:1017C000E3EF0BF03784E151FF08D8A4E868FF0A83
:1017D000136EE251FF08D8A4E868FF0A156E13C023
:1017E00001F0155045EC01F0156E166EE351FF083F
:1017F000D8A4E868FF0A176E15501610016E17502E
:1018000045EC01F0176E186EE451FF08D8A4E868A3
:10181000FF0A196E17501810016E195045EC01F0AF
:10182000196E1A6E19501A10D8B41BEF0CF03794B9
:10183000379C79EF0CF0E1511008D8A4E868FF0A52
:10184000136EE1512808D8A4E868FF0A156E13C08A
:1018500001F015504CEC01F0156E166E1550161077
:10186000D8B479EF0CF03784E1511008D8A45DEFBB
:101870000CF03298440E25EC00F0530E25EC00F0ED
:10188000310E25EC00F0380E25EC00F0280E25EC8A
:1018900000F0530E25EC00F0290E25EC00F0320E7E
:1018A00025EC00F0300E25EC00F00D0E25EC00F0DC
:1018B0000A0E25EC00F079EF0CF03288440E25EC8E
:1018C00000F0530E25EC00F0310E25EC00F0380E40
:1018D00025EC00F0420E25EC00F0320E25EC00F075
:1018E000300E25EC00F00D0E25EC00F00A0E25EC74
:1018F00000F0120033EC14F0810E256E0F0E276EEF
:10190000020E236E010E79EC00F0330E53EC00F062
:1019100075EC00F036EC14F033EC14F0810E256E0B
:101920000F0E276E020E236E000E79EC00F02BECEA
:1019300000F0E16F2BEC00F0E26F2BEC00F0E36FB6
:101940002BEC00F0E46F2BEC00F0E56F2BEC00F0DB
:10195000E66F2BEC00F0E76F2BEC00F0E86F75EC16
:1019600000F036EC14F0520E25EC00F04F0E25EC92
:1019700000F04D0E25EC00F03A0E25EC00F0200EA4
:1019800025EC00F00A6AE1C005F0066A480E116E07
:10199000126AA5EC00F0200E25EC00F00A6AE2C005
:1019A00005F0066A480E116E126AA5EC00F0200ED2
:1019B00025EC00F00A6AE3C005F0066A480E116ED5
:1019C000126AA5EC00F0200E25EC00F00A6AE4C0D3
:1019D00005F0066A480E116E126AA5EC00F0200EA2
:1019E00025EC00F00A6AE5C005F0066A480E116EA3
:1019F000126AA5EC00F0200E25EC00F00A6AE6C0A1
:101A000005F0066A480E116E126AA5EC00F0200E71
:101A100025EC00F00A6AE7C005F0066A480E116E70
:101A2000126AA5EC00F0200E25EC00F00A6AE8C06E
:101A300005F0066A480E116E126AA5EC00F00D0E54
:101A400025EC00F00A0E25EC00F0E151FF08D8A4C7
:101A5000E868FF0A136EE251FF08D8A4E868FF0A9D
:101A6000156E13C001F0155045EC01F0156E166EA1
:101A7000E351FF08D8A4E868FF0A176E1550161046
:101A8000016E175045EC01F0176E186EE451FF0817
:101A9000D8A4E868FF0A196E17501810016E195083
:101AA00045EC01F0196E1A6E19501A10D8B45DEF9A
:101AB0000DF03796379EBBEF0DF0E1511008D8A41A
:101AC000E868FF0A136EE1512808D8A4E868FF0A05
:101AD000156E13C001F015504CEC01F0156E166E2A
:101AE00015501610D8B4BBEF0DF03786E151100831
:101AF000D8A49FEF0DF0329A440E25EC00F0530E5F
:101B000025EC00F0310E25EC00F0380E25EC00F04D
:101B1000280E25EC00F0530E25EC00F0290E25ECE4
:101B200000F0320E25EC00F0300E25EC00F00D0E2A
:101B300025EC00F00A0E25EC00F0BBEF0DF0328A28
:101B4000440E25EC00F0530E25EC00F0310E25EC90
:101B500000F0380E25EC00F0420E25EC00F0320EBD
:101B600025EC00F0300E25EC00F00D0E25EC00F019
:101B70000A0E25EC00F0120037A4D4EF0DF033EC80
:101B800014F0810E256E0F0E276E010E236E010ECE
:101B900079EC00F0CC0E53EC00F0440E53EC00F066
:101BA00075EC00F036EC14F0120037A6EDEF0DF0F6
:101BB00033EC14F0810E256E0F0E276E020E236E8D
:101BC000010E79EC00F0CC0E53EC00F0440E53EC17
:101BD00000F075EC00F036EC14F0120037A466EF5C
:101BE00010F07B6B33EC14F0810E256E0F0E276E18
:101BF000010E236E010E79EC00F0CC0E53EC00F0D8
:101C0000BE0E53EC00F075EC00F036EC14F033EC43
:101C100014F0810E256E0F0E276E010E236E000E3E
:101C200079EC00F02BEC00F0546E2BEC00F0556ECC
:101C30002BEC00F0B56F75EC00F036EC14F0310EC3
:101C400025EC00F0770E25EC00F0690E25EC00F095
:101C5000720E25EC00F0650E25EC00F0200E25EC50
:101C600000F0530E25EC00F0650E25EC00F06E0E32
:101C700025EC00F0730E25EC00F06F0E25EC00F063
:101C8000720E25EC00F0320E25EC00F03A0E25EC39
:101C900000F0200E25EC00F00A6A54C005F0066A38
:101CA000480E116E126AA5EC00F0200E25EC00F033
:101CB0000A6A55C005F0066A480E116E126AA5EC54
:101CC00000F0200E25EC00F00A6AB5C005F0066AA7
:101CD000480E116E126AA5EC00F00D0E25EC00F016
:101CE0000A0E25EC00F0B551FF08D8B430EF10F023
:101CF000378CB66B95EC13F0E3EC12F0040EA85D94
:101D0000136E146A000E145AB4C001F0026A14C0B3
:101D100004F0135027EC01F0136E040EA825156E85
:101D2000166A1636B4C001F0026A16C004F01550E7
:101D30002FEC01F0156E13C001F0155045EC01F0C9
:101D4000156E166E15501610D8B459EF0FF0B4C0BA
:101D500001F0B90E2DEC01F0136EB4C001F0010ECC
:101D600025EC01F0156E13C001F0155045EC01F0A3
:101D7000156E166E15501610D8B412EF0FF0B4C0D1
:101D8000ACF0540E25EC00F0650E25EC00F06D0E65
:101D900025EC00F0700E25EC00F0320E25EC00F082
:101DA0003D0E25EC00F00A6AD890AC31136E146A2F
:101DB000200E135E000E145A13C005F014C006F076
:101DC000480E116E126AA5EC00F02C0E25EC00F006
:101DD0000A6AACC001F0026A020E036E046A51EC9A
:101DE00001F005C013F006C014F013C007F014C0D2
:101DF00008F0050E036E046A69EC01F0136E06C06C
:101E000014F013C005F014C006F0480E116E126AEB
:101E1000A5EC00F00D0E25EC00F00A0E25EC00F00C
:101E200057EF0FF0540E25EC00F0650E25EC00F096
:101E30006D0E25EC00F0700E25EC00F0320E25EC56
:101E400000F0200E25EC00F0770E25EC00F0720E6D
:101E500025EC00F06F0E25EC00F06E0E25EC00F086
:101E6000670E25EC00F0200E25EC00F0760E25EC38
:101E700000F0610E25EC00F06C0E25EC00F0750E04
:101E800025EC00F0650E25EC00F0200E25EC00F0AE
:101E90000A6AB4C005F0066A480E116E126AA5EC13
:101EA00000F00D0E25EC00F00A0E25EC00F02CEFF2
:101EB00010F0A851FF08D8A4B1EF0FF0B4C0ACF0F7
:101EC000540E25EC00F0650E25EC00F06D0E25ECAF
:101ED00000F0700E25EC00F0320E25EC00F03D0E07
:101EE00025EC00F00A6AD890AC31136E146A200E0B
:101EF000135E000E145A13C005F014C006F0480E0D
:101F0000116E126AA5EC00F02C0E25EC00F00A6AA6
:101F1000ACC001F0026A020E036E046A51EC01F0DB
:101F200005C013F006C014F013C007F014C008F089
:101F3000050E036E046A69EC01F0136E06C014F01E
:101F400013C005F014C006F0480E116E126AA5EC1D
:101F500000F00D0E25EC00F00A0E25EC00F02CEF41
:101F600010F0540E25EC00F0650E25EC00F06D0E1F
:101F700025EC00F0700E25EC00F0320E25EC00F0A0
:101F8000200E25EC00F0640E25EC00F0690E25EC27
:101F900000F0660E25EC00F0660E25EC00F0650EF4
:101FA00025EC00F0720E25EC00F0650E25EC00F03B
:101FB0006E0E25EC00F0630E25EC00F0650E25ECAE
:101FC00000F0200E25EC00F0740E25EC00F06F0EF2
:101FD00025EC00F06F0E25EC00F0200E25EC00F053
:101FE000620E25EC00F0690E25EC00F0670E25EC82
:101FF00000F02C0E25EC00F0200E25EC00F0690E10
:1020000025EC00F0670E25EC00F06E0E25EC00F0DC
:102010006F0E25EC00F0720E25EC00F0650E25EC3D
:1020200000F0200E25EC00F0760E25EC00F0610E9D
:1020300025EC00F06C0E25EC00F0750E25EC00F0A0
:10204000650E25EC00F0200E25EC00F00D0E25ECC1
:1020500000F00A0E25EC00F0B4C0A8F064EF10F018
:10206000379C530E25EC00F0650E25EC00F06E0E4B
:1020700025EC00F0730E25EC00F06F0E25EC00F05F
:10208000720E25EC00F0200E25EC00F0320E25EC4F
:1020900000F0200E25EC00F04E0E25EC00F04F0E67
:1020A00025EC00F0540E25EC00F0200E25EC00F09D
:1020B0004F0E25EC00F04B0E25EC00F00D0E25EC3C
:1020C00000F00A0E25EC00F067EF10F0AC6912008A
:1020D00037A6E1EF12F07B6B33EC14F0810E256E26
:1020E0000F0E276E020E236E010E79EC00F0CC0E5F
:1020F00053EC00F0BE0E53EC00F075EC00F036EC43
:1021000014F033EC14F0810E256E0F0E276E020EC4
:10211000236E000E79EC00F02BEC00F0546E2BECEB
:1021200000F0556E2BEC00F0B56F75EC00F036EC5E
:1021300014F0310E25EC00F0770E25EC00F0690E5E
:1021400025EC00F0720E25EC00F0650E25EC00F099
:10215000200E25EC00F0530E25EC00F0650E25EC6A
:1021600000F06E0E25EC00F0730E25EC00F06F0E03
:1021700025EC00F0720E25EC00F0330E25EC00F09B
:102180003A0E25EC00F0200E25EC00F00A6A54C04F
:1021900005F0066A480E116E126AA5EC00F0200EDA
:1021A00025EC00F00A6A55C005F0066A480E116E6B
:1021B000126AA5EC00F0200E25EC00F00A6AB5C00A
:1021C00005F0066A480E116E126AA5EC00F00D0EBD
:1021D00025EC00F00A0E25EC00F0B551FF08D8B44C
:1021E000ABEF12F0378E010EB66F95EC13F0E3EC07
:1021F00012F0040EA95D136E146A000E145AB4C0D6
:1022000001F0026A14C004F0135027EC01F0136EC1
:10221000040EA925156E166A1636B4C001F0026ABE
:1022200016C004F015502FEC01F0156E13C001F02C
:10223000155045EC01F0156E166E15501610D8B4F9
:10224000D4EF11F0B4C001F0B90E2DEC01F0136E13
:10225000B4C001F0010E25EC01F0156E13C001F0C1
:10226000155045EC01F0156E166E15501610D8B4C9
:102270008DEF11F0B4C0ADF0540E25EC00F0650EFA
:1022800025EC00F06D0E25EC00F0700E25EC00F052
:10229000330E25EC00F03D0E25EC00F00A6AD890D4
:1022A000AD31136E146A200E135E000E145A13C063
:1022B00005F014C006F0480E116E126AA5EC00F08D
:1022C0002C0E25EC00F00A6AADC001F0026A020E85
:1022D000036E046A51EC01F005C013F006C014F05F
:1022E00013C007F014C008F0050E036E046A69EC11
:1022F00001F0136E06C014F013C005F014C006F010
:10230000480E116E126AA5EC00F00D0E25EC00F0DF
:102310000A0E25EC00F0D2EF11F0540E25EC00F07F
:10232000650E25EC00F06D0E25EC00F0700E25EC2E
:1023300000F0330E25EC00F0200E25EC00F0770EB7
:1023400025EC00F0720E25EC00F06F0E25EC00F08D
:102350006E0E25EC00F0670E25EC00F0200E25EC4B
:1023600000F0760E25EC00F0610E25EC00F06C0E0E
:1023700025EC00F0750E25EC00F0650E25EC00F064
:10238000200E25EC00F00A6AB4C005F0066A480E7B
:10239000116E126AA5EC00F00D0E25EC00F00A0E8D
:1023A00025EC00F0A7EF12F0A951FF08D8A42CEFFC
:1023B00012F0B4C0ADF0540E25EC00F0650E25EC23
:1023C00000F06D0E25EC00F0700E25EC00F0330EE1
:1023D00025EC00F03D0E25EC00F00A6AD890AD31F6
:1023E000136E146A200E135E000E145A13C005F00B
:1023F00014C006F0480E116E126AA5EC00F02C0E07
:1024000025EC00F00A6AADC001F0026A020E036E0C
:10241000046A51EC01F005C013F006C014F013C0BB
:1024200007F014C008F0050E036E046A69EC01F0B1
:10243000136E06C014F013C005F014C006F0480E69
:10244000116E126AA5EC00F00D0E25EC00F00A0EDC
:1024500025EC00F0A7EF12F0540E25EC00F0650E0D
:1024600025EC00F06D0E25EC00F0700E25EC00F070
:10247000330E25EC00F0200E25EC00F0640E25EC68
:1024800000F0690E25EC00F0660E25EC00F0660EFB
:1024900025EC00F0650E25EC00F0720E25EC00F046
:1024A000650E25EC00F06E0E25EC00F0630E25ECB9
:1024B00000F0650E25EC00F0200E25EC00F0740E07
:1024C00025EC00F06F0E25EC00F06F0E25EC00F00F
:1024D000200E25EC00F0620E25EC00F0690E25ECD4
:1024E00000F0670E25EC00F02C0E25EC00F0200E1D
:1024F00025EC00F0690E25EC00F0670E25EC00F0ED
:102500006E0E25EC00F06F0E25EC00F0720E25EC3F
:1025100000F0650E25EC00F0200E25EC00F0760EA4
:1025200025EC00F0610E25EC00F06C0E25EC00F0BF
:10253000750E25EC00F0650E25EC00F0200E25EC64
:1025400000F00D0E25EC00F00A0E25EC00F0B4C0F2
:10255000A9F0DFEF12F0379E530E25EC00F0650E68
:1025600025EC00F06E0E25EC00F0730E25EC00F06B
:102570006F0E25EC00F0720E25EC00F0200E25EC1D
:1025800000F0330E25EC00F0200E25EC00F04E0E8E
:1025900025EC00F04F0E25EC00F0540E25EC00F079
:1025A000200E25EC00F04F0E25EC00F04B0E25EC34
:1025B00000F00D0E25EC00F00A0E25EC00F0E2EF25
:1025C00012F0AD691200530E25EC00F0790E25ECE7
:1025D00000F0730E25EC00F0740E25EC00F0650E93
:1025E00025EC00F06D0E25EC00F0200E25EC00F03F
:1025F000760E25EC00F0610E25EC00F06C0E25EC5B
:1026000000F0750E25EC00F0650E25EC00F0200EB4
:1026100025EC00F04F0E25EC00F04D0E25EC00F0FF
:102620003A0E25EC00F0200E25EC00F00A6AB4C04A
:1026300005F0066A480E116E126AA5EC00F0200E35
:1026400025EC00F02D0E25EC00F03E0E25EC00F000
:10265000200E25EC00F0400EB45DD8A03BEF13F047
:10266000D890B431136E146A200E135CB66F2B0E23
:10267000B56F43EF13F0B4514008B46FD890B43144
:10268000B66F2D0EB56FB451FF08D8A45CEF13F0F0
:102690002D0E25EC00F02D0E25EC00F02E0E25EC75
:1026A00000F02D0E25EC00F00D0E25EC00F00A0ECA
:1026B00025EC00F094EF13F0B55125EC00F0020E7C
:1026C0000A6EB6C005F0066A480E116E126AA5ECD5
:1026D00000F02E0E25EC00F00A6AB4C001F0026A88
:1026E000020E036E046A51EC01F005C013F006C03F
:1026F00014F013C007F014C008F0050E036E046A4E
:1027000069EC01F0136E06C014F013C005F014C09C
:1027100006F0480E116E126AA5EC00F00D0E25ECC5
:1027200000F00A0E25EC00F01200320EE96EEA6AA3
:10273000B651040F0EEC00F0000ED8A4010E136E7B
:10274000146A010E016E026A14C004F0135033ECD7
:1027500001F0D8A4C9EF13F054C001F0026A030ECF
:102760001AEC01F0546E55C001F0050E12EC01F0A8
:10277000B46FE00EB417B451541255C0B4F0D896EB
:10278000B4AFD886D8B6C8EF13F05568C9EF13F0C8
:10279000556A55500008D8A4DBEF13F0A90E545C1D
:1027A000D8B0D8EF13F0400E5424B46FD9EF13F023
:1027B000B469E6EF13F0C00E545CD8A0E5EF13F057
:1027C000C00E545CB46FE6EF13F0B469120054C04D
:1027D0007CF00CEC14F055C07CF00CEC14F0B0C0A4
:1027E0007CF00CEC14F0B1C07CF00CEC14F0A0C048
:1027F0007CF00CEC14F0A1C07CF00CEC14F077C071
:102800007CF00CEC14F076C07CF00CEC14F07AC088
:102810007CF00CEC14F01200876B080E875DD8B0CA
:1028200032EF14F07B517C19AA6FAAB13386AAA1AA
:102830003396D896AAA1D886D8B621EF14F0180EF0
:102840007B1B33B6338833A633987BB133867BA1A9
:10285000339633B87B8F33A87B9FD8907C33872BFC
:10286000D8A0DBD71200F29CF29E1200F28CF28EFE
:1028700012005E6A080E5E5CD8B0B7EF14F08A6B87
:10288000060E8A5DD8B063EF14F08A51C70FE96E67
:10289000000EEA6AEA22EFCFAEF0AEC001F0026AA3
:1028A0005E501AEC01F0AE6F310EE96EEA6A8A51A1
:1028B000000F0EEC00F0D890AEB1D8801CEC00F008
:1028C0008A2BD8A0DDD79EC001F0026A5E501AECB8
:1028D00001F0AE6FAEB1318CAEA1319C7DC001F084
:1028E000026A5E501AEC01F0AE6FAEB1318EAEA14D
:1028F000319E31B0AE8131A0AE9131B2AE8331A202
:10290000AE9331B4AE8531A4AE9531B6AE8731A663
:10291000AE9731B8AE8931A8AE9931BAAE8B31AA33
:10292000AE9B31BCAE8D31ACAE9D31BEAE8F31AE03
:10293000AE9F5E50D90FE96E000EEA6AEA22AEC081
:10294000EFFF5FC001F0026A5E501AEC01F0AE6F5B
:10295000300EE96EEA6A5E50000F0EEC00F0D8907F
:10296000AEB1D8801CEC00F05E2AD8A083D7040E4C
:10297000F16F0C0EF26F1C0EF36F3C0EF46F7C0EB9
:10298000F56F3D0EF66F7D0EF76F3F0EF86F12007C
:1029900092510008D8A4D7EF14F08251C70FE96E06
:1029A000000EEA6AEA228DC0EFFFEEEF14F09251BA
:1029B0008C5DD8B0E6EF14F08251C70FE96E000EBF
:1029C000EA6AEA228CC0EFFFEEEF14F08251C70FE3
:1029D000E96E000EEA6AEA2292C0EFFF4ADF1200B7
:1029E0005C6A040E5C5CD8B019EF16F05C50BA0F4C
:1029F000E96E000EEA6AEA22EFCF13F05C50BE0FD8
:102A0000E96E000EEA6AEA22EFCF15F01350155C6A
:102A1000D8B016EF16F05C50BA0FE96E000EEA6AF5
:102A2000EA22EF6A320EE96EEA6A5C50000F0EECA1
:102A300000F0000ED8A4010E136E146A010E016E90
:102A4000026A14C004F0135033EC01F0D8A435EF3F
:102A500015F0320EE96EEA6A5C50000F0EEC00F0E1
:102A6000D8901CEC00F03FEF15F0320EE96EEA6AE8
:102A70005C50000F0EEC00F0D8801CEC00F0389693
:102A8000826B060E825DD8B016EF16F08251D30F1E
:102A9000E96E000EEA6AEA22EFCF13F01350010844
:102AA000D8A4E868FF0A136E8251D30FE96E000EB6
:102AB000EA6AEA22EFCF15F015500208D8A4E868B8
:102AC000FF0A156E13C001F015504CEC01F0156EA5
:102AD000166E8251D30FE96E000EEA6AEA22EFCF3A
:102AE00017F017500308D8A4E868FF0A176E1550AE
:102AF0001610016E17504CEC01F0176E186E17503F
:102B00001810D8B4C8EF15F08251D30FE96E000E3B
:102B1000EA6AEA22EFCF13F05C28156E166A1636C1
:102B200015C001F016C002F0135032EC01F0D8A429
:102B3000C6EF15F0320EE96EEA6A5C50000F0EEC3B
:102B400000F0000ED8A4010E136E146A010E016E7F
:102B5000026A14C004F0135033EC01F0D8A4BCEFA7
:102B600015F08251CD0FE96E000EEA6AEA22EFCF2E
:102B700092F00EDFC5EF15F08251C70FE96E000E1F
:102B8000EA6AEA228DC0EFFF74DE388413EF16F094
:102B90008251D30FE96E000EEA6AEA22EFCF13F0FA
:102BA00013500408D8A413EF16F035ACFCEF15F061
:102BB00038B6DEEF15F0020E912738868251CD0F20
:102BC000E96E000EEA6AEA22EFCF13F09151135C2E
:102BD000D8B0FAEF15F08251CD0FE96E000EEA6A17
:102BE000EA22EFCF91F035ACF9EF15F0359CFAEF12
:102BF00015F0358C0FEF16F038B602EF16F0020E16
:102C0000915F3886FB0E915DD8A00FEF16F0916BA7
:102C100035AC0EEF16F0359C0FEF16F0358C91C0E9
:102C200092F0B6DE3884822BD8A02BD75C2AD8A0AD
:102C3000D8D6120038A43FEF16F03894826B060EF7
:102C4000825DD8B03DEF16F08251D30FE96E000ED1
:102C5000EA6AEA22EFCF13F013500008D8A43AEF43
:102C600016F08251CD0FE96E000EEA6AEA22EFCF2C
:102C700092F08EDE822BD8A0E2D75FEC19F0120022
:102C800082510008D8A447EF16F0848296928251B0
:102C90000108D8A44EEF16F084849694825102085D
:102CA000D8A455EF16F08380959082510308D8A4DC
:102CB0005CEF16F08382959282510408D8A463EFEA
:102CC00016F08384959482510508D8A46AEF16F013
:102CD00083869596120082510008D8A472EF16F0F0
:102CE0008492969282510108D8A479EF16F08494C8
:102CF000969482510208D8A480EF16F083909590A4
:102D000082510308D8A487EF16F0839295928251DE
:102D10000408D8A48EEF16F0839495948251050888
:102D2000D8A495EF16F0839695961200010E985D43
:102D3000D8A0BAEF16F0A76B9805136E146A000EB0
:102D4000145AA7C001F0026A14C004F0135027EC13
:102D500001F0D8A4B8EF16F0A751B10FE96E020E3A
:102D6000EA6AEA22EF68BDEC19F0A72BD8A0E4D7F5
:102D70006FEC23F01200A751390FE96E020EEA6AD8
:102D8000EA22EFCF13F013500208D8A4F5EF16F0A3
:102D9000A751F90FE96E000EEA6AEA22EFCF79F047
:102DA000A751210FE96E010EEA6AEA22EFCF13F074
:102DB0001350795DD8A4E9EF16F0390EE96EEA6A8E
:102DC000A751000F0EEC00F0D8901CEC00F0F3EFD0
:102DD00016F0390EE96EEA6AA751000F0EEC00F00A
:102DE000D8801CEC00F05EEF19F0A751390FE96EA6
:102DF000020EEA6AEA22EFCF13F013500308D8A4B8
:102E00003AEF17F0A751F90FE96E000EEA6AEA22CD
:102E1000EFCF13F0A751210FE96E010EEA6AEA2203
:102E2000EFCF15F013501524796FA751490FE96EB4
:102E3000010EEA6AEA22EFCF13F01350795DD8A4AD
:102E40002EEF17F0390EE96EEA6AA751000F0EEC6B
:102E500000F0D8901CEC00F038EF17F0390EE96E56
:102E6000EA6AA751000F0EEC00F0D8801CEC00F0CD
:102E70005EEF19F0A751390FE96E020EEA6AEA22F5
:102E8000EFCF13F013500408D8A48CEF17F0A7511C
:102E9000F90FE96E000EEA6AEA22EFCF13F0A751AC
:102EA000210FE96E010EEA6AEA22EFCF15F0135006
:102EB0001524156E166A1636A751490FE96E010ED4
:102EC000EA6AEA22EFCF17F015501724796FA7515D
:102ED000710FE96E010EEA6AEA22EFCF13F0135088
:102EE000795DD8A480EF17F0390EE96EEA6AA75130
:102EF000000F0EEC00F0D8901CEC00F08AEF17F0F9
:102F0000390EE96EEA6AA751000F0EEC00F0D88086
:102F10001CEC00F05EEF19F0A751390FE96E020EBC
:102F2000EA6AEA22EFCF13F013500508D8A4ECEFB9
:102F300017F0A751F90FE96E000EEA6AEA22EFCF07
:102F400013F0A751210FE96E010EEA6AEA22EFCFD2
:102F500015F013501524156E166A1636A751490F31
:102F6000E96E010EEA6AEA22EFCF17F01750152436
:102F7000176EE86A1620186EA751710FE96E010EE0
:102F8000EA6AEA22EFCF19F017501924796FA75196
:102F9000990FE96E010EEA6AEA22EFCF13F013509F
:102FA000795DD8A4E0EF17F0390EE96EEA6AA7510F
:102FB000000F0EEC00F0D8901CEC00F0EAEF17F0D8
:102FC000390EE96EEA6AA751000F0EEC00F0D880C6
:102FD0001CEC00F05EEF19F0A751390FE96E020EFC
:102FE000EA6AEA22EFCF13F013500608D8A45AEF8A
:102FF00018F0A751F90FE96E000EEA6AEA22EFCF46
:1030000013F0A751210FE96E010EEA6AEA22EFCF11
:1030100015F013501524156E166A1636A751490F70
:10302000E96E010EEA6AEA22EFCF17F01750152475
:10303000176EE86A1620186EA751710FE96E010E1F
:10304000EA6AEA22EFCF19F019501724196EE86ADC
:1030500018201A6EA751990FE96E010EEA6AEA224A
:10306000EFCF1BF019501B24796FA751C10FE96EE8
:10307000010EEA6AEA22EFCF13F01350795DD8A46B
:103080004EEF18F0390EE96EEA6AA751000F0EEC08
:1030900000F0D8901CEC00F058EF18F0390EE96EF3
:1030A000EA6AA751000F0EEC00F0D8801CEC00F08B
:1030B0005EEF19F0A751390FE96E020EEA6AEA22B3
:1030C000EFCF13F013500708D8A4D6EF18F0A7518C
:1030D000F90FE96E000EEA6AEA22EFCF13F0A7516A
:1030E000210FE96E010EEA6AEA22EFCF15F01350C4
:1030F0001524156E166A1636A751490FE96E010E92
:10310000EA6AEA22EFCF17F017501524176EE86A23
:103110001620186EA751710FE96E010EEA6AEA22B5
:10312000EFCF19F019501724196EE86A18201A6E9B
:10313000A751990FE96E010EEA6AEA22EFCF1BF060
:103140001B5019241B6EE86A1A201C6EA751C10F70
:10315000E96E010EEA6AEA22EFCF1DF01B501D2432
:10316000796FA751E90FE96E010EEA6AEA22EFCF03
:1031700013F01350795DD8A4CAEF18F0390EE96E38
:10318000EA6AA751000F0EEC00F0D8901CEC00F09A
:10319000D4EF18F0390EE96EEA6AA751000F0EEC71
:1031A00000F0D8801CEC00F05EEF19F0A751390F49
:1031B000E96E020EEA6AEA22EFCF13F01350080814
:1031C000D8A45EEF19F0A751F90FE96E000EEA6A74
:1031D000EA22EFCF13F0A751210FE96E010EEA6A40
:1031E000EA22EFCF15F013501524156E166A163625
:1031F000A751490FE96E010EEA6AEA22EFCF17F0F4
:1032000017501524176EE86A1620186EA751710F13
:10321000E96E010EEA6AEA22EFCF19F0195017247D
:10322000196EE86A18201A6EA751990FE96E010EFF
:10323000EA6AEA22EFCF1BF01B5019241B6EE86AE2
:103240001A201C6EA751C10FE96E010EEA6AEA222C
:10325000EFCF1DF01D501B241D6EE86A1C201E6E52
:10326000A751E90FE96E010EEA6AEA22EFCF1FF0DB
:103270001D501F24796FA751110FE96E020EEA6AE3
:10328000EA22EFCF13F01350795DD8A454EF19F070
:10329000390EE96EEA6AA751000F0EEC00F0D890E3
:1032A0001CEC00F05EEF19F0390EE96EEA6AA751E6
:1032B000000F0EEC00F0D8801CEC00F012008F51D3
:1032C0000308D8A4BCEF19F0CD518D5DD8A4E868EF
:1032D000FF0A136ECE518D5DD8A4E868FF0A156E03
:1032E00013C001F0155045EC01F0156E166ECF516C
:1032F0008D5DD8A4E868FF0A176E15501610016E90
:10330000175045EC01F0176E186ED0518D5DD8A4A2
:10331000E868FF0A196E17501810016E195045EC35
:1033200001F0196E1A6ED1518D5DD8A4E868FF0ABC
:103330001B6E19501A10016E1B5045EC01F01B6EEC
:103340001C6ED2518D5DD8A4E868FF0A1D6E1B501B
:103350001C10016E1D5045EC01F01D6E1E6E1D50BF
:103360001E10D8B4BCEF19F08F6B8E6B5F689E692E
:103370007D697D0E526E536A1200BBEC16F0390E59
:10338000E96EEA6AA751000F0EEC00F0000ED8A417
:10339000010E136E146A016A026A14C004F013501D
:1033A00033EC01F0D8A465EF20F0A751210FE96EAE
:1033B000010EEA6AEA22EFCF13F013500008D8A4F6
:1033C000ABEF1AF0430E25EC00F0410E25EC00F0B7
:1033D0004E0E25EC00F0200E25EC00F0620E25ECE0
:1033E00000F0750E25EC00F0730E25EC00F0200EB9
:1033F00025EC00F0770E25EC00F0720E25EC00F0C5
:103400006F0E25EC00F06E0E25EC00F0670E25EC3B
:1034100000F06C0E25EC00F0790E25EC00F0200E8B
:1034200025EC00F0630E25EC00F06F0E25EC00F0AB
:103430006E0E25EC00F06E0E25EC00F0650E25EC0E
:1034400000F0630E25EC00F0740E25EC00F0650E24
:1034500025EC00F0640E25EC00F02C0E25EC00F0BD
:10346000200E25EC00F0700E25EC00F06C0E25EC23
:1034700000F0650E25EC00F0610E25EC00F0730EF7
:1034800025EC00F0650E25EC00F0200E25EC00F098
:10349000720E25EC00F0650E25EC00F0630E25ECB5
:1034A00000F0680E25EC00F0650E25EC00F0630ED0
:1034B00025EC00F06B0E25EC00F0200E25EC00F062
:1034C000740E25EC00F0680E25EC00F0650E25EC7E
:1034D00000F0200E25EC00F04C0E25EC00F0200E44
:1034E00025EC00F0610E25EC00F06E0E25EC00F0EE
:1034F000640E25EC00F0200E25EC00F0480E25ECC3
:1035000000F0200E25EC00F0630E25EC00F06F0EAD
:1035100025EC00F06E0E25EC00F06E0E25EC00F0B0
:10352000650E25EC00F0630E25EC00F0740E25EC22
:1035300000F0690E25EC00F06F0E25EC00F06E0E29
:1035400025EC00F00D0E25EC00F00A0E25EC00F045
:10355000339065EF20F0A751210FE96E010EEA6A62
:10356000EA22EFCF13F013500108D8A4BCEF1AF0F1
:103570005EEC22F065EF20F0A751210FE96E010EFD
:10358000EA6AEA22EFCF13F013500208D8A48FEFB3
:103590001BF0A751490FE96E010EEA6AEA22EFCF4C
:1035A00013F01350A45DD8A42BEF1BF09951D90F41
:1035B000E96E020EEA6AEA22020EEF6E9951010FDD
:1035C000E96E030EEA6AEA22020EEF6E9951290FA4
:1035D000E96E030EEA6AEA22A4C0EFFF9951510F87
:1035E000E96E030EEA6AEA22ABC0EFFF9951790F48
:1035F000E96E030EEA6AEA227FC0EFFF9951A10F3C
:10360000E96E030EEA6AEA2273C0EFFF9951C90F0F
:10361000E96E030EEA6AEA22ACC0EFFF9951690F26
:10362000E96E040EEA6AEA22EF6A9951410FE96EE7
:10363000040EEA6AEA22EF6A9951190FE96E040E44
:10364000EA6AEA22080EEF6EB9EC22F033804C0EE3
:10365000406E1D0E416EA751490FE96E010EEA6AD8
:10366000EA22EFCF13F01350A55DD8A48DEF1BF025
:103670009951D90FE96E020EEA6AEA22020EEF6E44
:103680009951010FE96E030EEA6AEA22020EEF6E0B
:103690009951290FE96E030EEA6AEA22A5C0EFFFED
:1036A0009951510FE96E030EEA6AEA22ADC0EFFFAD
:1036B0009951790FE96E030EEA6AEA2280C0EFFFA2
:1036C0009951A10FE96E030EEA6AEA2274C0EFFF76
:1036D0009951C90FE96E030EEA6AEA22ADC0EFFF05
:1036E0009951690FE96E040EEA6AEA22EF6A99516C
:1036F000410FE96E040EEA6AEA22EF6A9951190F46
:10370000E96E040EEA6AEA22080EEF6EB9EC22F0C6
:1037100033804C0E406E1D0E416E65EF20F0A751B8
:10372000210FE96E010EEA6AEA22EFCF13F013507F
:103730000308D8A439EF1CF04C0E25EC00F0450E20
:1037400025EC00F0440E25EC00F0200E25EC00F0F6
:10375000530E25EC00F0450E25EC00F0540E25EC40
:1037600000F0200E25EC00F00A6AA751490FE96E1F
:10377000010EEA6AEA22EFCF13F013C005F0066AE1
:10378000480E116E126AA5EC00F0200E25EC00F038
:103790000A6AA751710FE96E010EEA6AEA22EFCFB9
:1037A00013F013C005F0066A480E116E126AA5ECFC
:1037B00000F0200E25EC00F00A6AA751990FE96E7F
:1037C000010EEA6AEA22EFCF13F013C005F0066A91
:1037D000480E116E126AA5EC00F00D0E25EC00F0FB
:1037E0000A0E25EC00F05C6A060E5C5CD8B032EF85
:1037F0001CF05C50E90FE96E000EEA6AEA22EFCF96
:1038000013F0A751490FE96E010EEA6AEA22EFCFE1
:1038100015F01350155CD8A42FEF1CF0A751710FB1
:10382000E96E010EEA6AEA22EFCF13F05C50CD0F89
:10383000E96E000EEA6AEA2213C0EFFFA751990F62
:10384000E96E010EEA6AEA22EFCF13F05C50D30F63
:10385000E96E000EEA6AEA2213C0EFFF38845C2AA0
:10386000D8A0C2D733804C0E406E1D0E416E65EF5E
:1038700020F0A751210FE96E010EEA6AEA22EFCF8C
:1038800013F013500408D8A460EF1DF0A751490F9E
:10389000E96E010EEA6AEA22EFCF13F01350A45D3D
:1038A000D8A4D2EF1CF0540E25EC00F0450E25EC08
:1038B00000F04D0E25EC00F0500E25EC00F0310E1E
:1038C00025EC00F0200E25EC00F0490E25EC00F070
:1038D0004E0E25EC00F0440E25EC00F0490E25ECD0
:1038E00000F0430E25EC00F0410E25EC00F0540EE4
:1038F00025EC00F0450E25EC00F0200E25EC00F044
:103900000A6AA4C005F0066A480E116E126AA5EC98
:1039100000F00D0E25EC00F00A0E25EC00F05C6ABC
:10392000060E5C5CD8B0BDEF1CF0A751710FE96EBC
:10393000010EEA6AEA22EFCF13F013500108D8A46F
:10394000ABEF1CF05C50CD0FE96E000EEA6AEA2284
:10395000EF68B2EF1CF05C50CD0FE96E000EEA6A22
:10396000EA22EF6A5C50D30FE96E000EEA6AEA229F
:10397000040EEF6E5C2AD8A0D3D738848FC090F0A5
:103980004C6A4D6A030E8F6F8E6B328C339C37906E
:103990005F689E697D69526A536A33804C0E406E3F
:1039A0001D0E416EA751490FE96E010EEA6AEA2227
:1039B000EFCF13F01350A55DD8A45EEF1DF0540EA9
:1039C00025EC00F0450E25EC00F04D0E25EC00F046
:1039D000500E25EC00F0320E25EC00F0200E25EC08
:1039E00000F0490E25EC00F04E0E25EC00F0440EE0
:1039F00025EC00F0490E25EC00F0430E25EC00F01C
:103A0000410E25EC00F0540E25EC00F0450E25EC9F
:103A100000F0200E25EC00F00A6AA5C005F0066A49
:103A2000480E116E126AA5EC00F00D0E25EC00F0A8
:103A30000A0E25EC00F05C6A060E5C5CD8B049EF1B
:103A40001DF0A751710FE96E010EEA6AEA22EFCF6D
:103A500013F013500108D8A437EF1DF05C50CD0FC0
:103A6000E96E000EEA6AEA22EF683EEF1DF05C5054
:103A7000CD0FE96E000EEA6AEA22EF6A5C50D30FBE
:103A8000E96E000EEA6AEA22040EEF6E5C2AD8A004
:103A9000D3D738848FC090F04C6A4D6A030E8F6F75
:103AA0008E6B328C339C37805F689E697D69526A69
:103AB000536A33804C0E406E1D0E416E65EF20F050
:103AC000A751210FE96E010EEA6AEA22EFCF13F047
:103AD00013500508D8A408EF1EF04C0E25EC00F09A
:103AE000450E25EC00F0440E25EC00F0200E25ECF0
:103AF00000F0490E25EC00F04E0E25EC00F0440ECF
:103B000025EC00F0490E25EC00F0430E25EC00F00A
:103B1000410E25EC00F0540E25EC00F0450E25EC8E
:103B200000F0200E25EC00F00A6AA751490FE96E5B
:103B3000010EEA6AEA22EFCF13F013C005F0066A1D
:103B4000480E116E126AA5EC00F0200E25EC00F074
:103B50000A6AA751710FE96E010EEA6AEA22EFCFF5
:103B600013F013C005F0066A480E116E126AA5EC38
:103B700000F0200E25EC00F00A6AA751990FE96EBB
:103B8000010EEA6AEA22EFCF13F013C005F0066ACD
:103B9000480E116E126AA5EC00F00D0E25EC00F037
:103BA0000A0E25EC00F05C6A060E5C5CD8B001EFF2
:103BB0001EF05C50E90FE96E000EEA6AEA22EFCFD0
:103BC00013F0A751490FE96E010EEA6AEA22EFCF1E
:103BD00015F01350155CD8A4FEEF1DF038848FC08B
:103BE00090F04C6A4D6A030E8F6F8E6B329C338C53
:103BF00037905F689E697D69526A536A5C2AD8A0D3
:103C0000D3D733804C0E406E1D0E416E65EF20F011
:103C1000A751210FE96E010EEA6AEA22EFCF13F0F5
:103C200013500608D8A4DCEF1EF0500E25EC00F06F
:103C3000490E25EC00F04E0E25EC00F0470E25EC69
:103C400000F0200E25EC00F00A6AA751490FE96E3A
:103C5000010EEA6AEA22EFCF13F013C005F0066AFC
:103C6000480E116E126AA5EC00F0200E25EC00F053
:103C70000A6AA751710FE96E010EEA6AEA22EFCFD4
:103C800013F013C005F0066A480E116E126AA5EC17
:103C900000F0200E25EC00F00A6AA751990FE96E9A
:103CA000010EEA6AEA22EFCF13F013C005F0066AAC
:103CB000480E116E126AA5EC00F00D0E25EC00F016
:103CC0000A0E25EC00F05C6A060E5C5CD8B0D5EFFD
:103CD0001EF05C50E90FE96E000EEA6AEA22EFCFAF
:103CE00013F0A751490FE96E010EEA6AEA22EFCFFD
:103CF00015F01350155CD8A4D2EF1EF09951D90FCE
:103D0000E96E020EEA6AEA22060EEF6E9951010F81
:103D1000E96E030EEA6AEA22060EEF6E5C50E90FC6
:103D2000E96E000EEA6AEA22EFCF13F09951290FEB
:103D3000E96E030EEA6AEA2213C0EFFF9951510FB0
:103D4000E96E030EEA6AEA22EF6A9951790FE96E89
:103D5000030EEA6AEA22EF6A9951A10FE96E030E97
:103D6000EA6AEA22EF6A9951C90FE96E030EEA6A1C
:103D7000EA22EF6A9951690FE96E040EEA6AEA22B3
:103D8000EF6A9951410FE96E040EEA6AEA22EF6A7E
:103D90009951190FE96E040EEA6AEA22060EEF6ED7
:103DA000B9EC22F05C2AD8A08FD733804C0E406E3D
:103DB0001D0E416E65EF20F0A751210FE96E010E37
:103DC000EA6AEA22EFCF13F01350F808D8A43DEFC7
:103DD0001FF09951D90FE96E020EEA6AEA22F80E35
:103DE000EF6E9951010FE96E030EEA6AEA22F80EAE
:103DF000EF6E9951290FE96E030EEA6AEA224F0E1F
:103E0000EF6E9951510FE96E030EEA6AEA224B0EEA
:103E1000EF6E9951790FE96E030EEA6AEA22EF6AB2
:103E20009951A10FE96E030EEA6AEA22EF6A9951ED
:103E3000C90FE96E030EEA6AEA22EF6A9951690F27
:103E4000E96E040EEA6AEA22EF6A9951410FE96EBF
:103E5000040EEA6AEA22EF6A9951190FE96E040E1C
:103E6000EA6AEA22060EEF6EB9EC22F033804C0EBD
:103E7000406E1D0E416E65EF20F0A751210FE96ED7
:103E8000010EEA6AEA22EFCF13F01350F908D8A422
:103E90004FEF1FF0050E486E496A65EF20F0A751FD
:103EA000210FE96E010EEA6AEA22EFCF13F01350F8
:103EB000FA08D8A46FEF1FF0A751710FE96E010E39
:103EC000EA6AEA22EFCF8DF0A751990FE96E010E51
:103ED000EA6AEA22EFCF8CF0388465EF20F0A75130
:103EE000210FE96E010EEA6AEA22EFCF13F01350B8
:103EF000FB08D8A4A3EF1FF05C6A060E5C5CD8B088
:103F000093EF1FF05C50CD0FE96E000EEA6AEA22D3
:103F1000EF6A5C50D30FE96E000EEA6AEA22EF6A9C
:103F20005C2AD8A0EAD738848F6B8E6B5F689E6955
:103F30007D697D0E526E536A3380600E406EEA0ECC
:103F4000416E65EF20F0A751210FE96E010EEA6A7C
:103F5000EA22EFCF13F01350FC08D8A400EF20F0B2
:103F6000A751490FE96E010EEA6AEA22EFCF13F07A
:103F7000200E135CD8B0C5EF1FF0A751490FE96EB2
:103F8000010EEA6AEA22EFCF95F095510008D8A415
:103F9000E868FF0A136EA451FF08D8A4E868156EFC
:103FA000A551FF08D8A4E868176E15C001F0175096
:103FB0004CEC01F0176E186E13C001F0175018107A
:103FC00045EC01F0176E186E17501810D8B4F7EFC3
:103FD0001FF0A469080E746E756AFF0EE5EC00F020
:103FE000A569090E746E756AFF0EE5EC00F05EECD3
:103FF00022F033804C0E406E1D0E416E65EF20F0B6
:10400000A751210FE96E010EEA6AEA22EFCF13F001
:104010001350FD08D8A453EF20F0A751490FE96EC3
:10402000010EEA6AEA22EFCF13F0F00E135CD8B06B
:1040300022EF20F0A751490FE96E010EEA6AEA2249
:10404000EFCF94F094510008D8A44AEF20F09A6B77
:10405000080E9A5DD8B04AEF20F09A51E90FE96E48
:10406000000EEA6AEA22EFCF13F01350FF08D8B42B
:1040700047EF20F09A51E90FE96E000EEA6AEA2252
:10408000EF689AC074FF756AFF0EE5EC00F09A2B9A
:10409000D8A0DED733804C0E406E1D0E416E5EEC14
:1040A00022F065EF20F0A751210FE96E010EEA6AB8
:1040B000EA22EFCF13F01350FE08D8A465EF20F0EA
:1040C00033804C0E406E1D0E416E12009951190F37
:1040D000E96E040EEA6AEA22EFCF13F013500208E9
:1040E000D8A485EF20F09951D90FE96E020EEA6A43
:1040F000EA22EFCF13F09951010FE96E030EEA6A3D
:10410000EA2213C0EFFF5DEF22F09951190FE96E1B
:10411000040EEA6AEA22EFCF13F013500308D8A482
:10412000B1EF20F09951D90FE96E020EEA6AEA2246
:10413000EFCF13F09951010FE96E030EEA6AEA22FC
:10414000EFCF15F013501524156E166A16369951D7
:10415000290FE96E030EEA6AEA2215C0EFFF5DEF50
:1041600022F09951190FE96E040EEA6AEA22EFCFA4
:1041700013F013500408D8A4EBEF20F09951D90F95
:10418000E96E020EEA6AEA22EFCF13F09951010FAD
:10419000E96E030EEA6AEA22EFCF15F013501524F8
:1041A000156E166A16369951290FE96E030EEA6AE2
:1041B000EA22EFCF17F017501524176EE86A162081
:1041C000186E9951510FE96E030EEA6AEA2217C080
:1041D000EFFF5DEF22F09951190FE96E040EEA6AC4
:1041E000EA22EFCF13F013500508D8A433EF21F0E3
:1041F0009951D90FE96E020EEA6AEA22EFCF13F065
:104200009951010FE96E030EEA6AEA22EFCF15F029
:1042100013501524156E166A16369951290FE96E3A
:10422000030EEA6AEA22EFCF17F017501524176E33
:10423000E86A1620186E9951510FE96E030EEA6A6A
:10424000EA22EFCF19F019501724196EE86A1820E6
:104250001A6E9951790FE96E030EEA6AEA2219C0C3
:10426000EFFF5DEF22F09951190FE96E040EEA6A33
:10427000EA22EFCF13F013500608D8A489EF21F0FB
:104280009951D90FE96E020EEA6AEA22EFCF13F0D4
:104290009951010FE96E030EEA6AEA22EFCF15F099
:1042A00013501524156E166A16369951290FE96EAA
:1042B000030EEA6AEA22EFCF17F017501524176EA3
:1042C000E86A1620186E9951510FE96E030EEA6ADA
:1042D000EA22EFCF19F019501724196EE86A182056
:1042E0001A6E9951790FE96E030EEA6AEA22EFCF4E
:1042F0001BF01B5019241B6EE86A1A201C6E995182
:10430000A10FE96E030EEA6AEA221BC0EFFF5DEF20
:1043100022F09951190FE96E040EEA6AEA22EFCFF2
:1043200013F013500708D8A4EDEF21F09951D90FDD
:10433000E96E020EEA6AEA22EFCF13F09951010FFB
:10434000E96E030EEA6AEA22EFCF15F01350152446
:10435000156E166A16369951290FE96E030EEA6A30
:10436000EA22EFCF17F017501524176EE86A1620CF
:10437000186E9951510FE96E030EEA6AEA22EFCFE7
:1043800019F019501724196EE86A18201A6E9951FD
:10439000790FE96E030EEA6AEA22EFCF1BF01B5099
:1043A00019241B6EE86A1A201C6E9951A10FE96E40
:1043B000030EEA6AEA22EFCF1DF01D501B241D6E8A
:1043C000E86A1C201E6E9951C90FE96E030EEA6A55
:1043D000EA221DC0EFFF5DEF22F09951190FE96E3F
:1043E000040EEA6AEA22EFCF13F013500808D8A4AB
:1043F0005DEF22F09951D90FE96E020EEA6AEA22C6
:10440000EFCF13F09951010FE96E030EEA6AEA2229
:10441000EFCF15F013501524156E166A1636995104
:10442000290FE96E030EEA6AEA22EFCF17F0175060
:104430001524176EE86A1620186E9951510FE96E0F
:10444000030EEA6AEA22EFCF19F019501724196E09
:10445000E86A18201A6E9951790FE96E030EEA6A1C
:10446000EA22EFCF1BF01B5019241B6EE86A1A20BA
:104470001C6E9951A10FE96E030EEA6AEA22EFCF92
:104480001DF01D501B241D6EE86A1C201E6E9951E4
:10449000C90FE96E030EEA6AEA22EFCF1FF01F5040
:1044A0001D241F6EE86A1E20206E9951F10FE96EDF
:1044B000030EEA6AEA221FC0EFFF1200010E995DA7
:1044C000D8A0B8EF22F0B26B9905136E146A000EF3
:1044D000145AB2C001F0026A14C004F0135027EC61
:1044E00001F0D8A4B6EF22F0A751210FE96E010E1A
:1044F000EA6AEA22EFCF13F0B251010FE96E030E20
:10450000EA6AEA22EFCF15F01350155CD8A4E868E8
:10451000FF0A156EA751490FE96E010EEA6AEA22F9
:10452000EFCF17F0B251290FE96E030EEA6AEA22C3
:10453000EFCF19F01750195CD8A4E868FF0A196E7C
:1045400015C001F0195045EC01F0196E1A6E1950A2
:104550001A10D8B4B3EF22F0B251690FE96E040E0D
:10456000EA6AEA22EF68B22BD8A0AED79CEC23F01F
:10457000120066EC20F0280E995DD8B0C1EF22F051
:10458000992B1200010E995DD8A06EEF23F0D896FA
:104590000F0120B7D8860001D8B66EEF23F0A76BC5
:1045A0009905136E146A000E145AA7C001F0026A2E
:1045B00014C004F0135027EC01F0D8A46CEF23F0E2
:1045C000A751690FE96E040EEA6AEA22EFCF13F0F1
:1045D00013500008D8A469EF23F0A751690FE96EC2
:1045E000040EEA6AEA220A0EEF6E719071927194DB
:1045F000782B0F01216BC00E226F0001A751190FFC
:10460000E96E040EEA6AEA22EFCF25FFA751D90F1F
:10461000E96E020EEA6AEA22EFCF26FFA751010FE8
:10462000E96E030EEA6AEA22EFCF27FFA751290FAE
:10463000E96E030EEA6AEA22EFCF28FFA751510F75
:10464000E96E030EEA6AEA22EFCF29FFA751790F3C
:10465000E96E030EEA6AEA22EFCF2AFFA751A10F03
:10466000E96E030EEA6AEA22EFCF2BFFA751C90FCA
:10467000E96E030EEA6AEA22EFCF2CFFA751F10F91
:10468000E96E030EEA6AEA22EFCF2DFF0F012087C1
:104690000001A751410FE96E040EEA6AEA22EFCF4A
:1046A00013F013500008D8A45FEF23F0A751690F4F
:1046B000E96E040EEA6AEA22EF6867EF23F0A75179
:1046C000690FE96E040EEA6AEA220A0EEF6E990596
:1046D000A76FA72BD8A064D79CEC23F01200010E83
:1046E000985DD8A09BEF23F03892A76B9805136EC6
:1046F000146A000E145AA7C001F0026A14C004F034
:10470000135027EC01F0D8A497EF23F0A751B10F75
:10471000E96E020EEA6AEA22EFCF13F01350FF08A7
:10472000D8B494EF23F03882A72BD8A0DFD738B2C3
:104730009BEF23F0986B1200010E995DD8A0C8EF93
:1047400023F03892B36B9905136E146A000E145A55
:10475000B3C001F0026A14C004F0135027EC01F05A
:10476000D8A4C4EF23F0B351690FE96E040EEA6ACE
:10477000EA22EFCF13F01350FF08D8B4C1EF23F0B3
:104780003882B32BD8A0DFD738B2C8EF23F0996BAB
:1047900012009951D90FE96E020EEA6AEA22640EFC
:1047A000EF6E9951010FE96E030EEA6AEA22FC0EE0
:1047B000EF6E9951290FE96E030EEA6AEA22EF6A59
:1047C0009951510FE96E030EEA6AEA22EF6A995194
:1047D000690FE96E040EEA6AEA22EF6A9951410F05
:1047E000E96E040EEA6AEA22030EEF6E9951190F80
:1047F000E96E040EEA6AEA22040EEF6EBADE1200D7
:104800009951D90FE96E020EEA6AEA22FC0EEF6EA8
:104810009951010FE96E030EEA6AEA22FC0EEF6E6F
:104820009951290FE96E030EEA6AEA2295C0EFFF5B
:104830009951510FE96E030EEA6AEA22EF6A995123
:10484000690FE96E040EEA6AEA22EF6A9951410F94
:10485000E96E040EEA6AEA22EF6A9951190FE96ECD
:10486000040EEA6AEA22040EEF6E83DE9951D90F34
:10487000E96E020EEA6AEA22EF6A9951010FE96EC7
:10488000030EEA6AEA22FC0EEF6E9951290FE96ED7
:10489000030EEA6AEA2295C0EFFF9951510FE96EC3
:1048A000030EEA6AEA22EF6A9951690FE96E040E73
:1048B000EA6AEA22EF6A9951410FE96E040EEA6A48
:1048C000EA22EF6A9951190FE96E040EEA6AEA22A8
:1048D000040EEF6E4EDE1200A4C001F01F0E25EC98
:1048E00001F0136EE86A37BAE868156EE86A37BCFB
:1048F000E868176E15C001F017504CEC01F0176E08
:10490000186E13C001F01750181045EC01F0176E27
:10491000186E17501810D8B4E8EF24F0200E955DEB
:10492000D8B0E7EF24F095C0A4F0080E746E756A55
:104930009551E5EC00F0952B63DF460E25EC00F079
:10494000690E25EC00F0720E25EC00F0730E25ECDC
:1049500000F0740E25EC00F0200E25EC00F0730E34
:1049600025EC00F0650E25EC00F06E0E25EC00F055
:10497000730E25EC00F06F0E25EC00F0720E25ECA6
:1049800000F0200E25EC00F0610E25EC00F0640E26
:1049900025EC00F0640E25EC00F0650E25EC00F02F
:1049A000640E25EC00F0200E25EC00F00A6A95C09C
:1049B00005F0066A480E116E126AA5EC00F00D0EA5
:1049C00025EC00F00A0E25EC00F0E8EF24F0E1DE23
:1049D000A5C001F01F0E25EC01F0136EE86A37BE8A
:1049E000E868156E13C001F0155045EC01F0156E26
:1049F000166E15501610D8B45BEF25F0200E955D9D
:104A0000D8B05AEF25F095C0A5F0090E746E756AFE
:104A10009551E5EC00F0952BF3DE530E25EC00F0FC
:104A2000650E25EC00F0630E25EC00F06F0E25EC12
:104A300000F06E0E25EC00F0640E25EC00F0200E68
:104A400025EC00F0730E25EC00F0650E25EC00F06F
:104A50006E0E25EC00F0730E25EC00F06F0E25ECC9
:104A600000F0720E25EC00F0200E25EC00F0610E37
:104A700025EC00F0640E25EC00F0640E25EC00F04F
:104A8000650E25EC00F0640E25EC00F0200E25EC00
:104A900000F00A6A95C005F0066A480E116E126AA7
:104AA000A5EC00F00D0E25EC00F00A0E25EC00F050
:104AB0005BEF25F06EDE1200F00E945DD8B0F1EFE2
:104AC00025F0080EA65DD8B0EFEF25F0A651E90F4E
:104AD000E96E000EEA6AEA22EFCF13F0F00E135CE3
:104AE000D8A0EFEF25F0A651E90FE96E000EEA6AB3
:104AF000EA2294C0EFFFA6C074FF756A9451E5ECFA
:104B000000F0942B9951D90FE96E020EEA6AEA225D
:104B1000FD0EEF6E9951010FE96E030EEA6AEA226B
:104B2000FD0EEF6E9951290FE96E030EEA6AEA2233
:104B300094C0EFFF9951510FE96E030EEA6AEA2221
:104B4000EF6A9951690FE96E040EEA6AEA22EF6A88
:104B50009951410FE96E040EEA6AEA22EF6A99510F
:104B6000190FE96E040EEA6AEA22040EEF6EB9EC40
:104B700022F09951D90FE96E020EEA6AEA22EF6A31
:104B80009951010FE96E030EEA6AEA22FD0EEF6EFB
:104B90009951290FE96E030EEA6AEA2294C0EFFFE9
:104BA0009951510FE96E030EEA6AEA22EF6A9951B0
:104BB000690FE96E040EEA6AEA22EF6A9951410F21
:104BC000E96E040EEA6AEA22EF6A9951190FE96E5A
:104BD000040EEA6AEA22040EEF6EB9EC22F028EF26
:104BE00026F09951D90FE96E020EEA6AEA22640EA4
:104BF000EF6E9951010FE96E030EEA6AEA22FD0E8B
:104C0000EF6E9951290FE96E030EEA6AEA22EF6A04
:104C10009951510FE96E030EEA6AEA22EF6A99513F
:104C2000690FE96E040EEA6AEA22EF6A9951410FB0
:104C3000E96E040EEA6AEA22030EEF6E9951190F2B
:104C4000E96E040EEA6AEA22040EEF6EB9EC22F075
:104C500012009951D90FE96E020EEA6AEA22010E9A
:104C6000EF6E9951010FE96E030EEA6AEA22010E16
:104C7000EF6EA651E90FE96E000EEA6AEA22EFCF65
:104C800013F09951290FE96E030EEA6AEA2213C064
:104C9000EFFF9951510FE96E030EEA6AEA22EF6ABB
:104CA0009951690FE96E040EEA6AEA22EF6A995196
:104CB000410FE96E040EEA6AEA22EF6A9951190F70
:104CC000E96E040EEA6AEA22050EEF6E530E25EC39
:104CD00000F0770E25EC00F0690E25EC00F0740E64
:104CE00025EC00F0630E25EC00F0680E25EC00F0DA
:104CF000200E25EC00F00A6AA629136E146A1436F9
:104D000013C005F014C006F0480E116E126AA5EC2F
:104D100000F0200E25EC00F04F0E25EC00F04E0EBA
:104D200025EC00F0200E25EC00F0280E25EC00F01C
:104D3000430E25EC00F0530E25EC00F0430E25EC5D
:104D400000F03D0E25EC00F00A6A42C005F043C0B9
:104D500006F0480E116E126AA5EC00F0290E25EC43
:104D600000F00D0E25EC00F00A0E25EC00F0B9EC79
:104D700022F08FC090F0010E8F6F4C6A4D6A8E6BDF
:104D8000526A536A12009951D90FE96E020EEA6A0B
:104D9000EA22010EEF6E9951010FE96E030EEA6AE5
:104DA000EA22010EEF6EA651E90FE96E000EEA6AE3
:104DB000EA22EFCF13F09951290FE96E030EEA6A48
:104DC000EA2213C0EFFF9951510FE96E030EEA6A10
:104DD000EA22010EEF6E9951690FE96E040EEA6A3C
:104DE000EA22EF6A9951410FE96E040EEA6AEA225B
:104DF000EF6A9951190FE96E040EEA6AEA22050E6C
:104E0000EF6E530E25EC00F0770E25EC00F0690EE6
:104E100025EC00F0740E25EC00F0630E25EC00F09C
:104E2000680E25EC00F0200E25EC00F00A6AA62999
:104E3000136E146A143613C005F014C006F0480E41
:104E4000116E126AA5EC00F0200E25EC00F04F0E5A
:104E500025EC00F0460E25EC00F0460E25EC00F0A7
:104E60000D0E25EC00F00A0E25EC00F0B9EC22F056
:104E7000120033A4C9EF28F04E2A000E4F22BA2B9D
:104E8000BB2BBC2BBD2B3E2A000E3F224C2A000E12
:104E90004D22502A000E51224A2A000E4B2252C0A7
:104EA00001F053C002F0046A000E2AEC01F0D8A40D
:104EB0005DEF27F05206000E535A40C001F041C08A
:104EC00002F0046A000E2AEC01F0D8A46BEF27F080
:104ED0004006000E415A3394E86A81B4E868136EC4
:104EE000E86A34AEE868156E13C001F0155045EC61
:104EF00001F0156E166E15501610D8B48AEF27F013
:104F0000A66B5CEC25F06CEC24F081B4348E81A4AB
:104F1000349E39DFE86A81A4E868136EE86A34BE1B
:104F2000E868156E13C001F0155045EC01F0156EE0
:104F3000166E15501610D8B4A4EF27F0A66B81B4E6
:104F4000348E81A4349E85DEE86A81B6E868136EEB
:104F5000E86A35A0E868156E13C001F0155045ECFD
:104F600001F0156E166E15501610D8B4C3EF27F069
:104F7000010EA66F5CEC25F06CEC24F081B6358058
:104F800081A6359000DFE86A81A6E868136EE86ABA
:104F900035B0E868156E13C001F0155045EC01F00E
:104FA000156E166E15501610D8B4DEEF27F0010EF0
:104FB000A66F81B6358081A635904BDEE86A80B653
:104FC000E868136EE86A35A2E868156E13C001F050
:104FD000155045EC01F0156E166E15501610D8B42C
:104FE000FDEF27F0020EA66F5CEC25F06CEC24F0D0
:104FF00080B6358280A63592C6DEE86A80A6E8686B
:10500000136EE86A35B2E868156E13C001F01550EA
:1050100045EC01F0156E166E15501610D8B418EF49
:1050200028F0020EA66F80B6358280A6359211DE7A
:10503000E86A80B4E868136EE86A35A4E868156E1B
:1050400013C001F0155045EC01F0156E166E1550A9
:105050001610D8B437EF28F0030EA66F5CEC25F0DD
:105060006CEC24F080B4358480A435948CDEE86A3E
:1050700080A4E868136EE86A35B4E868156E13C05A
:1050800001F0155045EC01F0156E166E1550161016
:10509000D8B453EF28F0030EA66F80B4358480A4F3
:1050A000359429EC26F0E86A80B2E868136EE86A65
:1050B00035A6E868156E13C001F0155045EC01F0F7
:1050C000156E166E15501610D8B472EF28F0040E37
:1050D000A66F5CEC25F06CEC24F080B2358680A2E3
:1050E000359651DEE86A80A2E868136EE86A35B644
:1050F000E868156E13C001F0155045EC01F0156E0F
:10510000166E15501610D8B48EEF28F0040EA66F48
:1051100080B2358680A2359629EC26F0E86A80B008
:10512000E868136EE86A35A8E868156E13C001F0E8
:10513000155045EC01F0156E166E15501610D8B4CA
:10514000ADEF28F0050EA66F5CEC25F06CEC24F0BA
:1051500080B0358880A0359816DEE86A80A0E868BF
:10516000136EE86A35B8E868156E13C001F0155083
:1051700045EC01F0156E166E15501610D8B4C9EF37
:1051800028F0050EA66F80B0358880A0359829ECF0
:1051900026F01200010E995DD8A058EF29F0A76BF8
:1051A0009905136E146A000E145AA7C001F0026A22
:1051B00014C004F0135027EC01F0D8A458EF29F0E4
:1051C000A751690FE96E040EEA6AEA22EFCF13F0E5
:1051D00013C001F0FF0E2DEC01F0136EA751690F03
:1051E000E96E040EEA6AEA22EFCF15F015C001F06D
:1051F000000E25EC01F0156E13C001F0155045ECC2
:1052000001F0156E166E15501610D8B455EF29F032
:10521000A751690FE96E040EEA6AEA22EFCF13F094
:105220001304136E146A000E145AA751690FE96E25
:10523000040EEA6AEA2213C0EFFFA751690FE96E74
:10524000040EEA6AEA22EFCF13F013500008D8A444
:1052500055EF29F0A751410FE96E040EEA6AEA22E0
:10526000EFCF13F0010E135CD8A04EEF29F0A75139
:10527000410FE96E040EEA6AEA22EFCF13F013043D
:10528000136E146A000E145AA751410FE96E040EF2
:10529000EA6AEA2213C0EFFF55EF29F0A751690F20
:1052A000E96E040EEA6AEA22EF68A72BD8A078D745
:1052B00012003EC001F03FC002F0046A050E2AEC65
:1052C00001F0D8A467EF29F03E6A3F6A63DF12005D
:1052D00036AC6EEF29F0369C96EC16F0D8960F019E
:1052E00030AFD8860001D8B679EF29F00F01309F92
:1052F000000112006F8EE86A6EBEE868136EE86AFD
:105300006EACE868156E13C001F0155045EC01F065
:10531000156E166EE86A6EAAE868176E15501610BC
:10532000016E175045EC01F0176E186E17501810EB
:10533000D8A49CEF29F0DFD70E010F0E436F980E13
:10534000446F030E456F708A7098726A600E606ECB
:105350000F01620E306F0E01F96BF86BFD6BFC6B89
:10536000E16BE06BE96BE86B6F9E6F9C6F9A0001DD
:10537000E86A6EAEE868136EE86A6EACE868156EAF
:1053800013C001F0155045EC01F0156E166EE86A79
:105390006EAAE868176E15501610016E175045EC8E
:1053A00001F0176E186E17501810D8A4D9EF29F015
:1053B000DFD7120035AAADEF2AF0AB98359A070E69
:1053C000975DD8A0ABEF2AF005016A5143080001B0
:1053D000D8A4EDEF29F0ABEF2AF005016A510008DF
:1053E000D8A4E868FF0A136E6B510008D8A4E868D7
:1053F000FF0A156E13C001F01550000145EC01F0D5
:10540000156E166E05016C510008D8A4E868FF0AF5
:10541000176E15501610016E1750000145EC01F083
:10542000176E186E05016D510008D8A4E868FF0AD0
:10543000196E17501810016E1950000145EC01F05B
:10544000196E1A6E19501A10D8B4ABEF2AF0050174
:105450006E514C08D8A4E868FF0A136E6F514C08CF
:10546000D8A4E868FF0A156E13C001F015500001BA
:1054700045EC01F0156E166E15501610D8B469EF94
:105480002AF093514908D8A467EF2AF04C0E25EC76
:1054900000F0690E25EC00F0760E25EC00F0650EAC
:1054A00025EC00F0200E25EC00F04D0E25EC00F070
:1054B0006F0E25EC00F0640E25EC00F0650E25EC77
:1054C00000F00D0E25EC00F00A0E25EC00F04C0E5D
:1054D000936F05016E514908D8A4E868FF0A136E5E
:1054E0006F514908D8A4E868FF0A156E13C001F08F
:1054F0001550000145EC01F0156E166E1550161092
:10550000D8B4ABEF2AF093514C08D8A4A9EF2AF0F5
:10551000490E25EC00F04E0E25EC00F0490E25EC6E
:1055200000F0540E25EC00F0200E25EC00F04D0E9E
:1055300025EC00F06F0E25EC00F0640E25EC00F079
:10554000650E25EC00F00D0E25EC00F00A0E25ECA2
:1055500000F0490E936F976BAB88120034B87EEF62
:105560002BF034A4E5EF2AF04EC001F04FC002F05A
:105570001F0E046E400E27EC01F0136EE86A37A888
:10558000E868156E13C001F0155045EC01F0156E7A
:10559000166E15501610D8B4D2EF2AF0378836861A
:1055A0004EEC30F04EC001F04FC002F02A0E046EF7
:1055B000F80E2AEC01F0D8A4E3EF2AF037984E6AEF
:1055C0004F6AF3EC30F07EEF2BF050C001F051C089
:1055D00002F0750E046E300E2AEC01F0D8A47EEFB6
:1055E0002BF0506A516AE86A37ACE868136EE86AD3
:1055F00037AEE868156E13C001F015504CEC01F0A1
:10560000156E166E15501610D8B47EEF2BF0430EA3
:1056100025EC00F0680E25EC00F0650E25EC00F09E
:10562000630E25EC00F06B0E25EC00F0200E25EC4F
:1056300000F0690E25EC00F0660E25EC00F0200E5F
:1056400025EC00F0610E25EC00F06E0E25EC00F06C
:10565000790E25EC00F0200E25EC00F06E0E25EC06
:1056600000F0650E25EC00F0770E25EC00F0200E22
:1056700025EC00F0730E25EC00F0650E25EC00F033
:105680006E0E25EC00F0730E25EC00F06F0E25EC8D
:1056900000F0720E25EC00F0730E25EC00F0200EE9
:1056A00025EC00F0630E25EC00F0610E25EC00F017
:1056B0006E0E25EC00F0200E25EC00F0620E25ECBD
:1056C00000F0650E25EC00F0200E25EC00F0660ED3
:1056D00025EC00F06F0E25EC00F0750E25EC00F0C7
:1056E0006E0E25EC00F0640E25EC00F00D0E25EC9E
:1056F00000F00A0E25EC00F0BDEC2DF01200E86A77
:1057000037B4E868136EE86A37B6E868156E13C0F8
:1057100001F015504CEC01F0156E166E1550161078
:10572000D8B42EEF2DF04EC001F04FC002F01D0E88
:10573000046E4C0E27EC01F0136EE86A36A4E8689C
:10574000156E13C001F0155045EC01F0156E166E84
:1057500015501610D8B4E5EF2BF03684310E25EC39
:1057600000F0570E25EC00F0690E25EC00F0720EEB
:1057700025EC00F0650E25EC00F0200E25EC00F085
:10578000540E25EC00F0650E25EC00F06D0E25ECB6
:1057900000F0700E25EC00F0200E25EC00F0430E1A
:1057A00025EC00F06F0E25EC00F06E0E25EC00F0FD
:1057B000760E25EC00F00D0E25EC00F00A0E25EC1F
:1057C00000F0BCEC0DF0D5EC0DF04EC001F04FC078
:1057D00002F0270E046E100E27EC01F0136EE86A3B
:1057E00036AAE868156E13C001F0155045EC01F0BB
:1057F000156E166E15501610D8B437EF2CF0368A89
:10580000310E25EC00F0570E25EC00F0690E25EC6A
:1058100000F0720E25EC00F0650E25EC00F0200E75
:1058200025EC00F0520E25EC00F0650E25EC00F0A2
:10583000610E25EC00F0640E25EC00F0200E25EC46
:1058400000F0540E25EC00F0650E25EC00F06D0E16
:1058500025EC00F0700E25EC00F00D0E25EC00F0AC
:105860000A0E25EC00F0EEEC0DF068EC10F04EC0E6
:1058700001F04FC002F0270E046ED80E27EC01F0A5
:10588000136EE86A33A2E868156E13C001F0155074
:1058900045EC01F0156E166E15501610D8B4E7EFF2
:1058A0002CF03382310E25EC00F0570E25EC00F081
:1058B000690E25EC00F0720E25EC00F0650E25EC6B
:1058C00000F0200E25EC00F0720E25EC00F0650EC5
:1058D00025EC00F0730E25EC00F0650E25EC00F0D1
:1058E000740E25EC00F0200E25EC00F00A6A000E84
:1058F00037B4010E056E066A480E116E126AA5ECE9
:1059000000F0200E25EC00F00A6A000E37BC010EF4
:10591000056E066A480E116E126AA5EC00F0200EA4
:1059200025EC00F00A6A000E37B6010E056E066A15
:10593000480E116E126AA5EC00F0200E25EC00F066
:105940000A6A000E37BE010E056E066A480E116E19
:10595000126AA5EC00F00D0E25EC00F00A0E25EC05
:1059600000F0E86A37B4E868136EE86A37ACE868B4
:10597000156E13C001F0155045EC01F0156E166E52
:1059800015501610D8B4C9EF2CF02FEC2DF0E7EF1E
:105990002CF0E86A37B6E868136EE86A37AEE86854
:1059A000156E13C001F0155045EC01F0156E166E22
:1059B00015501610D8B4E1EF2CF02FEC2DF0E7EFD6
:1059C0002CF04E6A4F6A369A3698369433924EC00F
:1059D00001F04FC002F0750E046E300E2AEC01F09B
:1059E000D8A42EEF2DF0310E25EC00F0570E25EC4B
:1059F00000F0690E25EC00F0720E25EC00F0650E4B
:105A000025EC00F0200E25EC00F04F0E25EC00F008
:105A1000750E25EC00F0740E25EC00F0700E25ECF0
:105A200000F0750E25EC00F0740E25EC00F0200E51
:105A300025EC00F04F0E25EC00F04E0E25EC00F0AA
:105A40000D0E25EC00F00A0E25EC00F04E6A4F6AB0
:105A5000369A3698369433926FEC2DF0120084907B
:105A6000969081989398819A939A8190939081923D
:105A7000939283889598310E25EC00F0770E25ECF3
:105A800000F0690E25EC00F0720E25EC00F0650EBA
:105A900025EC00F0200E25EC00F0700E25EC00F057
:105AA0006F0E25EC00F0770E25EC00F0650E25EC6E
:105AB00000F0720E25EC00F0200E25EC00F04F0EE9
:105AC00025EC00F0460E25EC00F0460E25EC00F02B
:105AD0000D0E25EC00F00A0E25EC00F01200818876
