:020000040000FA
:04000000A9EF3FF035
:040008007AEF03F098
:08001800C7EF03F0096EF80BBD
:10002000E830E830E830E926D8B0EA2A32EC00F0CF
:10003000096EEF14ECEF00F00950D8A0E86AEF1851
:100040000914EF1AECEF00F004009EA8FDD7AD6E86
:10005000D880ECEF00F00400A4A8FDD7796ED8801A
:10006000ECEF00F0010E09B0E84409B2E84409B22F
:10007000E84409B4E838120002500110D8B4012A4B
:10008000800E01B8021A01B4021A01B2021A023437
:1000900001360236ECEF00F07F6A7F807350744ABD
:1000A000752AECEF00F0E86A736E7F6A7F84550E64
:1000B0007E6EAA0E7E6E7F827FB2FED77F94744AD8
:1000C000752AECEF00F0046A036EE86A0306045A2E
:1000D000D8A0ECEF00F0030E026EE70E02D8F5D7C1
:1000E000026AFE0F016EE86A025AD8A012000400EC
:1000F000010600D0F8D7D89001360236FF0FFBE298
:100100000150ECEF00F0D89002320132FF0FFBE219
:100110000150ECEF00F0026A046A036E010E0AD08F
:10012000036E060E07D0026A046A036E040E02D044
:10013000036E050E096E0450025C02E10350015C7F
:10014000040ED8B0010ED8B4020E0914D8A4FF0EC4
:10015000ECEF00F0E866FF0E0114D8A4FF0EECEF00
:1001600000F00110D8A4FF0EECEF00F0066A056A5B
:10017000100E076E0234053606360350055E045035
:10018000065A05E20350052604500622D89001368F
:100190000236072EEFD70150ECEF00F003500702B4
:1001A000F3CF05F0F4CF06F004500802F3CF01F0CE
:1001B000F4CF02F00702F3500626F4500122E86A59
:1001C000022203500802F3500626F4500122E86A86
:1001D00002220550ECEF00F0000104001200030EB3
:1001E000AF6E200EAC6E900EAB6E030E7B6E200ECB
:1001F000BA6E900EA66E1E6AFEEF00F02F90D1EF41
:1002000001F004002FB058EF01F001C095F002C0DA
:1002100096F003C099F004C09AF005C09DF006C0A6
:100220009EF007C0A1F008C0A2F009C0A5F00AC066
:10023000A6F00BC0A7F00CC0A8F00DC0A9F00EC02E
:10024000AAF00FC0ABF010C0ACF011C0ADF012C0FE
:10025000AEF000C0AFF01DC0B0F01FC0B1F020C0C4
:10026000B2F021C0B3F022C0B4F0F8CFD3F0F7CF92
:10027000D6F0F6CFD5F023C0B5F024C0B6F0F3CF5A
:10028000D7F0F4CFD8F013C0B7F014C0B8F015C051
:10029000BBF016C0BCF017C0BFF018C0C0F019C04A
:1002A000C3F01AC0C4F01BC0C7F01CC0C8F02F8038
:1002B0001EB462EF01F02BC0FBFF2AC0FAFF2950E9
:1002C000E06AF96E28C0FBFF27C0FAFF2650E06AFB
:1002D000F96E04002FA0C0EF01F095C001F096C0A8
:1002E00002F099C003F09AC004F09DC005F09EC0D2
:1002F00006F0A1C007F0A2C008F0A5C009F0A6C092
:100300000AF0A7C00BF0A8C00CF0A9C00DF0AAC05D
:100310000EF0ABC00FF0ACC010F0ADC011F0AEC02D
:1003200012F0AFC000F0B0C01DF0B1C01FF0B2C0FD
:1003300020F0B3C021F0B4C022F0D3C0F8FFD6C083
:10034000F7FFD5C0F6FFB5C023F0B6C024F0D7C084
:10035000F3FFD8C0F4FFB7C013F0B8C014F0BBC0AF
:1003600015F0BCC016F0BFC017F0C0C018F0C3C075
:1003700019F0C4C01AF0C7C01BF0C8C01CF02F9001
:100380001EB4CAEF01F02BC0FBFF2AC0FAFF2950B0
:10039000E06AF96E28C0FBFF27C0FAFF2650E06A2A
:1003A000F96E2F92A4EF02F004002FB22BEF02F0AF
:1003B00001C0DAF002C0DBF003C0DEF004C0DFF001
:1003C00005C0E2F006C0E3F007C0E6F008C0E7F0C1
:1003D00009C0EAF00AC0EBF00BC0ECF00CC0EDF085
:1003E0000DC0EEF00EC0EFF00FC0F0F010C0F1F055
:1003F00011C0F2F012C0F3F000C0F4F01DC0F5F02F
:100400001FC0F6F020C0F7F021C0F8F022C0F9F0CC
:10041000F8CF18F1F7CF1BF1F6CF1AF123C0FAF09D
:1004200024C0FBF0F3CF1CF1F4CF1DF113C0FCF09E
:1004300014C0FDF015C000F116C001F117C004F1A1
:1004400018C005F119C008F11AC009F11BC00CF160
:100450001CC00DF12F821EB435EF02F02BC0FBFF44
:100460002AC0FAFF2950E06AF96E28C0FBFF27C0B6
:10047000FAFF2650E06AF96E04002FA293EF02F013
:10048000DAC001F0DBC002F0DEC003F0DFC004F030
:10049000E2C005F0E3C006F0E6C007F0E7C008F0F0
:1004A000EAC009F0EBC00AF0ECC00BF0EDC00CF0B4
:1004B000EEC00DF0EFC00EF0F0C00FF0F1C010F084
:1004C000F2C011F0F3C012F0F4C000F0F5C01DF05E
:1004D000F6C01FF0F7C020F0F8C021F0F9C022F0FC
:1004E00018C1F8FF1BC1F7FF1AC1F6FFFAC023F0CD
:1004F000FBC024F01CC1F3FF1DC1F4FFFCC013F0CE
:10050000FDC014F000C115F001C116F004C117F0D0
:1005100005C118F008C119F009C11AF00CC11BF08F
:100520000DC11CF02F921EB49DEF02F02BC0FBFFFB
:100530002AC0FAFF2950E06AF96E28C0FBFF27C0E5
:10054000FAFF2650E06AF96E0F015D6B5C6B506B31
:10055000010E046E900E000164EC00F0E86A80A2C7
:10056000E868136EE86A80A4E868156E13C001F0AD
:100570001550AAEC00F0156E166E040015501610FA
:10058000D8B4C5EF02F0030E3F6EE86A80A2E868B7
:10059000136EE86A80B4E868156E13C001F0155058
:1005A000AAEC00F0156E166E040015501610D8B4A3
:1005B000DCEF02F0040E3F6EE86A80B2E868136E6A
:1005C000E86A80A4E868156E13C001F01550AAEC23
:1005D00000F0156E166E040015501610D8B4F3EF27
:1005E00002F0050E3F6EE86A80B2E868136EE86AB2
:1005F00080B4E868156E13C001F01550AAEC00F045
:10060000156E166E040015501610D8B40AEF03F0DC
:10061000060E3F6E948E949C8494969404003F50F2
:100620000308D8A41AEF03F093829380959E959CBB
:100630001EEF03F0928A96809392939095989488F7
:100640009486949A95969594959295909494949274
:1006500094909398939A939692909394959AC88035
:10066000C882C894C896C898C88AC88C280EC66E16
:1006700083989598A79AA786A7987D6A560EAF6E1D
:10068000100EAB6E040EAC6E5D6A2E82526A386A32
:10069000396A2E902D9E756B2C9E406A0400080EC0
:1006A000405CD8B065EF03F04050850FE96E000E56
:1006B000EA6AEA22EF6840507D0FE96E000EEA6AAE
:1006C000EA22EF68402AD8A0E9D7486A2D962D94EF
:1006D0004C0E506E2E98566A2D9A486A2D964A6A8C
:1006E0002D9C5C6A2E9A2D802E963C6A0CEC10F0A4
:1006F000C3EF03F0FBCF6FF0FACF6DF0E9CF60F0FE
:10070000EACF61F0E1CF64F0E2CF65F0D9CF68F0D5
:10071000DACF69F01E841E90E06A9DAAA5EF03F06F
:100720009EAAA5EF03F01E8004003A0E266E070E67
:10073000276E000E286E01EF01F04A0E266E070E9E
:10074000276E000E286E6AEF05F0E06A1EB08BEF90
:1007500003F0620E266E070E276E000E286E69EFFC
:1007600001F01E9460C0E9FF61C0EAFF64C0E1FFD0
:1007700065C0E2FF68C0D9FF69C0DAFF6DC0FAFF4B
:100780006FC0FBFF1100F28EF28C4EEF04F0E8CF49
:1007900025F0D8CF71F0E0CF6CF0FBCF70F0FACF3E
:1007A0006EF0E9CF62F0EACF63F0E1CF66F0E2CF1E
:1007B00067F0D9CF6AF0DACF6BF01E94E06A1E9230
:1007C000F2AAF9EF03F0F2A4F9EF03F01E8204009D
:1007D000E00E296E070E2A6E000E2B6ED4EF01F08C
:1007E000F00E296E070E2A6E000E2B6EE1EF05F05B
:1007F000F294E06A9DA213EF04F09EA213EF04F0BE
:100800001E820400140E296E080E2A6E000E2B6E36
:10081000D4EF01F0240E296E080E2A6E000E2B6E06
:10082000F7EF05F09E92E06A9DA62CEF04F09EA6DD
:100830002CEF04F01E820400480E296E080E2A6E6A
:10084000000E2B6ED4EF01F0580E296E080E2A6EA2
:10085000000E2B6E9BEF06F0E06A1EB2DEEF03F097
:100860006E0E296E080E2A6E000E2B6E05D662C023
:10087000E9FF63C0EAFF66C0E1FF67C0E2FF6AC04C
:10088000D9FF6BC0DAFF70C0FBFF6EC0FAFF6CC00F
:10089000E0FF25C0E8FF71C0D8FF1000D08EF28CB9
:1008A000810ED56E7F0ECA6E9F8A9D8AF194F28A60
:1008B0009F929D829F969D86D66AD76AD58E9D828D
:1008C000CA849D86F28CF28EAB8EAB989D8A9E9ADE
:1008D000AB88AC8AB99AB986B9987C6A560E7B6E99
:1008E000100EA66E040EBA6E010E046E900E64EC2D
:1008F00000F0A68EA698A688BA8A5CEC0EF0746A00
:10090000756A4CEC00F04F6E010E746E756A4CEC1B
:1009100000F04B6E020E746E756A4CEC00F04C6E7B
:10092000030E746E756A4CEC00F04D6E040E746E1E
:10093000756A4CEC00F04E6E4B504F08D8A4E86836
:10094000136E4B505208D8A4E868156E13C001F01E
:100950001550AAEC00F0156E166E04001550161016
:10096000D8B4B5EF04F04F0E4B6E400E556E436891
:100970005DEC10F004003E500108D8A4C5EF04F06F
:10098000700E556E43685DEC10F0400E746E756A23
:100990004CEC00F0786F040078513F5CD8B4D7EF8E
:1009A00004F0400E746E756A3F5054EC00F0410E36
:1009B000746E756A4CEC00F0786F0400785103088F
:1009C000D8B4E9EF04F0410E746E756A030E54EC6E
:1009D00000F0420E746E756A4CEC00F0786F040003
:1009E00078510108D8B4FBEF04F0420E746E756ABA
:1009F000010E54EC00F0430E746E756A4CEC00F07E
:100A0000786F040078510008D8B40DEF05F0430E5C
:100A1000746E756A000E54EC00F04A0E746E756ABE
:100A20004CEC00F0786F040078510008D8B41FEF48
:100A300005F04A0E746E756A000E54EC00F04B0E11
:100A4000746E756A000E54EC00F080869296530E18
:100A50002BEC00F0740E2BEC00F0610E2BEC00F090
:100A6000720E2BEC00F0740E2BEC00F0750E2BECDC
:100A700000F0700E2BEC00F0200E2BEC00F0640E5A
:100A80002BEC00F06F0E2BEC00F06E0E2BEC00F058
:100A9000650E2BEC00F00D0E2BEC00F00A0E2BEC8B
:100AA00000F0B1EC06F07CEC0FF098EC0FF053EC9A
:100AB0000BF003EC09F0CEEC0EF0040050504908A6
:100AC000D8A465EF05F0B0EC0EF076EC0BF002EC7C
:100AD0000CF0E7D75BC05AF0AECF5BF004002EA855
:100AE000B4EF05F056501E0FE96E010EEA6AEA22D5
:100AF0005BC0EFFF5604596E59501E0FE96E010E90
:100B0000EA6AEA22EFCF13F013500D08D8A4E86880
:100B1000FF0A136E56501E0FE96E010EEA6AEA22B2
:100B2000EFCF15F015500A08D8A4E868FF0A156E33
:100B300013C001F01550AAEC00F0156E166E0400FB
:100B400015501610D8B4A8EF05F0AB982E982D8A42
:100B5000562A0400B30E565CD8A0B2EF05F0AB984D
:100B60002E982D8ACFEF05F05A505308D8A4E86884
:100B7000FF0A136E5B505408D8A4E868FF0A156E8C
:100B800013C001F01550AAEC00F0156E166E0400AB
:100B900015501610D8B4CFEF05F0566A2E88AB88E2
:100BA0001EB4DAEF05F02BC0FBFF2AC0FAFF295074
:100BB000E06AF96E28C0FBFF27C0FAFF2650E06A02
:100BC000F96ED59EF294486A010E3E6E1EB4F0EFA7
:100BD00005F02BC0FBFF2AC0FAFF2950E06AF96E2E
:100BE00028C0FBFF27C0FAFF2650E06AF96ECA94BE
:100BF0009E92752B040075511408D8A40FEF06F0CF
:100C0000808692962D9E38C001F039C002F0046AA9
:100C1000000E90EC00F0D8A40FEF06F02E80040038
:100C2000FA0E755DD8A040EF06F0756B809692962F
:100C30002D8E38C001F039C002F0046A000E90EC2D
:100C400000F0D8A425EF06F02E803C2A3CC001F02D
:100C5000050E8BEC00F0136EE86A2DB0E868156E97
:100C600013C001F01550AAEC00F0156E166E0400CA
:100C700015501610D8B440EF06F02E862D902E8019
:100C80000400010E4A5CD8A04EEF06F04A060400AC
:100C90004A500008D8A44EEF06F02D8C0400010E37
:100CA0005C5CD8A05CEF06F05C0604005C500008B9
:100CB000D8A45CEF06F02E8A38C001F039C002F0EB
:100CC000046A000E90EC00F0D8A46AEF06F0380633
:100CD000000E395AE86A2CBEE868136E30C001F085
:100CE00031C002F0046A000E8DEC00F0156E13C0E6
:100CF00001F01550AAEC00F0156E166E04001550A8
:100D00001610D8B487EF06F03006000E315A5E2A6E
:100D10002E8CCA841EB494EF06F02BC0FBFF2AC0B1
:100D2000FAFF2950E06AF96E28C0FBFF27C0FAFFDE
:100D30002650E06AF96E9D96482A2D869E969D86DD
:100D40001EB4AAEF06F02BC0FBFF2AC0FAFF295001
:100D5000E06AF96E28C0FBFF27C0FAFF2650E06A60
:100D6000F96E04002DAAEDEF07F0AB982D9A040060
:100D7000100E565CD8A0EBEF07F001011E514F0892
:100D8000D8A4E868FF0A136E1E515208D8A4E86878
:100D9000FF0A156E13C001F015500001B1EC00F010
:100DA000156E166E040015501610D8B4DCEF06F060
:100DB00013EC09F0EBEF07F001011E510008D8A475
:100DC000E868FF0A136E1F510008D8A4E868FF0AFC
:100DD000156E13C001F015500001AAEC00F0156E5D
:100DE000166E010120510008D8A4E868FF0A176EAA
:100DF00015501610016E17500001AAEC00F0176E86
:100E0000186E010121510008D8A4E868FF0A196E84
:100E100017501810016E19500001AAEC00F0196E5D
:100E20001A6E040019501A10D8B4BEEF07F0010171
:100E300022514C08D8A4E868FF0A136E23514C08CD
:100E4000D8A4E868FF0A156E13C001F01550000120
:100E5000AAEC00F0156E166E040015501610D8B4EA
:100E60003CEF07F0040050504908D8A43AEF07F0CF
:100E7000848296924C0E506E010122514908D8A4EA
:100E8000E868FF0A136E23514908D8A4E868FF0AEE
:100E9000156E13C001F015500001AAEC00F0156E9C
:100EA000166E040015501610D8B461EF07F0040058
:100EB00050504C08D8A45FEF07F084929692490EE8
:100EC000506E010122514E08D8A4E868FF0A136E43
:100ED00023514E08D8A4E868FF0A156E13C001F02C
:100EE00015500001AAEC00F0156E166E04001550A6
:100EF0001610D8B47EEF07F02E962E8001012251F5
:100F00005308D8A4E868FF0A136E23515308D8A4E5
:100F1000E868FF0A156E13C001F015500001AAEC35
:100F200000F0156E166E040015501610D8B49BEF25
:100F300007F02E862E80010122515408D8A4E868BB
:100F4000FF0A136E23514D08D8A4E868FF0A156EF6
:100F500013C001F015500001AAEC00F0156E166EDA
:100F6000040015501610D8B4BCEF07F049682E964F
:100F70008472969207EC08F0EBEF07F050504908A6
:100F8000D8A4E868FF0A136E01011E514108D8A4D5
:100F9000E868FF0A156E13C001F015500001AAECB5
:100FA00000F0156E166E01011F514408D8A4E868C0
:100FB000FF0A176E15501610016E17500001AAECAB
:100FC00000F0176E186E040017501810D8B4EBEF2D
:100FD00007F0A1EC0FF0566AAB88120004003F50F6
:100FE0000308D8A4FEEF07F081B22C8A81A22C9AC4
:100FF00081B02C8C81A02C9C06EF08F080BA2C8A42
:1010000080AA2C9A84B02C8C84A02C9C1200040002
:101010000101245156080001D8A44EEF08F083883E
:101020009598410E24EC00F0410E24EC00F0410EA6
:1010300024EC00F0520E24EC00F0430E24EC00F0FF
:10104000000E24EC00F0000E24EC00F0000E24EC66
:1010500000F0000E24EC00F0560E24EC00F04B5093
:1010600024EC00F03F5024EC00F0030E24EC00F0E0
:10107000010E24EC00F0000E24EC00F00D0E24EC28
:1010800000F00A0E24EC00F00D0E24EC00F00A0E25
:1010900024EC00F08398959802EF09F00400010118
:1010A000245153080001D8A481EF08F0516A406A26
:1010B0000400080E405CD8B07DEF08F0070E402415
:1010C000136E146A143613501E0FE96E010E1420AD
:1010D000EA6EEFCF13F00400010E135CD8A07AEF94
:1010E00008F0800E016E026A405086EC00F0786FC6
:1010F00078515112402AD8A0DBD7A5EC0DF002EFB1
:1011000009F004000101245142080001D8A402EFB3
:1011100009F064DF838895980400010125510108D6
:101120000001D8A4C6EF08F0410E24EC00F0410EF7
:1011300024EC00F0410E24EC00F0520E24EC00F000
:10114000430E24EC00F0000E24EC00F0000E24EC22
:1011500000F0000E24EC00F0000E24EC00F0420E33
:1011600024EC00F0010E24EC00F0000E2CBA010E6D
:1011700024EC00F00D0E24EC00F00A0E24EC00F03C
:101180000D0E24EC00F00A0E24EC00F00400010126
:10119000255102080001D8A400EF09F0410E24EC0B
:1011A00000F0410E24EC00F0410E24EC00F0520E51
:1011B00024EC00F0430E24EC00F0000E24EC00F0D0
:1011C000000E24EC00F0000E24EC00F0000E24ECE5
:1011D00000F0420E24EC00F0020E24EC00F0000EB1
:1011E0002CBC010E24EC00F00D0E24EC00F00A0ED5
:1011F00024EC00F00D0E24EC00F00A0E24EC00F0BC
:101200008398959812000400ABA409EF09F0AECFC3
:1012100078F00400ABA212EF09F0AB98020E63EC79
:1012200000F0AB88120001011E514B5CD8A4E868A5
:10123000FF0A136E1F514C5CD8A4E868FF0A156EB4
:1012400013C001F015500001AAEC00F0156E166EE7
:10125000010120514D5CD8A4E868FF0A176E1550B3
:101260001610016E17500001AAEC00F0176E186EF0
:10127000010121514E5CD8A4E868FF0A196E17508D
:101280001810016E19500001AAEC00F0196E1A6EC8
:10129000040019501A10D8B4FAEF09F001012251D4
:1012A0004608D8A4E868FF0A136E23515608D8A44C
:1012B000E868FF0A156E13C001F015500001AAEC92
:1012C00000F0156E166E040015501610D8B46FEFAE
:1012D00009F0560E726FFBEC09F0FAEF09F001010C
:1012E00022514608D8A4E868FF0A136E2351520819
:1012F000D8A4E868FF0A156E13C001F0155000016C
:10130000AAEC00F0156E166E040015501610D8B435
:101310009CEF09F04B0E746E756A010124510001B7
:1013200054EC00F0520E726FFBEC09F0050E63EC0A
:1013300000F0FF00FAEF09F0010122512325136E9E
:10134000146A143624511326E86A142225511326F0
:10135000E86A142226511326E86A1422275113261C
:10136000E86A142228511326E86A14222951132608
:10137000E86A14222A511326E86A14222B511324F6
:10138000326EE86A1420336E2C514308D8A4E86802
:10139000FF0A136E2D51335CD8A4E868FF0A156E5E
:1013A00013C001F015500001AAEC00F0156E166E86
:1013B00001012E51325CD8A4E868FF0A176E15505F
:1013C0001610016E17500001AAEC00F0176E186E8F
:1013D000040017501810D8B4FAEF09F022C151F0E8
:1013E00023C149F0A5EC0DF04B0E726F51C073F0A4
:1013F0003AEC0FF012008388959804007251560859
:10140000D8A4C1EF0AF04B504C24136E146A143662
:101410004D501326E86A14224E501326E86A14220F
:10142000460E1326000E1422560E1326000E14220A
:10143000FF0E1326000E14223F501326E86A1422D2
:10144000030E1326000E1422132A000E1422000E7F
:101450001324326E000E1420336E410E24EC00F083
:10146000410E24EC00F0410E24EC00F0520E24EC6E
:1014700000F0430E24EC00F04B5024EC00F04C50F4
:1014800024EC00F04D5024EC00F04E5024EC00F021
:10149000460E24EC00F0560E24EC00F0FF0E24EC77
:1014A00000F03F5024EC00F0030E24EC00F0010E9D
:1014B00024EC00F0000E24EC00F0000E24EC00F010
:1014C000430E24EC00F0335024EC00F0325024ECB6
:1014D00000F00D0E24EC00F00A0E24EC00F00D0ECE
:1014E00024EC00F00A0E24EC00F0410E24EC00F095
:1014F000410E24EC00F0410E24EC00F0520E24ECDE
:1015000000F0430E24EC00F04B5024EC00F04C5063
:1015100024EC00F04D5024EC00F04E5024EC00F090
:10152000460E24EC00F0560E24EC00F0FF0E24ECE6
:1015300000F03F5024EC00F0030E24EC00F0010E0C
:1015400024EC00F0000E24EC00F0000E24EC00F07F
:10155000430E24EC00F0335024EC00F0325024EC25
:1015600000F00D0E24EC00F00A0E24EC00F00D0E3D
:1015700024EC00F00A0E24EC00F08398959850EFCC
:101580000BF04B504C24136E146A14364D50132636
:10159000E86A14224E501326E86A1422460E1326D7
:1015A000000E1422520E1326000E1422FF0E1324D6
:1015B000326E000E1420336E410E24EC00F0410E0A
:1015C00024EC00F0410E24EC00F0520E24EC00F06C
:1015D000430E24EC00F04B5024EC00F04C5024EC73
:1015E00000F04D5024EC00F04E5024EC00F0460E7C
:1015F00024EC00F0520E24EC00F0FF0E24EC00F07E
:10160000430E24EC00F0335024EC00F0325024EC74
:1016100000F00D0E24EC00F00A0E24EC00F00D0E8C
:1016200024EC00F00A0E24EC00F0410E24EC00F053
:10163000410E24EC00F0410E24EC00F0520E24EC9C
:1016400000F0430E24EC00F04B5024EC00F04C5022
:1016500024EC00F04D5024EC00F04E5024EC00F04F
:10166000460E24EC00F0520E24EC00F0FF0E24ECA9
:1016700000F0430E24EC00F0335024EC00F0325024
:1016800024EC00F00D0E24EC00F00A0E24EC00F027
:101690000D0E24EC00F00A0E24EC00F083989598CF
:1016A00083989598120004002EA06DEF0BF02E90F9
:1016B00004002DBE64EF0BF0511C786F6EEC0BF044
:1016C0005DEC10F06DEF0BF051505218796F791DF1
:1016D000786F6EEC0BF05DEC10F0120004002EA69B
:1016E00073EF0BF0786978C043F0120004002EAC61
:1016F00001EF0CF02E9C406A0400080E405CD8B04C
:1017000001EF0CF04050850FE96E000EEA6AEA2204
:10171000EFCF13F013C001F0000E8BEC00F0136E4E
:101720004050850FE96E000EEA6AEA22EFCF15F00D
:1017300015C001F0FF0E93EC00F0156E13C001F020
:101740001550AAEC00F0156E166E04001550161018
:10175000D8B4C0EF0BF04050850FE96E000EEA6A76
:10176000EA22EFCF13F01304136E146A000E145A1A
:101770004050850FE96E000EEA6AEA2213C0EFFFBF
:1017800040507D0FE96E000EEA6AEA22EFCF13F0B7
:1017900013C001F0000E8BEC00F0136E40507D0F73
:1017A000E96E000EEA6AEA22EFCF15F015C001F0EB
:1017B000FF0E93EC00F0156E13C001F01550AAEC6B
:1017C00000F0156E166E040015501610D8B4FEEF1A
:1017D0000BF040507D0FE96E000EEA6AEA22EFCF6F
:1017E00013F01304136E146A000E145A40507D0F48
:1017F000E96E000EEA6AEA2213C0EFFF402AD8A081
:101800007BD71200040085510008D8A411EF0CF01A
:10181000828A949A839695968569060E5C6E1EEF71
:101820000CF004007D510008D8A41EEF0CF0838654
:101830009596829A949A7D69060E5C6E0400865194
:101840000008D8A42DEF0CF0838495948392959290
:101850008669060E5C6E3AEF0CF004007E510008BB
:10186000D8A43AEF0CF083829592839495947E6984
:10187000060E5C6E040087510008D8A449EF0CF0F6
:1018800083809590829494948769060E5C6E56EFDF
:101890000CF004007F510008D8A456EF0CF08284AD
:1018A0009494839095907F69060E5C6E0400885135
:1018B0000008D8A465EF0CF08282949282909490F4
:1018C0008869060E5C6E72EF0CF00400805100080F
:1018D000D8A472EF0CF082809490829294928069E6
:1018E000060E5C6E040089510008D8A481EF0CF04C
:1018F00081889398819A939A8969060E5C6E8EEF1F
:101900000CF0040081510008D8A48EEF0CF0818AFD
:10191000939A819893988169060E5C6E04008A51AF
:101920000008D8A49DEF0CF0818693968090929049
:101930008A69060E5C6EAAEF0CF004008251000862
:10194000D8A4AAEF0CF08080929081969396826939
:10195000060E5C6E04008B510008D8A4C3EF0CF097
:101960008194939404003F500308D8A4BCEF0CF07A
:10197000838E959EBEEF0CF0818293928B69060E4A
:101980005C6EDAEF0CF0040083510008D8A4DAEFA3
:101990000CF08184939404003F500308D8A4D5EF41
:1019A0000CF0839E959ED7EF0CF081929392836901
:1019B000060E5C6E04008C510008D8A4F3EF0CF006
:1019C00004003F500308D8A4EAEF0CF0838C959CE8
:1019D000ECEF0CF081809390839A959A8C69060EB7
:1019E0005C6E0AEF0DF0040084510008D8A40AEFE1
:1019F0000DF0838A959A04003F500308D8A405EFA0
:101A00000DF0839C959C07EF0DF081909390846975
:101A1000060E5C6E120004004B505208D8A4A4EFCE
:101A20000DF0586A0400040E585CD8B0A4EF0DF015
:101A30002C0EE96EEA6A5850000F0EEC00F0D890B8
:101A40001CEC00F058C007F0086A020E036E046A2E
:101A5000CEEC00F0136E06C014F0030E016E1350AE
:101A60007EEC00F0766F5150761758C007F0086A88
:101A7000020E036E046ACEEC00F0136E06C014F082
:101A800076C001F0026A135086EC00F0766F040015
:101A900076510308D8A4A1EF0DF058C007F0086AEA
:101AA000020E036E046ACEEC00F0136E06C014F052
:101AB00053C001F0026A135086EC00F0776F2C0ED1
:101AC000E96EEA6A5850000F0EEC00F0D8801CEC6A
:101AD00000F00400D89677A1D886D8B68BEF0DF029
:101AE00058C007F0086A020E036E046ACEEC00F0DC
:101AF000136E06C014F0132A000E1422010E016E9C
:101B000013507EEC00F05F6E5F5053125F1E5F500B
:101B10005116A1EF0DF058C007F0086A020E036ECF
:101B2000046ACEEC00F0136E06C014F0010E016ED4
:101B300013507EEC00F05F6E5F5053125F1E5F50DB
:101B40005116582AD8A06ED7120054505118536E0F
:101B500062DF511C786F6EEC0BF05DEC10F0406AA8
:101B60000400080E405CD8B019EF0EF053C001F02D
:101B7000026A405086EC00F0786F51C001F0026AB2
:101B8000405086EC00F0796F0400D89678A1D88692
:101B9000D8B616EF0EF00400D89679A1D886D8B63C
:101BA0000FEF0EF004004B505208D8A406EF0EF0D1
:101BB000D8904030136E146A2C0EE96EEA6A135006
:101BC000000F0EEC00F0000ED8A4010E136E146A84
:101BD000010E016E026A14C004F0135098EC00F07C
:101BE000D8A4FDEF0DF04050850FE96E000EEA6AB3
:101BF000EA22640EEF6E04EF0EF04050850FE96E9E
:101C0000000EEA6AEA22EF6A0DEF0EF04050850FEF
:101C1000E96E000EEA6AEA22EF6A16EF0EF0405013
:101C20007D0FE96E000EEA6AEA22EF6A402AD8A028
:101C300097D751C054F00400080E495CD8B02BEF80
:101C40000EF0010E016E49507EEC00F0526E050E52
:101C5000386E0C0E396E120004004F504508D8B48F
:101C60005BEF0EF04E0E4F6E576A0400030E575C8A
:101C7000D8B055EF0EF03AC001F03BC002F03CEC9A
:101C800000F001C03AF002C03BF03A505E24136EFF
:101C9000146A143657508D0FE96E000EEA6AEA2274
:101CA00013C0EFFF572AD8A0E0D78DC04CF08EC0EC
:101CB0004DF08FC04EF012005F6A0400290E5F5C89
:101CC000D8B078EF0EF0EEEC07F004002CBA6BEF12
:101CD0000EF0010E746F04002CAA72EF0EF0280EA5
:101CE0005F6E746B320E63EC00F05F2AD8A0E5D70C
:101CF0000400010E745DD8A0AFEF0EF0746A756A2F
:101D0000FF0E54EC00F0010E746E756AFF0E54EC79
:101D100000F0020E746E756AFF0E54EC00F0030EB4
:101D2000746E756AFF0E54EC00F0040E746E756AE2
:101D3000FF0E54EC00F05F6A0400040E5F5CD8B044
:101D4000AFEF0EF084929692640E63EC00F0848202
:101D50009692640E63EC00F05F2AD8A0EDD71200D3
:101D6000EEEC07F004002CBAC6EF0EF004005D5054
:101D70000008D8A4C4EF0EF06FDF050E5D6E726B25
:101D80004FC073F03AEC0FF0CDEF0EF00400010EEF
:101D90005D5CD8A0CDEF0EF05D061200EEEC07F012
:101DA000E86A2CACE868136EE86A2EB6E868156E2F
:101DB00013C001F01550AAEC00F0156E166E040069
:101DC00015501610D8B4E9EF0EF02D803C6A2E960F
:101DD0002E8004002CBAFCEF0EF02C8E016A026AF1
:101DE00031C004F0305098EC00F0D8A4FAEF0EF0B7
:101DF00002EC0FF001EF0FF02C9EEE0E306E020E93
:101E0000316E120004004B504F08D8A40CEF0FF0B5
:101E1000520E4B6E0EEF0FF04F0E4B6E010E746EA6
:101E2000756A4B5054EC00F0406A04000A0E405CA6
:101E3000D8B038EF0FF004004B504F08D8A424EF6F
:101E40000FF0436A26EF0FF0AA0E436E5DEC10F020
:101E5000010E046E2C0E64EC00F043685DEC10F093
:101E6000010E046E2C0E64EC00F0402AD8A0DDD7E1
:101E70002E801200040050504C08D8A445EF0FF0FB
:101E8000849296922D9C140E4A6E050E026E460E9A
:101E900071EC00F083889598410E24EC00F0410E1F
:101EA00024EC00F0410E24EC00F0520E24EC00F083
:101EB000430E24EC00F04B5024EC00F04C5024EC8A
:101EC00000F04D5024EC00F04E5024EC00F0725124
:101ED00024EC00F0735124EC00F00D0E24EC00F023
:101EE0000A0E24EC00F00D0E24EC00F00A0E24EC97
:101EF00000F0839895981200E86A2DBCE868136E8C
:101F000050504C08D8A4E868FF0A156E13C001F0C1
:101F10001550AAEC00F0156E166E04001550161040
:101F2000D8B497EF0FF0848296922D9C4A6A1200E3
:101F300004002EAAA0EF0FF00CEC10F02E9A5C6AB1
:101F400012004F504E08D8A4E868FF0A136E010132
:101F500020514B5CD8A4E868FF0A156E13C001F04D
:101F600015500001AAEC00F0156E166E010121510A
:101F70004C5CD8A4E868FF0A176E15501610016E65
:101F800017500001AAEC00F0176E186E01012251E3
:101F90004D5CD8A4E868FF0A196E17501810016E3E
:101FA00019500001AAEC00F0196E1A6E01012351BC
:101FB0004E5CD8A4E868FF0A1B6E19501A10016E17
:101FC0001B500001AAEC00F01B6E1C6E04001B509D
:101FD0001C10D8B40BEF10F0450E4F6E746A756A82
:101FE0004F5054EC00F0010E746E756A4B5054EC77
:101FF00000F0020E746E756A4C5054EC00F0030E43
:10200000746E756A4D5054EC00F0040E746E756A6F
:102010004E5054EC00F01200829A949A8396959652
:1020200083949594839295928390959082949494BE
:10203000829294928290949081989398819A939AA4
:10204000819693968090929081949394839A959A96
:1020500004003F500308D8A434EF10F0839E959EEF
:10206000839C959C38EF10F081929392819093908D
:102070001200A00E426E2D9473EC10F01200A10E0F
:10208000426E2D941200D00E426E2D8441C035F068
:1020900073EC10F01200D10E426E2D8441C035F069
:1020A00064EC10F012000400C5BC5BEF10F02D8250
:1020B000C58C5CEF10F02D92120055C042F02D84BB
:1020C0002E8473EC10F01200040042B069EF10F09F
:1020D00042802D882D86010E486ED66AD76AD58E2D
:1020E000BAEC10F01200040042A078EF10F0429019
:1020F0002D982D86010E486ED66AD76AD58E82EC51
:1021000010F012000400010E485CD8A0B9EF10F0E6
:1021100004002DA6B8EF10F02D96FEEC10F0040090
:1021200048500508D8A49CEF10F0BDDF04002DA294
:102130009CEF10F043C0C9FF040048500608D8A423
:10214000A8EF10F0B0DF04002DA2A8EF10F0C584B6
:10215000040048500708D8A4B8EF10F0486AD59E8C
:102160003E6A04002DB4B8EF10F0050E63EC00F0E9
:10217000C9D712000400010E485CD8A0FDEF10F092
:1021800004002DA6FCEF10F02D96FEEC10F00400DC
:1021900048500508D8A4D3EF10F085DF04002DA225
:1021A000D3EF10F0C580040048500608D8A4DBEF38
:1021B00010F042C0C9FF040048500708D8A4E2EF5D
:1021C00010F0C586040048500808D8A4ECEF10F0C1
:1021D000C9CF43F0090E486E040048500908D8A43E
:1021E000F3EF10F0C584040048500A08D8A4FCEFAF
:1021F00010F0486AB1903E6ABDD712000400485002
:102200000108D8A405EF11F0C58004004850020869
:10221000D8A40FEF11F042502DB8E804C96E0400A5
:1022200048500308D8A424EF11F004002EB422EF84
:1022300011F039DF04002DA220EF11F035C0C9FFE5
:1022400024EF11F0050E486E040048500408D8A48D
:1022500034EF11F004002DA432EF11F0050E486E9A
:0E22600034EF11F034C0C9FF12000300FED7A6
:020000040030CA
:020000040000FA
:10667000FFFFFFFFFFFFFFFFEFEF00F0FFFFFFFF58
:020000040000FA
:1066C0000400CF7F0000E300000009000000CA7F43
:1066D0000000EC00000005000000C07F0000D900B1
:1066E00000000A000000BE7F0000F500000002006C
:0266F0000000A8
:0E66F200D4EC3AF0030EE126640EF36E020EB5
:10670000F3CFDBFFDE6ADD6ADECF10F0DDCF11F004
:10671000FD0EDBCF12F0FE0E28EC3BF00BE2020E7A
:10672000DBCFE6FFD3EC3FF0E552DF2A010EECE3CE
:10673000DB2AEAD7030EE15C02E2E16AE552E16E90
:10674000D9EF3AF0D4EC3AF0E652FD0EDBCF10F080
:10675000DB06FE0EDBCF11F001E2DB06105011105C
:1067600007E00A0EE66EE66AC4DFE552E552EDD7B1
:10677000E552D9EF3AF0D9CFE6FFE1CFD9FF0A0EC3
:10678000E126DF6A4A0EE66EE66A9CEC39F0E552D5
:10679000E552E76E010EE7CFDBFF020EDB6A030E68
:1067A000DB6AF29ED19096949692040EE66EE66AAB
:1067B000010EE66EE66ACB0EE66E000EE66E52EC59
:1067C00039F0106E060EE15E1050030EE66EE66ABA
:1067D000410EE66EE66AF20EE66E000EE66E52ECD2
:1067E00039F0106E060EE15E105086EC3BF036EC90
:1067F0003DF00001E16B0001CB5109E00001CB51FC
:10680000106E116AFF0E101801E1115013E19DEC9A
:1068100038F0010EE66EBF0EE66E7E0EE66E000EDE
:10682000E66ECBEC3DF0E552E552E552E552000153
:10683000E16B63D046EC38F000091AE00001010E6C
:10684000E16F00011E0EDD6FDE6BDF6BE06B80AA77
:10685000FED7010EE66EBC0EE66E7E0EE66E000EF4
:10686000E66ECBEC3DF0E552E552E552E55245D0FF
:10687000010EDB50040818E10001010EE16F000178
:106880000A0EDD6FDE6BDF6BE06B010EE66EB90E9C
:10689000E66E7E0EE66E000EE66ECBEC3DF0E55247
:1068A000E552E552E55229D04B0EE66EE66A9CECC5
:1068B00039F0E552E5520001DD6F0001DE6BDF6B60
:1068C000E06BD880000E0001DD55000EDE55000E95
:1068D000DF55000EE05503E20001010EE16F010EED
:1068E000E66EB60EE66E7E0EE66E000EE66ECBEC43
:1068F0003DF0E552E552E552E552010EE66EB40E6A
:10690000E66E7E0EE66E000EE66ECBEC3DF0E552D6
:10691000E552E552E552010EE66EAD0EE66E7E0ED4
:10692000E66E000EE66ECBEC3DF0E552E552E55228
:10693000E552010EE66EA70EE66E7E0EE66E000EC6
:10694000E66ECBEC3DF0E552E552E552E552010E24
:10695000E66EDDC0E6FF74EC3DF0E552E552000165
:10696000D890DD37DE37DF37E037010EE66EA20E56
:10697000E66E7E0EE66E000EE66ECBEC3DF0E55266
:10698000E552E552E552010EE66E010EE66E74EC3C
:106990003DF0E552E552010EE66EA00EE66E7E0E6B
:1069A000E66E000EE66ECBEC3DF0E552E552E552A8
:1069B000E552010EE66E090EE66E74EC3DF0E5520E
:1069C000E552010EE66E9B0EE66E7E0EE66E000E42
:1069D000E66ECBEC3DF0E552E552E552E552010E94
:1069E000E66EF2C0E6FF74EC3DF0E552E552010EB2
:1069F000E66EA00EE66E7E0EE66E000EE66ECBEC48
:106A00003DF0E552E552E552E552010EE66EF3C067
:106A1000E6FF74EC3DF0E552E552010EE66EA00E85
:106A2000E66E7E0EE66E000EE66ECBEC3DF0E552B5
:106A3000E552E552E552010EE66EF4C0E6FF74EC55
:106A40003DF0E552E552010EE66E970EE66E7E0EC3
:106A5000E66E000EE66ECBEC3DF0E552E552E552F7
:106A6000E552010EE66ECBC0E6FF74EC3DF0E55258
:106A7000E552010EE66EA00EE66E7E0EE66E000E8C
:106A8000E66ECBEC3DF0E552E552E552E552010EE3
:106A9000E66ECCC0E6FF74EC3DF0E552E552010E27
:106AA000E66EA00EE66E7E0EE66E000EE66ECBEC97
:106AB0003DF0E552E552E552E552010EE66ECDC0DD
:106AC000E6FF74EC3DF0E552E552010EE66EA00ED5
:106AD000E66E7E0EE66E000EE66ECBEC3DF0E55205
:106AE000E552E552E552010EE66ECEC0E6FF74ECCB
:106AF0003DF0E552E552010EE66E950EE66E7E0E15
:106B0000E66E000EE66ECBEC3DF0E552E552E55246
:106B1000E552010EE66E840EE66E7E0EE66E000E07
:106B2000E66ECBEC3DF0E552E552E552E5529BDADC
:106B30000001E15101E196D0F2A42ED08474847258
:106B40009DDA0001D9C010F0DAC011F0DBC012F0FC
:106B5000DCC013F0D92B000EDA23DB23DC23000189
:106B6000DD51105C0001DE5111580001DF51125857
:106B70000001E051135810E3010EE66E7C0EE66E44
:106B80007E0EE66E000EE66ECBEC3DF0E552E55271
:106B9000E552E5520001E16B80BA12D0020EDBCF64
:106BA000F3FFDB2AF35004080AE20001060EEC6F43
:106BB0000001420EC56FB0EC3CF080AAFED702D0B7
:106BC000020EDB6A030EDB50010A0DE0010A01E050
:106BD00045D0ACEC3BF0000905E0010EF36E030E6E
:106BE000F3CFDBFF3ED0010EE66E790EE66E7E0E31
:106BF000E66E000EE66ECBEC3DF0E552E552E55256
:106C0000E55258EC3EF0A0D9010EE66E760EE66E27
:106C10007E0EE66E000EE66ECBEC3DF0E552E552E0
:106C2000E552E55258EC3EF00001EC0505E00001AC
:106C3000D96BDA6BDB6BDC6BB0EC3CF0010EE66E13
:106C4000730EE66E7E0EE66E000EE66ECBEC3DF049
:106C5000E552E552E552E55258EC3EF0030EDB6A90
:106C600000D066D7DE52040EDD6E010EE66EE66AD7
:106C70004A0EE66EE66AD950010FE66E000EDA2083
:106C8000E66E6DDB106E060EE15E1050010EE66ED4
:106C90006E0EE66E7E0EE66E000EE66ECBEC3DF0FE
:106CA000E552E552E552E55258EC3EF0FCD90009B8
:106CB00003E158EC3EF0FF0058EC3EF0010EE66EAA
:106CC000660EE66E7E0EE66E000EE66ECBEC3DF0D6
:106CD000E552E552E552E5520400D18004003CEF54
:106CE00033F00A0EE15C02E2E16AE552E16EE55240
:106CF000E7CFD9FF1200D4EC3AF00F0EE1261AECE0
:106D00003BF0010E00C1DBFF01C1DFFF3AEC3BF0BD
:106D10000D0EEECFDBFF0E0EEDCFDBFF3AEC3BF0BE
:106D20009A0EEE5C010EEE58000EEE58000EEE5874
:106D300002E3020E66D03AEC3BF0EECF04F0EECF69
:106D400005F0EECF06F0EFCF07F0400E096E0A6AAD
:106D50000B6A0C6A61EC3FF000C0DEFF01C0DEFF91
:106D600002C0DEFF03C0DDFFDD52DD52CAEC3AF0A7
:106D7000105011101210131030E1080EE66EE66A82
:106D8000C0EC3AF0D950040FE66E000EDA200CEC9D
:106D90003BF00C0EDB6A080EF36E0C0EDBCFF4FF3B
:106DA000F350F45C1AE2D950040F106EDACF11F0F0
:106DB0000C0EDB500F011024E96E000EDA20EA6E93
:106DC000EF50E66E0C0EDB50020FF2EC3AF0E5529B
:106DD000E750EF6E0C0EDB2ADED70D0EDBCFE6FFA1
:106DE0000E0EDBCFE6FFF7DAE552E552C9DB020E05
:106DF000E66E010EE66E11DB71EC3BF00001ED6B0F
:106E0000000E106E0F0EE15C02E2E16AE552E16EE7
:106E10001050CFD3030EE66EE66A410EE66EE66AC8
:106E200069EF3BF013EC3BF069EF3BF0BDDB020E8A
:106E3000E126E20EDE6E000EDD6E010EE66E580EED
:106E4000E66E7E0EE66E000E32EC3BF058EC3EF045
:106E50002AD9000907E00001E26B010E55EC3BF076
:106E6000000E06D00001010EE26F55EC3BF0050E5E
:106E7000106E020EE15C02E2E16AE552E16E105032
:106E800098D30001ED6B400E6FDB410E6DDB420EBF
:106E90006BDB430E69DB4C0E67DB000C0001ED6B16
:106EA0004DEC3BF0010EEF6EF8DB090EEF6E000CBF
:106EB0007BDB030EE126DF6A010EDB6A020EDB6A72
:106EC000FE0EDB508FDBEF50430803E00001030EA2
:106ED000EC6FDF6AFE0EDB50DF5C0BE2DF5082DB23
:106EE000EF50116AE8500001C7271150C823DF2A6C
:106EF000F1D7FE0EDB2876DB020EEFCFDBFFFE0EB6
:106F0000DB50020F6FDB010EEFCFDBFFDBCF10F0AA
:106F1000020EDBCF11F00001C751101802E1C85179
:106F2000111803E00001040EEC6F0001EC5102E0C7
:106F3000010E01D0000E106E030EE15C02E2E16A68
:106F4000E552E16E105035D32FDBE652DF6A0001C7
:106F5000EC6B460E0001C65D03E00001010EEC6F14
:106F6000DF6A640EDF5C08E2C6DBDF503BDBEF501C
:106F7000E66EBCDBDF2AF5D70001C551470A60E0A9
:106F8000110A4FE0130A3FE0010A2FE00C0A20E04B
:106F90000B0A10E00D0A62E1030EE66E2CDB61E1E4
:106FA000010EE66E540EE66E7E0EE66E000E5ADBA5
:106FB00031DF35D0040EE66E1EDB53E1010EE66EC6
:106FC000520EE66E7E0EE66E000E4CDB2BDF27D0F7
:106FD000E66A11DB46E1010EE66E500EE66E7E0EAD
:106FE000E66E000E3FDB5ADF1AD0420EE66E03DB80
:106FF00038E1010EE66E4E0EE66E7E0EE66E000E77
:1070000031DB79DE0CD0E66AF6DA2BE1010EE66EB2
:107010004C0EE66E7E0EE66E000E24DB07DF0001EE
:107020001FD0E66AE8DA1DE12CDF0001EC6F010EEB
:10703000E66E4A0EE66E7E0EE66E000E13DB11D093
:10704000E66AD9DA0EE1010EE66E420EE66E7E0EBB
:10705000E66E000E07DB0001E16B03D00001010EBC
:10706000EC6FE552A6D2D59ED59CD59AD598D596EB
:10707000F80ED5140709D56E3EEF38F0D59EF29480
:10708000B30ED76EB40ED66ED58E1200928A80BA29
:10709000000C010EE66EE66AA2EC33F0E552E55212
:1070A00080BA000C010C80DA090EE126080EDB6ABA
:1070B000BADAD950040FE66E000EDA20E66ECFDAA7
:1070C000070E7BDA010EE66E3B0EE66E7E0EE66E76
:1070D000000EC8DAD4DA5EDA10C0E6FF11C0E6FFAF
:1070E00012C0E6FF13C0E6FF8ADA146E080EE15EF6
:1070F0001450E552E7CF13F0E552E7CF12F0E55216
:10710000E7CF11F0E552E7CF10F01050041808E176
:107110001150051805E11250061802E11350071826
:1071200002E0000E01D0010E106E090EE15C02E2D9
:10713000E16AE552E16E10503CD236DA080EE126E3
:107140005EDA106E080EE15E1050040E04C0DBFF24
:10715000050E05C0DBFF060E06C0DBFF070E07C0ED
:10716000DBFF2BDA60DAD9CFE6FFDACFE6FF40DAD1
:10717000080EE15C02E2E16AE552E16E1AD2120009
:1071800013DA0D0EE126FB0EDB50E76E080EE7CF9B
:10719000DBFF090EDB6A0A0EDB6A0B0EDB6A4ADADA
:1071A0008FDA68DAFB0EDBCFEEFFFC0EDBCFEEFFF3
:1071B000FD0EDBCFEEFFFE0EDBCFEEFFF70EDBCFDB
:1071C00010F0F80EDBCF11F0F90EDBCF12F0FA0E53
:1071D000DBCF13F04FDA1050EE5C1150EE58125026
:1071E000EE581350EE582DE2D5D93F0E1016116A05
:1071F000126A136A105011101210131003E1080ED6
:10720000DB6A5EDA080EDBCFF3FFDB2AF350EAD944
:10721000EFCF10F0116A126A136AD950090FE96EA4
:10722000DACFEAFF1050EE261150EE221250EE2275
:107230001350EE221FDAEE2A000EEE22EE22EE228C
:10724000BDD7010EE66E340EE66E7E0EE66E000EC3
:1072500009DA10DA090EDBCFEEFF0A0EDBCFEEFF04
:107260000B0EDBCFEEFF0C0EDBCFEEFF08DA090EC4
:10727000DBCF10F00A0EDBCF11F00B0EDBCF12F0DC
:107280000C0EDBCF13F010C004F011C005F012C0DB
:1072900006F013C007F00D0EE15C02E2E16AE55270
:1072A000E16E87D1D9CFE6FFE1CFD9FF020EE1260B
:1072B000DE6ADD6ADECF10F0DDCF11F0F90EDBCF34
:1072C00012F0FA0EDBCF13F01250105C135011586D
:1072D00029E2FB0EDB50746EFB0EDBCF10F0FC0ED0
:1072E000DBCF11F011C010F0116A1050756E7F6A7B
:1072F0007F800000FD0EDBCF10F0FE0EDBCF11F023
:10730000DE501024E96EDD501120EA6E73CFEFFFDE
:10731000FB0EDB2AFC0E01E3DB2ADF2A010E01E370
:10732000DB2AC8D7020EE15C02E2E16AE552E16EB7
:10733000E552E7CFD9FF120037D9E652010EE66ECB
:10734000E66AFD0EDBCFE6FFFE0EDBCFE6FFD9CF10
:10735000E6FFDACFE6FF83D9DF50E5522AD124D900
:10736000020EE126DE6ADD6ADECF10F0DDCF11F01D
:10737000F90EDBCF12F0FA0E6BD926E2FB0EDB50D2
:10738000746EFB0EFC0EDBCF11F011C010F011502B
:10739000756EFD0EDBCF10F0FE0EDBCF11F0DE5070
:1073A0001024E96EDD501120EA6EEF50736E040E6A
:1073B0007F6EBCD8FB0EDB2AFC0E01E3DB2ADF2A42
:1073C000010ED2E3DB2AD0D7020EE15C02E2E16AD1
:1073D000E552E16EEED0D9CFE6FFE1CFD9FF040050
:1073E000FD0EDBCF10F0FE0EDBCF11F0126A060EA1
:1073F0001F0B10C0F6FF11C0F7FF12C0F8FF06E028
:10740000D890F636F736F836E806FAE1940E7F6E35
:107410008DD8E552E7CFD9FF1200D9CFE6FFE1CFF3
:10742000D9FF020EE126F90EDBCFF6FFFA0EDBCF15
:10743000F7FFFB0EDBCFF8FFDE6ADD6ADECF10F070
:10744000DDCF11F0400E105C000E115814E2FD0E5D
:10745000DBCF10F0FE0EDBCF11F0DE501024E96E12
:10746000DD501120EA6EEF50F56E0D00DF2A010E9F
:1074700001E3DB2AE3D70A00A40E7F6E57D8020E81
:10748000E15C02E2E16AE552E16EE552E7CFD9FF45
:107490001200D9CFE6FFE1CFD9FF020EE126FB0EA5
:1074A000DB50F00809E0F90EDBCFF6FFFA0EDBCF78
:1074B000F7FFFB0EDBCFF8FFDE6ADD6ADECF10F0F0
:1074C000DDCF11F0F70EDBCF12F0F80EDBCF13F0AB
:1074D0001250105C135011581FE20900300EF85C76
:1074E00008E1050EF65C01E1F568080EF65C01E1C5
:1074F000F568FD0EDBCF10F0FE0EDBCF11F0DE5095
:107500001024E96EDD501120EA6EF5CFEFFFDF2A7F
:10751000010E01E3DB2AD2D7020EE15C02E2E16A4E
:10752000E552E16EE552E7CFD9FF1200D9CFE6FF71
:10753000E1CFD9FFE652F250800B01E0010EDF6E81
:10754000F29E550E7E6EAA0E7E6E7F82DF5001E0A7
:10755000F28E7FB2FED77F94E552E552E7CFD9FF96
:107560001200C4D87BEF3BF0E66EE66AE5DEE5523A
:10757000E552E66E000191D8E552E750EF6E120039
:1075800079D8EECFE6FFEECFE6FFEECFE6FFEFCF06
:10759000E6FF12006FD8EECF10F0EECF11F0EECF75
:1075A00012F0EFCF13F01200D9CFE6FFE1CFD9FFF1
:1075B0001200E552E7CFD9FF1200DB50DF6E060E56
:1075C000DB50E76E010EE7CFDBFF050EDB50E76E09
:1075D000020EE7CFDBFF040EDB50E76E030EE7CFB2
:1075E000DBFF1200EA6A000FE96E010EEA221200C8
:1075F000B6DE71EF3BF05CDCE55200091200800E54
:10760000E66E660EE66EE66AE66A080EE66EE66A04
:10761000E66AE66AC0EF38F0E66E3BDF106E080EF1
:10762000E15E10501200040EE66EE66A440EE66E4D
:10763000E66A12000C0EDB6ADE6ADE6ADE6ADD6A6A
:10764000DD52DD521200030EDBCFE6FF76EF3BF09A
:10765000DBCF13F01250105C13501158120022DED1
:1076600071EF3BF0E66ECBEC3DF0E552E552E552B2
:10767000E5521200D9CFE9FFDACFEAFF1200010E7E
:10768000E66EDFCFE6FF6DDFDBCFE6FF6ADF020EDF
:10769000DBCFE6FF66DF23EF3BF0ED51ED2BEA6A2F
:1076A000600FE96E000EEA221200E66EE66A4C0EEA
:1076B000E66EE66ADECFE6FFDDCFE6FFF8EF3AF0F2
:1076C000400EE66EE66A5CDF000EE66E010E0CEF21
:1076D0003BF0000EE66E010EE66E8ADF0001ED6BF8
:1076E000000C106E060EE15E1050120074EC3DF0BE
:1076F000E552E5521200010EE66E560EE66E7E0E63
:0C770000E66E000EAFDF010EE66E120018
:04770C0099D9040EF5
:10771000E126550EDE6EDE6ADE6ADD6ADD52DD527E
:10772000A786AC84DF50AF6E010EDB507D6EAC8A55
:10773000AC98AB8EAB880F015D6B5C6B95988398B2
:107740000001F569F6690001ED6B040EE15C02E2EF
:10775000E16AE552E16E79D173D9020EE126010E9C
:10776000DB6AABA207D0AB98E66EB7EC3FF0E55210
:10777000AB8804D0ABA404D0AE50DF6E000EADD009
:107780009EAAA9D0AE50DF6E9E9A0001EE510C0A5F
:1077900001E195D0070A01E18BD0010A01E183D014
:1077A000030A01E17CD0010A6DE00F0A44E0010AFE
:1077B0003CE0030A30E0010A25E0070A1CE0010A68
:1077C00010E0030A09E0010A01E084D0530EDF5CF7
:1077D00001E081D0EE2B7FD0540EDF5C24E1020E5D
:1077E00077D0DF500001C76FC86BCB51DF5C11E170
:1077F0000001030E6DD019D9CC51DF5C0AE1000104
:10780000040E66D012D9CD51DF5C03E10001050EF4
:107810005FD0000108D009D9CE51DF5C03E100013F
:10782000060E56D00001EE6B56D0FFD8DFCFC6F063
:107830000001070E4DD0F9D8DFCFC5F0460EC65D6A
:107840001FE1C551450A16E0130A14E0110A12E0BF
:10785000030A0CE0070A06E00D0A12E10001EF6BD3
:10786000060E0BD00001EF6B070E07D00001EF6B87
:10787000450E03D00001EF6B030EF06F080E28D009
:1078800000011BD0EF51EF2BEA6A000FE96E010EE9
:10789000EA22DFCFEFFFF051EF5D1DE30ED00D0EBA
:1078A000DF5C19E108D00A0EDF5C07E10B0E10D097
:1078B0000D0EDF5C02E10C0E0BD0090E09D00A0E92
:1078C000DF5C05E1EE6BDE52010EDD6E04D0090EC9
:1078D000EE6F01D0EE6B010EDB50106E020EE15C1C
:1078E00002E2E16AE552E16E1050AFD0A9D8ACA235
:1078F000FED7FE0EDB50AD6EFE0EDB50116AE85077
:107900000001C9271150CA23A0D09AD8030EE1263E
:10791000640EF36E020EF3CFDBFFDE6ADD6ADECFAC
:1079200010F0DDCF11F0FD0EDBCF12F0FE0EDBCF3D
:1079300013F01250105C135011580BE2020EDBCF03
:10794000E6FFD3EC3FF0E552DF2A010EE8E3DB2A45
:10795000E6D7030EE15C02E2E16AE552E16E75D022
:107960006FD8040EE126DF6A030EDB6ADB6A020EC3
:10797000F36E030EDBCFF4FFF350F45C4DE2AB98F3
:107980008388520E5AD8430E58D80001C96BCA6B6F
:10799000CBC0E6FF5ED8CCC0E6FF5BD8CDC0E6FF2B
:1079A00058D8CEC0E6FF55D8460E47D8C5C0E6FF2A
:1079B00050D8ECC0E6FF4DD80001ED51DF5C0AE283
:1079C000DF50DF2AEA6A600FE96E000EEA22EF500C
:1079D000E66EF1D7010EC9C0DBFF020ECAC0DBFFA5
:1079E000430E2BD8020EDBCFE6FF33D8010EDBCFE0
:1079F000E6FF2FD831D830D8ACA2FED78398AB8819
:107A0000450E0001C55D05E0020EF36E030EF3CFD7
:107A1000DBFF030EDB2AABD70001ED6B040EE15C4C
:107A200002E2E16AE552E16E10D0DF50116AE850DF
:107A30000001C7271150C8231200E66E29EF3DF060
:107A4000D9CFE6FFE1CFD9FF1200E552E7CFD9FF4A
:107A500012004CDFE55212000D0EEFDF0A0E1DEF93
:027A60003DF0F7
:0E7A620076D9FE0EDBCFEBF04CD171D9040EBD
:107A7000E126550EDE6EDE6ADE6ADD6ADD52DD521B
:107A8000B986BA84DF507B6E010EDB507C6EBA8AF9
:107A9000BA98A68EA688040EE15C02E2E16AE5527D
:107AA000E16E30D10001E751E91904E1E851EA192A
:107AB00001E11200BAA214D0E7C0E9FFE8C0EAFF72
:107AC000EF50796EE551E71908E1E651E81905E153
:107AD000E3C0E7F0E4C0E8F01200E72B000EE82373
:107AE0001200D9CFE6FF0ED133D9050EE126040EE0
:107AF000DB6A640E146E26D90750DBD812BE1368F9
:107B0000E3D813BE146808D902E3040EDB2A640E1E
:107B1000156E18D903C014F00A0E166E0C6E03C051
:107B200007F0C5EC3FF00750C4D812BE1368CCD89C
:107B300013BE1468F1D802E3040EDB2A0A0E146E99
:107B400001D90350B6D812BE13681ED9E552E750CA
:107B5000EF6E040EDB2AD9CF10F0DACF11F0DBCFB5
:107B600012F0136A12BE13680FD9EF6AFD0EDBCF55
:107B7000E6FFD9CFE6FFDACFE6FF5BD8E552E55264
:107B8000E552050EE15C02E2E16AE552E16EBAD02F
:107B9000D9CFE6FFB7D0DCD8030EE126D9CFE9FF75
:107BA000DACFEAFFFC0EDBCFEEFFFD0EDBCFEEFF00
:107BB000FE0EDBCFEEFFE1D802E1115033E0FB0E09
:107BC000DB5007E0B4D82EE0BAA2FCD78AD8796E91
:107BD000F9D7ADD827E085D899D8E551E91908E15A
:107BE000E651EA1905E1E3C0E9F0E4C0EAF003D0A8
:107BF000E92B000EEA23E751E919EBE1E851EA1914
:107C0000E8E1E351E91908E1E451EA1905E1E5C0C9
:107C1000E9F0E6C0EAF003D0E907000EEA5B230EC4
:107C200075D8D7D7030EE15C02E2E16AE552E16E56
:107C300069D08ED8A2D802E1115039E0FC0EDB5099
:107C40000AE08BD834E0BAA2FCD78FD801E3DB2A54
:107C5000EF50796EF6D781D82AE087D801E3DB2A86
:107C6000EF5054D8E551E91908E1E651EA1905E168
:107C7000E3C0E9F0E4C0EAF003D0E92B000EEA2308
:107C8000E751E919E8E1E851EA19E5E1E351E919B9
:107C900008E1E451EA1905E1E5C0E9F0E6C0EAF0DF
:107CA00003D0E907000EEA5B230E30D8D4D72AD0E0
:107CB0001200300FE66ED9CF10F0DACF11F0040EBB
:107CC000DBCF12F0136A12005FD8E552E750EF6E77
:107CD000D9CF11F0DACF12F0040EDBCF13F0146A13
:107CE0001200D9CFE9FFDACFEAFFEFCFF6FFEE2A95
:107CF000EFCFF7FF000EEE22EFCFF8FFEE220800E5
:107D0000F5501200E552E7CFD9FF1200E9C0E9FFB4
:107D1000EAC0EAFFEF6E120011501324E96E125010
:107D20001420EA6EEFCF10F0300E105C1200DFCF9F
:107D3000F6FF010EDBCFF7FF020EDBCFF8FF0800E6
:107D4000F55012000C6EFE0EDBCF07F0C5EF3FF0D2
:107D5000D9CFE6FFE1CFD9FF1200FD0EDBCFE9FF5F
:107D6000FE0EDBCFEAFFEF501200FD0EDBCFE9FF86
:107D7000DB2AFE0EDBCFEAFF12000001EB51106E92
:107D8000116AFF0E1018120010501224E96E1150E3
:067D90001320EA6E120050
:0A7D9600C00EF66E660EF76E000ECA
:107DA000F86E00010900F550D46F0900F550D56F49
:107DB00003E1D46701D03DD00900F550CF6F090031
:107DC000F550D06F0900F550D16F09000900F5504A
:107DD000E96E0900F550EA6E090009000900F55046
:107DE000D26F0900F550D36F09000900F6CFD6F025
:107DF000F7CFD7F0F8CFD8F0CFC0F6FFD0C0F7FF5D
:107E0000D1C0F8FF0001D25302E1D35307E00900CB
:107E1000F550EE6ED207F8E2D307F9D7D6C0F6FFD9
:107E2000D7C0F7FFD8C0F8FF0001D407000ED55B1C
:047E3000BFD71200A6
:0C7E34000A4373756D3A000A4573756DC2
:107E40003A00474F544F41505000560045004400FF
:107E5000480043004E002C00557064617465205347
:107E6000746174757300476F746F41707000537460
:107E70006F70005F73005F6E005F760054494D4580
:107E80004F5554000A4F70656E4D6F7469637320CF
:107E900032303137000A000A4120000A46575600A6
:107EA0002E000A424C56000A57445420000A424C05
:107EB000204F4D0042000A44000A43000A42000AD3
:027EC00041007F
:0E7EC20004500902F3CF00F0F4CF01F00A02E1
:107ED000F3500126000EF420026E04500B02F35002
:107EE0000226000EF420036E04500C02F350032609
:107EF00005500902F3500126F4500222000E03221D
:107F000005500A02F3500226F450032205500B02DA
:107F1000F350032606500902F3500226F4500322C0
:107F200006500A02F350032607500902F3500326B5
:027F300012003D
:0E7F3200410EF36E00EE00F00E0E01D81200AC
:107F4000EA6002D0EE6AFCD7F350E9601200EE6AF4
:027F5000FCD75C
:0E7F52001DEE00F02DEE00F0F86A0F9CCBEC57
:0E7F60003EF0DEEC3FF0BBEC33F0FBD712003E
:027F6E00FF0E04
:107F7000E350176E1B0E00D001D0200EE76EE72EE7
:0A7F8000FED7172EFAD700D012002A
:067F8A00036A080EE76E19
:107F9000D890073603360C50035C02E3036E072AC1
:067FA000E72EF7D71200E6
:0A7FA600FF0EE350E84E1200000049
:0C7FB00000D000D000D0E82EFAD712005C
:027FBC001200B1
:027FBE00FEFFC4
:0A7FC00000000000000000000100B6
:057FCA000000000000B2
:017FCF00F7BA
:087FD00000F700F700F70001C3
:020000040030CA
:0100000015EA
:0100010012EC
:0100030026D6
:010008000FE8
:01000900C036
:00000001FF
