:020000040000FA
:04000000A9EF3FF035
:040008007CEF03F096
:08001800C9EF03F0096EF80BBB
:10002000E830E830E830E926D8B0EA2A32EC00F0CF
:10003000096EEF14ECEF00F00950D8A0E86AEF1851
:100040000914EF1AECEF00F004009EA8FDD7AD6E86
:10005000D880ECEF00F00400A4A8FDD7796ED8801A
:10006000ECEF00F0010E09B0E84409B2E84409B22F
:10007000E84409B4E838120002500110D8B4012A4B
:10008000800E01B8021A01B4021A01B2021A023437
:1000900001360236ECEF00F07F6A7F807350744ABD
:1000A000752AECEF00F0E86A736E7F6A7F84550E64
:1000B0007E6EAA0E7E6E7F827FB2FED77F94744AD8
:1000C000752AECEF00F0046A036EE86A0306045A2E
:1000D000D8A0ECEF00F0030E026EE70E02D8F5D7C1
:1000E000026AFE0F016EE86A025AD8A012000400EC
:1000F000010600D0F8D7D89001360236FF0FFBE298
:100100000150ECEF00F0D89002320132FF0FFBE219
:100110000150ECEF00F0026A046A036E010E0AD08F
:10012000036E060E07D0026A046A036E040E02D044
:10013000036E050E096E0450025C02E10350015C7F
:10014000040ED8B0010ED8B4020E0914D8A4FF0EC4
:10015000ECEF00F0E866FF0E0114D8A4FF0EECEF00
:1001600000F00110D8A4FF0EECEF00F0066A056A5B
:10017000100E076E0234053606360350055E045035
:10018000065A05E20350052604500622D89001368F
:100190000236072EEFD70150ECEF00F003500702B4
:1001A000F3CF05F0F4CF06F004500802F3CF01F0CE
:1001B000F4CF02F00702F3500626F4500122E86A59
:1001C000022203500802F3500626F4500122E86A86
:1001D00002220550ECEF00F0000104001200030EB3
:1001E000AF6E200EAC6E900EAB6E030E7B6E200ECB
:1001F000BA6E900EA66E1E6AFEEF00F02F92D1EF3F
:1002000001F004002FB258EF01F001C09AF002C0D3
:100210009BF003C09EF004C09FF005C0A2F006C092
:10022000A3F007C0A6F008C0A7F009C0AAF00AC052
:10023000ABF00BC0ACF00CC0ADF00DC0AEF00EC01A
:10024000AFF00FC0B0F010C0B1F011C0B2F012C0EA
:10025000B3F000C0B4F01DC0B5F01FC0B6F020C0B0
:10026000B7F021C0B8F022C0B9F0F8CFD8F0F7CF7E
:10027000DBF0F6CFDAF023C0BAF024C0BBF0F3CF46
:10028000DCF0F4CFDDF013C0BCF014C0BDF015C03D
:10029000C0F016C0C1F017C0C4F018C0C5F019C036
:1002A000C8F01AC0C9F01BC0CCF01CC0CDF02F8222
:1002B0001EB462EF01F02BC0FBFF2AC0FAFF2950E9
:1002C000E06AF96E28C0FBFF27C0FAFF2650E06AFB
:1002D000F96E04002FA2C0EF01F09AC001F09BC09C
:1002E00002F09EC003F09FC004F0A2C005F0A3C0BE
:1002F00006F0A6C007F0A7C008F0AAC009F0ABC07E
:100300000AF0ACC00BF0ADC00CF0AEC00DF0AFC049
:100310000EF0B0C00FF0B1C010F0B2C011F0B3C019
:1003200012F0B4C000F0B5C01DF0B6C01FF0B7C0E9
:1003300020F0B8C021F0B9C022F0D8C0F8FFDBC06F
:10034000F7FFDAC0F6FFBAC023F0BBC024F0DCC070
:10035000F3FFDDC0F4FFBCC013F0BDC014F0C0C09B
:1003600015F0C1C016F0C4C017F0C5C018F0C8C061
:1003700019F0C9C01AF0CCC01BF0CDC01CF02F92F0
:100380001EB4CAEF01F02BC0FBFF2AC0FAFF2950B0
:10039000E06AF96E28C0FBFF27C0FAFF2650E06A2A
:1003A000F96E2F94A4EF02F004002FB42BEF02F0AB
:1003B00001C0DEF002C0DFF003C0E2F004C0E3F0F1
:1003C00005C0E6F006C0E7F007C0EAF008C0EBF0B1
:1003D00009C0EEF00AC0EFF00BC0F0F00CC0F1F075
:1003E0000DC0F2F00EC0F3F00FC0F4F010C0F5F045
:1003F00011C0F6F012C0F7F000C0F8F01DC0F9F01F
:100400001FC0FAF020C0FBF021C0FCF022C0FDF0BC
:10041000F8CF1CF1F7CF1FF1F6CF1EF123C0FEF08D
:1004200024C0FFF0F3CF20F1F4CF21F113C000F18D
:1004300014C001F115C004F116C005F117C008F190
:1004400018C009F119C00CF11AC00DF11BC010F150
:100450001CC011F12F841EB435EF02F02BC0FBFF3E
:100460002AC0FAFF2950E06AF96E28C0FBFF27C0B6
:10047000FAFF2650E06AF96E04002FA493EF02F011
:10048000DEC001F0DFC002F0E2C003F0E3C004F020
:10049000E6C005F0E7C006F0EAC007F0EBC008F0E0
:1004A000EEC009F0EFC00AF0F0C00BF0F1C00CF0A4
:1004B000F2C00DF0F3C00EF0F4C00FF0F5C010F074
:1004C000F6C011F0F7C012F0F8C000F0F9C01DF04E
:1004D000FAC01FF0FBC020F0FCC021F0FDC022F0EC
:1004E0001CC1F8FF1FC1F7FF1EC1F6FFFEC023F0BD
:1004F000FFC024F020C1F3FF21C1F4FF00C113F0BD
:1005000001C114F004C115F005C116F008C117F0BF
:1005100009C118F00CC119F00DC11AF010C11BF07F
:1005200011C11CF02F941EB49DEF02F02BC0FBFFF5
:100530002AC0FAFF2950E06AF96E28C0FBFF27C0E5
:10054000FAFF2650E06AF96E0F015D6B5C6B506B31
:10055000E86A80A2E868136EE86A80A4E868156E0D
:1005600013C001F015500001AAEC00F0156E166ED4
:10057000040015501610D8B4C0EF02F0030E416EFF
:10058000E86A80A2E868136EE86A80B4E868156ECD
:1005900013C001F01550AAEC00F0156E166E0400A1
:1005A00015501610D8B4D7EF02F0040E416EE86A69
:1005B00080B2E868136EE86A80A4E868156E13C01C
:1005C00001F01550AAEC00F0156E166E04001550DF
:1005D0001610D8B4EEEF02F0050E416EE86A80B254
:1005E000E868136EE86A80B4E868156E13C001F01D
:1005F0001550AAEC00F0156E166E0400155016107A
:10060000D8B405EF03F0060E416E948E949C84944A
:100610009694040041500308D8A415EF03F0938288
:100620009380959E959C19EF03F0928A9680939201
:100630009390959894889486949A9596959495928B
:1006400095909494949294909398939A9396929070
:100650009394959AC880C882C894C896C898C88A46
:10066000C88C280EC66E83989598A79AA786A798D7
:100670007D6A560EAF6E100EAB6E040EAC6E736BD1
:10068000546A2E82556A3A6A3B6A2E902D9E796B87
:100690004B684C6A2C9E326A336A2E8E426A040082
:1006A000080E425CD8B066EF03F042508A0FE96E44
:1006B000000EEA6AEA22EF684250820FE96E000EED
:1006C000EA6AEA22EF68422AD8A0E9D74A6A2D9658
:1006D0002D944C0E536E2E985A6A2D9A4A6A2D9676
:1006E0004D6A2D9C726B2E9A2D902E963E6A576AFB
:1006F000A4EC11F0C5EF03F0FBCF6FF0FACF6DF073
:10070000E9CF60F0EACF61F0E1CF64F0E2CF65F0CD
:10071000D9CF68F0DACF69F01E841E90E06A9DAAF6
:10072000A7EF03F09EAAA7EF03F01E8004003E0E81
:10073000266E070E276E000E286E01EF01F04E0E9A
:10074000266E070E276E000E286E82EF05F0E06A17
:100750001EB08DEF03F0660E266E070E276E000E9C
:10076000286E69EF01F01E9460C0E9FF61C0EAFFE6
:1007700064C0E1FF65C0E2FF68C0D9FF69C0DAFF6D
:100780006DC0FAFF6FC0FBFF1100F28EF28C50EFCC
:1007900004F0E8CF25F0D8CF71F0E0CF6CF0FBCFBC
:1007A00070F0FACF6EF0E9CF62F0EACF63F0E1CFFC
:1007B00066F0E2CF67F0D9CF6AF0DACF6BF01E9423
:1007C000E06A1E92F2AAFBEF03F0F2A4FBEF03F043
:1007D0001E820400E40E296E070E2A6E000E2B6E98
:1007E000D4EF01F0F40E296E070E2A6E000E2B6E68
:1007F000F9EF05F0F294E06A9DA215EF04F09EA2D5
:1008000015EF04F01E820400180E296E080E2A6EE1
:10081000000E2B6ED4EF01F0280E296E080E2A6E02
:10082000000E2B6E0FEF06F09E92E06A9DA62EEF53
:1008300004F09EA62EEF04F01E8204004C0E296EDA
:10084000080E2A6E000E2B6ED4EF01F05C0E296E9E
:10085000080E2A6E000E2B6ECDEF06F0E06A1EB277
:10086000E0EF03F0720E296E080E2A6E000E2B6E5A
:1008700003D662C0E9FF63C0EAFF66C0E1FF67C05C
:10088000E2FF6AC0D9FF6BC0DAFF70C0FBFF6EC029
:10089000FAFF6CC0E0FF25C0E8FF71C0D8FF100070
:1008A000D08EF28C810ED56E7F0ECA6E9F8A9D8A85
:1008B000F194F28A9F929D829F969D86D66AD76A0E
:1008C000D58E9D82CA849D86F28CF28EAB8EAB98BB
:1008D0009D8A9E9AAB88AC8AB99AB986B9987C6A87
:1008E000560E7B6E100EA66E040EBA6EA68EA698DD
:1008F000A688BA8AC4EC0EF0746A756A4CEC00F0F3
:10090000526E010E746E756A4CEC00F04E6E020E63
:10091000746E756A4CEC00F04F6E030E746E756A5F
:100920004CEC00F0506E040E746E756A4CEC00F0E6
:10093000516E050E746E756A4CEC00F0576E4E5099
:100940004F08D8A4E868136E4E505208D8A4E8683F
:10095000156E13C001F01550AAEC00F0156E166E5E
:10096000040015501610D8B4B8EF04F04F0E4E6EB8
:10097000400E596E456873EC12F0040040500108B7
:10098000D8A4C8EF04F0700E596E456873EC12F0ED
:10099000400E746E756A4CEC00F07C6F04007C5164
:1009A000415CD8B4DAEF04F0400E746E756A4150C1
:1009B00054EC00F0410E746E756A4CEC00F07C6FE4
:1009C00004007C510308D8B4ECEF04F0410E746EBF
:1009D000756A030E54EC00F0420E746E756A4CECAE
:1009E00000F07C6F04007C510108D8B4FEEF04F0E5
:1009F000420E746E756A010E54EC00F0430E746E74
:100A0000756A4CEC00F07C6F04007C510708D8B488
:100A100010EF05F0430E746E756A070E54EC00F08B
:100A20004A0E746E756A4CEC00F07C6F04007C51C9
:100A30000008D8B422EF05F04A0E746E756A000EF5
:100A400054EC00F04B0E746E756A000E54EC00F01E
:100A5000546A586AD1EC11F0A4EC11F08086929699
:100A600084929692B5EC10F085EC10F0010E046EB5
:100A7000F40E64EC00F093EC10F0530E2BEC00F04D
:100A8000740E2BEC00F0610E2BEC00F0720E2BECD0
:100A900000F0740E2BEC00F0750E2BEC00F0700ED5
:100AA0002BEC00F0200E2BEC00F0640E2BEC00F091
:100AB0006F0E2BEC00F06E0E2BEC00F0650E2BECA5
:100AC00000F00D0E2BEC00F00A0E2BEC00F0E3EC26
:100AD00006F014EC11F030EC11F085EC0BF035EC75
:100AE00009F0040053504C08D8A47BEF05F036EC15
:100AF0000FF07DEF05F018EC0FF0A7EC0BF033ECE6
:100B00000CF0E5D75FC05EF0AECF5FF004002EA81A
:100B1000CCEF05F05A50220FE96E010EEA6AEA2284
:100B20005FC0EFFF5A045D6E5D50220FE96E010E4B
:100B3000EA6AEA22EFCF13F013500D08D8A4E86850
:100B4000FF0A136E5A50220FE96E010EEA6AEA227A
:100B5000EFCF15F015500A08D8A4E868FF0A156E03
:100B600013C001F01550AAEC00F0156E166E0400CB
:100B700015501610D8B4C0EF05F0AB982E982D8AFA
:100B80005A2A0400B30E5A5CD8A0CAEF05F0AB98FD
:100B90002E982D8AE7EF05F05E505308D8A4E86838
:100BA000FF0A136E5F505408D8A4E868FF0A156E58
:100BB00013C001F01550AAEC00F0156E166E04007B
:100BC00015501610D8B4E7EF05F05A6A2E88AB8896
:100BD0001EB4F2EF05F02BC0FBFF2AC0FAFF29502C
:100BE000E06AF96E28C0FBFF27C0FAFF2650E06AD2
:100BF000F96ED59EF2944A6A010E406E1EB408EF5B
:100C000006F02BC0FBFF2AC0FAFF2950E06AF96EFC
:100C100028C0FBFF27C0FAFF2650E06AF96ECA948D
:100C20009E92792B040079511408D8A427EF06F07E
:100C3000808692962D9E3AC001F03BC002F0046A75
:100C4000000E90EC00F0D8A427EF06F02E800400F0
:100C5000FA0E795DD8A058EF06F0796B80969296DF
:100C60002D8E3AC001F03BC002F0046A000E90ECF9
:100C700000F0D8A43DEF06F02E803E2A3EC001F0E1
:100C8000050E8BEC00F0136EE86A2DB0E868156E67
:100C900013C001F01550AAEC00F0156E166E04009A
:100CA00015501610D8B458EF06F02E862D902E80D1
:100CB0000400010E4D5CD8A066EF06F04D0604005E
:100CC0004D500008D8A466EF06F02D8C0400010EEC
:100CD000725DD8A074EF06F072070400725100082C
:100CE000D8A474EF06F02E8A3AC001F03BC002F09F
:100CF000046A000E90EC00F0D8A482EF06F03A06E9
:100D0000000E3B5A016A026A3BC004F03A5098EC6C
:100D100000F0D8A495EF06F04C6A040053504C083C
:100D2000D8A495EF06F084829692E86A2CBEE86813
:100D3000136E30C001F031C002F0046A000E8DEC79
:100D400000F0156E13C001F01550AAEC00F0156EFE
:100D5000166E040015501610D8B4B2EF06F0300627
:100D6000000E315A04002CAEB9EF06F0322A000E04
:100D70003322742B2E8CCA841EB4C6EF06F02BC00F
:100D8000FBFF2AC0FAFF2950E06AF96E28C0FBFF7A
:100D900027C0FAFF2650E06AF96E9D964A2A2D86F2
:100DA0009E969D861EB4DCEF06F02BC0FBFF2AC08A
:100DB000FAFF2950E06AF96E28C0FBFF27C0FAFF4E
:100DC0002650E06AF96E04002DAA1FEF08F0AB98D8
:100DD0002D9A0400100E5A5CD8A01DEF08F00101F6
:100DE00022514F08D8A4E868FF0A136E2251520816
:100DF000D8A4E868FF0A156E13C001F01550000171
:100E0000B1EC00F0156E166E040015501610D8B433
:100E10000EEF07F045EC09F01DEF08F0010122513B
:100E20000008D8A4E868FF0A136E23510008D8A46C
:100E3000E868FF0A156E13C001F015500001AAEC16
:100E400000F0156E166E010124510008D8A4E86860
:100E5000FF0A176E15501610016E17500001AAEC0C
:100E600000F0176E186E010125510008D8A4E8683B
:100E7000FF0A196E17501810016E19500001AAECE4
:100E800000F0196E1A6E040019501A10D8B4F0EF61
:100E900007F0010126514C08D8A4E868FF0A136E38
:100EA00027514C08D8A4E868FF0A156E13C001F05A
:100EB00015500001AAEC00F0156E166E04001550D6
:100EC0001610D8B46EEF07F0040053504908D8A4A8
:100ED0006CEF07F0848296924C0E536E01012651FE
:100EE0004908D8A4E868FF0A136E27514908D8A416
:100EF000E868FF0A156E13C001F015500001AAEC56
:100F000000F0156E166E040015501610D8B493EF4D
:100F100007F0040053504C08D8A491EF07F08492D6
:100F20009692490E536E010126514E08D8A4E868E6
:100F3000FF0A136E27514E08D8A4E868FF0A156E01
:100F400013C001F015500001AAEC00F0156E166EEA
:100F5000040015501610D8B4B0EF07F02E962E806E
:100F6000010126515308D8A4E868FF0A136E2751DF
:100F70005308D8A4E868FF0A156E13C001F0155095
:100F80000001AAEC00F0156E166E04001550161044
:100F9000D8B4CDEF07F02E862E80010126515408DB
:100FA000D8A4E868FF0A136E27514D08D8A4E86852
:100FB000FF0A156E13C001F015500001AAEC00F0F5
:100FC000156E166E040015501610D8B4EEEF07F02B
:100FD0004B682E968472969239EC08F01DEF08F05B
:100FE00053504908D8A4E868FF0A136E0101225142
:100FF0004108D8A4E868FF0A156E13C001F0155027
:101000000001AAEC00F0156E166E01012351440890
:10101000D8A4E868FF0A176E15501610016E175015
:101020000001AAEC00F0176E186E0400175018109B
:10103000D8B41DEF08F039EC11F05A6AAB881200F1
:10104000040041500308D8A430EF08F081B22C8A84
:1010500081A22C9A81B02C8C81A02C9C38EF08F0B6
:1010600080BA2C8A80AA2C9A84B02C8C84A02C9CC8
:10107000120004000101285156080001D8A480EF95
:1010800008F083889598410E24EC00F0410E24EC82
:1010900000F0410E24EC00F0520E24EC00F0430E60
:1010A00024EC00F0000E24EC00F0000E24EC00F024
:1010B000000E24EC00F0000E24EC00F0560E24ECA0
:1010C00000F04E5024EC00F0415024EC00F0030EF0
:1010D00024EC00F0010E24EC00F0070E24EC00F0EC
:1010E0000D0E24EC00F00A0E24EC00F00D0E24ECA2
:1010F00000F00A0E24EC00F08398959834EF09F084
:1011000004000101285153080001D8A4B3EF08F0EE
:10111000546A426A0400080E425CD8B0AFEF08F08F
:10112000070E4224136E146A14361350220FE96E10
:10113000010E1420EA6EEFCF13F00400010E135CD1
:10114000D8A0ACEF08F0800E016E026A425086EC27
:1011500000F07C6F7C515412422AD8A0DBD7D6EC29
:101160000DF034EF09F0040001012851420800019C
:10117000D8A434EF09F064DF838895980400010156
:10118000295101080001D8A4F8EF08F0410E24EC21
:1011900000F0410E24EC00F0410E24EC00F0520E61
:1011A00024EC00F0430E24EC00F0000E24EC00F0E0
:1011B000000E24EC00F0000E24EC00F0000E24ECF5
:1011C00000F0420E24EC00F0010E24EC00F0000EC2
:1011D0002CBA010E24EC00F00D0E24EC00F00A0EE7
:1011E00024EC00F00D0E24EC00F00A0E24EC00F0CC
:1011F00004000101295102080001D8A432EF09F0CE
:10120000410E24EC00F0410E24EC00F0410E24ECE1
:1012100000F0520E24EC00F0430E24EC00F0000E1F
:1012200024EC00F0000E24EC00F0000E24EC00F0A2
:10123000000E24EC00F0420E24EC00F0020E24EC30
:1012400000F0000E2CBC010E24EC00F00D0E24EC7E
:1012500000F00A0E24EC00F00D0E24EC00F00A0E53
:1012600024EC00F08398959812000400ABA43BEFA7
:1012700009F0AECF7CF00400ABA244EF09F0AB98CC
:10128000020E63EC00F0AB881200010122514E5CAB
:10129000D8A4E868FF0A136E23514F5CD8A4E8680D
:1012A000FF0A156E13C001F015500001AAEC00F002
:1012B000156E166E01012451505CD8A4E868FF0A2F
:1012C000176E15501610016E17500001AAEC00F0B1
:1012D000176E186E01012551515CD8A4E868FF0A09
:1012E000196E17501810016E19500001AAEC00F089
:1012F000196E1A6E040019501A10D8B42CEF0AF0A7
:10130000010126514608D8A4E868FF0A136E275148
:101310005608D8A4E868FF0A156E13C001F01550EE
:101320000001AAEC00F0156E166E040015501610A0
:10133000D8B4A1EF09F0560E766F2DEC0AF02CEF21
:101340000AF0010126514608D8A4E868FF0A136E86
:1013500027515208D8A4E868FF0A156E13C001F09F
:1013600015500001AAEC00F0156E166E0400155021
:101370001610D8B4CEEF09F04B0E746E756A0101E9
:101380002851000154EC00F0520E766F2DEC0AF05B
:10139000050E63EC00F0FF002CEF0AF0010126516E
:1013A0002725136E146A143628511326E86A14226E
:1013B00029511326E86A14222A511326E86A1422B6
:1013C0002B511326E86A14222C511326E86A1422A2
:1013D0002D511326E86A14222E511326E86A14228E
:1013E0002F511324346EE86A1420356E30514308AF
:1013F000D8A4E868FF0A136E3151355CD8A4E868B8
:10140000FF0A156E13C001F015500001AAEC00F0A0
:10141000156E166E01013251345CD8A4E868FF0ADB
:10142000176E15501610016E17500001AAEC00F04F
:10143000176E186E040017501810D8B42CEF0AF06D
:1014400026C154F027C14BF0D6EC0DF04B0E766F51
:1014500054C077F0D2EC10F0120083889598040005
:1014600076515608D8A4F3EF0AF04E504F24136E6D
:10147000146A143650501326E86A14225150132669
:10148000E86A1422460E1326000E1422560E132666
:10149000000E1422FF0E1326000E142241501326B4
:1014A000E86A1422030E1326000E1422132A000EDB
:1014B0001422070E1324346E000E1420356E410ED4
:1014C00024EC00F0410E24EC00F0410E24EC00F07E
:1014D000520E24EC00F0430E24EC00F04E5024ECAD
:1014E00000F04F5024EC00F0505024EC00F051502C
:1014F00024EC00F0460E24EC00F0560E24EC00F034
:10150000FF0E24EC00F0415024EC00F0030E24EC1C
:1015100000F0010E24EC00F0070E24EC00F0000EA9
:1015200024EC00F0430E24EC00F0355024EC00F0E5
:10153000345024EC00F00D0E24EC00F00A0E24ECE4
:1015400000F00D0E24EC00F00A0E24EC00F0410E29
:1015500024EC00F0410E24EC00F0410E24EC00F0ED
:10156000520E24EC00F0430E24EC00F04E5024EC1C
:1015700000F04F5024EC00F0505024EC00F051509B
:1015800024EC00F0460E24EC00F0560E24EC00F0A3
:10159000FF0E24EC00F0415024EC00F0030E24EC8C
:1015A00000F0010E24EC00F0070E24EC00F0000E19
:1015B00024EC00F0430E24EC00F0355024EC00F055
:1015C000345024EC00F00D0E24EC00F00A0E24EC54
:1015D00000F00D0E24EC00F00A0E24EC00F08398CD
:1015E000959882EF0BF04E504F24136E146A143608
:1015F00050501326E86A142251501326E86A142228
:10160000460E1326000E1422520E1326000E14222C
:10161000FF0E1324346E000E1420356E410E24ECA0
:1016200000F0410E24EC00F0410E24EC00F0520ECC
:1016300024EC00F0430E24EC00F04E5024EC00F0BB
:101640004F5024EC00F0505024EC00F0515024ECAA
:1016500000F0460E24EC00F0520E24EC00F0FF0ED9
:1016600024EC00F0430E24EC00F0355024EC00F0A4
:10167000345024EC00F00D0E24EC00F00A0E24ECA3
:1016800000F00D0E24EC00F00A0E24EC00F0410EE8
:1016900024EC00F0410E24EC00F0410E24EC00F0AC
:1016A000520E24EC00F0430E24EC00F04E5024ECDB
:1016B00000F04F5024EC00F0505024EC00F051505A
:1016C00024EC00F0460E24EC00F0520E24EC00F066
:1016D000FF0E24EC00F0430E24EC00F0355024EC17
:1016E00000F0345024EC00F00D0E24EC00F00A0E53
:1016F00024EC00F00D0E24EC00F00A0E24EC00F0B7
:101700008398959883989598120004002EA0A3EFD3
:101710000BF02E9004002DBE98EF0BF0541C7C6F44
:10172000A4EC0BF073EC12F084829692A3EF0BF012
:10173000545055187D6F7D1D7C6FA4EC0BF073EC3D
:1017400012F08492969212007CC045F012000400C0
:101750002EAC32EF0CF02E9C426A0400080E425C64
:10176000D8B032EF0CF042508A0FE96E000EEA6AF0
:10177000EA22EFCF13F013C001F0000E8BEC00F063
:10178000136E42508A0FE96E000EEA6AEA22EFCF2A
:1017900015F015C001F0FF0E93EC00F0156E13C0AC
:1017A00001F01550AAEC00F0156E166E04001550ED
:1017B0001610D8B4F1EF0BF042508A0FE96E000E0C
:1017C000EA6AEA22EFCF13F01304136E146A000ED4
:1017D000145A42508A0FE96E000EEA6AEA2213C0D8
:1017E000EFFF4250820FE96E000EEA6AEA22EFCF65
:1017F00013F013C001F0000E8BEC00F0136E42509A
:10180000820FE96E000EEA6AEA22EFCF15F015C0EA
:1018100001F0FF0E93EC00F0156E13C001F01550AF
:10182000AAEC00F0156E166E040015501610D8B410
:101830002FEF0CF04250820FE96E000EEA6AEA22A6
:10184000EFCF13F01304136E146A000E145A4250B3
:10185000820FE96E000EEA6AEA2213C0EFFF422A05
:10186000D8A07BD7120004008A510008D8A442EF08
:101870000CF0828A949A839695968A69060E726F06
:101880004FEF0CF0040082510008D8A44FEF0CF089
:1018900083869596829A949A8269060E726F0400E6
:1018A0008B510008D8A45EEF0CF08384959483924A
:1018B00095928B69060E726F6BEF0CF004008351EA
:1018C0000008D8A46BEF0CF08382959283949594D2
:1018D0008369060E726F04008C510008D8A47AEF59
:1018E0000CF083809590829494948C69060E726FAC
:1018F00087EF0CF0040084510008D8A487EF0CF0A7
:1019000082849494839095908469060E726F04008B
:101910008D510008D8A496EF0CF0828294928290A8
:1019200094908D69060E726FA3EF0CF00400855140
:101930000008D8A4A3EF0CF0828094908292949235
:101940008569060E726F04008E510008D8A4B2EFAC
:101950000CF081889398819A939A8E69060E726F23
:10196000BFEF0CF0040086510008D8A4BFEF0CF0C4
:10197000818A939A819893988669060E726F040003
:101980008F510008D8A4CEEF0CF0818693968090FA
:1019900092908F69060E726FDBEF0CF00400875196
:1019A0000008D8A4DBEF0CF080809290819693968B
:1019B0008769060E726F040090510008D8A4F4EFF6
:1019C0000CF081949394040041500308D8A4EDEFE7
:1019D0000CF0838E959EEFEF0CF0818293929069CC
:1019E000060E726F0BEF0DF0040088510008D8A4AA
:1019F0000BEF0DF081849394040041500308D8A4A8
:101A000006EF0DF0839E959E08EF0DF08192939264
:101A10008869060E726F040091510008D8A424EF63
:101A20000DF0040041500308D8A41BEF0DF0838C87
:101A3000959C1DEF0DF081809390839A959A916902
:101A4000060E726F3BEF0DF0040089510008D8A418
:101A50003BEF0DF0838A959A040041500308D8A407
:101A600036EF0DF0839C959C38EF0DF081909390AC
:101A70008969060E726F120004004E505208D8A4F5
:101A8000D5EF0DF05C6A0400040E5C5CD8B0D5EFB5
:101A90000DF02C0EE96EEA6A5C50000F0EEC00F0BF
:101AA000D8901CEC00F05CC007F0086A020E036ED0
:101AB000046ACEEC00F0136E06C014F0030E016E43
:101AC00013507EEC00F07A6F54507A175CC007F028
:101AD000086A020E036E046ACEEC00F0136E06C0B4
:101AE00014F07AC001F0026A135086EC00F07A6FAD
:101AF00004007A510308D8A4D2EF0DF05CC007F0BF
:101B0000086A020E036E046ACEEC00F0136E06C083
:101B100014F056C001F0026A135086EC00F07B6F9F
:101B20002C0EE96EEA6A5C50000F0EEC00F0D880D3
:101B30001CEC00F00400D8967BA1D886D8B6BCEF88
:101B40000DF05CC007F0086A020E036E046ACEEC6A
:101B500000F0136E06C014F0132A000E1422010EBA
:101B6000016E13507EEC00F0756F75515612751FA3
:101B700075515416D2EF0DF05CC007F0086A020EE2
:101B8000036E046ACEEC00F0136E06C014F0010E72
:101B9000016E13507EEC00F0756F75515612751F73
:101BA000755154165C2AD8A06ED7120004002EAED0
:101BB000DDEF0DF02E9E541C586E58505418566E82
:101BC0005BDF541C7C6FA4EC0BF073EC12F0426AE8
:101BD0000400080E425CD8B051EF0EF056C001F080
:101BE000026A425086EC00F07C6F54C001F0026A39
:101BF000425086EC00F07D6F0400D8967CA1D88618
:101C0000D8B64EEF0EF00400D8967DA1D886D8B68F
:101C100047EF0EF004004E505208D8A43EEF0EF0ED
:101C2000D8904230136E146A2C0EE96EEA6A135093
:101C3000000F0EEC00F0000ED8A4010E136E146A13
:101C4000010E016E026A14C004F0135098EC00F00B
:101C5000D8A435EF0EF042508A0FE96E000EEA6A02
:101C6000EA22640EEF6E3CEF0EF042508A0FE96EEE
:101C7000000EEA6AEA22EF6A45EF0EF042508A0F40
:101C8000E96E000EEA6AEA22EF6A4EEF0EF0425069
:101C9000820FE96E000EEA6AEA22EF6A422AD8A0B1
:101CA00097D754C058F00400080E4B5CD8B063EFCF
:101CB0000EF0010E016E4B507EEC00F0556E050EDD
:101CC0003A6E0C0E3B6E4F50FF08D8A4E868FF0A2E
:101CD000136E5050FF08D8A4E868FF0A156E13C0B1
:101CE00001F01550AAEC00F0156E166E5150FF0869
:101CF000D8A4E868FF0A176E15501610016E175029
:101D0000AAEC00F0176E186E040017501810D8B423
:101D100093EF0EF0050E746E756A541C136E146802
:101D2000135054EC00F01200040052504508D8B48F
:101D3000C3EF0EF04E0E526E5B6A0400030E5B5C46
:101D4000D8B0BDEF0EF03CC001F03DC002F03CEC5D
:101D500000F001C03CF002C03DF03C507425136E11
:101D6000146A14365B50920FE96E000EEA6AEA229A
:101D700013C0EFFF5B2AD8A0E0D792C04FF093C00A
:101D800050F094C051F01200756B0400290E755D7F
:101D9000D8B0E0EF0EF020EC08F004002CBAD3EF3E
:101DA0000EF0010E786F04002CAADAEF0EF0280E68
:101DB000756F786B320E63EC00F0752BD8A0E5D709
:101DC0000400010E785DD8A017EF0FF0746A756AF1
:101DD000FF0E54EC00F0010E746E756AFF0E54ECA9
:101DE00000F0020E746E756AFF0E54EC00F0030EE4
:101DF000746E756AFF0E54EC00F0040E746E756A12
:101E0000FF0E54EC00F0756B0400040E755DD8B045
:101E100017EF0FF084929692640E63EC00F08482C8
:101E20009692640E63EC00F0752BD8A0EDD71200EB
:101E300020EC08F004002CBA2EEF0FF004007351D0
:101E40000008D8A42CEF0FF06FDF050E736F766BD0
:101E500052C077F0D2EC10F035EF0FF00400010E15
:101E6000735DD8A035EF0FF07307120020EC08F077
:101E7000E86A2CACE868136EE86A2EB6E868156E5E
:101E800013C001F01550AAEC00F0156E166E040098
:101E900015501610D8B451EF0FF02D803E6A2E96D3
:101EA0002E8004002CBAC7EF0FF02C8E016A026A54
:101EB00031C004F0305098EC00F0D8A462EF0FF07D
:101EC00069EC10F04F50FF08D8A4E868FF0A136EC1
:101ED0005050FF08D8A4E868FF0A156E13C001F03F
:101EE0001550AAEC00F0156E166E5150FF08D8A4DC
:101EF000E868FF0A176E15501610016E1750AAEC0D
:101F000000F0176E186E040017501810D8B4C5EF03
:101F10000FF032C001F033C002F0046A960E8DEC6F
:101F200000F0136E32C001F033C002F0046AAA0E52
:101F300095EC00F0156E13C001F01550AAEC00F0FE
:101F4000156E166E3AC001F03BC002F0046A000E36
:101F50008DEC00F0176E15501610016E1750AAEC9C
:101F600000F0176E186E040017501810D8B4C5EFA3
:101F70000FF0AA0E326E336A010E016E4C507EECE9
:101F800000F07E6F7E51541A11DE44EF10F0040011
:101F90002CAE3FEF10F04F50FF08D8A4E868FF0ABE
:101FA000136E5050FF08D8A4E868FF0A156E13C0DE
:101FB00001F01550AAEC00F0156E166E5150FF0896
:101FC000D8A4E868FF0A176E15501610016E175056
:101FD000AAEC00F0176E186E040017501810D8B451
:101FE0003FEF10F032C001F033C002F0046A030E7C
:101FF0008DEC00F0136E32C001F033C002F0046AC1
:10200000320E95EC00F0156E13C001F01550AAECDD
:1020100000F0156E166E040015501610D8B43DEF82
:1020200010F0016A026A3BC004F03A5098EC00F0EC
:10203000D8A429EF10F0010E016E4C507EEC00F098
:10204000556E940E3A6E110E3B6E45EC10F03DEF5E
:1020500010F04C2A0400080E4C5CD8A031EF10F0B0
:102060004C6A010E016E4C507EEC00F0556E940EE1
:102070003A6E110E3B6E45EC10F0326A336A2C9EBC
:10208000EE0E306E020E316E12002E9054C001F032
:10209000026A4C5086EC00F07E6F0400D8967EA158
:1020A000D886D8B660EF10F0551C136E14685450E3
:1020B0001316146A131C456E73EC12F068EF10F0DF
:1020C00054505510136E146A131C456E73EC12F0C5
:1020D0001200546AD6EC0DF004004E504F08D8A4FC
:1020E00076EF10F0520E4E6E78EF10F04F0E4E6EEF
:1020F000010E746E756A4E5054EC00F093EC10F0C3
:10210000EE0E306E020E316E1200456A73EC12F064
:1021100084929692C80E63EC00F0456873EC12F05E
:10212000848296921200426A0400050E425CD8B086
:10213000B3EF10F004004E504F08D8A4A3EF10F0F6
:10214000456AA5EF10F0AA0E456E73EC12F04B0E27
:1021500063EC00F0456873EC12F0320E63EC00F0B3
:10216000422AD8A0E1D72E801200426A0400080E4D
:10217000425CD8B0D0EF10F0010E016E026A4250FE
:102180007EEC00F0136E02C014F0FF0E1318456EC3
:1021900073EC12F0320E63EC00F0422AD8A0E6D7BE
:1021A0002E801200040053504C08D8A4DDEF10F02C
:1021B000849296922D9C140E4D6E050E026E460E64
:1021C00071EC00F083889598410E24EC00F0410EEC
:1021D00024EC00F0410E24EC00F0520E24EC00F050
:1021E000430E24EC00F04E5024EC00F04F5024EC51
:1021F00000F0505024EC00F0515024EC00F07651E7
:1022000024EC00F0775124EC00F00D0E24EC00F0EB
:102210000A0E24EC00F00D0E24EC00F00A0E24EC63
:1022200000F0839895981200E86A2DBCE868136E58
:1022300053504C08D8A4E868FF0A156E13C001F08B
:102240001550AAEC00F0156E166E0400155016100D
:10225000D8B42FEF11F0848296922D9C4D6A120013
:1022600004002EAA38EF11F0A4EC11F02E9A726B34
:10227000120052504E08D8A4E868FF0A136E0101FC
:1022800024514E5CD8A4E868FF0A156E13C001F013
:1022900015500001AAEC00F0156E166E01012551D3
:1022A0004F5CD8A4E868FF0A176E15501610016E2F
:1022B00017500001AAEC00F0176E186E01012651AC
:1022C000505CD8A4E868FF0A196E17501810016E08
:1022D00019500001AAEC00F0196E1A6E0101275185
:1022E000515CD8A4E868FF0A1B6E19501A10016EE1
:1022F0001B500001AAEC00F01B6E1C6E04001B506A
:102300001C10D8B4A3EF11F0450E526E746A756AB2
:10231000525054EC00F0010E746E756A4E5054EC3D
:1023200000F0020E746E756A4F5054EC00F0030E0C
:10233000746E756A505054EC00F0040E746E756A39
:10234000515054EC00F01200829A949A839695961C
:10235000839495948392959283909590829494948B
:10236000829294928290949081989398819A939A71
:10237000819693968090929081949394839A959A63
:10238000040041500308D8A4CCEF11F0839E959E21
:10239000839C959CD0EF11F08192939281909390C1
:1023A00012004F50FF08D8A4E868FF0A136E50507F
:1023B000FF08D8A4E868FF0A156E13C001F0155095
:1023C000AAEC00F0156E166E5150FF08D8A4E8680C
:1023D000FF0A176E15501610016E1750AAEC00F088
:1023E000176E186E040017501810D8B44EEF12F084
:1023F00004005750FF08D8A448EF12F0829A949A2C
:102400008386959683949594838295921E0E63ECB1
:1024100000F083969596839295928390959082840E
:10242000949482929492828094901E0E63EC00F0B9
:10243000829494948290949081989398818A939AAC
:1024400081969396808092901E0E63EC00F0819AA4
:10245000939A8090929081849394838A959A0400B1
:1024600041500308D8A43BEF12F0839E959E839CB5
:10247000959C3FEF12F081929392819093901E0E63
:1024800063EC00F081949394839A959A4EEF12F046
:10249000571C546E541C586ED6EC0DF01200A00E52
:1024A000446E2D9489EC12F01200A10E446E2D940E
:1024B0001200D00E446E2D8443C037F089EC12F028
:1024C0001200D10E446E2D8443C037F07AEC12F026
:1024D00012000400C5BC71EF12F02D82C58C72EFA2
:1024E00012F02D92120059C044F02D842E8489ECF4
:1024F00012F01200040044B07FEF12F044802D88E7
:102500002D86010E4A6ED66AD76AD58ED0EC12F0AF
:102510001200040044A08EEF12F044902D982D86F6
:10252000010E4A6ED66AD76AD58E98EC12F0120068
:102530000400010E4A5CD8A0CFEF12F004002DA6D3
:10254000CEEF12F02D9614EC13F004004A5005085B
:10255000D8A4B2EF12F0BDDF04002DA2B2EF12F04A
:1025600045C0C9FF04004A500608D8A4BEEF12F0C7
:10257000B0DF04002DA2BEEF12F0C58404004A5063
:102580000708D8A4CEEF12F04A6AD59E406A04002C
:102590002DB4CEEF12F0050E63EC00F0C9D7120097
:1025A0000400010E4A5CD8A013EF13F004002DA61E
:1025B00012EF13F02D9614EC13F004004A500508A6
:1025C000D8A4E9EF12F085DF04002DA2E9EF12F0A4
:1025D000C58004004A500608D8A4F1EF12F044C0A8
:1025E000C9FF04004A500708D8A4F8EF12F0C586C6
:1025F00004004A500808D8A402EF13F0C9CF45F0F0
:10260000090E4A6E04004A500908D8A409EF13F0D5
:10261000C58404004A500A08D8A412EF13F04A6A8D
:10262000B190406ABDD7120004004A500108D8A4F6
:102630001BEF13F0C58004004A500208D8A425EF10
:1026400013F044502DB8E804C96E04004A50030842
:10265000D8A43AEF13F004002EB438EF13F039DFAA
:1026600004002DA236EF13F037C0C9FF3AEF13F084
:10267000050E4A6E04004A500408D8A44AEF13F02D
:1026800004002DA448EF13F0050E4A6E4AEF13F034
:0A26900036C0C9FF12000300FED798
:020000040030CA
:020000040000FA
:10667000FFFFFFFFFFFFFFFFEFEF00F0FFFFFFFF58
:020000040000FA
:1066C0000400CF7F0000E300000009000000CA7F43
:1066D0000000EC00000005000000C07F0000D900B1
:1066E00000000A000000BE7F0000F500000002006C
:0266F0000000A8
:0E66F200D4EC3AF0030EE126640EF36E020EB5
:10670000F3CFDBFFDE6ADD6ADECF10F0DDCF11F004
:10671000FD0EDBCF12F0FE0E28EC3BF00BE2020E7A
:10672000DBCFE6FFD3EC3FF0E552DF2A010EECE3CE
:10673000DB2AEAD7030EE15C02E2E16AE552E16E90
:10674000D9EF3AF0D4EC3AF0E652FD0EDBCF10F080
:10675000DB06FE0EDBCF11F001E2DB06105011105C
:1067600007E00A0EE66EE66AC4DFE552E552EDD7B1
:10677000E552D9EF3AF0D9CFE6FFE1CFD9FF0A0EC3
:10678000E126DF6A4A0EE66EE66A9CEC39F0E552D5
:10679000E552E76E010EE7CFDBFF020EDB6A030E68
:1067A000DB6AF29ED19096949692040EE66EE66AAB
:1067B000010EE66EE66ACB0EE66E000EE66E52EC59
:1067C00039F0106E060EE15E1050030EE66EE66ABA
:1067D000410EE66EE66AF20EE66E000EE66E52ECD2
:1067E00039F0106E060EE15E105086EC3BF036EC90
:1067F0003DF00001E16B0001CB5109E00001CB51FC
:10680000106E116AFF0E101801E1115013E19DEC9A
:1068100038F0010EE66EBF0EE66E7E0EE66E000EDE
:10682000E66ECBEC3DF0E552E552E552E552000153
:10683000E16B63D046EC38F000091AE00001010E6C
:10684000E16F00011E0EDD6FDE6BDF6BE06B80AA77
:10685000FED7010EE66EBC0EE66E7E0EE66E000EF4
:10686000E66ECBEC3DF0E552E552E552E55245D0FF
:10687000010EDB50040818E10001010EE16F000178
:106880000A0EDD6FDE6BDF6BE06B010EE66EB90E9C
:10689000E66E7E0EE66E000EE66ECBEC3DF0E55247
:1068A000E552E552E55229D04B0EE66EE66A9CECC5
:1068B00039F0E552E5520001DD6F0001DE6BDF6B60
:1068C000E06BD880000E0001DD55000EDE55000E95
:1068D000DF55000EE05503E20001010EE16F010EED
:1068E000E66EB60EE66E7E0EE66E000EE66ECBEC43
:1068F0003DF0E552E552E552E552010EE66EB40E6A
:10690000E66E7E0EE66E000EE66ECBEC3DF0E552D6
:10691000E552E552E552010EE66EAD0EE66E7E0ED4
:10692000E66E000EE66ECBEC3DF0E552E552E55228
:10693000E552010EE66EA70EE66E7E0EE66E000EC6
:10694000E66ECBEC3DF0E552E552E552E552010E24
:10695000E66EDDC0E6FF74EC3DF0E552E552000165
:10696000D890DD37DE37DF37E037010EE66EA20E56
:10697000E66E7E0EE66E000EE66ECBEC3DF0E55266
:10698000E552E552E552010EE66E010EE66E74EC3C
:106990003DF0E552E552010EE66EA00EE66E7E0E6B
:1069A000E66E000EE66ECBEC3DF0E552E552E552A8
:1069B000E552010EE66E090EE66E74EC3DF0E5520E
:1069C000E552010EE66E9B0EE66E7E0EE66E000E42
:1069D000E66ECBEC3DF0E552E552E552E552010E94
:1069E000E66EF2C0E6FF74EC3DF0E552E552010EB2
:1069F000E66EA00EE66E7E0EE66E000EE66ECBEC48
:106A00003DF0E552E552E552E552010EE66EF3C067
:106A1000E6FF74EC3DF0E552E552010EE66EA00E85
:106A2000E66E7E0EE66E000EE66ECBEC3DF0E552B5
:106A3000E552E552E552010EE66EF4C0E6FF74EC55
:106A40003DF0E552E552010EE66E970EE66E7E0EC3
:106A5000E66E000EE66ECBEC3DF0E552E552E552F7
:106A6000E552010EE66ECBC0E6FF74EC3DF0E55258
:106A7000E552010EE66EA00EE66E7E0EE66E000E8C
:106A8000E66ECBEC3DF0E552E552E552E552010EE3
:106A9000E66ECCC0E6FF74EC3DF0E552E552010E27
:106AA000E66EA00EE66E7E0EE66E000EE66ECBEC97
:106AB0003DF0E552E552E552E552010EE66ECDC0DD
:106AC000E6FF74EC3DF0E552E552010EE66EA00ED5
:106AD000E66E7E0EE66E000EE66ECBEC3DF0E55205
:106AE000E552E552E552010EE66ECEC0E6FF74ECCB
:106AF0003DF0E552E552010EE66E950EE66E7E0E15
:106B0000E66E000EE66ECBEC3DF0E552E552E55246
:106B1000E552010EE66E840EE66E7E0EE66E000E07
:106B2000E66ECBEC3DF0E552E552E552E5529BDADC
:106B30000001E15101E196D0F2A42ED08474847258
:106B40009DDA0001D9C010F0DAC011F0DBC012F0FC
:106B5000DCC013F0D92B000EDA23DB23DC23000189
:106B6000DD51105C0001DE5111580001DF51125857
:106B70000001E051135810E3010EE66E7C0EE66E44
:106B80007E0EE66E000EE66ECBEC3DF0E552E55271
:106B9000E552E5520001E16B80BA12D0020EDBCF64
:106BA000F3FFDB2AF35004080AE20001060EEC6F43
:106BB0000001420EC56FB0EC3CF080AAFED702D0B7
:106BC000020EDB6A030EDB50010A0DE0010A01E050
:106BD00045D0ACEC3BF0000905E0010EF36E030E6E
:106BE000F3CFDBFF3ED0010EE66E790EE66E7E0E31
:106BF000E66E000EE66ECBEC3DF0E552E552E55256
:106C0000E55258EC3EF0A0D9010EE66E760EE66E27
:106C10007E0EE66E000EE66ECBEC3DF0E552E552E0
:106C2000E552E55258EC3EF00001EC0505E00001AC
:106C3000D96BDA6BDB6BDC6BB0EC3CF0010EE66E13
:106C4000730EE66E7E0EE66E000EE66ECBEC3DF049
:106C5000E552E552E552E55258EC3EF0030EDB6A90
:106C600000D066D7DE52040EDD6E010EE66EE66AD7
:106C70004A0EE66EE66AD950010FE66E000EDA2083
:106C8000E66E6DDB106E060EE15E1050010EE66ED4
:106C90006E0EE66E7E0EE66E000EE66ECBEC3DF0FE
:106CA000E552E552E552E55258EC3EF0FCD90009B8
:106CB00003E158EC3EF0FF0058EC3EF0010EE66EAA
:106CC000660EE66E7E0EE66E000EE66ECBEC3DF0D6
:106CD000E552E552E552E5520400D18004003CEF54
:106CE00033F00A0EE15C02E2E16AE552E16EE55240
:106CF000E7CFD9FF1200D4EC3AF00F0EE1261AECE0
:106D00003BF0010E00C1DBFF01C1DFFF3AEC3BF0BD
:106D10000D0EEECFDBFF0E0EEDCFDBFF3AEC3BF0BE
:106D20009A0EEE5C010EEE58000EEE58000EEE5874
:106D300002E3020E66D03AEC3BF0EECF04F0EECF69
:106D400005F0EECF06F0EFCF07F0400E096E0A6AAD
:106D50000B6A0C6A61EC3FF000C0DEFF01C0DEFF91
:106D600002C0DEFF03C0DDFFDD52DD52CAEC3AF0A7
:106D7000105011101210131030E1080EE66EE66A82
:106D8000C0EC3AF0D950040FE66E000EDA200CEC9D
:106D90003BF00C0EDB6A080EF36E0C0EDBCFF4FF3B
:106DA000F350F45C1AE2D950040F106EDACF11F0F0
:106DB0000C0EDB500F011024E96E000EDA20EA6E93
:106DC000EF50E66E0C0EDB50020FF2EC3AF0E5529B
:106DD000E750EF6E0C0EDB2ADED70D0EDBCFE6FFA1
:106DE0000E0EDBCFE6FFF7DAE552E552C9DB020E05
:106DF000E66E010EE66E11DB71EC3BF00001ED6B0F
:106E0000000E106E0F0EE15C02E2E16AE552E16EE7
:106E10001050CFD3030EE66EE66A410EE66EE66AC8
:106E200069EF3BF013EC3BF069EF3BF0BDDB020E8A
:106E3000E126E20EDE6E000EDD6E010EE66E580EED
:106E4000E66E7E0EE66E000E32EC3BF058EC3EF045
:106E50002AD9000907E00001E26B010E55EC3BF076
:106E6000000E06D00001010EE26F55EC3BF0050E5E
:106E7000106E020EE15C02E2E16AE552E16E105032
:106E800098D30001ED6B400E6FDB410E6DDB420EBF
:106E90006BDB430E69DB4C0E67DB000C0001ED6B16
:106EA0004DEC3BF0010EEF6EF8DB090EEF6E000CBF
:106EB0007BDB030EE126DF6A010EDB6A020EDB6A72
:106EC000FE0EDB508FDBEF50430803E00001030EA2
:106ED000EC6FDF6AFE0EDB50DF5C0BE2DF5082DB23
:106EE000EF50116AE8500001C7271150C823DF2A6C
:106EF000F1D7FE0EDB2876DB020EEFCFDBFFFE0EB6
:106F0000DB50020F6FDB010EEFCFDBFFDBCF10F0AA
:106F1000020EDBCF11F00001C751101802E1C85179
:106F2000111803E00001040EEC6F0001EC5102E0C7
:106F3000010E01D0000E106E030EE15C02E2E16A68
:106F4000E552E16E105035D32FDBE652DF6A0001C7
:106F5000EC6B460E0001C65D03E00001010EEC6F14
:106F6000DF6A640EDF5C08E2C6DBDF503BDBEF501C
:106F7000E66EBCDBDF2AF5D70001C551470A60E0A9
:106F8000110A4FE0130A3FE0010A2FE00C0A20E04B
:106F90000B0A10E00D0A62E1030EE66E2CDB61E1E4
:106FA000010EE66E540EE66E7E0EE66E000E5ADBA5
:106FB00031DF35D0040EE66E1EDB53E1010EE66EC6
:106FC000520EE66E7E0EE66E000E4CDB2BDF27D0F7
:106FD000E66A11DB46E1010EE66E500EE66E7E0EAD
:106FE000E66E000E3FDB5ADF1AD0420EE66E03DB80
:106FF00038E1010EE66E4E0EE66E7E0EE66E000E77
:1070000031DB79DE0CD0E66AF6DA2BE1010EE66EB2
:107010004C0EE66E7E0EE66E000E24DB07DF0001EE
:107020001FD0E66AE8DA1DE12CDF0001EC6F010EEB
:10703000E66E4A0EE66E7E0EE66E000E13DB11D093
:10704000E66AD9DA0EE1010EE66E420EE66E7E0EBB
:10705000E66E000E07DB0001E16B03D00001010EBC
:10706000EC6FE552A6D2D59ED59CD59AD598D596EB
:10707000F80ED5140709D56E3EEF38F0D59EF29480
:10708000B30ED76EB40ED66ED58E1200928A80BA29
:10709000000C010EE66EE66AA2EC33F0E552E55212
:1070A00080BA000C010C80DA090EE126080EDB6ABA
:1070B000BADAD950040FE66E000EDA20E66ECFDAA7
:1070C000070E7BDA010EE66E3B0EE66E7E0EE66E76
:1070D000000EC8DAD4DA5EDA10C0E6FF11C0E6FFAF
:1070E00012C0E6FF13C0E6FF8ADA146E080EE15EF6
:1070F0001450E552E7CF13F0E552E7CF12F0E55216
:10710000E7CF11F0E552E7CF10F01050041808E176
:107110001150051805E11250061802E11350071826
:1071200002E0000E01D0010E106E090EE15C02E2D9
:10713000E16AE552E16E10503CD236DA080EE126E3
:107140005EDA106E080EE15E1050040E04C0DBFF24
:10715000050E05C0DBFF060E06C0DBFF070E07C0ED
:10716000DBFF2BDA60DAD9CFE6FFDACFE6FF40DAD1
:10717000080EE15C02E2E16AE552E16E1AD2120009
:1071800013DA0D0EE126FB0EDB50E76E080EE7CF9B
:10719000DBFF090EDB6A0A0EDB6A0B0EDB6A4ADADA
:1071A0008FDA68DAFB0EDBCFEEFFFC0EDBCFEEFFF3
:1071B000FD0EDBCFEEFFFE0EDBCFEEFFF70EDBCFDB
:1071C00010F0F80EDBCF11F0F90EDBCF12F0FA0E53
:1071D000DBCF13F04FDA1050EE5C1150EE58125026
:1071E000EE581350EE582DE2D5D93F0E1016116A05
:1071F000126A136A105011101210131003E1080ED6
:10720000DB6A5EDA080EDBCFF3FFDB2AF350EAD944
:10721000EFCF10F0116A126A136AD950090FE96EA4
:10722000DACFEAFF1050EE261150EE221250EE2275
:107230001350EE221FDAEE2A000EEE22EE22EE228C
:10724000BDD7010EE66E340EE66E7E0EE66E000EC3
:1072500009DA10DA090EDBCFEEFF0A0EDBCFEEFF04
:107260000B0EDBCFEEFF0C0EDBCFEEFF08DA090EC4
:10727000DBCF10F00A0EDBCF11F00B0EDBCF12F0DC
:107280000C0EDBCF13F010C004F011C005F012C0DB
:1072900006F013C007F00D0EE15C02E2E16AE55270
:1072A000E16E87D1D9CFE6FFE1CFD9FF020EE1260B
:1072B000DE6ADD6ADECF10F0DDCF11F0F90EDBCF34
:1072C00012F0FA0EDBCF13F01250105C135011586D
:1072D00029E2FB0EDB50746EFB0EDBCF10F0FC0ED0
:1072E000DBCF11F011C010F0116A1050756E7F6A7B
:1072F0007F800000FD0EDBCF10F0FE0EDBCF11F023
:10730000DE501024E96EDD501120EA6E73CFEFFFDE
:10731000FB0EDB2AFC0E01E3DB2ADF2A010E01E370
:10732000DB2AC8D7020EE15C02E2E16AE552E16EB7
:10733000E552E7CFD9FF120037D9E652010EE66ECB
:10734000E66AFD0EDBCFE6FFFE0EDBCFE6FFD9CF10
:10735000E6FFDACFE6FF83D9DF50E5522AD124D900
:10736000020EE126DE6ADD6ADECF10F0DDCF11F01D
:10737000F90EDBCF12F0FA0E6BD926E2FB0EDB50D2
:10738000746EFB0EFC0EDBCF11F011C010F011502B
:10739000756EFD0EDBCF10F0FE0EDBCF11F0DE5070
:1073A0001024E96EDD501120EA6EEF50736E040E6A
:1073B0007F6EBCD8FB0EDB2AFC0E01E3DB2ADF2A42
:1073C000010ED2E3DB2AD0D7020EE15C02E2E16AD1
:1073D000E552E16EEED0D9CFE6FFE1CFD9FF040050
:1073E000FD0EDBCF10F0FE0EDBCF11F0126A060EA1
:1073F0001F0B10C0F6FF11C0F7FF12C0F8FF06E028
:10740000D890F636F736F836E806FAE1940E7F6E35
:107410008DD8E552E7CFD9FF1200D9CFE6FFE1CFF3
:10742000D9FF020EE126F90EDBCFF6FFFA0EDBCF15
:10743000F7FFFB0EDBCFF8FFDE6ADD6ADECF10F070
:10744000DDCF11F0400E105C000E115814E2FD0E5D
:10745000DBCF10F0FE0EDBCF11F0DE501024E96E12
:10746000DD501120EA6EEF50F56E0D00DF2A010E9F
:1074700001E3DB2AE3D70A00A40E7F6E57D8020E81
:10748000E15C02E2E16AE552E16EE552E7CFD9FF45
:107490001200D9CFE6FFE1CFD9FF020EE126FB0EA5
:1074A000DB50F00809E0F90EDBCFF6FFFA0EDBCF78
:1074B000F7FFFB0EDBCFF8FFDE6ADD6ADECF10F0F0
:1074C000DDCF11F0F70EDBCF12F0F80EDBCF13F0AB
:1074D0001250105C135011581FE20900300EF85C76
:1074E00008E1050EF65C01E1F568080EF65C01E1C5
:1074F000F568FD0EDBCF10F0FE0EDBCF11F0DE5095
:107500001024E96EDD501120EA6EF5CFEFFFDF2A7F
:10751000010E01E3DB2AD2D7020EE15C02E2E16A4E
:10752000E552E16EE552E7CFD9FF1200D9CFE6FF71
:10753000E1CFD9FFE652F250800B01E0010EDF6E81
:10754000F29E550E7E6EAA0E7E6E7F82DF5001E0A7
:10755000F28E7FB2FED77F94E552E552E7CFD9FF96
:107560001200C4D87BEF3BF0E66EE66AE5DEE5523A
:10757000E552E66E000191D8E552E750EF6E120039
:1075800079D8EECFE6FFEECFE6FFEECFE6FFEFCF06
:10759000E6FF12006FD8EECF10F0EECF11F0EECF75
:1075A00012F0EFCF13F01200D9CFE6FFE1CFD9FFF1
:1075B0001200E552E7CFD9FF1200DB50DF6E060E56
:1075C000DB50E76E010EE7CFDBFF050EDB50E76E09
:1075D000020EE7CFDBFF040EDB50E76E030EE7CFB2
:1075E000DBFF1200EA6A000FE96E010EEA221200C8
:1075F000B6DE71EF3BF05CDCE55200091200800E54
:10760000E66E660EE66EE66AE66A080EE66EE66A04
:10761000E66AE66AC0EF38F0E66E3BDF106E080EF1
:10762000E15E10501200040EE66EE66A440EE66E4D
:10763000E66A12000C0EDB6ADE6ADE6ADE6ADD6A6A
:10764000DD52DD521200030EDBCFE6FF76EF3BF09A
:10765000DBCF13F01250105C13501158120022DED1
:1076600071EF3BF0E66ECBEC3DF0E552E552E552B2
:10767000E5521200D9CFE9FFDACFEAFF1200010E7E
:10768000E66EDFCFE6FF6DDFDBCFE6FF6ADF020EDF
:10769000DBCFE6FF66DF23EF3BF0ED51ED2BEA6A2F
:1076A000600FE96E000EEA221200E66EE66A4C0EEA
:1076B000E66EE66ADECFE6FFDDCFE6FFF8EF3AF0F2
:1076C000400EE66EE66A5CDF000EE66E010E0CEF21
:1076D0003BF0000EE66E010EE66E8ADF0001ED6BF8
:1076E000000C106E060EE15E1050120074EC3DF0BE
:1076F000E552E5521200010EE66E560EE66E7E0E63
:0C770000E66E000EAFDF010EE66E120018
:04770C0099D9040EF5
:10771000E126550EDE6EDE6ADE6ADD6ADD52DD527E
:10772000A786AC84DF50AF6E010EDB507D6EAC8A55
:10773000AC98AB8EAB880F015D6B5C6B95988398B2
:107740000001F569F6690001ED6B040EE15C02E2EF
:10775000E16AE552E16E79D173D9020EE126010E9C
:10776000DB6AABA207D0AB98E66EB7EC3FF0E55210
:10777000AB8804D0ABA404D0AE50DF6E000EADD009
:107780009EAAA9D0AE50DF6E9E9A0001EE510C0A5F
:1077900001E195D0070A01E18BD0010A01E183D014
:1077A000030A01E17CD0010A6DE00F0A44E0010AFE
:1077B0003CE0030A30E0010A25E0070A1CE0010A68
:1077C00010E0030A09E0010A01E084D0530EDF5CF7
:1077D00001E081D0EE2B7FD0540EDF5C24E1020E5D
:1077E00077D0DF500001C76FC86BCB51DF5C11E170
:1077F0000001030E6DD019D9CC51DF5C0AE1000104
:10780000040E66D012D9CD51DF5C03E10001050EF4
:107810005FD0000108D009D9CE51DF5C03E100013F
:10782000060E56D00001EE6B56D0FFD8DFCFC6F063
:107830000001070E4DD0F9D8DFCFC5F0460EC65D6A
:107840001FE1C551450A16E0130A14E0110A12E0BF
:10785000030A0CE0070A06E00D0A12E10001EF6BD3
:10786000060E0BD00001EF6B070E07D00001EF6B87
:10787000450E03D00001EF6B030EF06F080E28D009
:1078800000011BD0EF51EF2BEA6A000FE96E010EE9
:10789000EA22DFCFEFFFF051EF5D1DE30ED00D0EBA
:1078A000DF5C19E108D00A0EDF5C07E10B0E10D097
:1078B0000D0EDF5C02E10C0E0BD0090E09D00A0E92
:1078C000DF5C05E1EE6BDE52010EDD6E04D0090EC9
:1078D000EE6F01D0EE6B010EDB50106E020EE15C1C
:1078E00002E2E16AE552E16E1050AFD0A9D8ACA235
:1078F000FED7FE0EDB50AD6EFE0EDB50116AE85077
:107900000001C9271150CA23A0D09AD8030EE1263E
:10791000640EF36E020EF3CFDBFFDE6ADD6ADECFAC
:1079200010F0DDCF11F0FD0EDBCF12F0FE0EDBCF3D
:1079300013F01250105C135011580BE2020EDBCF03
:10794000E6FFD3EC3FF0E552DF2A010EE8E3DB2A45
:10795000E6D7030EE15C02E2E16AE552E16E75D022
:107960006FD8040EE126DF6A030EDB6ADB6A020EC3
:10797000F36E030EDBCFF4FFF350F45C4DE2AB98F3
:107980008388520E5AD8430E58D80001C96BCA6B6F
:10799000CBC0E6FF5ED8CCC0E6FF5BD8CDC0E6FF2B
:1079A00058D8CEC0E6FF55D8460E47D8C5C0E6FF2A
:1079B00050D8ECC0E6FF4DD80001ED51DF5C0AE283
:1079C000DF50DF2AEA6A600FE96E000EEA22EF500C
:1079D000E66EF1D7010EC9C0DBFF020ECAC0DBFFA5
:1079E000430E2BD8020EDBCFE6FF33D8010EDBCFE0
:1079F000E6FF2FD831D830D8ACA2FED78398AB8819
:107A0000450E0001C55D05E0020EF36E030EF3CFD7
:107A1000DBFF030EDB2AABD70001ED6B040EE15C4C
:107A200002E2E16AE552E16E10D0DF50116AE850DF
:107A30000001C7271150C8231200E66E29EF3DF060
:107A4000D9CFE6FFE1CFD9FF1200E552E7CFD9FF4A
:107A500012004CDFE55212000D0EEFDF0A0E1DEF93
:027A60003DF0F7
:0E7A620076D9FE0EDBCFEBF04CD171D9040EBD
:107A7000E126550EDE6EDE6ADE6ADD6ADD52DD521B
:107A8000B986BA84DF507B6E010EDB507C6EBA8AF9
:107A9000BA98A68EA688040EE15C02E2E16AE5527D
:107AA000E16E30D10001E751E91904E1E851EA192A
:107AB00001E11200BAA214D0E7C0E9FFE8C0EAFF72
:107AC000EF50796EE551E71908E1E651E81905E153
:107AD000E3C0E7F0E4C0E8F01200E72B000EE82373
:107AE0001200D9CFE6FF0ED133D9050EE126040EE0
:107AF000DB6A640E146E26D90750DBD812BE1368F9
:107B0000E3D813BE146808D902E3040EDB2A640E1E
:107B1000156E18D903C014F00A0E166E0C6E03C051
:107B200007F0C5EC3FF00750C4D812BE1368CCD89C
:107B300013BE1468F1D802E3040EDB2A0A0E146E99
:107B400001D90350B6D812BE13681ED9E552E750CA
:107B5000EF6E040EDB2AD9CF10F0DACF11F0DBCFB5
:107B600012F0136A12BE13680FD9EF6AFD0EDBCF55
:107B7000E6FFD9CFE6FFDACFE6FF5BD8E552E55264
:107B8000E552050EE15C02E2E16AE552E16EBAD02F
:107B9000D9CFE6FFB7D0DCD8030EE126D9CFE9FF75
:107BA000DACFEAFFFC0EDBCFEEFFFD0EDBCFEEFF00
:107BB000FE0EDBCFEEFFE1D802E1115033E0FB0E09
:107BC000DB5007E0B4D82EE0BAA2FCD78AD8796E91
:107BD000F9D7ADD827E085D899D8E551E91908E15A
:107BE000E651EA1905E1E3C0E9F0E4C0EAF003D0A8
:107BF000E92B000EEA23E751E919EBE1E851EA1914
:107C0000E8E1E351E91908E1E451EA1905E1E5C0C9
:107C1000E9F0E6C0EAF003D0E907000EEA5B230EC4
:107C200075D8D7D7030EE15C02E2E16AE552E16E56
:107C300069D08ED8A2D802E1115039E0FC0EDB5099
:107C40000AE08BD834E0BAA2FCD78FD801E3DB2A54
:107C5000EF50796EF6D781D82AE087D801E3DB2A86
:107C6000EF5054D8E551E91908E1E651EA1905E168
:107C7000E3C0E9F0E4C0EAF003D0E92B000EEA2308
:107C8000E751E919E8E1E851EA19E5E1E351E919B9
:107C900008E1E451EA1905E1E5C0E9F0E6C0EAF0DF
:107CA00003D0E907000EEA5B230E30D8D4D72AD0E0
:107CB0001200300FE66ED9CF10F0DACF11F0040EBB
:107CC000DBCF12F0136A12005FD8E552E750EF6E77
:107CD000D9CF11F0DACF12F0040EDBCF13F0146A13
:107CE0001200D9CFE9FFDACFEAFFEFCFF6FFEE2A95
:107CF000EFCFF7FF000EEE22EFCFF8FFEE220800E5
:107D0000F5501200E552E7CFD9FF1200E9C0E9FFB4
:107D1000EAC0EAFFEF6E120011501324E96E125010
:107D20001420EA6EEFCF10F0300E105C1200DFCF9F
:107D3000F6FF010EDBCFF7FF020EDBCFF8FF0800E6
:107D4000F55012000C6EFE0EDBCF07F0C5EF3FF0D2
:107D5000D9CFE6FFE1CFD9FF1200FD0EDBCFE9FF5F
:107D6000FE0EDBCFEAFFEF501200FD0EDBCFE9FF86
:107D7000DB2AFE0EDBCFEAFF12000001EB51106E92
:107D8000116AFF0E1018120010501224E96E1150E3
:067D90001320EA6E120050
:0A7D9600C00EF66E660EF76E000ECA
:107DA000F86E00010900F550D46F0900F550D56F49
:107DB00003E1D46701D03DD00900F550CF6F090031
:107DC000F550D06F0900F550D16F09000900F5504A
:107DD000E96E0900F550EA6E090009000900F55046
:107DE000D26F0900F550D36F09000900F6CFD6F025
:107DF000F7CFD7F0F8CFD8F0CFC0F6FFD0C0F7FF5D
:107E0000D1C0F8FF0001D25302E1D35307E00900CB
:107E1000F550EE6ED207F8E2D307F9D7D6C0F6FFD9
:107E2000D7C0F7FFD8C0F8FF0001D407000ED55B1C
:047E3000BFD71200A6
:0C7E34000A4373756D3A000A4573756DC2
:107E40003A00474F544F41505000560045004400FF
:107E5000480043004E002C00557064617465205347
:107E6000746174757300476F746F41707000537460
:107E70006F70005F73005F6E005F760054494D4580
:107E80004F5554000A4F70656E4D6F7469637320CF
:107E900032303137000A000A4120000A46575600A6
:107EA0002E000A424C56000A57445420000A424C05
:107EB000204F4D0042000A44000A43000A42000AD3
:027EC00041007F
:0E7EC20004500902F3CF00F0F4CF01F00A02E1
:107ED000F3500126000EF420026E04500B02F35002
:107EE0000226000EF420036E04500C02F350032609
:107EF00005500902F3500126F4500222000E03221D
:107F000005500A02F3500226F450032205500B02DA
:107F1000F350032606500902F3500226F4500322C0
:107F200006500A02F350032607500902F3500326B5
:027F300012003D
:0E7F3200410EF36E00EE00F00E0E01D81200AC
:107F4000EA6002D0EE6AFCD7F350E9601200EE6AF4
:027F5000FCD75C
:0E7F52001DEE00F02DEE00F0F86A0F9CCBEC57
:0E7F60003EF0DEEC3FF0BBEC33F0FBD712003E
:027F6E00FF0E04
:107F7000E350176E1B0E00D001D0200EE76EE72EE7
:0A7F8000FED7172EFAD700D012002A
:067F8A00036A080EE76E19
:107F9000D890073603360C50035C02E3036E072AC1
:067FA000E72EF7D71200E6
:0A7FA600FF0EE350E84E1200000049
:0C7FB00000D000D000D0E82EFAD712005C
:027FBC001200B1
:027FBE00FEFFC4
:0A7FC00000000000000000000100B6
:057FCA000000000000B2
:017FCF00F7BA
:087FD00000F700F700F70001C3
:020000040030CA
:0100000015EA
:0100010012EC
:0100030026D6
:010008000FE8
:01000900C036
:00000001FF
