:020000040000FA
:04000000A9EF3FF035
:040008000AEF03F008
:0800180057EF03F0096EF80B2D
:10002000E830E830E830E926D8B0EA2A2BEC00F0D6
:10003000096EEF14C5EF00F00950D8A0E86AEF1878
:100040000914EF1AC5EF00F004009EA8FDD7AD6EAD
:10005000D880C5EF00F0010E09B0E84409B2E844C9
:1000600009B2E84409B4E838120002500110D8B4CB
:10007000012A800E01B8021A01B4021A01B2021A52
:10008000023401360236C5EF00F07F6A7F8073507C
:10009000744A752AC5EF00F0E86A736E7F6A7F8440
:1000A000550E7E6EAA0E7E6E7F827FB2FED77F9443
:1000B000744A752AC5EF00F0046A036EE86A030605
:1000C000045AD8A0C5EF00F0030E026EE70E02D866
:1000D000F5D7026AFE0F016EE86A025AD8A0120034
:1000E0000400010600D0F8D7D89001360236FF0F81
:1000F000FBE20150C5EF00F0D89002320132FF0F51
:10010000FBE20150C5EF00F0036E030E0AD0026A55
:10011000046A036E010E05D0036E060E02D0036E54
:10012000050E096E0450025C02E10350015C040EEE
:10013000D8B0010ED8B4020E0914D8A4FF0EC5EF32
:1001400000F0E866FF0E0114D8A4FF0EC5EF00F022
:100150000110D8A4FF0EC5EF00F0066A056A100E64
:10016000076E0234053606360350055E0450065A03
:1001700005E20350052604500622D89001360236C7
:10018000072EEFD70150C5EF00F000010400120068
:10019000030EAF6E200EAC6E900EAB6E1E6AD1EFEA
:1001A00000F033909CEF01F0040033B027EF01F032
:1001B00001C024F102C025F103C028F104C029F1D7
:1001C00005C02CF106C02DF107C030F108C031F197
:1001D00009C034F10AC035F10BC036F10CC037F15B
:1001E0000DC038F10EC039F10FC03AF110C03BF12B
:1001F00011C03CF112C03DF100C03EF11DC03FF105
:100200001FC040F120C041F121C042F122C043F1A2
:10021000F8CF62F1F7CF65F1F6CF64F123C044F176
:1002200024C045F113C046F114C047F115C04AF18E
:1002300016C04BF117C04EF118C04FF119C052F162
:100240001AC053F11BC056F11CC057F133801EB4C5
:1002500031EF01F02BC0FBFF2AC0FAFF2950E06A02
:10026000F96E28C0FBFF27C0FAFF2650E06AF96E3E
:10027000040033A08BEF01F024C101F025C102F08E
:1002800028C103F029C104F02CC105F02DC106F0EE
:1002900030C107F031C108F034C109F035C10AF0AE
:1002A00036C10BF037C10CF038C10DF039C10EF07A
:1002B0003AC10FF03BC110F03CC111F03DC112F04A
:1002C0003EC100F03FC11DF040C11FF041C120F010
:1002D00042C121F043C122F062C1F8FF65C1F7FFBE
:1002E00064C1F6FF44C123F045C124F046C113F0B8
:1002F00047C114F04AC115F04BC116F04EC117F0BA
:100300004FC118F052C119F053C11AF056C11BF079
:1003100057C11CF033901EB495EF01F02BC0FBFFCA
:100320002AC0FAFF2950E06AF96E28C0FBFF27C0F7
:10033000FAFF2650E06AF96E339267EF02F004008C
:1003400033B2F2EF01F001C068F102C069F103C0FD
:100350006CF104C06DF105C070F106C071F107C009
:1003600074F108C075F109C078F10AC079F10BC0C9
:100370007AF10CC07BF10DC07CF10EC07DF10FC095
:100380007EF110C07FF111C080F112C081F100C078
:1003900082F11DC083F11FC084F120C085F121C00E
:1003A00086F122C087F1F8CFA6F1F7CFA9F1F6CFF9
:1003B000A8F123C088F124C089F113C08AF114C0C8
:1003C0008BF115C08EF116C08FF117C092F118C0D5
:1003D00093F119C096F11AC097F11BC09AF11CC095
:1003E0009BF133821EB4FCEF01F02BC0FBFF2AC04F
:1003F000FAFF2950E06AF96E28C0FBFF27C0FAFF18
:100400002650E06AF96E040033A256EF02F068C18C
:1004100001F069C102F06CC103F06DC104F070C15C
:1004200005F071C106F074C107F075C108F078C11C
:1004300009F079C10AF07AC10BF07BC10CF07CC1E4
:100440000DF07DC10EF07EC10FF07FC110F080C1B4
:1004500011F081C112F082C100F083C11DF084C18E
:100460001FF085C120F086C121F087C122F0A6C10E
:10047000F8FFA9C1F7FFA8C1F6FF88C123F089C121
:1004800024F08AC113F08BC114F08EC115F08FC116
:1004900016F092C117F093C118F096C119F097C1E8
:1004A0001AF09AC11BF09BC11CF033921EB460EF8E
:1004B00002F02BC0FBFF2AC0FAFF2950E06AF96E58
:1004C00028C0FBFF27C0FAFF2650E06AF96E010E34
:1004D000046E900E5DEC00F0040E4E6E948E949CB3
:1004E0000F015D6B5C6B506BC880C882C894C89666
:1004F000C898C88AC88C280EC66E83989598A79A03
:10050000A786A7987D6A560EAF6E100EAB6E040ECE
:10051000AC6EB99AB986B9987C6A560E7B6E100E8D
:10052000A66E040EBA6E0001786B3094346A356A98
:10053000446A456A318A796B3C6A3D6A31983196E2
:10054000486A496A7B6B7C6B776B010E8E6F329EBB
:10055000746B309C309A4C0E826F32808D6932867B
:10056000959A839A54689EEC1BF03294846B319078
:10057000746B309C7A6B3194506A0400080E505CA6
:10058000D8B0EAEF02F05050EC0FE96E000EEA6AC4
:10059000EA22EF685050FC0FE96E000EEA6AEA2288
:1005A000F40EEF6E5050CC0FE96E000EEA6AEA22AC
:1005B000EF685050A40FE96E000EEA6AEA22EF6875
:1005C0005050F40FE96E000EEA6AEA22EF6A502AF0
:1005D000D8A0D3D794809482948495809582958472
:1005E0009586948A93829380948894868494969432
:1005F00084829692959C939A839C959C819A939AD7
:1006000032923E6A3F6A319E426A436A406A416A58
:1006100053EF03F0FBCF6FF0FACF6DF0E9CF60F04E
:10062000EACF61F0E1CF64F0E2CF65F0D9CF68F0B6
:10063000DACF69F01E841E90E06A9DAA35EF03F0C0
:100640009EAA35EF03F01E8004005A0E266E060E99
:10065000276E000E286ED4EF00F06A0E266E060E8E
:10066000276E000E286EA4EF04F0E06A1EB01BEFA8
:1006700003F0820E266E060E276E000E286E38EFEF
:1006800001F01E9460C0E9FF61C0EAFF64C0E1FFB1
:1006900065C0E2FF68C0D9FF69C0DAFF6DC0FAFF2C
:1006A0006FC0FBFF1100F28EF28CDCEF03F0E8CF9D
:1006B00025F0D8CF71F0E0CF6CF0FBCF70F0FACF1F
:1006C0006EF0E9CF62F0EACF63F0E1CF66F0E2CFFF
:1006D00067F0D9CF6AF0DACF6BF01E94E06A1E9211
:1006E000F2AA88EF03F0F2A488EF03F01E82040060
:1006F000FE0E296E060E2A6E000E2B6E20D60E0EF2
:10070000296E070E2A6E000E2B6E1AEF05F0F2947A
:10071000E06A9DA2A1EF03F09EA2A1EF03F01E826A
:100720000400300E296E070E2A6E000E2B6E07D6BF
:10073000400E296E070E2A6E000E2B6E30EF05F06C
:100740009E92E06A9DA6BAEF03F09EA6BAEF03F070
:100750001E820400640E296E070E2A6E000E2B6E98
:100760009FEF01F0740E296E070E2A6E000E2B6E9D
:10077000E1EF05F0E06A1EB26EEF03F08A0E296E1B
:10078000070E2A6E000E2B6E3ED662C0E9FF63C0D4
:10079000EAFF66C0E1FF67C0E2FF6AC0D9FF6BC035
:1007A000DAFF70C0FBFF6EC0FAFF6CC0E0FF25C02F
:1007B000E8FF71C0D8FF1000D08EF28C810ED56E8C
:1007C0001F0ECA6E9F8A9D8AF194F28A9F929D8223
:1007D0009F969D86D66AD76AD58E9D82CA849D864D
:1007E000F28CF28EAB8EAB989D8A9E9AAB88AC8AC7
:1007F00052EC0CF0746A756A45EC00F0816F010EE2
:10080000746E756A45EC00F07D6F020E746E756A49
:1008100045EC00F07E6F030E746E756A45EC00F0D7
:100820007F6F040E746E756A45EC00F0806F540E95
:100830007D6F400E836F5D6883EC12F004004D50B5
:100840000108D8A429EF04F0700E836F5D6883EC73
:1008500012F0020E566E400E746E756A45EC00F092
:10086000916F040091514E5CD8B43DEF04F0400EFE
:10087000746E756A4E504DEC00F0410E746E756AE0
:1008800045EC00F0916F040091510308D8B44FEF8C
:1008900004F0410E746E756A030E4DEC00F0420ECA
:1008A000746E756A45EC00F0916F04009151010877
:1008B000D8B461EF04F0420E746E756A010E4DEC0F
:1008C00000F0430E746E756A45EC00F0916F040001
:1008D00091510108D8B473EF04F0430E746E756A39
:1008E000010E4DEC00F04A0E746E756A45EC00F096
:1008F000916F040091510008D8B485EF04F04A0EBE
:10090000746E756A000E4DEC00F04B0E746E756AD5
:10091000000E4DEC00F080869296F7EC05F073EC3B
:100920000BF02EEC0FF0A3EC08F004008251490804
:10093000D8A49DEF04F090EC0CF03DEC0BF0B3EC80
:1009400008F073EC08F0E9D789C088F0AECF89F0E1
:10095000040032A4EEEF04F08451AC0FE96E010EF6
:10096000EA6AEA2289C0EFFF8405876F8751AC0FDE
:10097000E96E010EEA6AEA22EFCF13F013500D0878
:10098000D8A4E868FF0A136E8451AC0FE96E010E1B
:10099000EA6AEA22EFCF15F015500A08D8A4E868F1
:1009A000FF0A156E13C001F01550A1EC00F0156E92
:1009B000166E040015501610D8B4E2EF04F0AB9890
:1009C00032943180842B0400B30E845DD8A0ECEF08
:1009D00004F0AB983294318009EF05F08851530848
:1009E000D8A4E868FF0A136E89515408D8A4E868AF
:1009F000FF0A156E13C001F01550A1EC00F0156E42
:100A0000166E040015501610D8B409EF05F0846B6B
:100A100032841EB413EF05F02BC0FBFF2AC0FAFF8F
:100A20002950E06AF96E28C0FBFF27C0FAFF265064
:100A3000E06AF96ED59EF294746B010E4D6E1EB491
:100A400029EF05F02BC0FBFF2AC0FAFF2950E06A0E
:100A5000F96E28C0FBFF27C0FAFF2650E06AF96E46
:100A6000CA949E92482A000E4922500E016E026AD4
:100A700049C004F048508FEC00F0D8A453EF05F0C3
:100A80008086929631963CC001F03DC002F0046A27
:100A9000000E8CEC00F0D8A452EF05F031883296AD
:100AA00053EF05F03286E80E016E030E026E49C068
:100AB00004F048508FEC00F0D8A475EF05F0486AB8
:100AC000496A809692963186318830943CC001F014
:100AD0003DC002F0046A000E8CEC00F0D8A474EF64
:100AE00005F0329675EF05F032860400010E7A5D4E
:100AF000D8A083EF05F07A0704007A510008D8A443
:100B000083EF05F031843CC001F03DC002F0046A7F
:100B1000000E8CEC00F0D8A491EF05F03C06000E1E
:100B20003D5A3EC001F03FC002F0046A000E8CEC5A
:100B300000F0D8A49FEF05F03E06000E3F5A42C0D9
:100B400001F043C002F0900E046EAD0E8CEC00F08C
:100B5000D8A4C7EF05F0426A436A40C001F041C023
:100B600002F0010E046E660E8CEC00F0D8A4C2EF09
:100B700005F0406A416A839C959C819A939A3292CF
:100B8000C5EF05F0402A000E4122CAEF05F0422AC7
:100B9000000E4322342A000E35225BEC13F0CA8487
:100BA0001EB4DAEF05F02BC0FBFF2AC0FAFF295074
:100BB000E06AF96E28C0FBFF27C0FAFF2650E06A02
:100BC000F96E9D96742B308C9E969D861EB4F0EF28
:100BD00005F02BC0FBFF2AC0FAFF2950E06AF96E2E
:100BE00028C0FBFF27C0FAFF2650E06AF96E040018
:100BF00031A07BEF07F0AB9831900400070E845DC5
:100C0000D8A079EF07F004000101AC5154080001AD
:100C1000D8A40FEF06F00CEC09F079EF07F0010112
:100C2000AC510008D8A4E868FF0A136EAD51000863
:100C3000D8A4E868FF0A156E13C001F01550000132
:100C4000A1EC00F0156E166E0101AE510008D8A49B
:100C5000E868FF0A176E15501610016E1750000154
:100C6000A1EC00F0176E186E0101AF510008D8A476
:100C7000E868FF0A196E17501810016E195000012C
:100C8000A1EC00F0196E1A6E040019501A10D8B4B5
:100C90004CEF07F00101B0514C08D8A4E868FF0AF6
:100CA000136EB1514C08D8A4E868FF0A156E13C042
:100CB00001F015500001A1EC00F0156E166E040055
:100CC00015501610D8B471EF06F00400825149088F
:100CD000D8A46DEF06F0848296924C0E826F4AEF94
:100CE00007F00101B0514908D8A4E868FF0A136E63
:100CF000B1514908D8A4E868FF0A156E13C001F085
:100D000015500001A1EC00F0156E166E0400155090
:100D10001610D8B49AEF06F001EC0CF004008251E2
:100D20004C08D8A496EF06F084929692490E826FF2
:100D30004AEF07F00101B0514E08D8A4E868FF0A55
:100D4000136EB1514E08D8A4E868FF0A156E13C09F
:100D500001F015500001A1EC00F0156E166E0400B4
:100D600015501610D8B4B9EF06F0329031884AEF1A
:100D700007F00101B0515308D8A4E868FF0A136EC8
:100D8000B1515308D8A4E868FF0A156E13C001F0EA
:100D900015500001A1EC00F0156E166E0400155000
:100DA0001610D8B4D8EF06F0328031884AEF07F039
:100DB0000101B0515008D8A4E868FF0A136EB15180
:100DC0004608D8A4E868FF0A156E13C001F0155054
:100DD0000001A1EC00F0156E166E040015501610FF
:100DE000D8B4FAEF06F0839C959C819A939A32923C
:100DF0004AEF07F00101B0515008D8A4E868FF0A93
:100E0000136EB1514E08D8A4E868FF0A156E13C0DE
:100E100001F015500001A1EC00F0156E166E0400F3
:100E200015501610D8B41CEF07F0838C959C818A5E
:100E3000939A32824AEF07F00101B0515408D8A4C6
:100E4000E868FF0A136EB1514D08D8A4E868FF0A9C
:100E5000156E13C001F015500001A1EC00F0156EE5
:100E6000166E040015501610D8B44AEF07F03292EF
:100E7000839C959C819A939A948094829484958083
:100E8000958295849586948A76693290847296923A
:100E90007CEC07F079EF07F082514908D8A4E868A4
:100EA000FF0A136E0101AC514108D8A4E868FF0A9B
:100EB000156E13C001F015500001A1EC00F0156E85
:100EC000166E0101AD514408D8A4E868FF0A176EF8
:100ED00015501610016E17500001A1EC00F0176EAE
:100EE000186E040017501810D8B479EF07F089EC89
:100EF0000EF0846BAB88120004000101B251560859
:100F00000001D8A4C3EF07F083889598410E24EC24
:100F100000F0410E24EC00F0410E24EC00F0520EE3
:100F200024EC00F0430E24EC00F0000E24EC00F062
:100F3000000E24EC00F0000E24EC00F0000E24EC77
:100F400000F0560E24EC00F07D5124EC00F04E50E1
:100F500024EC00F0030E24EC00F0010E24EC00F071
:100F6000010E24EC00F00D0E24EC00F00A0E24EC2F
:100F700000F00D0E24EC00F00A0E24EC00F0839833
:100F8000959872EF08F004000101B2514908000180
:100F9000D8A4FEEF07F083889598410E24EC00F06A
:100FA000410E24EC00F0410E24EC00F0520E24EC33
:100FB00000F0430E24EC00F0000E24EC00F0000ED4
:100FC00024EC00F0000E24EC00F0000E24EC00F005
:100FD000490E24EC00F0785124EC00F00D0E24ECC6
:100FE00000F00A0E24EC00F00D0E24EC00F00A0EC6
:100FF00024EC00F08398959872EF08F0040001014A
:10100000B25173080001D8A41CEF08F004000101DC
:10101000B35100080001D8A415EF08F0839C959CFB
:10102000819A939A328E1AEF08F0838C959C818A6C
:10103000939A328E72EF08F004000101B251430816
:101040000001D8A434EF08F004000101B3510008F6
:101050000001D8A430EF08F0838A959A32EF08F0A7
:10106000839A959A72EF08F004000101B251420888
:101070000001D8A472EF08F083889598410E24EC03
:1010800000F0410E24EC00F0410E24EC00F0520E72
:1010900024EC00F0430E24EC00F0000E24EC00F0F1
:1010A000000E24EC00F0000E24EC00F0000E24EC06
:1010B00000F0420E24EC00F0010E24EC00F0000ED3
:1010C00081B2010E24EC00F00D0E24EC00F00A0EAB
:1010D00024EC00F00D0E24EC00F00A0E24EC00F0DD
:1010E000839895981200040032B2A2EF08F082BAF9
:1010F000788F82AA789F83B6788D83A6789D83B4F3
:10110000788B83A4789B83B2788983A2789983B003
:10111000788783A0789782B4788582A4789582B204
:10112000788382A2789382B0788182A07891781DAA
:101130007B6F04007B517C5DD8B4A0EF08F0318850
:101140007BC07CF012000400ABA4A9EF08F0AECF86
:1011500091F00400ABA2B2EF08F0AB98020E5CEC89
:1011600000F0AB88120034C001F035C002F0070E69
:10117000046E080E8CEC00F0D8A40BEF09F0346A72
:10118000356A8E2B04000B0E8E5DD8A0CAEF08F0D6
:10119000010E8E6F04008E510408D8A4D4EF08F01D
:1011A00012EC0FF00BEF09F004008E510808D8A4E0
:1011B000DEEF08F0F6EC0EF00BEF09F08E510208AE
:1011C000D8A4E868FF0A136E8E510608D8A4E86810
:1011D000FF0A156E13C001F01550A8EC00F0156E53
:1011E000166E8E510A08D8A4E868FF0A176E1550CB
:1011F0001610016E1750A8EC00F0176E186E040060
:1012000017501810D8B409EF09F020EC0FF00BEFCD
:1012100009F004EC0FF012000101AC5100017D5DFA
:10122000D8A4E868FF0A136E0101AD5100017E5D8C
:10123000D8A4E868FF0A156E13C001F01550A1ECA0
:1012400000F0156E166E0101AE5100017F5DD8A44D
:10125000E868FF0A176E15501610016E1750A1ECC2
:1012600000F0176E186E0101AF510001805DD8A427
:10127000E868FF0A196E17501810016E1950A1EC9A
:1012800000F0196E1A6E040019501A10D8B4CAEF83
:1012900009F00101B0514608D8A4E868FF0A136EAE
:1012A000B1515608D8A4E868FF0A156E13C001F0C2
:1012B00015500001A1EC00F0156E166E04001550DB
:1012C0001610D8B46AEF09F0560E8B6FE6EC09F0F1
:1012D000CAEF09F00101B0514608D8A4E868FF0A36
:1012E000136EB1515208D8A4E868FF0A156E13C0F6
:1012F00001F015500001A1EC00F0156E166E04000F
:1013000015501610D8B494EF09F04B0E746E756A30
:101310000101B25100014DEC00F0520E8B6FE6EC72
:1013200009F0FF00CAEF09F03084B1C176F0040083
:10133000080E765DD8B0A8EF09F0800E016E026A43
:1013400076517FEC00F0796F140E3C6E300E3D6EDE
:1013500004000101B05154080001D8A4B4EF09F011
:10136000F7EC0CF0CAEF09F004000101B051480895
:101370000001D8A4C0EF09F073EC0DF0CAEF09F03A
:1013800004000101B05141080001D8A4CAEF09F0DE
:10139000EFEC0DF082514C08D8A4E868FF0A136EF8
:1013A000E86A30B4E868156E13C001F01550A1EC7E
:1013B00000F0156E166E040015501610D8B4E5EF47
:1013C00009F080B6848280A6849212008388959862
:1013D00004008B515608D8A4ABEF0AF07D517E254E
:1013E000136E146A14367F511326E86A1422805152
:1013F0001326E86A1422460E1326000E1422560EF7
:101400001326000E1422FF0E1326000E14224E5037
:101410001326E86A1422030E1326000E1422132A40
:10142000000E14221328366E000E1420376E410E63
:1014300024EC00F0410E24EC00F0410E24EC00F00E
:10144000520E24EC00F0430E24EC00F07D5124EC0D
:1014500000F07E5124EC00F07F5124EC00F080512C
:1014600024EC00F0460E24EC00F0560E24EC00F0C4
:10147000FF0E24EC00F04E5024EC00F0030E24ECA0
:1014800000F0010E24EC00F0010E24EC00F0000E40
:1014900024EC00F0430E24EC00F0375024EC00F074
:1014A000365024EC00F00D0E24EC00F00A0E24EC73
:1014B00000F00D0E24EC00F00A0E24EC00F0410EBA
:1014C00024EC00F0410E24EC00F0410E24EC00F07E
:1014D000520E24EC00F0430E24EC00F07D5124EC7D
:1014E00000F07E5124EC00F07F5124EC00F080519C
:1014F00024EC00F0460E24EC00F0560E24EC00F034
:10150000FF0E24EC00F04E5024EC00F0030E24EC0F
:1015100000F0010E24EC00F0010E24EC00F0000EAF
:1015200024EC00F0430E24EC00F0375024EC00F0E3
:10153000365024EC00F00D0E24EC00F00A0E24ECE2
:1015400000F00D0E24EC00F00A0E24EC00F083985D
:1015500095983AEF0BF07D517E25136E146A143680
:101560007F511326E86A142280511326E86A142258
:10157000460E1326000E1422520E1326000E1422BD
:10158000FF0E1324366E000E1420376E410E24EC2D
:1015900000F0410E24EC00F0410E24EC00F0520E5D
:1015A00024EC00F0430E24EC00F07D5124EC00F01C
:1015B0007E5124EC00F07F5124EC00F0805124ECAB
:1015C00000F0460E24EC00F0520E24EC00F0FF0E6A
:1015D00024EC00F0430E24EC00F0375024EC00F033
:1015E000365024EC00F00D0E24EC00F00A0E24EC32
:1015F00000F00D0E24EC00F00A0E24EC00F0410E79
:1016000024EC00F0410E24EC00F0410E24EC00F03C
:10161000520E24EC00F0430E24EC00F07D5124EC3B
:1016200000F07E5124EC00F07F5124EC00F080515A
:1016300024EC00F0460E24EC00F0520E24EC00F0F6
:10164000FF0E24EC00F0430E24EC00F0375024ECA5
:1016500000F0365024EC00F00D0E24EC00F00A0EE1
:1016600024EC00F00D0E24EC00F00A0E24EC00F047
:1016700083989598839895981200040032B26FEF82
:101680000BF0040031BE53EF0BF0318E1D0E3E6E99
:10169000180E3F6E010E566E546A9EEC1BF0536A94
:1016A0005CEC1BF0838A016A026A3FC004F03E5082
:1016B0008FEC00F0D8A46DEF0BF0040032BE65EFA4
:1016C0000BF0838C959C818A939A3282546A9EECAB
:1016D0001BF053685CEC1BF0839A72EF0BF0319EA9
:1016E0003E6A3F6A1200040031A8DAEF0BF031982D
:1016F000040032B693EF0BF0040031B688EF0BF024
:101700007B1D916FDBEC0BF083EC12F091EF0BF093
:101710007B517919926F921D916FDBEC0BF083EC8A
:1017200012F099EF0BF07B1D916FDBEC0BF083EC6B
:1017300012F0040032B6D9EF0BF0E86A79AF010F6E
:10174000D8B48D91D8A48D81E86A79AD010FD8B451
:101750008D93D8A48D83E86A79AB010FD8B48D95A9
:10176000D8A48D85E86A79A9010FD8B48D97D8A43B
:101770008D87E86A79A7010FD8B48D99D8A48D898F
:10178000E86A79A5010FD8B48D9BD8A48D8BE86A3F
:1017900079A3010FD8B48D9DD8A48D8DE86A79A165
:1017A000010FD8B48D9FD8A48D8F080E8E6FDAEFFD
:1017B0000BF08D69120091BF5D8091AF5D9091BD7E
:1017C0005D8291AD5D9291BB5D8491AB5D9491B969
:1017D0005D8691A95D9691B75D8891A75D9891B559
:1017E0005D8A91A55D9A91B35D8C91A35D9C91B149
:1017F0005D8E91A15D9E040032A000EF0CF05D684B
:101800001200040081514508D8B451EF0CF04E0E7F
:10181000816F856B0400030E855DD8B04BEF0CF033
:101820004AC001F04BC002F035EC00F001C04AF0B4
:1018300002C04BF04A50FF08D8A4E868136E4A5023
:101840000008D8A4E868156E13C001F01550A1EC8B
:1018500000F0156E166E040015501610D8B43BEF4C
:101860000CF08551140FE96E010EEA6AEA224AC0B3
:10187000EFFF48EF0CF0AB0E8525136E146A14369B
:101880008551140FE96E010EEA6AEA2213C0EFFFD8
:10189000852BD8A0BFD714C17EF015C17FF016C12B
:1018A00080F012008A6B0400290E8A5DD8B06CEFBC
:1018B0000CF0040081B25FEF0CF0010E906F040099
:1018C00081A266EF0CF0280E8A6F906B320E5CECF2
:1018D00000F08A2BD8A0E7D70400010E905DD8A0B5
:1018E0008FEF0CF0746A756AFF0E4DEC00F0010E7C
:1018F000746E756AFF0E4DEC00F0020E746E756A20
:10190000FF0E4DEC00F0030E746E756AFF0E4DEC89
:1019100000F0040E746E756AFF0E4DEC00F01200BC
:10192000040081B2A8EF0CF0016A026A45C004F01D
:1019300044508FEC00F0D8A4A6EF0CF00A0E446ED1
:10194000456A8B6B81C08CF0B7EC0CF0B6EF0CF0F5
:1019500044C001F045C002F0046A000E8CEC00F0B7
:10196000D8A4B6EF0CF04406000E455A120004004D
:1019700082514C08D8A4C0EF0CF03194140E7A6F49
:10198000050E026E460E6AEC00F083889598410EB3
:1019900024EC00F0410E24EC00F0410E24EC00F0A9
:1019A000520E24EC00F0430E24EC00F07D5124ECA8
:1019B00000F07E5124EC00F07F5124EC00F08051C7
:1019C00024EC00F08B5124EC00F08C5124EC00F05E
:1019D0000D0E24EC00F00A0E24EC00F00D0E24ECA9
:1019E00000F00A0E24EC00F0839895981200050E82
:1019F000026E460E6AEC00F0540EEC25136E146A6B
:101A00001436ED511326E86A1422EE511326E86AC3
:101A10001422EF511324366EE86A1420376EF05109
:101A20003624136EE86A3720146EF1511326E86AE3
:101A30001422F2511326E86A1422F3511324366E4D
:101A4000E86A1420376E83889598410E24EC00F0E4
:101A5000410E24EC00F0410E24EC00F0520E24EC78
:101A600000F0430E24EC00F07D5124EC00F07E5198
:101A700024EC00F07F5124EC00F0805124EC00F0C5
:101A8000540E24EC00F0EC5124EC00F0ED5124EC69
:101A900000F0EE5124EC00F0EF5124EC00F0F05196
:101AA00024EC00F0F15124EC00F0F25124EC00F0B1
:101AB000F35124EC00F0430E24EC00F0375024ECFA
:101AC00000F0365024EC00F00D0E24EC00F00A0E6D
:101AD00024EC00F00D0E24EC00F00A0E24EC00F0D3
:101AE000839895981200050E026E460E6AEC00F07F
:101AF000480ECC25136E146A1436CD511326E86AAD
:101B00001422CE511326E86A1422CF511324366EC4
:101B1000E86A1420376ED0513624136EE86A3720F5
:101B2000146ED1511326E86A1422D2511326E86AA2
:101B30001422D3511324366EE86A1420376E83883A
:101B40009598410E24EC00F0410E24EC00F0410E7B
:101B500024EC00F0520E24EC00F0430E24EC00F0D4
:101B60007D5124EC00F07E5124EC00F07F5124ECF8
:101B700000F0805124EC00F0480E24EC00F0CC5131
:101B800024EC00F0CD5124EC00F0CE5124EC00F018
:101B9000CF5124EC00F0D05124EC00F0D15124ECD2
:101BA00000F0D25124EC00F0D35124EC00F0430EAD
:101BB00024EC00F0375024EC00F0365024EC00F018
:101BC0000D0E24EC00F00A0E24EC00F00D0E24ECB7
:101BD00000F00A0E24EC00F0839895981200050E90
:101BE000026E460E6AEC00F0410EA425136E146AD4
:101BF0001436A5511326E86A1422A6511326E86A62
:101C00001422A7511324366EE86A1420376EA851A7
:101C10003624136EE86A3720146EA9511326E86A39
:101C20001422AA511326E86A1422AB511324366EEB
:101C3000E86A1420376E83889598410E24EC00F0F2
:101C4000410E24EC00F0410E24EC00F0520E24EC86
:101C500000F0430E24EC00F07D5124EC00F07E51A6
:101C600024EC00F07F5124EC00F0805124EC00F0D3
:101C7000410E24EC00F0A45124EC00F0A55124EC1A
:101C800000F0A65124EC00F0A75124EC00F0A8517C
:101C900024EC00F0A95124EC00F0AA5124EC00F04F
:101CA000AB5124EC00F0430E24EC00F0375024EC50
:101CB00000F0365024EC00F00D0E24EC00F00A0E7B
:101CC00024EC00F00D0E24EC00F00A0E24EC00F0E1
:101CD000839895981200E86A31B4E868136E8251CF
:101CE0004C08D8A4E868FF0A156E13C001F015501F
:101CF000A1EC00F0156E166E040015501610D8B445
:101D000088EF0EF0848496948482969231947A6B54
:101D1000120081514E08D8A4E868FF0A136E010131
:101D2000AE5100017D5DD8A4E868FF0A156E13C0AE
:101D300001F01550A1EC00F0156E166E0101AF51C7
:101D400000017E5DD8A4E868FF0A176E15501610D2
:101D5000016E1750A1EC00F0176E186E0101B05122
:101D600000017F5DD8A4E868FF0A196E17501810AB
:101D7000016E1950A1EC00F0196E1A6E0101B151FB
:101D80000001805DD8A4E868FF0A1B6E19501A1084
:101D9000016E1B50A1EC00F01B6E1C6E04001B506A
:101DA0001C10D8B4F3EF0EF0450E816F746A756A9B
:101DB00081514DEC00F0010E746E756A7D514DEC51
:101DC00000F0020E746E756A7E514DEC00F0030E49
:101DD000746E756A7F514DEC00F0040E746E756A76
:101DE00080514DEC00F0849496941200040032A2CD
:101DF00003EF0FF0040056500108D8A403EF0FF0D2
:101E0000020E566E328A1200040032A211EF0FF059
:101E1000040056500108D8A411EF0FF0060E566EBC
:101E200031821200040032A21FEF0FF0040056505E
:101E30000108D8A41FEF0FF0030E566E3086120073
:101E4000040032A22DEF0FF0040056500108D8A470
:101E50002DEF0FF0040E566E30801200040032A2F7
:101E60005AEF0FF0040056500108D8A45AEF0FF0B3
:101E7000040032AA41EF0FF0329ACA945BEC0FF0E3
:101E8000CA84040030A64AEF0FF03096CA940EECD4
:101E900011F0CA84040030A053EF0FF03090CA94C0
:101EA00093EC10F0CA84040031A25AEF0FF0319283
:101EB000CA94CA841200506A0400080E505CD8B05C
:101EC00090EF10F02F0EE96EEA6A5050000F0EEC02
:101ED00000F0000ED8A4010E136E146A010E016EFC
:101EE000026A14C004F013508FEC00F0D8A4A2EFE3
:101EF0000FF05050DC0FE96E000EEA6AEA22EFCFD5
:101F000091F091BF328891AF3298D8909135926F0D
:101F10005050E40FE96E000EEA6AEA22EFCF93F028
:101F200093BF928193AF9291040032B89DEF0FF06E
:101F3000400E92258F6FA0EF0FF0C00E925D8F6F55
:101F4000A3EF0FF08F695050FC0FE96E000EEA6AA4
:101F5000EA22EFCF13F0080E135C136E146A000E22
:101F6000145A8FC001F0026A14C004F0135084ECBC
:101F700000F0136E5050FC0FE96E000EEA6AEA2280
:101F8000EFCF15F0080E1524156E166A16368FC0A1
:101F900001F0026A16C004F015508CEC00F0156ECA
:101FA00013C001F01550A1EC00F0156E166E5050E4
:101FB000F40FE96E000EEA6AEA22EFCF17F017C0BD
:101FC00001F0020E87EC00F0176E15501610016E2E
:101FD0001750A8EC00F0176E186E04001750181078
:101FE000D8B44CEF10F05050F40FE96E000EEA6ACE
:101FF000EA22EFCF13F00400030E135CD8A00BEF1E
:1020000010F05050FC0FE96E000EEA6AEA228FC011
:10201000EFFF1BEF10F05050EC0FE96E000EEA6A74
:10202000EA22EFCF13F05050FC0FE96E000EEA6A7F
:10203000EA2213C0EFFF5050FC0FE96E000EEA6A6F
:10204000EA22EFCF13F00400F60E135CD8A02BEFBA
:1020500010F0F50EFC6F5050FC0FE96E000EEA6AAE
:10206000EA22EFCF13F004000A0E135CD8B03BEF66
:1020700010F00A0EFC6F5050EC0FE96E000EEA6A89
:10208000EA228FC0EFFF5050F40FE96E000EEA6AAB
:10209000EA22EF6A8DEF10F05050F40FE96E000E57
:1020A000EA6AEA22EFCF13F01328136E146A14368B
:1020B0005050F40FE96E000EEA6AEA2213C0EFFFF7
:1020C0005050FC0FE96E000EEA6AEA22EFCF13F0DF
:1020D00004001350FF08D8A48DEF10F05050EC0FFF
:1020E000E96E000EEA6AEA22EFCF13F05050FC0FBF
:1020F000E96E000EEA6AEA2213C0EFFF5050EC0FBF
:10210000E96E000EEA6AEA228FC0EFFF5050F40F2A
:10211000E96E000EEA6AEA22EF6A502AD8A0CCD60D
:1021200089EC11F01200506A0400080E505CD8B01F
:102130000BEF11F02D0EE96EEA6A5050000F0EEC15
:1021400000F0000ED8A4010E136E146A010E016E89
:10215000026A14C004F013508FEC00F0D8A401EF11
:1021600011F05050940FE96E000EEA6AEA22EFCFA8
:1021700013F00F0E1314136E146A13C001F014C081
:1021800002F0040E77EC00F0136E02C014F0505011
:102190009C0FE96E000EEA6AEA22EFCF15F0F00E0E
:1021A0001514156E166A15C001F016C002F0040E63
:1021B0007FEC00F0156E02C016F013501526145077
:1021C00016225050A40FE96E000EEA6AEA2215C0EA
:1021D000EFFF5050A40FE96E000EEA6AEA22EFCF3B
:1021E00013F004001350FF08D8A4FFEF10F0505074
:1021F000A40FE96E000EEA6AEA22FE0EEF6E08EF07
:1022000011F05050A40FE96E000EEA6AEA22EF685E
:10221000502AD8A089D789EC11F01200506A040026
:10222000080E505CD8B086EF11F02E0EE96EEA6A07
:102230005050000F0EEC00F0000ED8A4010E136EEB
:10224000146A010E016E026A14C004F013508FEC80
:1022500000F0D8A47CEF11F05050AC0FE96E000EE6
:10226000EA6AEA22EFCF13F0C00E1314136E146A59
:10227000016A026A14C004F013508FEC00F0D8A475
:102280007AEF11F05050AC0FE96E000EEA6AEA22C4
:10229000EFCF13F03F0E1314466E476A46C001F0AD
:1022A00047C002F0080E77EC00F0466E02C047F01F
:1022B0005050B40FE96E000EEA6AEA22EFCF13F035
:1022C00013504626E86A472246C001F047C002F094
:1022D000520E036E046AADEC00F0136E02C014F0EF
:1022E0005050CC0FE96E000EEA6AEA2213C0EFFFED
:1022F0007AEF11F083EF11F05050CC0FE96E000E21
:10230000EA6AEA22EF68502AD8A089D789EC11F04E
:102310001200040032A25EEF12F0000E2FB0010E88
:10232000136E146A000E2EB0010E156E166A13504D
:10233000151214501612000E2DB0010E176E186AE9
:1023400015501710E8B07B8FE8A07B9F000E2FB2CE
:10235000010E136E146A000E2EB2010E156E166A6F
:102360001350151214501612000E2DB2010E176ED6
:10237000186A15501710E8B07B8DE8A07B9D000E01
:102380002FB4010E136E146A000E2EB4010E156EDA
:10239000166A1350151214501612000E2DB4010EA9
:1023A000176E186A15501710E8B07B8BE8A07B9B5E
:1023B000000E2FB6010E136E146A000E2EB6010E1B
:1023C000156E166A1350151214501612000E2DB603
:1023D000010E176E186A15501710E8B07B89E8A037
:1023E0007B99000E2FB8010E136E146A000E2EB8E2
:1023F000010E156E166A1350151214501612000EA7
:102400002DB8010E176E186A15501710E8B07B87AB
:10241000E8A07B97000E2FBA010E136E146A000E0F
:102420002EBA010E156E166A13501512145016129C
:10243000000E2DBA010E176E186A15501710E8B06D
:102440007B85E8A07B95000E2FBC010E136E146AED
:10245000000E2EBC010E156E166A13501512145084
:102460001612000E2DBC010E176E186A15501710AB
:10247000E8B07B83E8A07B93000E2FBE010E136EA5
:10248000146A000E2EBE010E156E166A1350151238
:1024900014501612000E2DBE010E176E186A15503C
:1024A0001710E8B07B81E8A07B9104007B517C5D34
:1024B000D8B45CEF12F031887BC07CF01200A00E23
:1024C0005C6E309A99EC12F01200A10E5C6E309A9C
:1024D0001200D00E5C6E308A5BC039F099EC12F0BD
:1024E0001200D10E5C6E308A5BC039F08AEC12F0BB
:1024F00012000400C5BC81EF12F03088C58C82EF59
:1025000012F03098120083C05CF0308A318C99EC64
:1025100012F0120004005CB08FEF12F05C80308E7D
:10252000308C010E746FD66AD76AD58EE0EC12F04B
:10253000120004005CA09EEF12F05C90309E308C84
:10254000010E746FD66AD76AD58EA8EC12F012000D
:102550000400010E745DD8A0DFEF12F0040030AC6F
:10256000DEEF12F0309C24EC13F0040074510508E7
:10257000D8A4C2EF12F0BDDF040030A8C2EF12F001
:102580005DC0C9FF040074510608D8A4CEEF12F054
:10259000B0DF040030A8CEEF12F0C58404007451FF
:1025A0000708D8A4DEEF12F0746BD59E4D6A0400C4
:1025B00030BADEEF12F0050E5CEC00F0C9D7120065
:1025C0000400010E745DD8A023EF13F0040030ACBA
:1025D00022EF13F0309C24EC13F004007451050832
:1025E000D8A4F9EF12F085DF040030A8F9EF12F05B
:1025F000C580040074510608D8A401EF13F05CC034
:10260000C9FF040074510708D8A408EF13F0C58669
:10261000040074510808D8A412EF13F0C9CF5DF07C
:10262000090E746F040074510908D8A419EF13F04F
:10263000C584040074510A08D8A422EF13F0746B07
:10264000B1904D6ABDD71200040074510108D8A49E
:102650002BEF13F0C580040074510208D8A435EFA5
:1026600013F05C5030BEE804C96E040074510308D6
:10267000D8A44AEF13F0040031BC48EF13F039DF5F
:10268000040030A846EF13F039C0C9FF4AEF13F039
:10269000050E746F040074510408D8A45AEF13F0A7
:1026A000040030AA58EF13F0050E746F5AEF13F0C0
:1026B00038C0C9FF1200040032A25BEF1BF0040017
:1026C00056500208D8A46CEF13F0556A130E5A6ED8
:1026D000050E566E5BEF1BF0040056500408D8A49C
:1026E00079EF13F0556A270E5A6E050E566E5BEFA2
:1026F0001BF0040056500308D8A486EF13F0556A67
:102700003B0E5A6E050E566E5BEF1BF004005650E2
:102710000608D8A493EF13F0556A4F0E5A6E050EB3
:10272000566E5BEF1BF0040056500508D8A45BEF13
:102730001BF0040055500008D8A459EF19F05A2A8C
:10274000010E596E586A04005A500108D8A4ADEF22
:1027500013F0010E566E59EF19F004005A500A0892
:10276000D8A4B7EF13F0010E556E59EF19F004001D
:102770005A500B08D8A4D3EF13F0756B0400080E61
:10278000755DD8B0CFEF13F075511C0FE96E010ED7
:10279000EA6AEA22900EEF6E752BD8A0EFD7050EED
:1027A000556E59EF19F004005A500C08D8A413EFD5
:1027B00014F0756B0400080E755DD8B00FEF14F0BF
:1027C0002C0EE96EEA6A7551000F0EEC00F0000E57
:1027D000D8A4010E136E146A13500108136E000E74
:1027E0001454146E2F0EE96EEA6A7551000F0EEC48
:1027F00000F013301CEC00F07551040FE96E010E6F
:10280000EA6AEA22EFCF13F075511C0FE96E010E50
:10281000EA6AEA2213C0EFFF752BD8A0CBD7050ECA
:10282000556E59EF19F004005A500D08D8A437EF2F
:1028300014F0756B0400080E755DD8B033EF14F01A
:1028400075510C0FE96E010EEA6AEA22EFCF13F020
:1028500075511C0FE96E010EEA6AEA2213C0EFFF00
:10286000752BD8A0E7D7050E556E59EF19F0040067
:102870005A500E08D8A441EF14F0020E556E59EFCD
:1028800019F004005A500F08D8A44BEF14F0010EB1
:10289000566E59EF19F004005A501408D8A455EF99
:1028A00014F0010E556E59EF19F004005A50150836
:1028B000D8A471EF14F0756B0400080E755DD8B0E4
:1028C0006DEF14F075511C0FE96E010EEA6AEA22F1
:1028D000900EEF6E752BD8A0EFD7050E556E59EF01
:1028E00019F004005A501608D8A4B2EF14F0756B12
:1028F0000400080E755DD8B09DEF14F02C0EE96E43
:10290000EA6A7551000F0EEC00F0000ED8A4010E1B
:10291000136E146A13500108136E000E1454146ED3
:102920002F0EE96EEA6A7551000F0EEC00F01330BD
:102930001CEC00F0752BD8A0DBD7756B0400080EDB
:10294000755DD8B0AEEF14F075511C0FE96E010E35
:10295000EA6AEA22EF6A752BD8A0F0D7050E556E09
:1029600059EF19F004005A501708D8A4BCEF14F01E
:10297000030E556E59EF19F004005A501808D8A4E8
:10298000D8EF14F0756B0400080E755DD8B0D4EF65
:1029900014F075511C0FE96E010EEA6AEA22910EDD
:1029A000EF6E752BD8A0EFD7050E556E59EF19F0C5
:1029B00004005A501908D8A4E4EF14F0010E516E27
:1029C000040E556E59EF19F004005A501A08D8A495
:1029D00009EF15F0756B0400080E755DD8B004EFB3
:1029E00015F07551D40FE96E000EEA6AEA22EFCFB6
:1029F00013F07551DC0FE96E000EEA6AEA2213C08B
:102A0000EFFF752BD8A0E7D7516A040E556E59EF2A
:102A100019F004005A501B08D8A42DEF15F0756B5F
:102A20000400080E755DD8B029EF15F07551D40F6C
:102A3000E96E000EEA6AEA22EFCF13F07551E40F57
:102A4000E96E000EEA6AEA2213C0EFFF752BD8A0E8
:102A5000E7D7020E556E59EF19F004005A501C08C2
:102A6000D8A437EF15F0010E566E59EF19F0040097
:102A70005A502808D8A441EF15F0010E556E59EFB1
:102A800019F004005A502908D8A45DEF15F0756BB1
:102A90000400080E755DD8B059EF15F075511C0F84
:102AA000E96E010EEA6AEA22A80EEF6E752BD8A035
:102AB000EFD7050E556E59EF19F004005A502A0849
:102AC000D8A495EF15F0756B0400080E755DD8B0AD
:102AD00091EF15F02C0EE96EEA6A7551000F0EECBD
:102AE00000F0000ED8A4010E136E146A13500108F2
:102AF000136E000E1454146E2D0EE96EEA6A7551B1
:102B0000000F0EEC00F013301CEC00F075511C0FA0
:102B1000E96E010EEA6AEA22010EEF6E752BD8A06B
:102B2000D3D7050E556E59EF19F004005A502B08F3
:102B3000D8A4B1EF15F0756B0400080E755DD8B020
:102B4000ADEF15F075511C0FE96E010EEA6AEA222D
:102B5000E00EEF6E752BD8A0EFD7050E556E59EF2E
:102B600019F004005A502C08D8A4BBEF15F0020E3F
:102B7000556E59EF19F004005A502D08D8A4C5EF2E
:102B800015F0010E556E59EF19F004005A502E0839
:102B9000D8A4E1EF15F0756B0400080E755DD8B090
:102BA000DDEF15F075511C0FE96E010EEA6AEA229D
:102BB000A80EEF6E752BD8A0EFD7050E556E59EF06
:102BC00019F004005A502F08D8A4FCEF15F0756BCB
:102BD0000400080E755DD8B0F8EF15F075511C0FA4
:102BE000E96E010EEA6AEA22EF6A752BD8A0F0D7E7
:102BF000050E556E59EF19F004005A503008D8A44C
:102C000006EF16F0030E556E59EF19F004005A50F6
:102C10003108D8A422EF16F0756B0400080E755D1C
:102C2000D8B01EEF16F075511C0FE96E010EEA6A5E
:102C3000EA22A90EEF6E752BD8A0EFD7050E556EC0
:102C400059EF19F004005A503208D8A42EEF16F0AC
:102C5000010E516E040E556E59EF19F004005A50D2
:102C60003308D8A453EF16F0756B0400080E755D99
:102C7000D8B04EEF16F07551D40FE96E000EEA6A27
:102C8000EA22EFCF13F07551940FE96E000EEA6A55
:102C9000EA2213C0EFFF752BD8A0E7D7516A040EC4
:102CA000556E59EF19F004005A503408D8A477EF44
:102CB00016F0756B0400080E755DD8B073EF16F052
:102CC0007551D40FE96E000EEA6AEA22EFCF13F0D5
:102CD00075519C0FE96E000EEA6AEA2213C0EFFFFD
:102CE000752BD8A0E7D7020E556E59EF19F00400E6
:102CF0005A503508D8A481EF16F0010E566E59EFE0
:102D000019F004005A503C08D8A48BEF16F0010EBD
:102D1000556E59EF19F004005A503D08D8A4A7EF9A
:102D200016F0756B0400080E755DD8B0A3EF16F0B1
:102D300075511C0FE96E010EEA6AEA224E0EEF6E23
:102D4000752BD8A0EFD7050E556E59EF19F004007A
:102D50005A503E08D8A4D8EF16F0756B0400080E40
:102D6000755DD8B0D3EF16F02C0EE96EEA6A755196
:102D7000000F0EEC00F0000ED8A4010E136E146AC2
:102D800013500108136E000E1454146E2E0EE96ECB
:102D9000EA6A7551000F0EEC00F013301CEC00F0E5
:102DA000752BD8A0DBD7020E556E4F6A59EF19F07C
:102DB00004005A503F08D8A4E8EF16F04F2A040048
:102DC000280E4F5CD8B0E6EF16F05A0659EF19F00E
:102DD00004005A504008D8A4F2EF16F0010E556EC8
:102DE00059EF19F004005A504108D8A40EEF17F01B
:102DF000756B0400080E755DD8B00AEF17F07551B9
:102E00001C0FE96E010EEA6AEA224F0EEF6E752B77
:102E1000D8A0EFD7050E556E59EF19F004005A509F
:102E20004208D8A41AEF17F0010E516E040E556E29
:102E300059EF19F004005A504308D8A440EF17F096
:102E4000756B0400080E755DD8B03AEF17F0755138
:102E5000D40FE96E000EEA6AEA22EFCF13F0755143
:102E6000AC0FE96E000EEA6AEA2213C0EFFF752B81
:102E7000D8A0E7D7010E516E040E556E59EF19F028
:102E800004005A504408D8A466EF17F0756B04008C
:102E9000080E755DD8B060EF17F07551D40FE96E6C
:102EA000000EEA6AEA22EFCF13F07551B40FE96E13
:102EB000000EEA6AEA2213C0EFFF752BD8A0E7D70D
:102EC000010E516E040E556E59EF19F004005A5060
:102ED0004508D8A48BEF17F0756B0400080E755DDC
:102EE000D8B086EF17F07551D40FE96E000EEA6A7C
:102EF000EA22EFCF13F07551BC0FE96E000EEA6ABB
:102F0000EA2213C0EFFF752BD8A0E7D7516A040E51
:102F1000556E59EF19F004005A504608D8A4AFEF87
:102F200017F0756B0400080E755DD8B0ABEF17F0A5
:102F30007551D40FE96E000EEA6AEA22EFCF13F062
:102F40007551C40FE96E000EEA6AEA2213C0EFFF62
:102F5000752BD8A0E7D7020E556E59EF19F0040073
:102F60005A504708D8A4B9EF17F0010E566E59EF22
:102F700019F004005A505008D8A4C3EF17F0010EFE
:102F8000556E59EF19F004005A505108D8A4DFEFDC
:102F900017F0756B0400080E755DD8B0DBEF17F005
:102FA00075511C0FE96E010EEA6AEA22900EEF6E6F
:102FB000752BD8A0EFD7050E556E59EF19F0040008
:102FC0005A505208D8A421EF18F0756B0400080E6F
:102FD000755DD8B00BEF18F02C0EE96EEA6A7551EA
:102FE000000F0EEC00F0000ED8A4010E136E146A50
:102FF00013500108136E000E1454146E2F0EE96E58
:10300000EA6A7551000F0EEC00F013301CEC00F072
:10301000752BD8A0DBD7756B0400080E755DD8B092
:103020001DEF18F075511C0FE96E010EEA6AEA22D5
:10303000020EEF6E752BD8A0EFD7050E556E59EF27
:1030400019F004005A505308D8A45EEF18F0756BBD
:103050000400080E755DD8B05AEF18F0010E016E2D
:10306000026A755177EC00F0136E02C014F08D51B6
:103070001316146A13C001F014C002F0046A000EA3
:103080008CEC00F0D8A44FEF18F075511C0FE96ECE
:10309000010EEA6AEA227D0EEF6E57EF18F07551C5
:1030A0001C0FE96E010EEA6AEA22C90EEF6E752B5B
:1030B000D8A0CED7050E556E59EF19F004005A501E
:1030C0005408D8A479EF18F0756B0400080E755DEC
:1030D000D8B075EF18F075511C0FE96E010EEA6A51
:1030E000EA22EF6A752BD8A0F0D7050E556E59EF7E
:1030F00019F004005A505508D8A483EF18F0020EB6
:10310000556E59EF19F004005A505608D8A48DEFA7
:1031100018F0010E556E59EF19F004005A50570877
:10312000D8A4A9EF18F0756B0400080E755DD8B02F
:10313000A5EF18F075511C0FE96E010EEA6AEA223C
:10314000900EEF6E752BD8A0EFD7050E556E59EF88
:1031500019F004005A505808D8A4EBEF18F0756B1A
:103160000400080E755DD8B0D5EF18F02C0EE96E8E
:10317000EA6A7551000F0EEC00F0000ED8A4010EA3
:10318000136E146A13500108136E000E1454146E5B
:103190002F0EE96EEA6A7551000F0EEC00F0133045
:1031A0001CEC00F0752BD8A0DBD7756B0400080E63
:1031B000755DD8B0E7EF18F075511C0FE96E010E80
:1031C000EA6AEA22030EEF6E752BD8A0EFD7050E40
:1031D000556E59EF19F004005A505908D8A428EF39
:1031E00019F0756B0400080E755DD8B024EF19F066
:1031F000010E016E026A755177EC00F0136E02C089
:1032000014F08D511316146A13C001F014C002F0AB
:10321000046A000E8CEC00F0D8A419EF19F0755177
:103220001C0FE96E010EEA6AEA227D0EEF6E21EFB5
:1032300019F075511C0FE96E010EEA6AEA22C90EF7
:10324000EF6E752BD8A0CED7050E556E59EF19F03D
:1032500004005A505A08D8A443EF19F0756B0400C3
:10326000080E755DD8B03FEF19F075511C0FE96E6F
:10327000010EEA6AEA22EF6A752BD8A0F0D7050E94
:10328000556E59EF19F004005A505B08D8A44DEF61
:1032900019F0020E556E59EF19F004005A505C08EF
:1032A000D8A457EF19F0010E566E59EF19F0010E20
:1032B000566E040055500008D8B45BEF1BF00400B4
:1032C00055500108D8A48FEF19F004005950010897
:1032D000D8A475EF19F0546A9EEC1BF0536A5CECAD
:1032E0001BF0020E596E8DEF19F0040059500208C0
:1032F000D8A483EF19F0838A030E596E010E5CEC9B
:1033000000F08DEF19F0040059500308D8A48DEF98
:1033100019F0556A010E5CEC00F05BEF1BF0040045
:1033200055500208D8A4C6EF19F0040059500108FE
:10333000D8A4A5EF19F0546A9EEC1BF0536A5CEC1C
:103340001BF0020E596EC4EF19F004005950020828
:10335000D8A4B0EF19F0839A030E596EC4EF19F098
:10336000040059500308D8A4BDEF19F054689EEC2E
:103370001BF0040E596EC4EF19F0040059500408F4
:10338000D8A4C4EF19F0556A5BEF1BF00400555048
:103390000308D8A4FBEF19F0040059500108D8A481
:1033A000D7EF19F0839A020E596EF9EF19F0040065
:1033B00059500208D8A4E7EF19F0546A9EEC1BF0AC
:1033C000536A5CEC1BF0030E596EF9EF19F0040020
:1033D00059500308D8A4F2EF19F0838A040E596EED
:1033E000F9EF19F0040059500408D8A4F9EF19F0C6
:1033F000556A5BEF1BF0040055500408D8A4A0EFF9
:103400001AF00400080E585CD8B073EF1AF00400EC
:1034100059500108D8A412EF1AF054689EEC1BF022
:1034200070EF1AF0040059500208D8A41BEF1AF0EC
:10343000839A70EF1AF0040059500308D8A467EF7C
:103440001AF0040058500008D8A438EF1AF0756B31
:103450000400080E755DD8B038EF1AF07551D40F1E
:10346000E96E000EEA6AEA22EF6A752BD8A0F0D75F
:103470007DEC1BF053C052F0756B0400080E755DB7
:10348000D8B065EF1AF07551D40FE96E000EEA6AF4
:10349000EA22EFCF13F0D8901334136E146A143667
:1034A000010E5214156E166A13501526145016226A
:1034B0007551D40FE96E000EEA6AEA2215C0EFFFDB
:1034C000D8905232752BD8A0D8D770EF1AF00400DC
:1034D00059500408D8A470EF1AF0838A596A582A00
:1034E000592A9EEF1AF0040059500108D8A48CEF15
:1034F0001AF0040051500108D8A487EF1AF0546A5A
:103500009EEC1BF0536A5CEC1BF08AEF1AF05468D7
:103510009EEC1BF09DEF1AF0040059500208D8A44D
:1035200095EF1AF0839A9DEF1AF0040059500308A2
:10353000D8A49DEF1AF0838A556A592A5BEF1BF0D5
:10354000040055500508D8A45AEF1BF00400080EDB
:10355000585CD8B015EF1BF0040059500108D8A4EE
:1035600000EF1BF0040058500008D8A4CCEF1AF06C
:10357000756B0400080E755DD8B0CCEF1AF02C0EF8
:10358000E96EEA6A7551000F0EEC00F0D8901CEC61
:1035900000F0752BD8A0EDD7526A070E756FD89042
:1035A0005234136E146A143675511C0FE96E010EF5
:1035B000EA6AEA22EFCF15F058500708176E000E9E
:1035C000D8A0E804186E15C001F0026A17507FEC0D
:1035D00000F0176E02C018F0010E1716000E181634
:1035E00013501724526E7507D8B0D9D752C054F073
:1035F0009EEC1BF052C053F05CEC1BF012EF1BF082
:10360000040059500208D8A409EF1BF0839A12EF66
:103610001BF0040059500308D8A412EF1BF0838A52
:10362000596A582A592A58EF1BF0040059500108CA
:10363000D8A420EF1BF054689EEC1BF057EF1BF052
:10364000040059500208D8A429EF1BF0839A57EFC1
:103650001BF0040059500308D8A44FEF1BF07DEC79
:103660001BF053C052F0756B0400080E755DD8B0A6
:103670004DEF1BF0010E5214136E146A2C0EE96EFE
:10368000EA6A7551000F0EEC00F013301CEC00F0EC
:10369000D8905232752BD8A0E7D757EF1BF0040013
:1036A00059500408D8A457EF1BF0838A556A592A49
:1036B0005BEF1BF0556A120053B0828053A08290DA
:1036C00053B2828253A2829253B4828453A48294CE
:1036D00053B6838053A6839053B8838253A88392B2
:1036E00053BA838453AA839453BC838653AC839682
:1036F00053BE828A53AE829A120082B0538082A057
:10370000539082B2538282A2539282B4538482A491
:10371000539483B0538683A0539683B2538883A275
:10372000539883B4538A83A4539A83B6538C83A645
:10373000539C82BA538E82AA539E120054BE948A1E
:1037400054AE949A54BC958654AC959654BA9584CC
:1037500054AA959454B8958254A8959254B69580DD
:1037600054A6959054B4948454A4949454B29482DE
:1037700054A2949254B0948054A0949012000300E8
:02378000FED772
:020000040030CA
:020000040000FA
:10667000FFFFFFFFFFFFFFFFC8EF00F0FFFFFFFF7F
:020000040000FA
:1066C0000400CF7F0000E300000009000000CA7F43
:1066D0000000EC00000005000000C07F0000D900B1
:1066E00000000A000000BE7F0000F500000002006C
:0266F0000000A8
:0E66F200D4EC3AF0030EE126640EF36E020EB5
:10670000F3CFDBFFDE6ADD6ADECF10F0DDCF11F004
:10671000FD0EDBCF12F0FE0E28EC3BF00BE2020E7A
:10672000DBCFE6FFD3EC3FF0E552DF2A010EECE3CE
:10673000DB2AEAD7030EE15C02E2E16AE552E16E90
:10674000D9EF3AF0D4EC3AF0E652FD0EDBCF10F080
:10675000DB06FE0EDBCF11F001E2DB06105011105C
:1067600007E00A0EE66EE66AC4DFE552E552EDD7B1
:10677000E552D9EF3AF0D9CFE6FFE1CFD9FF0A0EC3
:10678000E126DF6A4A0EE66EE66A9CEC39F0E552D5
:10679000E552E76E010EE7CFDBFF020EDB6A030E68
:1067A000DB6AF29ED19096949692040EE66EE66AAB
:1067B000010EE66EE66ACB0EE66E000EE66E52EC59
:1067C00039F0106E060EE15E1050030EE66EE66ABA
:1067D000410EE66EE66AF20EE66E000EE66E52ECD2
:1067E00039F0106E060EE15E105086EC3BF036EC90
:1067F0003DF00001E16B0001CB5109E00001CB51FC
:10680000106E116AFF0E101801E1115013E19DEC9A
:1068100038F0010EE66EBF0EE66E7E0EE66E000EDE
:10682000E66ECBEC3DF0E552E552E552E552000153
:10683000E16B63D046EC38F000091AE00001010E6C
:10684000E16F00011E0EDD6FDE6BDF6BE06B81A27E
:10685000FED7010EE66EBC0EE66E7E0EE66E000EF4
:10686000E66ECBEC3DF0E552E552E552E55245D0FF
:10687000010EDB50040818E10001010EE16F000178
:106880000A0EDD6FDE6BDF6BE06B010EE66EB90E9C
:10689000E66E7E0EE66E000EE66ECBEC3DF0E55247
:1068A000E552E552E55229D04B0EE66EE66A9CECC5
:1068B00039F0E552E5520001DD6F0001DE6BDF6B60
:1068C000E06BD880000E0001DD55000EDE55000E95
:1068D000DF55000EE05503E20001010EE16F010EED
:1068E000E66EB60EE66E7E0EE66E000EE66ECBEC43
:1068F0003DF0E552E552E552E552010EE66EB40E6A
:10690000E66E7E0EE66E000EE66ECBEC3DF0E552D6
:10691000E552E552E552010EE66EAD0EE66E7E0ED4
:10692000E66E000EE66ECBEC3DF0E552E552E55228
:10693000E552010EE66EA70EE66E7E0EE66E000EC6
:10694000E66ECBEC3DF0E552E552E552E552010E24
:10695000E66EDDC0E6FF74EC3DF0E552E552000165
:10696000D890DD37DE37DF37E037010EE66EA20E56
:10697000E66E7E0EE66E000EE66ECBEC3DF0E55266
:10698000E552E552E552010EE66E010EE66E74EC3C
:106990003DF0E552E552010EE66EA00EE66E7E0E6B
:1069A000E66E000EE66ECBEC3DF0E552E552E552A8
:1069B000E552010EE66E090EE66E74EC3DF0E5520E
:1069C000E552010EE66E9B0EE66E7E0EE66E000E42
:1069D000E66ECBEC3DF0E552E552E552E552010E94
:1069E000E66EF2C0E6FF74EC3DF0E552E552010EB2
:1069F000E66EA00EE66E7E0EE66E000EE66ECBEC48
:106A00003DF0E552E552E552E552010EE66EF3C067
:106A1000E6FF74EC3DF0E552E552010EE66EA00E85
:106A2000E66E7E0EE66E000EE66ECBEC3DF0E552B5
:106A3000E552E552E552010EE66EF4C0E6FF74EC55
:106A40003DF0E552E552010EE66E970EE66E7E0EC3
:106A5000E66E000EE66ECBEC3DF0E552E552E552F7
:106A6000E552010EE66ECBC0E6FF74EC3DF0E55258
:106A7000E552010EE66EA00EE66E7E0EE66E000E8C
:106A8000E66ECBEC3DF0E552E552E552E552010EE3
:106A9000E66ECCC0E6FF74EC3DF0E552E552010E27
:106AA000E66EA00EE66E7E0EE66E000EE66ECBEC97
:106AB0003DF0E552E552E552E552010EE66ECDC0DD
:106AC000E6FF74EC3DF0E552E552010EE66EA00ED5
:106AD000E66E7E0EE66E000EE66ECBEC3DF0E55205
:106AE000E552E552E552010EE66ECEC0E6FF74ECCB
:106AF0003DF0E552E552010EE66E950EE66E7E0E15
:106B0000E66E000EE66ECBEC3DF0E552E552E55246
:106B1000E552010EE66E840EE66E7E0EE66E000E07
:106B2000E66ECBEC3DF0E552E552E552E5529BDADC
:106B30000001E15101E196D0F2A42ED08474847258
:106B40009DDA0001D9C010F0DAC011F0DBC012F0FC
:106B5000DCC013F0D92B000EDA23DB23DC23000189
:106B6000DD51105C0001DE5111580001DF51125857
:106B70000001E051135810E3010EE66E7C0EE66E44
:106B80007E0EE66E000EE66ECBEC3DF0E552E55271
:106B9000E552E5520001E16B81B212D0020EDBCF6B
:106BA000F3FFDB2AF35004080AE20001060EEC6F43
:106BB0000001420EC56FB0EC3CF081A2FED702D0BE
:106BC000020EDB6A030EDB50010A0DE0010A01E050
:106BD00045D0ACEC3BF0000905E0010EF36E030E6E
:106BE000F3CFDBFF3ED0010EE66E790EE66E7E0E31
:106BF000E66E000EE66ECBEC3DF0E552E552E55256
:106C0000E55258EC3EF0A0D9010EE66E760EE66E27
:106C10007E0EE66E000EE66ECBEC3DF0E552E552E0
:106C2000E552E55258EC3EF00001EC0505E00001AC
:106C3000D96BDA6BDB6BDC6BB0EC3CF0010EE66E13
:106C4000730EE66E7E0EE66E000EE66ECBEC3DF049
:106C5000E552E552E552E55258EC3EF0030EDB6A90
:106C600000D066D7DE52040EDD6E010EE66EE66AD7
:106C70004A0EE66EE66AD950010FE66E000EDA2083
:106C8000E66E6DDB106E060EE15E1050010EE66ED4
:106C90006E0EE66E7E0EE66E000EE66ECBEC3DF0FE
:106CA000E552E552E552E55258EC3EF0FCD90009B8
:106CB00003E158EC3EF0FF0058EC3EF0010EE66EAA
:106CC000660EE66E7E0EE66E000EE66ECBEC3DF0D6
:106CD000E552E552E552E5520400D18004003CEF54
:106CE00033F00A0EE15C02E2E16AE552E16EE55240
:106CF000E7CFD9FF1200D4EC3AF00F0EE1261AECE0
:106D00003BF0010E00C1DBFF01C1DFFF3AEC3BF0BD
:106D10000D0EEECFDBFF0E0EEDCFDBFF3AEC3BF0BE
:106D20009A0EEE5C010EEE58000EEE58000EEE5874
:106D300002E3020E66D03AEC3BF0EECF04F0EECF69
:106D400005F0EECF06F0EFCF07F0400E096E0A6AAD
:106D50000B6A0C6A61EC3FF000C0DEFF01C0DEFF91
:106D600002C0DEFF03C0DDFFDD52DD52CAEC3AF0A7
:106D7000105011101210131030E1080EE66EE66A82
:106D8000C0EC3AF0D950040FE66E000EDA200CEC9D
:106D90003BF00C0EDB6A080EF36E0C0EDBCFF4FF3B
:106DA000F350F45C1AE2D950040F106EDACF11F0F0
:106DB0000C0EDB500F011024E96E000EDA20EA6E93
:106DC000EF50E66E0C0EDB50020FF2EC3AF0E5529B
:106DD000E750EF6E0C0EDB2ADED70D0EDBCFE6FFA1
:106DE0000E0EDBCFE6FFF7DAE552E552C9DB020E05
:106DF000E66E010EE66E11DB71EC3BF00001ED6B0F
:106E0000000E106E0F0EE15C02E2E16AE552E16EE7
:106E10001050CFD3030EE66EE66A410EE66EE66AC8
:106E200069EF3BF013EC3BF069EF3BF0BDDB020E8A
:106E3000E126E20EDE6E000EDD6E010EE66E580EED
:106E4000E66E7E0EE66E000E32EC3BF058EC3EF045
:106E50002AD9000907E00001E26B010E55EC3BF076
:106E6000000E06D00001010EE26F55EC3BF0050E5E
:106E7000106E020EE15C02E2E16AE552E16E105032
:106E800098D30001ED6B400E6FDB410E6DDB420EBF
:106E90006BDB430E69DB4C0E67DB000C0001ED6B16
:106EA0004DEC3BF0010EEF6EF8DB090EEF6E000CBF
:106EB0007BDB030EE126DF6A010EDB6A020EDB6A72
:106EC000FE0EDB508FDBEF50430803E00001030EA2
:106ED000EC6FDF6AFE0EDB50DF5C0BE2DF5082DB23
:106EE000EF50116AE8500001C7271150C823DF2A6C
:106EF000F1D7FE0EDB2876DB020EEFCFDBFFFE0EB6
:106F0000DB50020F6FDB010EEFCFDBFFDBCF10F0AA
:106F1000020EDBCF11F00001C751101802E1C85179
:106F2000111803E00001040EEC6F0001EC5102E0C7
:106F3000010E01D0000E106E030EE15C02E2E16A68
:106F4000E552E16E105035D32FDBE652DF6A0001C7
:106F5000EC6B460E0001C65D03E00001010EEC6F14
:106F6000DF6A640EDF5C08E2C6DBDF503BDBEF501C
:106F7000E66EBCDBDF2AF5D70001C551470A60E0A9
:106F8000110A4FE0130A3FE0010A2FE00C0A20E04B
:106F90000B0A10E00D0A62E1030EE66E2CDB61E1E4
:106FA000010EE66E540EE66E7E0EE66E000E5ADBA5
:106FB00031DF35D0040EE66E1EDB53E1010EE66EC6
:106FC000520EE66E7E0EE66E000E4CDB2BDF27D0F7
:106FD000E66A11DB46E1010EE66E500EE66E7E0EAD
:106FE000E66E000E3FDB5ADF1AD0420EE66E03DB80
:106FF00038E1010EE66E4E0EE66E7E0EE66E000E77
:1070000031DB79DE0CD0E66AF6DA2BE1010EE66EB2
:107010004C0EE66E7E0EE66E000E24DB07DF0001EE
:107020001FD0E66AE8DA1DE12CDF0001EC6F010EEB
:10703000E66E4A0EE66E7E0EE66E000E13DB11D093
:10704000E66AD9DA0EE1010EE66E420EE66E7E0EBB
:10705000E66E000E07DB0001E16B03D00001010EBC
:10706000EC6FE552A6D2D59ED59CD59AD598D596EB
:10707000F80ED5140709D56E3EEF38F0D59EF29480
:10708000B30ED76EB40ED66ED58E1200938281B237
:10709000000C010EE66EE66AA2EC33F0E552E55212
:1070A00081B2000C010C80DA090EE126080EDB6AC1
:1070B000BADAD950040FE66E000EDA20E66ECFDAA7
:1070C000070E7BDA010EE66E3B0EE66E7E0EE66E76
:1070D000000EC8DAD4DA5EDA10C0E6FF11C0E6FFAF
:1070E00012C0E6FF13C0E6FF8ADA146E080EE15EF6
:1070F0001450E552E7CF13F0E552E7CF12F0E55216
:10710000E7CF11F0E552E7CF10F01050041808E176
:107110001150051805E11250061802E11350071826
:1071200002E0000E01D0010E106E090EE15C02E2D9
:10713000E16AE552E16E10503CD236DA080EE126E3
:107140005EDA106E080EE15E1050040E04C0DBFF24
:10715000050E05C0DBFF060E06C0DBFF070E07C0ED
:10716000DBFF2BDA60DAD9CFE6FFDACFE6FF40DAD1
:10717000080EE15C02E2E16AE552E16E1AD2120009
:1071800013DA0D0EE126FB0EDB50E76E080EE7CF9B
:10719000DBFF090EDB6A0A0EDB6A0B0EDB6A4ADADA
:1071A0008FDA68DAFB0EDBCFEEFFFC0EDBCFEEFFF3
:1071B000FD0EDBCFEEFFFE0EDBCFEEFFF70EDBCFDB
:1071C00010F0F80EDBCF11F0F90EDBCF12F0FA0E53
:1071D000DBCF13F04FDA1050EE5C1150EE58125026
:1071E000EE581350EE582DE2D5D93F0E1016116A05
:1071F000126A136A105011101210131003E1080ED6
:10720000DB6A5EDA080EDBCFF3FFDB2AF350EAD944
:10721000EFCF10F0116A126A136AD950090FE96EA4
:10722000DACFEAFF1050EE261150EE221250EE2275
:107230001350EE221FDAEE2A000EEE22EE22EE228C
:10724000BDD7010EE66E340EE66E7E0EE66E000EC3
:1072500009DA10DA090EDBCFEEFF0A0EDBCFEEFF04
:107260000B0EDBCFEEFF0C0EDBCFEEFF08DA090EC4
:10727000DBCF10F00A0EDBCF11F00B0EDBCF12F0DC
:107280000C0EDBCF13F010C004F011C005F012C0DB
:1072900006F013C007F00D0EE15C02E2E16AE55270
:1072A000E16E87D1D9CFE6FFE1CFD9FF020EE1260B
:1072B000DE6ADD6ADECF10F0DDCF11F0F90EDBCF34
:1072C00012F0FA0EDBCF13F01250105C135011586D
:1072D00029E2FB0EDB50746EFB0EDBCF10F0FC0ED0
:1072E000DBCF11F011C010F0116A1050756E7F6A7B
:1072F0007F800000FD0EDBCF10F0FE0EDBCF11F023
:10730000DE501024E96EDD501120EA6E73CFEFFFDE
:10731000FB0EDB2AFC0E01E3DB2ADF2A010E01E370
:10732000DB2AC8D7020EE15C02E2E16AE552E16EB7
:10733000E552E7CFD9FF120037D9E652010EE66ECB
:10734000E66AFD0EDBCFE6FFFE0EDBCFE6FFD9CF10
:10735000E6FFDACFE6FF83D9DF50E5522AD124D900
:10736000020EE126DE6ADD6ADECF10F0DDCF11F01D
:10737000F90EDBCF12F0FA0E6BD926E2FB0EDB50D2
:10738000746EFB0EFC0EDBCF11F011C010F011502B
:10739000756EFD0EDBCF10F0FE0EDBCF11F0DE5070
:1073A0001024E96EDD501120EA6EEF50736E040E6A
:1073B0007F6EBCD8FB0EDB2AFC0E01E3DB2ADF2A42
:1073C000010ED2E3DB2AD0D7020EE15C02E2E16AD1
:1073D000E552E16EEED0D9CFE6FFE1CFD9FF040050
:1073E000FD0EDBCF10F0FE0EDBCF11F0126A060EA1
:1073F0001F0B10C0F6FF11C0F7FF12C0F8FF06E028
:10740000D890F636F736F836E806FAE1940E7F6E35
:107410008DD8E552E7CFD9FF1200D9CFE6FFE1CFF3
:10742000D9FF020EE126F90EDBCFF6FFFA0EDBCF15
:10743000F7FFFB0EDBCFF8FFDE6ADD6ADECF10F070
:10744000DDCF11F0400E105C000E115814E2FD0E5D
:10745000DBCF10F0FE0EDBCF11F0DE501024E96E12
:10746000DD501120EA6EEF50F56E0D00DF2A010E9F
:1074700001E3DB2AE3D70A00A40E7F6E57D8020E81
:10748000E15C02E2E16AE552E16EE552E7CFD9FF45
:107490001200D9CFE6FFE1CFD9FF020EE126FB0EA5
:1074A000DB50F00809E0F90EDBCFF6FFFA0EDBCF78
:1074B000F7FFFB0EDBCFF8FFDE6ADD6ADECF10F0F0
:1074C000DDCF11F0F70EDBCF12F0F80EDBCF13F0AB
:1074D0001250105C135011581FE20900300EF85C76
:1074E00008E1050EF65C01E1F568080EF65C01E1C5
:1074F000F568FD0EDBCF10F0FE0EDBCF11F0DE5095
:107500001024E96EDD501120EA6EF5CFEFFFDF2A7F
:10751000010E01E3DB2AD2D7020EE15C02E2E16A4E
:10752000E552E16EE552E7CFD9FF1200D9CFE6FF71
:10753000E1CFD9FFE652F250800B01E0010EDF6E81
:10754000F29E550E7E6EAA0E7E6E7F82DF5001E0A7
:10755000F28E7FB2FED77F94E552E552E7CFD9FF96
:107560001200C4D87BEF3BF0E66EE66AE5DEE5523A
:10757000E552E66E000191D8E552E750EF6E120039
:1075800079D8EECFE6FFEECFE6FFEECFE6FFEFCF06
:10759000E6FF12006FD8EECF10F0EECF11F0EECF75
:1075A00012F0EFCF13F01200D9CFE6FFE1CFD9FFF1
:1075B0001200E552E7CFD9FF1200DB50DF6E060E56
:1075C000DB50E76E010EE7CFDBFF050EDB50E76E09
:1075D000020EE7CFDBFF040EDB50E76E030EE7CFB2
:1075E000DBFF1200EA6A000FE96E010EEA221200C8
:1075F000B6DE71EF3BF05CDCE55200091200800E54
:10760000E66E660EE66EE66AE66A080EE66EE66A04
:10761000E66AE66AC0EF38F0E66E3BDF106E080EF1
:10762000E15E10501200040EE66EE66A440EE66E4D
:10763000E66A12000C0EDB6ADE6ADE6ADE6ADD6A6A
:10764000DD52DD521200030EDBCFE6FF76EF3BF09A
:10765000DBCF13F01250105C13501158120022DED1
:1076600071EF3BF0E66ECBEC3DF0E552E552E552B2
:10767000E5521200D9CFE9FFDACFEAFF1200010E7E
:10768000E66EDFCFE6FF6DDFDBCFE6FF6ADF020EDF
:10769000DBCFE6FF66DF23EF3BF0ED51ED2BEA6A2F
:1076A000600FE96E000EEA221200E66EE66A4C0EEA
:1076B000E66EE66ADECFE6FFDDCFE6FFF8EF3AF0F2
:1076C000400EE66EE66A5CDF000EE66E010E0CEF21
:1076D0003BF0000EE66E010EE66E8ADF0001ED6BF8
:1076E000000C106E060EE15E1050120074EC3DF0BE
:1076F000E552E5521200010EE66E560EE66E7E0E63
:0C770000E66E000EAFDF010EE66E120018
:04770C0099D9040EF5
:10771000E126550EDE6EDE6ADE6ADD6ADD52DD527E
:10772000A786AC84DF50AF6E010EDB507D6EAC8A55
:10773000AC98AB8EAB880F015D6B5C6B95988398B2
:107740000001F569F6690001ED6B040EE15C02E2EF
:10775000E16AE552E16E79D173D9020EE126010E9C
:10776000DB6AABA207D0AB98E66EB7EC3FF0E55210
:10777000AB8804D0ABA404D0AE50DF6E000EADD009
:107780009EAAA9D0AE50DF6E9E9A0001EE510C0A5F
:1077900001E195D0070A01E18BD0010A01E183D014
:1077A000030A01E17CD0010A6DE00F0A44E0010AFE
:1077B0003CE0030A30E0010A25E0070A1CE0010A68
:1077C00010E0030A09E0010A01E084D0530EDF5CF7
:1077D00001E081D0EE2B7FD0540EDF5C24E1020E5D
:1077E00077D0DF500001C76FC86BCB51DF5C11E170
:1077F0000001030E6DD019D9CC51DF5C0AE1000104
:10780000040E66D012D9CD51DF5C03E10001050EF4
:107810005FD0000108D009D9CE51DF5C03E100013F
:10782000060E56D00001EE6B56D0FFD8DFCFC6F063
:107830000001070E4DD0F9D8DFCFC5F0460EC65D6A
:107840001FE1C551450A16E0130A14E0110A12E0BF
:10785000030A0CE0070A06E00D0A12E10001EF6BD3
:10786000060E0BD00001EF6B070E07D00001EF6B87
:10787000450E03D00001EF6B030EF06F080E28D009
:1078800000011BD0EF51EF2BEA6A000FE96E010EE9
:10789000EA22DFCFEFFFF051EF5D1DE30ED00D0EBA
:1078A000DF5C19E108D00A0EDF5C07E10B0E10D097
:1078B0000D0EDF5C02E10C0E0BD0090E09D00A0E92
:1078C000DF5C05E1EE6BDE52010EDD6E04D0090EC9
:1078D000EE6F01D0EE6B010EDB50106E020EE15C1C
:1078E00002E2E16AE552E16E1050AFD0A9D8ACA235
:1078F000FED7FE0EDB50AD6EFE0EDB50116AE85077
:107900000001C9271150CA23A0D09AD8030EE1263E
:10791000640EF36E020EF3CFDBFFDE6ADD6ADECFAC
:1079200010F0DDCF11F0FD0EDBCF12F0FE0EDBCF3D
:1079300013F01250105C135011580BE2020EDBCF03
:10794000E6FFD3EC3FF0E552DF2A010EE8E3DB2A45
:10795000E6D7030EE15C02E2E16AE552E16E75D022
:107960006FD8040EE126DF6A030EDB6ADB6A020EC3
:10797000F36E030EDBCFF4FFF350F45C4DE2AB98F3
:107980008388520E5AD8430E58D80001C96BCA6B6F
:10799000CBC0E6FF5ED8CCC0E6FF5BD8CDC0E6FF2B
:1079A00058D8CEC0E6FF55D8460E47D8C5C0E6FF2A
:1079B00050D8ECC0E6FF4DD80001ED51DF5C0AE283
:1079C000DF50DF2AEA6A600FE96E000EEA22EF500C
:1079D000E66EF1D7010EC9C0DBFF020ECAC0DBFFA5
:1079E000430E2BD8020EDBCFE6FF33D8010EDBCFE0
:1079F000E6FF2FD831D830D8ACA2FED78398AB8819
:107A0000450E0001C55D05E0020EF36E030EF3CFD7
:107A1000DBFF030EDB2AABD70001ED6B040EE15C4C
:107A200002E2E16AE552E16E10D0DF50116AE850DF
:107A30000001C7271150C8231200E66E29EF3DF060
:107A4000D9CFE6FFE1CFD9FF1200E552E7CFD9FF4A
:107A500012004CDFE55212000D0EEFDF0A0E1DEF93
:027A60003DF0F7
:0E7A620076D9FE0EDBCFEBF04CD171D9040EBD
:107A7000E126550EDE6EDE6ADE6ADD6ADD52DD521B
:107A8000B986BA84DF507B6E010EDB507C6EBA8AF9
:107A9000BA98A68EA688040EE15C02E2E16AE5527D
:107AA000E16E30D10001E751E91904E1E851EA192A
:107AB00001E11200BAA214D0E7C0E9FFE8C0EAFF72
:107AC000EF50796EE551E71908E1E651E81905E153
:107AD000E3C0E7F0E4C0E8F01200E72B000EE82373
:107AE0001200D9CFE6FF0ED133D9050EE126040EE0
:107AF000DB6A640E146E26D90750DBD812BE1368F9
:107B0000E3D813BE146808D902E3040EDB2A640E1E
:107B1000156E18D903C014F00A0E166E0C6E03C051
:107B200007F0C5EC3FF00750C4D812BE1368CCD89C
:107B300013BE1468F1D802E3040EDB2A0A0E146E99
:107B400001D90350B6D812BE13681ED9E552E750CA
:107B5000EF6E040EDB2AD9CF10F0DACF11F0DBCFB5
:107B600012F0136A12BE13680FD9EF6AFD0EDBCF55
:107B7000E6FFD9CFE6FFDACFE6FF5BD8E552E55264
:107B8000E552050EE15C02E2E16AE552E16EBAD02F
:107B9000D9CFE6FFB7D0DCD8030EE126D9CFE9FF75
:107BA000DACFEAFFFC0EDBCFEEFFFD0EDBCFEEFF00
:107BB000FE0EDBCFEEFFE1D802E1115033E0FB0E09
:107BC000DB5007E0B4D82EE0BAA2FCD78AD8796E91
:107BD000F9D7ADD827E085D899D8E551E91908E15A
:107BE000E651EA1905E1E3C0E9F0E4C0EAF003D0A8
:107BF000E92B000EEA23E751E919EBE1E851EA1914
:107C0000E8E1E351E91908E1E451EA1905E1E5C0C9
:107C1000E9F0E6C0EAF003D0E907000EEA5B230EC4
:107C200075D8D7D7030EE15C02E2E16AE552E16E56
:107C300069D08ED8A2D802E1115039E0FC0EDB5099
:107C40000AE08BD834E0BAA2FCD78FD801E3DB2A54
:107C5000EF50796EF6D781D82AE087D801E3DB2A86
:107C6000EF5054D8E551E91908E1E651EA1905E168
:107C7000E3C0E9F0E4C0EAF003D0E92B000EEA2308
:107C8000E751E919E8E1E851EA19E5E1E351E919B9
:107C900008E1E451EA1905E1E5C0E9F0E6C0EAF0DF
:107CA00003D0E907000EEA5B230E30D8D4D72AD0E0
:107CB0001200300FE66ED9CF10F0DACF11F0040EBB
:107CC000DBCF12F0136A12005FD8E552E750EF6E77
:107CD000D9CF11F0DACF12F0040EDBCF13F0146A13
:107CE0001200D9CFE9FFDACFEAFFEFCFF6FFEE2A95
:107CF000EFCFF7FF000EEE22EFCFF8FFEE220800E5
:107D0000F5501200E552E7CFD9FF1200E9C0E9FFB4
:107D1000EAC0EAFFEF6E120011501324E96E125010
:107D20001420EA6EEFCF10F0300E105C1200DFCF9F
:107D3000F6FF010EDBCFF7FF020EDBCFF8FF0800E6
:107D4000F55012000C6EFE0EDBCF07F0C5EF3FF0D2
:107D5000D9CFE6FFE1CFD9FF1200FD0EDBCFE9FF5F
:107D6000FE0EDBCFEAFFEF501200FD0EDBCFE9FF86
:107D7000DB2AFE0EDBCFEAFF12000001EB51106E92
:107D8000116AFF0E1018120010501224E96E1150E3
:067D90001320EA6E120050
:0A7D9600C00EF66E660EF76E000ECA
:107DA000F86E00010900F550D46F0900F550D56F49
:107DB00003E1D46701D03DD00900F550CF6F090031
:107DC000F550D06F0900F550D16F09000900F5504A
:107DD000E96E0900F550EA6E090009000900F55046
:107DE000D26F0900F550D36F09000900F6CFD6F025
:107DF000F7CFD7F0F8CFD8F0CFC0F6FFD0C0F7FF5D
:107E0000D1C0F8FF0001D25302E1D35307E00900CB
:107E1000F550EE6ED207F8E2D307F9D7D6C0F6FFD9
:107E2000D7C0F7FFD8C0F8FF0001D407000ED55B1C
:047E3000BFD71200A6
:0C7E34000A4373756D3A000A4573756DC2
:107E40003A00474F544F41505000560045004400FF
:107E5000480043004E002C00557064617465205347
:107E6000746174757300476F746F41707000537460
:107E70006F70005F73005F6E005F760054494D4580
:107E80004F5554000A4F70656E4D6F7469637320CF
:107E900032303137000A000A4120000A46575600A6
:107EA0002E000A424C56000A57445420000A424C05
:107EB00020494D0042000A44000A43000A42000AD9
:027EC00041007F
:0E7EC20004500902F3CF00F0F4CF01F00A02E1
:107ED000F3500126000EF420026E04500B02F35002
:107EE0000226000EF420036E04500C02F350032609
:107EF00005500902F3500126F4500222000E03221D
:107F000005500A02F3500226F450032205500B02DA
:107F1000F350032606500902F3500226F4500322C0
:107F200006500A02F350032607500902F3500326B5
:027F300012003D
:0E7F3200410EF36E00EE00F00E0E01D81200AC
:107F4000EA6002D0EE6AFCD7F350E9601200EE6AF4
:027F5000FCD75C
:0E7F52001DEE00F02DEE00F0F86A0F9CCBEC57
:0E7F60003EF0DEEC3FF0BBEC33F0FBD712003E
:027F6E00FF0E04
:107F7000E350176E1B0E00D001D0200EE76EE72EE7
:0A7F8000FED7172EFAD700D012002A
:067F8A00036A080EE76E19
:107F9000D890073603360C50035C02E3036E072AC1
:067FA000E72EF7D71200E6
:0A7FA600FF0EE350E84E1200000049
:0C7FB00000D000D000D0E82EFAD712005C
:027FBC001200B1
:027FBE00FEFFC4
:0A7FC00000000000000000000100B6
:057FCA000000000000B2
:017FCF00F7BA
:087FD00000F700F700F70001C3
:020000040030CA
:0100000015EA
:0100010012EC
:0100030026D6
:010008000FE8
:01000900C036
:00000001FF
